S00C0000564149302E7372656308
S31502000000C0000122F39F0102E99D010201A0010243
S3150200001001A0010201A0010201A0010201A0010248
S3150200002000000000000000000000000079630102E9
S3150200003001A001020000000091630102F9630102BE
S31502000040E36F0102F76E01026B700102BF700102DB
S3150200005023860102177D0102177D01029B670102B9
S31502000060F596010245770102CF780102E97901028C
S31102000070C97A0102A9930102B7910102AC
S3150200007C1000000000000000017A5200017C0E0103
S3150200008C1B0C0D001000000018000000A81D030038
S3110200009C10000000000000000000000040
S315020000A801010000006009000090000041200402DE
S315020000B8000000001800002203270400C8561C226C
S315020000C80330040030561C2204270400CC561C2296
S315020000D80430040034561C2205270400D4561C2278
S315020000E80530040038561C2206270400D8561C225E
S315020000F8063004003C561C2207270400D0561C2250
S315020001080730040040561C220000000000000000D0
S3150200011838581C220000000000000000700000226F
S31502000128000000000000000000000000100F0000A0
S31502000138002034400028344001010000000003007A
S31502000148795002027B500202815002028151020258
S3110200015879520202E52A04020CA51C22C0
S31502000180B0B502AF42F2D400C0F20B208568D0E9C6
S3150200019000412A682046904769682046884740F20F
S315020001A000100021C2F201200160B0BDB0B502AF5D
S315020001B042F2D400C0F20B20856804682046A96882
S315020001C0884740F200100021C2F201200160204659
S315020001D0E968884769682046BDE8B040084740F2AA
S315020001E00010C2F2012000687047081A4CF6CD4191
S315020001F0CCF6CC41A0FB0101C80870474FF47A71D6
S31502000200B1FBF0F07047007900B1704740F2001080
S31502000210C2F20120016801310160704701790429A7
S315020002200BD0022918BF704740F20410C2F2012017
S31502000230016841F0010101607047826840F2901046
S315020002400D2AC2F2012012D140F20C130268C2F248
S315020002500123002140F2081C995440F28C13C2F289
S31502000260012CC2F20123CCF800201960E3E70368EF
S3150200027040F20C1CC2F2012C7F2B53EAA3910CF81C
S315020002800320D8E7F0B503AF2DE9000F81B02DEDBD
S31502000290048B8CB0099018461C46B0EE408A9146F3
S315020002A00B9131F0CDFD002801460A905CD04FEA51
S315020002B009104FF0000900B2089042F20060DDF822
S315020002C024A0C0F20320002500F1100B079414F8B5
S315020002D009004522594611F8103C834204D0013ADE
S315020002E001F55671F7D13AE051E903480120CDE90B
S315020002F0008050462246234603F09EFD00EE104A39
S315020003000B9EB8EE400A01EE108AB8EE411A20EEB4
S31502000310089A21EE080A21B23401BCEEC91ABCEED3
S31502000320C00A11EE100A10EE103A00010FFA88F216
S3150200033000B21B01CDE9005008981BB204900C20B4
S3150200034024B2CDE90234002305905046079C03F0FF
S31502000350A5FDBDEEC90A10EE100A06440B960A98D0
S3150200036009F101098145B2D10CB0BDEC048B01B093
S31502000370BDE8000FF0BDB0B502AF82B0002005F0B7
S31502000380D7FE45F6C8050021C2F21C25286005F0F5
S3150200039037FF40F200012868C6F600014FF480627A
S315020003A04FF480634FF0010C4FF49664CDE9004C94
S315020003B009F04CFF2868002109F0BEFA28680221DC
S315020003C0032204F003FE2868012104F0E0FD2868F8
S315020003D0FF2104F0C1FD2868012104F034FE2868DB
S315020003E0002104F050FE2868002104F05CFE002083
S315020003F002B0B0BDD0B502AF45F6A00440F2066128
S31502000400C2F21C240022204616F0ADFE0A2001216B
S3150200041019F0A8FC40F206610122204616F0A3FE5E
S3150200042078204FF47A7119F09DFC45F6240041F6C6
S315020004304C71C2F21C20C0F20B2118F0F1F930B156
S3150200044000204FF6FF71012216F08DFE00BE052038
S315020004504FF47A7119F086FC45F62400C2F21C208C
S3150200046018F043FC30B100204FF6FF71012216F05E
S315020004707AFE00BEC8204FF47A7119F073FC45F675
S31502000480240040F20001C2F21C20C6F6000100223E
S3150200049018F065FC45F6A00040F20E51C2F21C208F
S315020004A0012216F060FE0020D0BD80B56F4640F2F4
S315020004B000004FF41611C6F6000031F08AFC80BD2A
S315020004C0B0B502AF82B040F200010446C2F200218A
S315020004D000200190097811B102F0A4FF01E002F0B8
S315020004E0BCFF207880072ED040F29415C2F2012577
S315020004F02C68FFF774FE01462046FFF776FE45F2AA
S31502000500C861C2F21C218860FFF769FE45F6C40184
S315020005102860C2F21C214AF62320C0F2012001AB58
S3150200052009684FF480621CF0C5F960B1019850B1B8
S315020005304EF604504FF08051CEF200000160BFF338
S315020005404F8FBFF36F8F40F29810C2F201200178ED
S31502000550772901D80131017002B0B0BDD0B502AF22
S3150200056040F20004C2F20024207800285FEA1F90BD
S31502000570207002D002F07AFF01E002F05CFF2078E0
S3150200058040F20001C6F600014FF4961200FB02117A
S3150200059041F6D470C0F20B2000220068BDE8D040BC
S315020005A018F0DDBBD0B502AF82B045F6C804C2F280
S315020005B01C24206808F026FD40F2000040F20001EB
S315020005C0C2F20020C6F600014FF496124FF4806381
S315020005D000784FF0010C00FB021120684FF4806294
S315020005E04FF41674CDE9004C09F030FE02B0D0BDCE
S315020005F080B56F4645F6C800C2F21C20006808F0B6
S3150200060018FDBDE88040FFF7A9BFF0B503AF2DE99D
S31502000610000F81B02DED048B8AB045F6C4048046E6
S31502000620C2F21C2400214FF0000920681AF0BAF920
S31502000630000400F1F68120684FF480610022012354
S31502000640012400941AF0F6F8FFF7ACFF45F6C80A43
S3150200065040F21835C2F21C2AC2F201254FF420726A
S315020006604FF42073DAF8000029464FF4F076CDE90C
S31502000670006403F0E1FBDAF800004FF420724FF455
S3150200068020732946CDE9006403F0D6FB4FF41651D8
S315020006904FF44852DAF80000CDE900924FF4F072B6
S315020006A00023CDE902194FF42071CDF810900C26E3
S315020006B0059603F0F3FB40F29A15C2F2012528785B
S315020006C0012861D841F21173B7EE048ADAF8000004
S315020006D0C0F204234FF44D713222B0EE480AFFF7FE
S315020006E0D1FD44F2CB03DAF80000C0F204234FF442
S315020006F04D715A22B0EE480AFFF7C4FD41F27B5310
S31502000700DAF80000C0F204234FF44D717822B0EEFD
S31502000710480AFFF7B7FD42F62933DAF80000C0F2BD
S3150200072004234FF44D71C822B0EE480AFFF7AAFD22
S3150200073043F6FB23DAF80000C0F204234FF44D71AE
S31502000740E622B0EE480AFFF79DFD45F60E63DAF89B
S315020007500000C0F204234FF44D714FF4AF72B0EEB5
S31502000760480AFFF78FFD41F6D223DAF80000C0F2FD
S3150200077004234FF44D714FF4BE72B0EE480AFFF7F0
S3150200078081FD28780130287040F29919B8F1000FDE
S31502000790C2F2012900F097804CF2005040F2142A6E
S315020007A0C2F21B2040F2EC1B40F2C41440F29C1829
S315020007B00025061DC2F2012AC2F2012BC2F2012451
S315020007C0B0EE048AC2F20128B7EE049A89F8005004
S315020007D036F8041C002969D036F8020C002865D0C8
S315020007E009B200EE101AB8EEC00A00B201EE100A03
S315020007F0B6F9000020EE080A02EE100AB6F9020067
S31502000800B8EEC22ABDEEC00A22EE082A03EE100A8C
S31502000810B8EEC11AB8EEC33A10EE100A21EE081A63
S31502000820BDEEC20A503023EE082A03EE100AB8EED5
S31502000830C33ABDEEC11A10EE101ABDEEC20A23EE7D
S31502000840093A0844B8EEC14A11EE101A10EE102AFF
S3150200085001EE100A24EE094A5018BDEEC32AB8EE7C
S31502000860C11A03EE100A99F80000B8EEC33A21EE57
S31502000870091A0130BDEEC40A89F8000023EE093ACE
S3150200088010EE102ABDEEC10A2280BDEEC31A10EE8A
S31502000890100AABF8000011EE100A12EE101AAAF8AE
S315020008A00000E8B2A8F8001000F0C2F801350836D8
S315020008B00AF1020A0BF1020B142D04F1020408F1EB
S315020008C0020885D111E04CF200500025C2F21B202D
S315020008D0841C34F8020C20B1208810B1E8B200F072
S315020008E0A7F801350834142DF3D145F2C86045F650
S315020008F0C80AC2F21C20C2F21C2A45F61563B7EEDC
S31502000900048A0469DAF80000C0F204234FF44D7138
S315020009104FF48C72B0EE480AFFF7B4FC45F6483342
S31502000920DAF80000C0F204234FF44D714FF4D77287
S31502000930B0EE480AFFF7A6FC48F21F5049F69A1293
S31502000940C5F2EB10C1F69912A4FB000144F6D35589
S31502000950C1F262054FF0300849094FF0303CA1FB65
S315020009600236CDF820C04CF6CD4346F6205CCCF6D6
S31502000970CC43C0F2730CA4FB0330CDF824C0A4FB15
S315020009800535B0EE480AC00806EB8603A0FB022630
S3150200099008EB95128DF82020A1EB430106EB8602A7
S315020009A041F0300100EB80038DF82110A0EB4200EC
S315020009B04FF48C7240F03000A4EB43018DF8220014
S315020009C041F030008DF82300DAF8000008AB4FF44E
S315020009D04D71FFF757FC99F80000CD2243F2300320
S315020009E0ADF81C30C1B2002351438DF81E3007AB5F
S315020009F0B0EE480ACA0A08EBD1218DF81C1002EBA8
S31502000A0082024FF44D71A0EB42004FF4D77240F0D0
S31502000A1030008DF81D00DAF80000FFF733FCFFF70F
S31502000A20E7FD0AB0BDEC048B01B0BDE8000FF0BDD6
S31502000A30F0B503AF2DE9000F83B045F6C8060446AC
S31502000A40C2F21C2600214FF47F024FF000093068E3
S31502000A5004F06FFA40F29C1040F2C41A40F2EC1510
S31502000A60C2F20120C2F2012AC2F2012530F81410A4
S31502000A7030683AF8142035F8143009014FF0200B8B
S31502000A8012011B0112B2009209B2CDE901B91BB2E1
S31502000A9008F05CFF40F2142835F81410C2F201285F
S31502000AA03AF814200901306838F81430120109B2F4
S31502000AB0CDE901B91B0112B21BB200930B4608F035
S31502000AC045FF40F29C1035F81410C2F2012038F8A6
S31502000AD014200901CDE901B930F814301201306849
S31502000AE012B21B0109B21BB2009208F02FFF40F2AC
S31502000AF09C103AF81430C2F2012038F814201B0177
S31502000B00CDE901B930F8141012011BB2306809019F
S31502000B1012B209B200930B4608F018FF03B0BDE803
S31502000B20000FF0BD40B140F23C21C2F20121086043
S31502000B3004218160002070474FF0FF307047B0B546
S31502000B4002AF044631F07CF940F23C210546C2F27E
S31502000B500121002220460968CB6829469847284683
S31502000B60B0BDF0B503AF4DF804BD40F248240026EF
S31502000B70C2F20124054640212664606C20F0010081
S31502000B806064204631F025F940F2D0202946C2F2AF
S31502000B90012000220260026844F82250226C0132CF
S31502000BA022640A781F2A03DC32B30A2A04D120E01F
S31502000BB0222A0AD0202A01D00131F2E70E7011F85A
S31502000BC0012F0D46202AF9D006E0626C636C62F3AF
S31502000BD0000383F001026264626CD207E1D102680B
S31502000BE0013A02600A78002A3ED0226C102AD1D13C
S31502000BF02CE00020087005E0616CC907016823D16A
S31502000C0002310160256C681C2AD00DB9002527E047
S31502000C10216840F24024C2F20124082220462FF025
S31502000C2060FB40F23C200025C2F201200068866982
S31502000C3056F80C0B214631F0BDF850B156F80C0BA4
S31502000C40013518B12FF00BC0053101604FF0FF35A9
S31502000C5006E040F2482056F8081CC2F201208847F6
S31502000C6028465DF804BBF0BD01680131C9E7F0B55D
S31502000C7003AF2DE900074568A878E8B340F290244F
S31502000C8041F28359C2F2012440F23C2A42F6333839
S31502000C90C0F20429C2F2012AC0F2042804F11006A5
S31502000CA02A786B78204649462FF0D4FB204631F04D
S31502000CB0C7F8DAF8002001462046D3680022984792
S31502000CC0E878A0B9AA78204641462FF0C3FB6868A7
S31502000CD02146026830462FF0BDFB304631F0B0F8AF
S31502000CE0DAF8002001463046D36800229847A87AEF
S31502000CF0083508B12FF02DC00020BDE80007F0BD71
S31502000D00F0B503AF2DE9000F81B01446926888460C
S31502000D108246D4E90001994612689047A16840F2DA
S31502000D20D423834620688D6940F68951C0F200219A
S31502000D30C2F2012300220026A84750EA0B001ED168
S31502000D4040F2E4260822C2F20126514630462FF02E
S31502000D50C8FA40F20C3006F10C02C2F2012040F64B
S31502000D60F151C0F20021C6F81880046040F6A35083
S31502000D70C0F2002082E803023046FFF7D3FE304677
S31502000D8001B0BDE8000FF0BD0079022818BF704718
S31502000D9040F2E420C2F20120816821F00101816063
S31502000DA07047F0B503AF4DF8048D40F2E4260C46C9
S31502000DB0C2F20126904601462246B36823F0020398
S31502000DC0B360B36843F00103B36040F20C33C2F27E
S31502000DD001231B689D681868AB689847B8F1000F35
S31502000DE002D1B068C007FCD120465DF8048BF0BD85
S31502000DF00020704780B56F464068FFF7A0FE0020CE
S31502000E0080BD0020704730B140F21031C2F201219C
S31502000E100860002070474FF0FF30704740F2010132
S31502000E200079C2F2002108707047D0B502AF82B0D5
S31502000E30020A07F80A0C45F2707007F80B2C07F83D
S31502000E40091CC2F21C20A7F10B0103220023002475
S31502000E5016F0C4FA10B1012002B0D0BD40F2010171
S31502000E604FF6FF70C2F200210C7001380204F2D074
S31502000E700A780AB92FF007C8087800220A700128F2
S31502000E805FEA1F90E8E7F0B503AF2DE9000B82B0E9
S31502000E908846010A07F8190C45F2707007F81A1C01
S31502000EA0C2F21C20A7F11A0102220123012516F023
S31502000EB095FAB8B940F201060020C2F200264FF6B2
S31502000EC0FF7430704FF6FF700138010409D0317893
S31502000ED009B92FF007C8307801284FF000003070AA
S31502000EE005D10125284602B0BDE8000BF0BD45F24A
S31502000EF070700122C2F21C200023414601254FF0E8
S31502000F00000916F065FA0028ECD186F80090013C3B
S31502000F102004E6D0307808B92FF007C830780128C7
S31502000F205FEA1F9500203070DCE7B0B502AF82B0F1
S31502000F3045F6A00504460020C2F21C2507F8090C56
S31502000F4007F80A0C40F209710022284616F00BF93E
S31502000F5064201AF078FD40F209710122284616F043
S31502000F6002F945F2507541F6E861C2F21C25C0F25B
S31502000F700B21284616F016FF284617F06CF90A20B0
S31502000F801AF061FD45F27070A7F10B01C2F21C2046
S31502000F9016F02FFA17F80B0C00284DD045F2707098
S31502000FA03C21C2F21C200122012516F01DFAA7F1EE
S31502000FB0090143F20A00FFF766FFA7F10A0143F2AD
S31502000FC00B00FFF760FF17F80A0CA0F140010A2098
S31502000FD00C293ED841F2030205FA01F1114238D03A
S31502000FE046F69C40C0F2042000F035F843F2350084
S31502000FF01221FFF71AFF43F236008C21FFF715FF85
S3150200100043F237001321FFF710FF43F208100121C4
S31502001010FFF70BFF2CB147F20810C0F2042000F0D4
S315020010201AF845F6CC0042F24401C2F21C20C0F284
S315020010300B2118F023FA0CE045F2707041F610719C
S31502001040C2F21C20C0F20B2116F078F90028A5D0B6
S31502001050642002B0B0BDF0B503AF4DF804BD841CE8
S315020010604AF6AA254FF6FF7634F8020CA84205D0B6
S31502001070B04208D02178FFF7D8FE02E020781AF0B5
S31502001080E2FC0434F0E75DF804BBF0BD80B56F46C0
S3150200109040F218304FF41621C2F2012030F099FEC8
S315020010A080BD80B56F4682B045F6CC0046F28031EF
S315020010B0C2F21C20C2F20A2118F0EDFA08B1019020
S315020010C0019802B080BD40F204014CF2803CC2F2AB
S315020010D00021C2F2132C0A68012A20DB80B56F4672
S315020010E0DCF8003003F01F001044B0F1200258BFB4
S315020010F00022D24310440122BFF34F8F02EB501E4F
S315020011004EF65C72CEF20002136020330FF005C079
S31502001110BFF34F8FBFF36F8F0A68BDE8804040F27E
S315020011201830DCF80010C2F2012030F060BEF0B5D3
S3150200113003AF4DF804BD82B04CF288310446C2F2C8
S3150200114013210068012808604CF28431C2F213218F
S315020011504FF000000A6802F101020A60019034D1E0
S315020011604CF28C36C2F213263568FFF738F8014680
S315020011702846FFF73AF845F2C861C2F21C21086018
S31502001180FFF72DF84CF2803145F6C402C2F2132164
S315020011903060E068C2F21C2208604AF62320116819
S315020011A0C0F2012001AB4FF480521BF083FB60B109
S315020011B0019850B14EF604504FF08051CEF2000025
S315020011C00160BFF34F8FBFF36F8F02B05DF804BBB0
S315020011D0F0BD00284FF0050C47D0002945D09A42B1
S315020011E002D24FF0030C40E0F0B503AF2DE9000F39
S315020011F081B0D7F80CC0BCF1000F2FD0D61AD7F8A1
S3150200120008B04FF000094FF07E0A06EBD67626F0BC
S315020012100105284400904BF01DC809FB03F0009C11
S31502001220B0FBFCF0504304EB40000024B4FBFBF59A
S315020012301C4430F81550C5F3C4260AEA151805F001
S315020012401F05454405EB460585F0800501F8015B5F
S315020012500FF015C009F10109E145DCD14FF0000C90
S3150200126001B0BDE8000FBDE8F04060467047F0B53A
S3150200127003AF2DE9000F89B0044647F21010C0F201
S315020012800420D7F808E0083084E80F400020A06266
S31502001290C4E908004B680D6907958969D3E90035E9
S315020012A006915168DEE9000608905B68F017029322
S315020012B06B680193D1E9001306EBD06C156906EB56
S315020012C0107003954D6859684FEA201838204FEA86
S315020012D06C1B926904920091DEF81C100591DEE9FE
S315020012E0039AB4F0F2FB0799C16002990161019970
S315020012F041610699C0E9061803214160C0E9081A4E
S315020013000399089AC0F800B0C0E90A15009901636A
S3150200131004994163B968C0F80890096AA261059AFE
S31502001320C4E9072038306661C4E909002046E16253
S3150200133009B0BDE8000FF0BDF0B503AF2DE9000F0F
S3150200134081B02DED068B8CB00446006900210B910D
S31502001350856804F1140190ED050A20462A462B46BB
S315020013600BAE009600F0A4F82069E16990ED060A3A
S31502001370304601F027FB0B9E002E00F08F8000EE18
S31502001380105A0194B8EEC08AE069B6EE009A9FED53
S3150200139047AADDF804A0012871DB96ED040A96ED52
S315020013A0021A20EE090A96ED033A4FF000084FF0B2
S315020013B0000931EE002A31EE400A23EE091A96EDB3
S315020013C0013AB4EE482AF1EE10FA33EE014AB5EECE
S315020013D0400A38FE022AF1EE10FAB4EE484A48BF35
S315020013E0B0EE4A0AF1EE10FA33EE411A32EE402A14
S315020013F038FE043AB5EE401AF1EE10FA48BFB0EEE6
S315020014004A1A33EE413ABDEEC11ABDEEC33ABDEEFB
S31502001410C22ABDEEC00A11EE101A13EE105A03913B
S3150200142012EE104A10EE101A02917169414491EDC2
S31502001430000AB5EE400AF1EE10FA1ADD0DF1100BB4
S315020014401821584630F0C5FC70695946404490ED63
S31502001450000A039806900298CDE90705DAF80C000F
S31502001460B7EEC00A09948DED040B00F046FADAF8DD
S315020014701C0009F1010908F104088145D5DB36682B
S315020014800EB12FF079C00B9941B10BAC20460D6815
S3150200149000F026FB29460DB12FF009C001200CB041
S315020014A0BDEC068B01B0BDE8000FF0BD00000000E8
S315020014B0F0B503AF2DE9000F81B02DED108B96B07C
S315020014C08846D1E90301814200F00B82B0EE408AE0
S315020014D00EAE00EE102AD8F808B0B8EEC0BA103632
S315020014E000EE103A0BF10505B8EEC0CA07969FED5D
S315020014F0E3DA002600240895C4EBC40A50F82A2031
S31502001500012AC0F2E38100EB8A0100EE102AB8EE4E
S31502001510C0EA0023496804911146CDF830A0CDE90E
S3150200152001240129C0F2CC8100EE103A03FB02F13C
S31502001530B8EEC0FA03930023059100EB8A010693E5
S3150200154049680129C0F2B081059900EE103A1944A2
S31502001550049AF8EEC08A51434FF000090A9100EB53
S315020015608A000A9909EB0104C16890ED051A04FB89
S315020015700511B8EEC11A91F9041000EE101AB8EE70
S31502001580C00A30EE410A90ED041A21EE000A01F07B
S3150200159026FFB4EE480AF1EE10FA40F37B81D8F842
S315020015A00C00654300EB8A000021129113911491FD
S315020015B08DED150AC168B0EE409A90ED051A4957AD
S315020015C0B8EEC11A00EE101AB8EEC00A30EE410AA1
S315020015D090ED041A21EE000A8DED0E0AC16890ED17
S315020015E0052A2944B8EEC22A91F9011001EE101A11
S315020015F0B8EEC11A31EE421A90ED042A22EE011A11
S315020016008DED0F1AC16890ED052A2944B8EEC22A5B
S3150200161091F9021001EE101AB8EEC11A31EE421A11
S3150200162090ED042A22EE011A8DED101AC16890ED92
S31502001630052A2944B8EEC22A91F9031001EE101ABE
S31502001640B8EEC11A31EE421A90ED042A22EE011AC0
S315020016508DED111A01F0C3FEB0EE40AA9DED0F0A00
S3150200166001F0BDFE30EE0F0A3AEE281A80EE0E0A9F
S315020016708DED0F0A9DED100A81EE0E1A8DED0E1AF2
S3150200168030F0A6FAD8F80C0000EB8A00806800EB6E
S31502001690C90090ED001A20EE010A98ED001AB8EE84
S315020016A0C11A80EE010A8DED100A9DED110A30F085
S315020016B08FFAD8F80C00BBF1010F00EB8A000B96EB
S315020016C0806800EBC90090ED011A20EE010A98ED40
S315020016D0011AB8EEC11A80EE010A8DED110AC0F2A6
S315020016E08180CDF824904FF000090D95D8F80C00B2
S315020016F000EB8A00C16890ED051A2944B8EEC11ABA
S31502001700494491F9051000EE101AB8EEC00A30EEFF
S31502001710410A90ED041A21EE000A01F060FE29EE5C
S31502001720000ADDE91360B4EE480AF1EE10FA30FE63
S315020017300DAA864203D286ED00AA341D47E0129C0A
S31502001740DA46C346A6EB0408012101EBA805B5F16A
S31502001750804F80F0CD80001B4FF6FC71C7F6FF71FB
S31502001760B5EB600F38BF4510884228BF6FF0404581
S315020017703DB1B5F1804F80F0BE80A800B4F0A5F966
S3150200178000E000204FEAA801A64200EB810181EDAC
S3150200179000AA0DD0A8F10402012303EB920E0A4619
S315020017A056F8043D42F8043D0FF007C0129E00E0D1
S315020017B00A46D8460C1DD34600EB85001292CDE9A7
S315020017C0134016B1304623F09AFCDDE90CA509F167
S315020017D001091394D9457FF489AF9DED110A0B9E39
S315020017E0DDF824909DED0E1A9DED103A21EE0B1AAE
S315020017F0D8F818009DED0F2A8DED0E1A23EE0B1A5E
S3150200180086428DED101A22EE0C1A20EE0C0A8DED90
S315020018100F1A8DED110AA8BF012819DAD7F808A008
S315020018202420DAF80040B4F050F90EA9064640F832
S31502001830044B91E83C003CC006F11400079900F005
S315020018409EF915983062CAF80060DDE90B6A12E06B
S31502001850864215D1B8680021006828B1024612688E
S3150200186001310AB12FF005C800F0C4F9B9680EAA11
S31502001870086000F0C5F8013606E000BF000000006F
S31502001880B9680EAA00F0BCF8129810B1139023F0B2
S3150200189036FC089DD8F80C0009F1010900EB8A0113
S315020018A049688945FFF65BAE50F82A10069B01335C
S315020018B08B42FFF642AE50F82A10039BDDE9012463
S315020018C001338B42FFF62DAED8F810100A1A46F6EF
S315020018D0B7539210CBF2DB635A4301349442FFF4BE
S315020018E00BAE16B0BDEC108B01B0BDE8000FF0BD1B
S315020018F0079800F077F900F009F9F0B503AF2DE982
S31502001900000F85B0034681468A4653F8080F53F8FE
S3150200191004CC844506D260469AE87E007EC00CF16D
S31502001920180A64E0D9F800104AF6AB28ACEB0102BB
S31502001930CAF6AA28D2104AF6AA2C02FB08F2C0F668
S31502001940AA2C561C664558D8401A45F25551C01065
S31502001950C0F2555100FB08F0B6EB400F38BF460007
S31502001960884256EA3C81684600F0D8F8DDF808C09D
S3150200197060469AE87E007EC0D9E900EB0CF1180AAF
S31502001980019EF34511D0ABF1180B183EDC463246E8
S31502001990F3459CE83B0182E83B01F4D14AF6AB28C9
S315020019A0D9E9000BCAF6AA2800E058468345C9F8C9
S315020019B000600190C9F804A0CDF808B0D9F8081063
S315020019C0039AC9F80820039100900DD0ABEB0001F1
S315020019D01839A1FB08231A0902EB4202A1EBC20243
S315020019E0511A59441839029108B123F088FBC9F8F3
S315020019F004A005B0BDE8000FF0BD484600F0B7F8F8
S31502001A00F0B503AF2DE9000B08688946904658B138
S31502001A1098ED070A90ED081AB4EE401AF1EE10FAA4
S31502001A2005DD002501460EE0002500210BE00146FA
S31502001A300D4609680029F8D091ED081AB4EE401A4D
S31502001A40F1EE10FAF4DD814222D024202C68B4F0A3
S31502001A503CF84146046000F1040C064691E81D007C
S31502001A608CE81D0006F1140008F1100100F087F859
S31502001A70D8F81C0030622E60D9F800100868C9F840
S31502001A8000004846BDE8000BBDE8F04000F028B86B
S31502001A90BDE8000BF0BDD0B502AF0446006A47F2BE
S31502001AA01011C0F2042101F10801216010B1606237
S31502001AB023F025FB2046D0BDD0B502AF0446006A0E
S31502001AC047F21011C0F2042101F10801216010B1A0
S31502001AD0606223F014FB2046BDE8D04023F00FBB22
S31502001AE0D0B502AF48690C4610B1A06123F007FBDE
S31502001AF02046BDE8D04023F002BB80B56F460146C2
S31502001B0042F23770C0F204202EF0FDFA80B56F461D
S31502001B1046F65B00C0F204202EF0F5FAF0B503AFEC
S31502001B204DF804BD044616460D464FF00000C4E9C2
S31502001B30030351B14AF6AB20C0F6AA20854214D25D
S31502001B4005EB4500C000B3F0C0FF06EB460105EB0E
S31502001B50450200EBC101C4E9000100EBC2022046C6
S31502001B60C4E902125DF804BBF0BDFFF7CFFF80B5F2
S31502001B706F4645F2E400C0F20420FFF7BEFFF0B55F
S31502001B8003AF4DF8048D04460020C4E90000A060AE
S31502001B90D1E90050A8420ED0461B2046B11000F0F3
S31502001BA00EF8D4F8048029464046324630F029F928
S31502001BB008EB0600606020465DF8048BF0BDB0B508
S31502001BC002AFB1F1804F044609D288000D46B3F048
S31502001BD07CFF00EB8501C4E90000A160B0BD204690
S31502001BE000F000F880B56F4645F2E400C0F204202A
S31502001BF0FFF783FF0229024601D210467047F0B56D
S31502001C0003AF4DF804BD0DD1106892ED081A90EDA0
S31502001C10080AB4EE410AF1EE10FA3BD50260002141
S31502001C20116067E001EBD1700B4604294FEA6001AF
S31502001C30A3EB6004104609DB481E012828BF0120D9
S31502001C40A1EB000E104600680FF003C806680023D9
S31502001C5003601046FFF7CEFF054630462146FFF7E2
S31502001C60C9FF002D46D0B8B190ED081A95ED080AC5
S31502001C70B4EE401AF1EE10FA10D501460A4609688A
S31502001C8031B191ED081AB4EE401AF1EE10FAF5D41C
S31502001C90156005E010462DE028462BE00146284651
S31502001CA000295FEA0F9322D02A6802B391ED081A3F
S31502001CB092ED080AB4EE401A1446F1EE10FA0DD56A
S31502001CC00B461A461B6833B193ED081AB4EE401A56
S31502001CD0F1EE10FAF5D42960116814602268002921
S31502001CE05FEA0F9322B1254611B12FF021C82C4687
S31502001CF003B121605DF804BBF0BD47F2241C0272F9
S31502001D00C0F2042C43720CF1080CC0E900C1704702
S31502001D10F0B503AF4DF804BD0D461646044689B923
S31502001D2042F63930C0F2042001F0D7FD45F65030B4
S31502001D30C0F2042001F0D1FD43F2C270C0F20420C9
S31502001D4001F0CBFD217A60680029016904D082691D
S31502001D50284600F0A7FE04E008462946324630F03F
S31502001D6046F8607A20B161680869896900F089FEDF
S31502001D7001205DF804BBF0BD704723F0C0B900F046
S31502001D807ABFF0B503AF4DF8048D82B04CF2F44839
S31502001D900024C2F2132898F8000080BB47F2841090
S31502001DA0C0F20420056801F02AFB064601F02CFB6E
S31502001DB04CF290324CF20051C2F21322C2F21321BB
S31502001DC0CDE9000410462A46334600F086FF18B1D4
S31502001DD0012088F8000012E042F63930C0F20420F1
S31502001DE001F07BFD42F2B930C0F2042001F075FD2C
S31502001DF043F2C270C0F2042001F06FFD01242046B6
S31502001E0002B05DF8048BF0BDB0B502AF86B003AC8C
S31502001E100021201D0591CDE9030145F28A316D4667
S31502001E20C0F20421284600F05DF84CF290322046BA
S31502001E30C2F21322294600F013F89DF90B00B0F105
S31502001E40FF3F02DC009823F05AF903AC204600F06B
S31502001E50ABFA0546204600F076F8284606B0B0BD35
S31502001E60F0B503AF4DF8048D86B090460C46054694
S31502001E7000F001F9291D814214D0A7F11D0147F294
S31502001E80541303AAC0F2042304A8CDE9002129466B
S31502001E902246039400F03DF90498C06910B1016826
S31502001EA0496888470820B3F010FE064647F25810E4
S31502001EB0C0F20420A7F11D01083047F2541303AA09
S31502001EC0C6E90008C0F2042304A8CDE90021294688
S31502001ED02246039400F01DF90498C66106B05DF827
S31502001EE0048BF0BDF0B503AF2DE9000B054608469D
S31502001EF088462FF0A5FF4FF6F871C7F6FF718842A4
S31502001F001ED206460B2803D22C46EE726EB911E09B
S31502001F1046F0070000F101094846B3F0D6FD044633
S31502001F2049F00040C5E90046A860204641463246CF
S31502001F302FF067FF0020A0552846BDE8000BF0BD34
S31502001F40284600F090F8F0B503AF4DF804BD0546FB
S31502001F50044655F8046BAE4213D0F06910B101681D
S31502001F6049688847716821B10846096831B12FF07E
S31502001F7005C8B0680168B1420646FAD1A8420646CB
S31502001F80EBD16168204600F054F80020C4E9005005
S31502001F90A0600021204600F04CF820465DF804BB04
S31502001FA0F0BD20290AD0D0F8E4203AB118300368EF
S31502001FB08B4205D0013A00F11C00F8D1002070478F
S31502001FC014387047F0B503AF4DF804BDD0F8E450AD
S31502001FD07DB10C4600F11C0656F8040C202804D1EB
S31502001FE0306821462FF0E6FE28B1013D06F11C06B7
S31502001FF0F2D1002001E0A6F118005DF804BBF0BDA5
S3150200200080B56F46D0F82821082A0ED84AB100F5C5
S31502002010847050F8203C8B4205D0013A00F104004E
S31502002020F7D1002080BD006880BD2EF093F870477E
S315020020307047B9B1B0B502AF0C4609680546FFF75D
S31502002040F8FF61682846FFF7F4FF94F91B00B0F128
S31502002050FF3F02DC206923F052F82046BDE8B0407B
S3150200206023F04DB8704780B56F4645F27A70C0F2DC
S315020020700420FFF742FDF0B503AF2DE9000B8046C1
S3150200208058F8045FF5B1894600F10806444605F1A1
S31502002090100130464A4600F019F80028284618BFB3
S315020020A0043054EA158405680DB12FF011C0444579
S315020020B008D004F110023046494600F007F800281D
S315020020C058EA14884046BDE8000BF0BDB0B502AF31
S315020020D092F90B0091F90B30D2E900C400285CEAB0
S315020020E0428C58BFC4B2D1E90005002B58BFDDB2FD
S315020020F050EA4180AC4254EA358261462EF0D0F86D
S31502002100A5425FEA2F9100285FEA5F9051EA0080BC
S31502002110B0BDF0B503AF4DF8048D86B00D4604464A
S3150200212005A92846984600F01BF80646006808B13D
S3150200213000210FE0D7E9023102A800912946424662
S3150200214000F03BF80599029B2846324600F057F804
S31502002150029801212060217106B05DF8048BF0BD62
S31502002160F0B503AF2DE900070546884655F8043F4A
S31502002170E3B1914600F1080A03F1100650464946BA
S3150200218032461C46FFF7A2FF20B12368254673B1EB
S315020021902FF00FC0504631464A46FFF797FF30B13F
S315020021A0254655F8043F13B12FF01BC02C46C8F83C
S315020021B000402846BDE80007F0BDF0B503AF4DF874
S315020021C004BD044620201D460E1DB3F07EFC296880
S315020021D005461030C4E9005691F90B20002A03D4B3
S315020021E091E84C004CC003E0D1E900122DF0EAFE62
S315020021F00020E861012020725DF804BBF0BDD0B575
S3150200220002AF0024C3E900449960136004460068E3
S31502002210006808B1206013686068194600F004F887
S31502002220A0680130A060D0BD81425FEA1F920A73A6
S3150200223008BF7047D0B502AF4FF0010C8B681A7B0E
S31502002240002A40F08380D3F808E0DEF800209A42A4
S3150200225004D0AAB112F80C4F34B111E0DEF8042012
S315020022609AB112F80C4F84B986455FEA1F9183F83A
S315020022700CC08EF80C10714682F800C0DED165E003
S315020022801868884219D019462AE01868884241D04F
S3150200229058680168596011B18B60D3F808E071463D
S315020022A0C0F808E051F8042B9A425EEA0181086000
S315020022B003609860D0F808E02DE04868186010B115
S315020022C08360D3F808E07046C1F808E050F8042BA2
S315020022D09A425EEA008001604B609960D1F808E09C
S315020022E001200873DEF8040000218EF80C10016844
S315020022F0CEF8041009B1C1F808E0DEF808108160D2
S315020023000A4652F8043B734551EA02810860C0F856
S3150200231000E019E0184601210173DEF800000021F1
S315020023208EF80C104168CEF8001009B1C1F808E029
S31502002330DEF8081081600A4652F8043B734551EAFA
S3150200234002810860C0F804E0CEF80800BDE8D0407B
S315020023507047704722F0D3BED0B502AF4CF290342C
S31502002360C2F21324204600F0A2FC47F2681047F29C
S315020023703811C0F20420C0F204210830206001F1B5
S315020023800800A063002141F67F504AF29062C0F233
S315020023900020C2F21C22C4F81C11C4F860112146A6
S315020023A0BDE8D0402DF050BFF0B503AF2DE9000FC8
S315020023B09FB045F28A3104AD0446C0F20421284694
S315020023C0FFF790FD19A847F254130DF140091CA915
S315020023D0C0F20423CDE90010484621462A461C9540
S315020023E0FFF797FE10989DF91B10C069B1F1FF3FE8
S315020023F0446802DC049822F082FE204600F078FE51
S31502002400F0B10021204600F0BFFE0646002120461C
S3150200241000F0D5FE80460121204600F0D0FE71690B
S31502002420C9B10546086802282DDC42F63930C0F2E9
S31502002430042001F052FA45F29030C0F2042014E072
S3150200244042F63930C0F2042001F047FA44F6A330CE
S31502002450C0F2042009E042F63930C0F2042001F04D
S315020024603CFA42F2D530C0F2042001F036FA43F2C9
S31502002470C270C0F2042001F030FA002420461FB0D8
S31502002480BDE8000FF0BD0021204600F007FFD0E9AD
S3150200249002AB1CA8002200233146FFF72EFC47F2AE
S315020024A0E8400021C0F20420CDE919111B9119ABB5
S315020024B00068129047F2EC402A46C0F204201390BC
S315020024C047F20450CDE910ABC0F2042014904FF04D
S315020024D07C50159046F26660CDF80090C3F6E66031
S315020024E016900120CDE9170104A84146FEF7BFFE6A
S315020024F019984CF2A051B2691A90C2F21B211CA87B
S31502002500B2F5104F28BF4FF41042FFF701FCD8B1C5
S31502002510FDF765FE0390204600F06EFFF8B1039CBE
S31502002520FDF75DFE01462046FDF75FFE45F2C861F6
S31502002530C2F21C21086104A8FEF7FEFED0B119A85A
S3150200254000F03FF8012428E042F63930C0F20420B8
S3150200255001F0C3F942F27970C0F2042014E042F6A7
S315020025603930C0F2042001F0B8F945F2EB00C0F2AE
S31502002570042009E042F63930C0F2042001F0ADF938
S3150200258041F28C50C0F2042001F0A7F943F2C27066
S31502002590C0F2042001F0A1F900240C9847F21011B0
S315020025A0C0F2042101F10801049110B10D9022F04C
S315020025B0A6FD199800283FF461AF1A9022F09FFDFC
S315020025C05CE7F0B503AF4DF8048D82B08046002675
S315020025D00024A5B20021002200232846009600F01E
S315020025E04EFF132D04F10104F3D3D8E90001814211
S315020025F01ED04AF6AB250021CAF6AA25002601EB13
S31502002600410100EBC100B0F90810B0F90C20B0F995
S315020026101030B0F91440B0B2009400F030FFD8E99F
S3150200262000010136091ACA10B1B26A438A42E6D8D3
S3150200263002B05DF8048BF0BD38307047B0B502AF1A
S3150200264088B001AD00F1380428460BF050F845F683
S31502002650F9130421C0F2012320462A4600F084F829
S3150200266001AD28460AF074F845F6C3030321C0F209
S31502002670012320462A4600F077F801AD284609F0E4
S315020026809CF845F273730021C0F2012320462A46C4
S3150200269000F06AF801AD28460EF084FF45F61743AE
S315020026A06121C0F2012320462A4600F05DF801AD01
S315020026B028460EF09CF845F611332221C0F201237A
S315020026C020462A4600F050F801AD28460BF0DAFF04
S315020026D045F615331121C0F2012320462A4600F0A1
S315020026E043F801AD28460CF0E2F845F6270302212D
S315020026F0C0F2012320462A4600F036F8204600F0B2
S3150200270019F8044688B142F63930C0F2042001F0C5
S31502002710E4F843F2C570C0F2042001F0DEF843F299
S31502002720C270C0F2042001F0D8F8002C5FEA1F90B4
S3150200273008B0B0BDB0B502AF044608F042FA48B1DF
S31502002740054608F057FA014620462A46BDE8B0403B
S3150200275000F071B80020B0BD80B56F4600F08BFA6C
S31502002760BDE8804022F0CBBCF0B503AF2DE9000BEB
S3150200277020290CD144F2C550C0F2042012F01CFCF0
S3150200278045F66530C0F2042012F016FC26E0054636
S31502002790006891460C46026828469846904758B10A
S315020027A041F21E70C0F2042012F006FC43F2F370EE
S315020027B02146C0F204200FE0D5F8E400082811D320
S315020027C044F616102146C0F2042012F0F5FB41F23F
S315020027D0FF200821C0F2042012F0EEFB0120BDE822
S315020027E0000BF0BDC0EBC00005F1040CB9E80E0009
S315020027F00CEB80000EC099E84E004EC0D5F8E400FE
S31502002800D5F82821C0EBC001013005EB8202C5F8DC
S31502002810E4000CEB81014C61C2F8E840D5F82801CE
S3150200282005EB8000C0F80881D5F828010130C5F80B
S3150200283028010020D3E7F0B503AF4DF804BD0646E4
S31502002840D0F8E40008280C4608D345F2877008221F
S31502002850C0F20420214612F0AFFB13E030681546A1
S31502002860214642683046904780B145F62360C0F261
S31502002870042012F0A1FB44F691602146C0F2042026
S3150200288012F09AFB01205DF804BBF0BDD6F8E40015
S31502002890C0EBC0010130C6F8E40006EB810C0CF176
S315020028A0040249CD49C295E84B004BC22020CCE92F
S315020028B006040020E7E7D4D490ED021AB6EE000A29
S315020028C091ED022A21EE001A22EE002A90ED003A3C
S315020028D091ED004A33EE415A34EE426A33EE011A62
S315020028E0B4EE465AF1EE10FA34EE022AB4EE412A5A
S315020028F035FE063AF1EE10FA31FE021A31EE431AAD
S31502002900B5EE401AF1EE10FA02D59FED180A70479D
S3150200291090ED032A91ED033A22EE002A91ED014A47
S3150200292023EE000A90ED013A33EE425A34EE406A43
S3150200293033EE022AB4EE465AF1EE10FA34EE000AEB
S31502002940B4EE420A35FE063AF1EE10FA32FE000AFB
S3150200295030EE432A21EE020A9FED041AB5EE402A12
S31502002960F1EE10FA48BFB0EE410A704700000000CF
S31502002970B0B502AF0D460446FFF79EFFB5EE400A1C
S31502002980F1EE10FA04BF9FED0E0AB0BD95ED022AD4
S3150200299095ED033A94ED021A94ED034A22EE032AC8
S315020029A0A1EE042A32EE401AB5EE401AF1EE10FA02
S315020029B080EE010A9FED021A01FE000AB0BD00BFB9
S315020029C000000000F0B503AF2DE9000F81B02DED38
S315020029D0028B82B001290A4600914BDBB0EE408A97
S315020029E082464FF0000B0025DAF800000021CDF8F0
S315020029F004B028B10246126801310AB12FF005C8A7
S31502002A0001AA00F083F88046CAF8000070B3D8F82D
S31502002A101400D8F8006000EB850090ED000AB5EED0
S31502002A20400AF1EE10FA1DD006B308F104047069EB
S31502002A3000EB850999ED000AB5EE400AF1EE10FAAF
S31502002A400AD0311D2046FFF793FFB4EE480AF1EE95
S31502002A5010FAC8BFC9F800B036680EB12FF019C80F
S31502002A60D8F80060B0460EB12FF02FC80098013595
S31502002A708542B9D102B0BDEC028B01B0BDE8000FB0
S31502002A80F0BD80B56F4659B180FF500E01F001E0EE
S31502002A9090ED003E02FF5021A0EC103E1FF009C04F
S31502002AA080BDD4D480B56F4642F029C89FED140A82
S31502002AB09FED141A9FED142A10F8032B10F8023C0E
S31502002AC004EE102A03EE103A10F8012CB8EE433A3F
S31502002AD0B8EE444A23EE003AA4EE013A04EE102A76
S31502002AE0B8EE444AA4EE023ABCEEC33A13EE102AFA
S31502002AF0FF2A28BFFF2201F8012B0FF023C880BD51
S31502002B00A245163F8716993ED578E93DF0B503AF43
S31502002B102DE9000702299146024603D21046BDE876
S31502002B200007F0BD15D11068D9F80010566943693F
S31502002B3003EB810306EB810193ED000A91ED001A86
S31502002B40B4EE410AF1EE10FAE8DD026000211160EE
S31502002B50E5E701EBD1700B4604294FEA6001A3EBCE
S31502002B606008104609DB481E012828BF0120A1EB98
S31502002B70000E104600680FF003C8066800230360C3
S31502002B8010464A46FFF7C2FF8246304641464A464B
S31502002B90FFF7BCFFBAF1000FC1D010B3D9F800207D
S31502002BA04169DAF8143001EB820103EB820391EDFD
S31502002BB0001A93ED000AB4EE401AF1EE10FA12DD95
S31502002BC001460B46096849B14E6906EB820696ED47
S31502002BD0001AB4EE401AF1EE10FAF2DCC3F800A0C5
S31502002BE003E050469BE70146504600295FEA0F96EE
S31502002BF031D0DAF8002072B3D9F8003015464A69A6
S31502002C0002EB83026E6906EB830692ED001A96EDDD
S31502002C10000AB4EE401AF1EE10FA13DD0A46164621
S31502002C2012684AB1546904EB830494ED001AB4EEB7
S31502002C30401AF1EE10FAF2DCCAF80010316835607B
S31502002C40D9F800302A6800295FEA0F9622B1AA460F
S31502002C5011B12FF02DC85546002E3FF460AF296002
S31502002C605DE780B56F46FFF7CFF80221002818BF4F
S31502002C700021084680BDD0B502AF0446806847F2FF
S31502002C808811C0F2042101F10801216018B111F086
S31502002C904FF922F034FAA06A10B1E06222F02FFA5C
S31502002CA0E06910B1206222F02AFA2046D0BDD0B5E2
S31502002CB002AF044647F28810C0F20420002200F157
S31502002CC0080104F11400C4E9001221212274C4E9A6
S31502002CD002222FF07EF82046D0BDF0B503AF4DF8A4
S31502002CE0048D82B015460E46044613B11868184480
S31502002CF000E0002060600168411A0A88052A4BD369
S31502002D008988002948D04058032845D12068B968E7
S31502002D10C4E90531D7F80C80816820468847B8F1A6
S31502002D20000FC4F80C8008D100223046294610F064
S31502002D30DDFA0028E06000F0C280C420B2F0C5FED1
S31502002D40D4E900150646204649688847024600200F
S31502002D50E368CDE900003046294611F083F8A66003
S31502002D6011F0E1FAD8B342F63930C0F2042000F08D
S31502002D70B4FD42F64230C0F2042000F0AEFD43F24A
S31502002D80C270C0F2042000F0A8FDA06810B311F0D2
S31502002D90CFF822F0B4F91DE042F63930C0F2042031
S31502002DA000F09BFD60680168411A0A88052A03D370
S31502002DB0898809B1415800E0002143F6DC4003222C
S31502002DC0C0F2042000F089FD43F2C270C0F2042072
S31502002DD000F083FD002002B05DF8048BF0BD606850
S31502002DE004F11C0828B1A06818B100F003FA0146E4
S31502002DF000E00021404600F089F80025606820B115
S31502002E00A06810B100F0F6F900E00020854208D271
S31502002E10A068294611F012FCE16941F82500013546
S31502002E20ECE7606804F1280628B1A06818B100F042
S31502002E300BFA014600E00021304600F067F8002553
S31502002E40606820B1A06810B100F0FEF900E0002031
S31502002E50854208D2A068294611F007FCA16A41F80A
S31502002E6025000135ECE7D4E9070188421CD0D4E9F4
S31502002E700A12914218D000680025007F84F83400B7
S31502002E80606820B1A06810B100F0B4F900E000203B
S31502002E90854221D2D8F8000050F8251008698969C0
S31502002EA02EF097FF0135EBE742F63930C0F20420E7
S31502002EB000F013FD44F2F650C0F2042009E042F697
S31502002EC03930C0F2042000F008FD41F2A450C0F2ED
S31502002ED0042000F002FD77E70025606820B1A068B3
S31502002EE010B100F0B1F900E00020854208D2306846
S31502002EF050F82510086989692EF06BFF0135ECE759
S31502002F00204600F015F80120207464E7D0E900237A
S31502002F109B1AB1EBA30F4FEAA30302D9C91A00F019
S31502002F20D9B9994228BF704702EB810141607047C7
S31502002F30F0B503AF2DE9000F85B0834680680028FF
S31502002F4000F09E80DBE90754A54204D055F8041B25
S31502002F5000F0D0F8F8E7DBE90A54A54204D055F8A8
S31502002F60041B00F0C7F8F8E7DBF804000021002490
S31502002F700FF05DF9DBF8041005460A688A1A138811
S31502002F80092B04D3108910B10E180858341820687A
S31502002F90002800F0A480072B54F8040F06D3D28829
S31502002FA022B18B18895803EB010A01E04FF0000A9F
S31502002FB0002D61D004440AF104084FF0000920688C
S31502002FC0201A01880B2905D3408918B121182058E7
S31502002FD0084400E000200168494571D900EB8903E5
S31502002FE059685A1852688A1A13449B88052B0AD3C1
S31502002FF0024402EB890212892AB11144084400EB09
S315020030008900406800E00020DAF8001081424ED9BB
S3150200301008EB800158F82000DBF800200E1800208B
S3150200302004905168584688470146304604AA11F072
S31502003030D7FF0499E1B14869202801D189690BE0DB
S3150200304042F21201D128C0F2042105D847F29C119E
S31502003050C0F2042151F8201001A8FEF743FF9DF8A3
S315020030600F10019849B2B1F1FF3F01DC22F047F897
S31502003070013D09F10109A2D105B0BDE8000FF0BD7D
S3150200308042F63930C0F2042000F027FC40F6B84080
S31502003090C0F2042000F021FC43F2C270C0F2042008
S315020030A005B0BDE8000FBDE8F04000F016BC45F6DD
S315020030B0D96045F61B02C0F20420C0F2042207E0E2
S315020030C045F6D96043F63452C0F20420C0F2042217
S315020030D043F27503B021C0F2042316F041FE45F611
S315020030E0D96044F6ED62C0F20420C0F20422EFE792
S315020030F0007C704701B1704780B56F4642F63930A1
S31502003100C0F2042000F0E9FB43F21840C0F20420AA
S3150200311000F0E3FB43F2C270C0F2042000F0DDFBD4
S3150200312042F65D3044F6471245F65563C0F2042076
S31502003130C0F20422C0F20423992116F011FED0B582
S3150200314002AF416849B1806838B111F059FAC8B185
S3150200315044F6D634C0F2042403E042F68334C0F2C5
S31502003160042442F63930C0F2042000F0B6FB2046B1
S3150200317000F0B3FB43F2C270C0F2042000F0ADFBD4
S315020031800020D0BD0120D0BDB0B502AF04464068D4
S3150200319098B1A06888B10D4600F02CF8A8420CD967
S315020031A054F81C0F6168091AB5EBA10F3CBF50F821
S315020031B02500B0BD204600F001F90020B0BDB0B533
S315020031C002AF0446406898B1A06888B10D4600F087
S315020031D03BF8A8420CD954F8280F6168091AB5EBD6
S315020031E0A10F3CBF50F82500B0BD204600F0E6F81E
S315020031F00020B0BD00680168411A0A88092A05D371
S31502003200098919B142184058104400E000200168AB
S3150200321049B150F8041F42184058101AC0881118B4
S3150200322010580858704780B56F4645F6D96044F67F
S31502003230ED6243F27503C0F20420C0F20422C0F22A
S315020032400423B02116F08CFD00680168411A0A8831
S31502003250092A05D3098919B142184058104400E0D9
S315020032600020016849B150F8041F42184058101A4C
S315020032700089111810580858704780B56F4645F6F0
S31502003280D96044F6ED6243F27503C0F20420C0F23F
S315020032900422C0F20423B02116F062FDB0B502AFDB
S315020032A004464068A0B1A06890B10D46FFF7A2FFA0
S315020032B0A8420DD954F81C0F6168091AB5EBA10F83
S315020032C03EBF50F825004069B0BD204600F076F8B2
S315020032D00020B0BDF0B503AF2DE9000F81B08046E6
S315020032E0D0E90150421B8B46B1EBA20F1ED9D8F88A
S315020032F000A0A5EB0A090BEBA906B6F1804F50D246
S31502003300A0EB0A004FF6FC71C7F6FF71B6EB600F31
S3150200331038BF4610884228BF6FF040469EB1B6F1CC
S31502003320804F41D2B000B2F0D0FB0DE0BBF1000FEE
S3150200333006D04FEA8B0128462EF04BFD05EB8B0596
S31502003340C8F8045029E000204FEAA90100EB8606DE
S3150200335000EB81044FEA8B0120462EF03AFD5545DB
S3150200336004EB8B000CD0A9F10401012202EB910EB1
S3150200337055F8041D44F8041D0FF007C0D8F8005094
S31502003380C8F80040C8E901063DB1284601B0BDE8CB
S31502003390000FBDE8F04021F0B2BE01B0BDE8000F5B
S315020033A0F0BD404600F002F8FEF7B0FB80B56F466E
S315020033B045F2E400C0F20420FEF79FFB80B56F469B
S315020033C045F2E400C0F2042000F000F880B56F4632
S315020033D0014644F21630C0F204202CF094FE80B569
S315020033E06F46B1EE400A2EF0F3FBB7EE001A30EE4E
S315020033F0010A81EE000A80BD01680968084747F2A2
S315020034002050C0F2042070474AF28010C0F2060033
S31502003410704740F6F000C4F24000016841F0010135
S315020034200160704740F62C20C4F24000016841F06A
S3150200343001010160704740F62C00C4F240000168A9
S3150200344041F001010160704740F6F000C4F240000D
S31502003450016821F001010160704740F62C20C4F298
S315020034604000016821F001010160704740F62C001E
S31502003470C4F24000016821F001010160704713287F
S3150200348088BF7047D0B502AF4CF2005CBC68C2F28E
S315020034901B2C0CEBC00E2CF83010AEF80220AEF846
S315020034A00430AEF80640BDE8D040704780B56F469E
S315020034B082B045F6C4060321C2F21C26002201236D
S315020034C04FF0FF383068CDF8008017F0B3F940F2BC
S315020034D0740041F6E471C2F20020C0F20B2113F02F
S315020034E0E4F83068042117F043F943F26750C0F25A
S315020034F000200EF047FDFEF744FC10B1012000F05B
S31502003500FBF93068082117F033F94CF20054C2F285
S315020035101B2430684FF4005101220123CDF80080AC
S3150200352017F088F9A02120462EF053FC00204FF612
S31502003530FF71012213F017FEFFF793FB05460020E9
S315020035404FF6FF71002213F00EFE022D02D1022069
S3150200355000F0D2F930684FF4804117F009F9C8201B
S3150200356018F071FAD5E72CF015BF80B56F4694B006
S3150200357045F2A0504FF0FF31C2F21C2042F2141263
S3150200358043F61103C0F20B22016045F6BE0046F671
S315020035907841C0F20420C0F20421C0F20023FDF7F4
S315020035A0AFFB45F2A454C2F21C24206018B91320C2
S315020035B000F0A2F92068FDF726FC45F21740C0F29A
S315020035C00420FDF7BCFA45F2A85041F2A06CC2F203
S315020035D01C20C0F20B2C0246BCE87A007AC2BCF868
S315020035E000101180FDF7BDFA0121EFF3108081F37F
S315020035F0108845F68071C2F21C210A683AB940F673
S3150200360014520023C4F240021370402313700A6856
S3150200361001320A6080F3108800F091FA10B1162088
S3150200362000F06AF945F6A0004FF48471C2F21C203C
S31502003630002213F098FDFCF738FFFCF79CFE10B150
S315020036400A2000F059F9FCF7D5FE45F6C405C2F288
S315020036501C2518B10A2000F04FF903E02868012161
S3150200366017F086F8FDF712FD0120FDF75EFC18B192
S315020036700F2000F041F903E02868022117F078F8DC
S31502003680FCF77EFDFCF792FD4FF0FF3128680091B2
S315020036900F210022012317F0CDF842F22220C0F2B8
S315020036A00420FDF74CFAFDF7FCFC4CF284304CF298
S315020036B08831C2F21320C2F2132104AC02680B68ED
S315020036C045F6C2312046C0F204212CF0C3FE204644
S315020036D0FDF735FA4CF2A05045F2286AC2F21B20D9
S315020036E045F22C6845F2C86B4EF6687900F01F0069
S315020036F0C2F21C2AC2F21C28C2F21C2BC024CEF231
S315020037000009411E029160F01F00039028684FF4E1
S315020037108051012201234FF0FF36009617F08AF8F6
S31502003720FFF777FEFCF75BFDCAF80000FDF7CBFC5E
S31502003730FFF78AFEFCF753FDC8F80000DAF800002E
S31502003740D8F80010FCF751FDCBF80400FCF747FD52
S31502003750CAF8000040F218304CF2A0514FF4207221
S315020037604FF4F073C2F20120C2F21B21CDE90044EC
S31502003770FDF72FFDFFF74DFE40F208000399C2F256
S31502003780002000220068091851EA4281012814DB50
S31502003790029A1044401A0121BFF34F8F01EB501ECB
S315020037A04CF2A050C2F21B20C9F8000020300FF0E4
S315020037B005C8BFF34F8FBFF36F8FFCF710FDC8F834
S315020037C00000DAF80000D8F80010FCF70EFDCBF87E
S315020037D00C0028684FF4005116F0CAFF012018F0B9
S315020037E032F92868002117F0DDF8C0F38036286820
S315020037F04FF4804117F0D6F83046FCF706FFFFF784
S3150200380023FE002000F00FF8012018F01CF97DE7D6
S31502003810012818BF704745F24460C2F21C200168B5
S31502003820013101607047B0B502AF45F2A055C2F250
S315020038301C252868400720D545F2486441F23961C3
S31502003840C2F21C2446F2BA4245F6DD33C0F2042126
S31502003850C0F20422C0F2042320462CF0FBFD2046CF
S31502003860FDF76DF9286820F00400286040F20C008C
S31502003870C2F200200068FDF762F945F2C864C2F29E
S315020038801C242068FCF7BAFC45F23065C2F21C25FE
S3150200389028606068FCF7B2FC6860E068FCF7AEFC82
S315020038A0A8602069FCF7AAFCE860A068FCF7A6FC01
S315020038B0286143F6CF50C0F20420FDF740F940F2EA
S315020038C01000C2F20020FDF7D2F941F25230C0F2E6
S315020038D00420BDE8B040FDF732B9D0B502AF45F2DB
S315020038E048640146C2F21C2420462CF0B3FD204651
S315020038F0FDF725F90020D0BD0138152800F21D81FB
S31502003900D0B502AFDFE810F0160093006C0080001D
S315020039104F00C000DE008900FC006200F200460093
S315020039205900D4003D0076003300AC00E8000601E1
S31502003930B600CA0041F6C44E45F2486CC0F20B2EE0
S31502003940C2F21C2CBEE80F00ACE80F00BEE80F0066
S31502003950ACE80F00BEE81F00ACE81F00BEF800008E
S315020039609EF80210ACF800008CF80210DDE045F279
S31502003970486041F60021C2F21C20C0F20B215122FE
S31502003980D1E045F2486041F25C71C2F21C20C0F2FD
S315020039900B2137E045F2486041F67011C2F21C2055
S315020039A0C0F20B21AAE045F2486041F62801C2F2B4
S315020039B01C20C0F20B214722B5E045F2486041F6D1
S315020039C05421C2F21C20C0F20B21ABE045F2486042
S315020039D041F6FC41C2F21C20C0F20B215A22A2E09F
S315020039E045F2486041F6C801C2F21C20C0F20B2122
S315020039F0412298E045F2486041F2C461C2F21C20BD
S31502003A00C0F20B2150228EE045F2486041F6744125
S31502003A10C2F21C20C0F20B2170E045F2486041F26E
S31502003A201471C2F21C20C0F20B2148227BE041F63F
S31502003A305C3C45F2486EC0F20B2CC2F21C2EBCE86E
S31502003A401F00AEE81F00BCE81F00AEE81F00BCE87E
S31502003A501F00AEE81F00BCF80000AEF8000064E0EC
S31502003A6045F2486041F68C51C2F21C20C0F20B218D
S31502003A704F2258E045F2486041F6FC21C2F21C2072
S31502003A80C0F20B2152224EE045F2486041F6B421C3
S31502003A90C2F21C20C0F20B21462244E045F24860E5
S31502003AA041F67001C2F21C20C0F20B2156223AE006
S31502003AB045F2486041F69C31C2F21C20C0F20B214D
S31502003AC05C2230E045F2486041F6B411C2F21C2095
S31502003AD0C0F20B214A2226E045F2486041F6F8314F
S31502003AE0C2F21C20C0F20B2153221CE045F24860B0
S31502003AF041F63C61C2F21C20C0F20B21422212E0C6
S31502003B0045F2486041F61811C2F21C20C0F20B21A0
S31502003B10552208E045F2486041F2D471C2F21C20F7
S31502003B20C0F20B2154222EF062F945F24860C2F22D
S31502003B301C20FDF704F8BDE8D04000BE704780B5F2
S31502003B406F4645F6900042F21001C2F21C20C0F206
S31502003B500B2114F070F888B945F6800041F6F87129
S31502003B60C2F21C20C0F20B2114F065F830B945F6FA
S31502003B709000C2F21C2014F0ACF800B180BD45F6EC
S31502003B808000C2F21C20BDE8804014F0A2B8D0B575
S31502003B9002AF82B045F6C4040020C2F21C24019092
S31502003BA0206816F035FF0004216818D44AF623204F
S31502003BB001ABC0F201204FF4004218F07BFE60B167
S31502003BC0019850B14EF604504FF08051CEF20000EB
S31502003BD00160BFF34F8FBFF36F8F02B0D0BD4AF6BD
S31502003BE027204FF40042C0F20120002302B0BDE8B4
S31502003BF0D04018F05FBE7047022818BF704780B5E4
S31502003C006F4645F6A00042F26051C2F21C20C0F295
S31502003C100B2113F09CFA0120BDE8804016F08CB906
S31502003C2080B56F4684B045F6481041F68C63C2F201
S31502003C301C2045F2DC6C4AF2B86EC0F20B23016816
S31502003C404FF48052013101600220009043F68B400E
S31502003C5045F6C301C0F20020C0F20421C2F21C2CB8
S31502003C60C2F21C2ECDE901EC17F090FC45F24C7124
S31502003C70C2F21C21086008B104B080BD00200021F8
S31502003C8004B0BDE8804000F060B8D0B502AF04468B
S31502003C9000F05DF82046BDE8D040FFF707BC80B5CE
S31502003CA06F4684B045F6481041F63873C2F21C20BE
S31502003CB045F2B07C4EF2B86EC0F20B2301684FF4A7
S31502003CC08062013101600120009043F6095043F2FF
S31502003CD09B41C0F20020C0F20421C2F21C2CC2F2A7
S31502003CE01C2ECDE901EC17F051FC45F62001C2F27B
S31502003CF01C21086008B104B080BD0020002104B078
S31502003D00BDE8804000F021B8D0B502AF044600F00D
S31502003D101EF82046BDE8D040FFF727BC80B56F46A7
S31502003D2045F6A800C2F21C2016F0F0FC45F6C401C6
S31502003D30C2F21C21086000B180BD00200021BDE84E
S31502003D40804000F002B8FFF7E9BF00BE7047B0B589
S31502003D5002AF45F640144FF0FF31C2F21C24206830
S31502003D6017F0CDFA012803D020680021FFF7EDFFF6
S31502003D7045F64410C2F21C20017801B1B0BD012102
S31502003D800170FFF7E0FF45F64815C2F21C252868C8
S31502003D9001382860F2D0206800210022002316F0A4
S31502003DA058FF0128F3D020680021FFF7CEFFEEE787
S31502003DB080B56F4645F6441245F64810C2F21C22FB
S31502003DC0C2F21C200021117045F64C120160C2F2AB
S31502003DD01C224FF48070012116F018FF45F640119F
S31502003DE0C2F21C21086018B900200021FFF7ADFFBE
S31502003DF0FFF755FFFFF714FF17F0ADFE002080BD59
S31502003E0045F6941C45F60423C2F21C2CC2F21C236E
S31502003E10C0F800C00B6080201060704745F6044C65
S31502003E2045F67443C2F21C2CC2F21C23C0F800C031
S31502003E300B60802010607047D0B502AFD7F80CC077
S31502003E405FEACC6E04D590F882E05FEA0E6E17D573
S31502003E505FEA8C6E04D590F882E05FEA8E6E0FD52B
S31502003E602CF0300EAEF10D0EBEF1020F0CD8D0F8CA
S31502003E7080E05FEACE3407D40EF0FE04092C03D8A4
S31502003E80092180F8C61106E0406ABC6800F5B470E4
S31502003E9080E81E1000210846D0BDD4D4F0B503AF89
S31502003EA02DE9000F8DB0446A8246D7F808C0D7F8CC
S31502003EB01C90D4E95B069B46D4F87451B0F5006FAA
S31502003EC003EB01000B46A8BF29F00809B0420CEB30
S31502003ED00200C8BFA6EB0B03A8421646DAF83080EA
S31502003EE00693C8BFA5EB0C06B8F1000F5FEA0F9068
S31502003EF019F4807F5FEA1080E37DD4F878510128B7
S31502003F000B90CDE9091274D188F8003094F80E01AD
S31502003F1088F8020094F8D50088F80100D4F8FC006D
S31502003F20C8F80400D4F80001C8F80800D4F82C0137
S31502003F30C8F80C0094F8E90088F82900D4F838018A
S31502003F40C8F81000D4F83401C8F8140094F8E80050
S31502003F5088F82800D4F8EC00C8F81800D4F8F00065
S31502003F60C8F81C00D4F8F400C8F82000D4F8F80009
S31502003F70C8F8240094F8EA0088F82A0094F8EB00BE
S31502003F8088F82B00D4F83C01C8F82C00D4F840017C
S31502003F90C8F83000D4F82401C8F83400D4F858011F
S31502003FA0C8F83800D4F85C01C8F83C00B4F8A80098
S31502003FB0A8F85400B4F8AA00A8F85600D4F8A0004D
S31502003FC0C8F84C00D4F8A400C8F85000D4F89800F9
S31502003FD0C8F84400D4F89C00C8F84800D4F8B000E9
S31502003FE0C8F85C00D4F8B400C8F860000020079056
S31502003FF000E007930321504600F076FF00210022DD
S31502004000504605F00AFFE806CDF830B008951ED4F2
S31502004010D4F8780120F030000F2828D8DFE810F015
S3150200402010002B0036002B002B00540136002B000B
S315020040302B001000100010001000100010001000DD
S31502004040D4E95A01BA68584401FB020528E009F08E
S315020040500F015046D4F8686105F0E1FDD4E95D012F
S31502004060D4E95B23CDE900015046314626E0A0F1B2
S315020040704101022908D2D4E95A01BA6800EB4B0081
S31502004080514300EB41050BE0402808D1D4E95A011F
S31502004090BA6800EB8B00514300EB810500E0002576
S315020040A009F00F01504605F0BAFDD4F87801D4F8AC
S315020040B06C21CDE9006050462946069B05F088FC36
S315020040C04FEA09604FF07F4101EAE0705FEA8961D9
S315020040D009F0A001FB6858BF4FF07F40A03918BF16
S315020040E04FF07F415FEAC962DDE9095E05D45FEA06
S315020040F0496207D46FF07F4207E05FEA4962A2682D
S3150200410001D402E0A2681043E268114394F80E213A
S31502004110D7F810B0112BC4E9560142F0050084F815
S315020041200E0105D398B22905B1FBF0F14B0802E066
S315020041304FF480310023BBF1110F4FF0000C07DB67
S315020041404FEA0E521FFA8BF6B2FBF6F6720802E03F
S315020041504FF48036002219F4007018BFC3EB0543F2
S3150200416051EA01B019F48061089956EA06B618BFF9
S31502004170C2EB0E425FEA497501F0100148BFA3F592
S3150200418000435FEA097548BFA2F5004200290C996F
S3150200419018BF03EB0143B968BD6918BF02EB0142C0
S315020041A004967E69CDE90020504631462A46CDE97D
S315020041B002CC05F010FEF868CDE9000B5046214608
S315020041C032462B4600F029FC0B98002873D098F84B
S315020041D00000E07598F8020084F80E0198F80100D4
S315020041E084F8D500D8F80400C4F8FC00D8F8080012
S315020041F0C4F80001D8F80C00C4F82C0198F829007C
S3150200420084F8E900D8F81000C4F83801D8F8140088
S31502004210C4F8340198F8280084F8E800D8F81800A1
S31502004220C4F8EC00D8F81C00C4F8F000D8F8200056
S31502004230C4F8F400D8F82400C4F8F80098F82A0064
S3150200424084F8EA0098F82B0084F8EB00D8F82C00E2
S31502004250C4F83C01D8F83000C4F84001D8F834005C
S31502004260C4F82401D8F83800C4F85801D8F83C003C
S31502004270C4F85C01B8F85400A4F8A800B8F85600CF
S31502004280A4F8AA00D8F84C00C4F8A000D8F8500048
S31502004290C4F8A400D8F84400C4F89800D8F8480036
S315020042A0C4F89C00D8F85C00C4F8B000D8F86000E6
S315020042B0C4F8B40003E05046079900F015FE00204A
S315020042C00DB0BDE8000FF0BD9AF88200800603D457
S315020042D009208AF8C601F3E71020C0F20400C4F8E8
S315020042E02C01012084F8E900AAE6F0B503AF2DE916
S315020042F0000F83B0BE688146002E4FF0000000F02A
S3150200430093828846F9680129C0F28E8222F00F0054
S315020043101644ADF8040023F00F00ADF80600701E37
S315020043205C1820F00F00ADF80800601E20F00F00A8
S31502004330ADF80A0001A948469B46154605F0F1FF6D
S31502004340B8B1A6F11000A4F110010FFA80FA48469E
S315020043500CB2414604F0E2FE98F8D50081074FEA16
S31502004360C07008D4002840F01C8101AA0023002056
S315020043702EE2002058E2002840F013814AEA0500A6
S3150200438044EA0B0100074FEA017000F05182BDF9C1
S3150200439004104FF480320028A1EB050140F200051B
S315020043A0CFF6FF7502EB0131D9F8B82102F1080305
S315020043B0C9F8B8314FF00403C2E90031D9F8BC118B
S315020043C0A1F10100C9F8BC0100F0B282012903DCA7
S315020043D0D9F8C01148468847D9F8B8014FF4803257
S315020043E000F10801C9F8B8110A21C0E90012D9F88A
S315020043F0BC010138C9F8BC0103DCD9F8C011484632
S315020044008847D9F8B801002200F10801C9F8B811A5
S315020044101021C0E90012D9F8BC010138C9F8BC0163
S3150200442003DCD9F8C01148468847BDF904004FF4A9
S315020044308031AAEB000001EB0030D9F8B81101F186
S315020044400802C9F8B8210522C1E90020D9F8BC0141
S315020044500138C9F8BC0103DCD9F8C01148468847BF
S31502004460D9F8B80100F10801C9F8B8110B21C0E961
S315020044700015D9F8BC010138C9F8BC0103DCD9F82A
S31502004480C01148468847D9F8B801002200F1080150
S31502004490C9F8B8111121C0E90012D9F8BC010138D6
S315020044A0C9F8BC0103DCD9F8C01148468847BDF9F2
S315020044B006004FF48031A0EB0B0001EB0030D9F877
S315020044C0B81101F10802C9F8B8210622C1E9002093
S315020044D0D9F8BC010138C9F8BC0103DCD9F8C0110E
S315020044E048468847D9F8B801002200F10801C9F800
S315020044F0B8110C21C0E90012D9F8BC010138C9F87B
S31502004500BC0103DCD9F8C01148468847D9F8B8017E
S315020045104FF4803600F10801C9F8B8111221C0E93A
S315020045200016D9F8BC010138C9F8BC0103DCD9F878
S31502004530C01148468847BDF90600D9F8B81101F1FD
S315020045400802C9F8B821201A072206EB0030C1E991
S315020045500020D9F8BC010138C9F8BC0103DCD9F83E
S31502004560C01148468847D9F8B801002200F108016F
S31502004570C9F8B8110D21C0E90012D9F8BC010138F9
S31502004580C9F8BC0103DCD9F8C01148468847D9F8F6
S31502004590B80100F10801C9F8B8111321C0E90015E4
S315020045A009E1BDF90400D8F81011401B484301EB9C
S315020045B01010D9F8B81101F10802C9F8B82104227D
S315020045C0C1E90020D9F8BC010138C9F8BC0103DCF5
S315020045D0D9F8C01148468847D9F8B811D8F8100159
S315020045E001F10802C9F8B8210A22C1E90020D9F866
S315020045F0BC010138C9F8BC0103DCD9F8C011484630
S315020046008847D9F8B801002200F10801C9F8B811A3
S315020046101021C0E90012D9F8BC010138C9F8BC0161
S3150200462003DCD9F8C01148468847BDF90400D8F81A
S315020046301011AAEB0000484301EB1010D9F8B8118B
S3150200464001F10802C9F8B8210522C1E90020D9F80A
S31502004650BC010138C9F8BC0103DCD9F8C0114846CF
S315020046608847D9F8B811D8F8100101F1080240427A
S31502004670C9F8B8210B22C1E90020D9F8BC010138DA
S31502004680C9F8BC0103DCD9F8C01148468847D9F8F5
S31502004690B801002200F10801C9F8B8111121C0E9D8
S315020046A00012D9F8BC010138C9F8BC0103DCD9F8FB
S315020046B0C01148468847BDF90600D8F81011A0EB8C
S315020046C00B00484301EB1010D9F8B81101F10802AA
S315020046D0C9F8B8210622C1E90020D9F8BC0101387F
S315020046E0C9F8BC0103DCD9F8C01148468847D9F895
S315020046F0B801002200F10801C9F8B8110C21C0E97D
S315020047000012D9F8BC010138C9F8BC0103DCD9F89A
S31502004710C01148468847D9F8B811D8F8100101F1F6
S315020047200802C9F8B8211222C1E90020D9F8BC0151
S315020047300138C9F8BC0103DCD9F8C01148468847DC
S31502004740BDF90600D8F81011201A484301EB1010E3
S31502004750D9F8B81101F10802C9F8B8210722C1E94E
S315020047600020D9F8BC010138C9F8BC0103DCD9F82C
S31502004770C01148468847D9F8B801002200F108015D
S31502004780C9F8B8110D21C0E90012D9F8BC010138E7
S31502004790C9F8BC0103DCD9F8C01148468847D9F8E4
S315020047A0B811D8F8100101F108024042C9F8B8213F
S315020047B01322C1E90020D9F8BC010138C9F8BC01AD
S315020047C003DCD9F8C0114846884701AA04230F2002
S315020047D000904846414602F0D5F801AE0546002350
S315020047E0484641463246002404F023FA002348464E
S315020047F04146324605F041FBD9F8B80100F10801FD
S31502004800C9F8B811C0E90045D9F8BC010138C9F8A0
S31502004810BC0103DCD9F8C0114846884701A9002229
S31502004820484604F03BFF012003B0BDE8000FF0BD8F
S3150200483000283FF49AADBDF906004FF48031A0EB93
S315020048400B0001EB0030D9F8B81101F10802C9F8E2
S31502004850B8210422C1E90020D9F8BC010138C9F8FF
S31502004860BC0103DCD9F8C01148468847D9F8B8011B
S31502004870002200F10801C9F8B8110A21C0E90012A4
S31502004880D9F8BC010138C9F8BC0103DCD9F8C0115A
S3150200489048468847D9F8B8014FF4803500F1080137
S315020048A0C9F8B8111021C0E90015D9F8BC010138C0
S315020048B0C9F8BC0103DCD9F8C01148468847BDF9DE
S315020048C00600D9F8B81101F10802C9F8B821201A70
S315020048D0052205EB0030C1E90020D9F8BC010138F8
S315020048E0C9F8BC0103DCD9F8C01148468847D9F893
S315020048F0B801002200F10801C9F8B8110B21C0E97C
S315020049000012D9F8BC010138C9F8BC0103DCD9F898
S31502004910C01148468847D9F8B801112200F10801AA
S31502004920C9F8B8110021CFF6FF71C0E9002166E08F
S31502004930012903DCD9F8C01148468847D9F8B801DD
S315020049404FF4803200F10801C9F8B8110A21C0E912
S315020049500012D9F8BC010138C9F8BC0103DCD9F848
S31502004960C01148468847D9F8B801002200F108016B
S31502004970C9F8B8111021C0E90012D9F8BC010138F2
S31502004980C9F8BC0103DCD9F8C01148468847BDF90D
S3150200499004004FF48031AAEB000001EB0030D9F895
S315020049A0B81101F10802C9F8B8210522C1E90020AF
S315020049B0D9F8BC010138C9F8BC0103DCD9F8C01129
S315020049C048468847D9F8B80100F10801C9F8B81174
S315020049D00B21C0E90015D9F8BC010138C9F8BC01A0
S315020049E003DCD9F8C01148468847D9F8B801002235
S315020049F000F10801C9F8B8111121C0E90012D9F86D
S31502004A00BC010138C9F8BC0103DCD9F8C01148461B
S31502004A10884701AA02230320DAE680B56F4682B0F0
S31502004A20D7E902CECDE900CEFFF75FFC02B080BD2A
S31502004A30F0B503AF2DE9000F83B004460D4641F2EF
S31502004A400008B0F872A0B0F87600B4F87460616C31
S31502004A50B4F978B0C0F240180329ADF804A0ADF855
S31502004A600800ADF80660ADF80AB014DCA26E12F0CA
S31502004A70100210D1042292FBF1F9216C91FBF9F29A
S31502004A8002FB191139B994F83C10890704BFE16C8D
S31502004A905FEA81724BD0204601F0C4FAD4F8B8011D
S31502004AA000F10801C4F8B8111921C0E90015D4F8BB
S31502004AB0BC010138C4F8BC0103DCD4F8C01120469D
S31502004AC08847D4F8B80100F10801C4F8B8110021EA
S31502004AD0C0E90011D4F8BC010138C4F8BC0103DCFA
S31502004AE0D4F8C01120468847D4F8B811606D01F198
S31502004AF0080240EA0800C4F8B8210122C1E90020F0
S31502004B00D4F8BC010138C4F8BC0103DCD4F8C011E6
S31502004B102046884701A90022204604F0BFFD204610
S31502004B2001F080FA002003B0BDE8000FF0BDBAF133
S31502004B300F0FB0D802B2481EB0EB221FABD1A06C49
S31502004B40009207280FD8DFE800F0042F40104040FB
S31502004B503E20280E05F07F4141EA004141EA00204D
S31502004B6040EA156531E041282FD14FF470404FF4E9
S31502004B70706100EA1540F02201EA153102EA1522B7
S31502004B800844C5F30311104419E04FF4704005F0D0
S31502004B90F00100EA15204FF4706241EA157102EA4B
S31502004BA01512084410440BE04FF478404FF4FC61B0
S31502004BB000EA152001EA55110844C5F3C401084468
S31502004BC000EB004501E04FEA3565204601F02AFA7E
S31502004BD0D4F8B80100F10801C4F8B8111921C0E9E6
S31502004BE00015D4F8BC010138C4F8BC0103DCD4F8C2
S31502004BF0C01120468847D4F8B80100F10801C4F86C
S31502004C00B8110021C0E90011D4F8BC010138C4F87A
S31502004C10BC0103DCD4F8C01120468847D4F8B80199
S31502004C2008F5001200F10801C4F8B8110121C0E923
S31502004C300012D4F8BC0100990FFA86F8A1EB0A0615
S31502004C4001384FF00105C4F8BC0103DCD4F8C011E9
S31502004C5020468847206CD4F8B81101F10802C4F83E
S31502004C60B82190FBF9F01F2205EB261680B2C1E9A6
S31502004C700020D4F8BC01ABEB08050138C4F8BC012E
S31502004C8003DCD4F8C011204688474FF6FF7029038B
S31502004C9021EA000000F58030B6FBF9F10843D4F8AA
S31502004CA0B81101F10802C4F8B8211E22C1E9002098
S31502004CB0D4F8BC010138C4F8BC0103DCD4F8C01135
S31502004CC020468847606C04282DD002280DD0012882
S31502004CD07FF425AFD4E90F014FEA281300EB1A102F
S31502004CE0D4F8B82101FB03000CE0D4E90F014FEA26
S31502004CF028124FEA1A135143D4F8B82100EB4300A5
S31502004D0000EB410002F10801C4F8B8112021C2E902
S31502004D100010D4F8BC010228A0F10100C4F8BC01BD
S31502004D20BFF6FDAE1BE0D4E90F014FEA28126FF081
S31502004D300303514303EA9A021044D4F8B82100EB64
S31502004D40810002F10801C4F8B8112021C2E900105D
S31502004D50D4F8BC010138C4F8BC013FF7E0AED4F880
S31502004D60C01120468847DAE6F0B503AF4DF8048D48
S31502004D7004464FF4BE7003F0E4FE054600284FF0E9
S31502004D80010000F09B806FF07F414FF07F42C5F833
S31502004D904C214FF0FF38C5E901410026C5F82861CC
S31502004DA085F80E61C5E90318022185F8D5104FF082
S31502004DB0100CC5E954224FF4803EA5F814C0C5F87C
S31502004DC010E14FF4B053C5F81C31D4F880304FF4DB
S31502004DD070311B014FF0040240F20803C2F2400395
S31502004DE058BF4FF48003C5F834114FF40021C5F8BB
S31502004DF02C1135A1C5F8203185F8E920C5F83C61AA
S31502004E0091ED001FC5E95066616D85F8D40019431E
S31502004E1005F1C40341F40021A5F80C0141F4B05197
S31502004E20C5F82411AA21C5F8141183E8461040F2E8
S31502004E30011105F11C0085ED160FC5F830E1C5F824
S31502004E4018E1A5F8D6104021C5F8D81085F80F61EB
S31502004E50C5E93F66C5F84861C5E9416601F08CFDC2
S31502004E6005F1340001F088FD05F14C0001F084FDE6
S31502004E7005F1640001F080FD05F17C0001F07CFD86
S31502004E8005F1940001F078FD05F1AC0001F074FD26
S31502004E9011A005F1E401C5E9376890ED001F0C2069
S31502004EA085F8E80081ED000F20462946C5F83881CD
S31502004EB004F0D2FEE06928600020E56184F8C601AC
S31502004EC028465DF8048BF0BD0100000000000000DA
S31502004ED000000000000000000100000003000000C6
S31502004EE003000000030000000246406A032990F80E
S31502004EF00E31C17543F0010380F80E3114D8DFE894
S31502004F0001F00202070D90F8D51001F0F30109E055
S31502004F1090F8D51001F0F301043103E090F8D510B2
S31502004F2041F00C0180F8D5100020002182F8C6114C
S31502004F3070470346406A00EB810022F07F418160A0
S31502004F40586A90F80E1141F0010180F80E11002006
S31502004F50002183F8C61170478446406A827C90F825
S31502004F600E318A4243F0010280F80E2103D043F04B
S31502004F70070280F80E21827D8174D20702D00906CB
S31502004F80C0F84C11002000218CF8C61170478446E7
S31502004F90406A827D90F80E318A4243F0010280F81F
S31502004FA00E2103D043F0070280F80E21CA0781754D
S31502004FB002D14FF07F4101E0817C0906C0F84C1115
S31502004FC0002000218CF8C6117047D4D4B0B502AFC8
S31502004FD0D0F824E003299EF80EC14CF001038EF8A6
S31502004FE00E310ED8032A0CD842F2AC53C0F20B2370
S31502004FF053F82110DFE802F0020C070A41F480514F
S3150200500006E010211BE041F4806101E041F4A05169
S31502005010CEF81C11DEF82C21436DDEF820C1DEF835
S315020050203C511A43DEF8403142EA0C02DEF84441B2
S315020050302A431A4322431143CEF82411002180F851
S31502005040C6110846B0BD0246406A90F8D53039B15D
S3150200505043F0020180F8D5100021C0F828110DE0B6
S315020050604FF4FC41C0F828114FF48031C0F81011FA
S3150200507003F0FC0180F8D510102181820020002166
S3150200508082F8C61170470246406A0023022980F858
S31502005090D6104FF0000108BF032380F80F3100201D
S315020050A082F8C61170470246406A80F8D71000207F
S315020050B0002182F8C6117047D0F84C11027C437C5D
S315020050C0090A6FF07F4C01FB02C201FB03C190F893
S315020050D00E3102F07F4201F07F41C0E9542103F014
S315020050E0FD0180F80E117047F0B503AF2DE9000FF0
S315020050F085B007F1080E044691F8D50098469EE859
S3150200510008489146D7F814C0C007A8EB0B06A3EBD4
S315020051100B0A34D10FFA8AF132B252EA010040F296
S315020051200000CFF6C07000F08B8004931FFA8BF656
S3150200513090FBFBF302FB02F00BEBD63611FB0100F0
S3150200514036B21144102283FB00054FEAE30A50EA05
S31502005150DF25A2EB4803049D0AFB03F301EB56018C
S31502005160A2EB4502DD170AFB02F6A0EB013203EBC6
S315020051701571F01706EB10700E110511AFE00493CE
S31502005180CDE902ECB86918B194F88300400769D4F6
S315020051904FF07840B1F91420CDF80490D1F810916F
S315020051A090FBFBF0D317C51750EA0F2529462DF0C1
S315020051B067F816FB06F21FFA8BF31AFB0A2236B2BF
S315020051C00BEBD33C120A0FFA8CFCA0FB025306FA35
S315020051D08AFE01FB0233DD1701FB02F32E0F0EEBF3
S315020051E06C05E0FB02634FEAE57CA5FB092556EA5E
S315020051F02F130CFB0955DDF8049052EA0F15B21A6B
S31502005200AB41CD17DE1712EB1662049E43F1000383
S3150200521010EB155A41F1000110205AEA1F31A0EB9A
S31502005220480152EA1F23A0EB460001FB0AF100FBEC
S315020052300AF0CE17C51701EB167100EB15704AE09E
S3150200524000F5601090FBFBFA1020A0EB4B000AFB66
S3150200525000F0C11700EB117000210511A1EBCB2262
S315020052602E463CE04FF07840B1F9142016FB06F3C7
S315020052700FFA86FE90FBFBF01AFB0A33D1F81011E7
S3150200528080011D0A1FFA8BF390FBF2F20BEBD33669
S31502005290002382FB050C36B24FEA1C70C2FB0503E3
S315020052A00EFA8AF505EB56064FEA221A71431026C4
S315020052B0A6EB480250EA2F130AFB02F5049AA6EB64
S315020052C04202EE170AFB02F3A0EB810205EB16710E
S315020052D0D81703EB10700E110511DDE902ECBCF1D3
S315020052E0000F09F1040002EB0E016CD0D4F8B821CC
S315020052F0494202F10803C4F8B831C2E90001D4F800
S31502005300BC010138C4F8BC0103DCD4F8C011204644
S315020053108847D4F8B81109F1050001F10802C4F86A
S31502005320B8217242C1E90002D4F8BC010138C4F8BE
S31502005330BC0103DCD4F8C01120468847D4F8B81162
S3150200534009F1100001F10802C4F8B8216A42C1E964
S315020053500002D4F8BC010138C4F8BC0103DCD4F85D
S31502005360C01120468847D4F8B80109F10B0100F1B3
S315020053700802C4F8B8210022A2EB4A05C0E90015CA
S31502005380D4F8BC010138C4F8BC0103DCD4F8C0115E
S3150200539020468847D4F8B80100F10801C4F8B811CC
S315020053A009F11101C0E90015D4F8BC010138C4F8AD
S315020053B0BC016ADCD4F8C011204605B0BDE8000F76
S315020053C0BDE8F0400847D4F8B82102F10803C4F852
S315020053D0B831C2E90001D4F8BC010138C4F8BC01F5
S315020053E003DCD4F8C01120468847D4F8B80100F18E
S315020053F00801C4F8B81109F10501C0E90016D4F88C
S31502005400BC010138C4F8BC0103DCD4F8C011204643
S315020054108847D4F8B80100F10801C4F8B81109F1B7
S315020054201001C0E90015D4F8BC010138C4F8BC016A
S3150200543003DCD4F8C01120468847D4F8B81109F124
S315020054400B0001F10802C4F8B8214FEA4A05C1E986
S315020054500005D4F8BC010138C4F8BC0103DCD4F859
S31502005460C01120468847D4F8B80100F10801C4F8F3
S31502005470B81109F11101C0E90015D4F8BC010228DE
S31502005480A0F10100C4F8BC0194DB05B0BDE8000F31
S31502005490F0BDF0B503AF4DF8048D0646D0F818807E
S315020054A014200D4603F04DFB044600284FF0000081
S315020054B02AD0C4E9025005EB850196F868008900F6
S315020054C0C00703D1304603F06FFB02E0084603F043
S315020054D038FB01466060A0B10025256196F8680098
S315020054E0C00717D1D6F88400C2060FD4800711D59B
S315020054F0A068042100EB80008200404613F0A7FF5B
S3150200550007E0204603F01FFB002404E0404613F0A8
S31502005510A6FF2061256020465DF8048BF0BD49B3E5
