:020000040800F2
:1000000048A70320D5030008CD16010825FA0008EB
:10001000C9160108A91E00081D440108E7030008CD
:100020000000000000000000000000005126010850
:10003000D1320008000000000D1E010855260108FD
:10004000F1030008F1030008F1030008F1030008C0
:10005000F1030008F1030008F1030008F1030008B0
:10006000F1030008F1030008F10300081933000848
:10007000F1030008F1030008F1030008F103000890
:1000800031330008F1030008F1030008F103000810
:10009000F1030008F1030008F1030008253300080C
:1000A000F1030008F1030008F1030008F103000860
:1000B000000000003934000849340008F10300084A
:1000C000F1030008F1030008F1030008F103000840
:1000D000F1030008F1030008F1030008F103000830
:1000E000F1030008F1030008F1030008F103000820
:1000F000F1030008F1030008F1030008F103000810
:10010000B5290108F1030008F1030008F103000814
:10011000F1030008F1030008F1030008F1030008EF
:10012000F1030008F1030008F1030008D9230108D6
:10013000F1030008F1030008F1030008F1030008CF
:10014000F1030008AD2D0108F1030008F1030008D8
:10015000F1030008F103000895290108A529010809
:10016000F1030008F1030008F1030008F10300089F
:10017000F1030008F1030008F1030008F10300088F
:10018000F1030008F1030008F1030008F10300087F
:10019000F1030008F1030008F1030008F10300086F
:1001A000F1030008F1030008F1030008F10300085F
:1001B000F103000800000000F1030008F10300084B
:1001C000F103000800000000F1030008F10300083B
:1001D000F1030008F1030008F1030008F10300082F
:1001E000F1030008F1030008F1030008F10300081F
:1001F0000000000000000000F1030008F103000807
:10020000F1030008F1030008F1030008F1030008FE
:10021000F1030008F1030008F1030008F1030008EE
:10022000F1030008F1030008F1030008F1030008DE
:10023000F1030008F103000800F002F800F0BBF839
:100240000AA090E8000C82448344AAF10107DA4531
:1002500001D100F0B0F8AFF2090EBAE80F0013F0C8
:10026000010F18BFFB1A43F00103184744040500AF
:10027000640405000A444FF0000C10F8013B13F031
:10028000070408BF10F8014B1D1108BF10F8015BEF
:10029000641E05D010F8016B641E01F8016BF9D1E2
:1002A00013F0080F1EBF10F8014BAD1C0C1B09D139
:1002B0006D1E58BF01F801CBFAD505E014F8016BAB
:1002C00001F8016B6D1EF9D59142D6D3704700003D
:1002D0000023002400250026103A28BF78C1FBD84F
:1002E000520728BF30C148BF0B6070476E2900F02D
:1002F0006983702900F0B78466293BF0B4816529D1
:100300003BF0B18167293BF0AE8161293BF0AD81C3
:1003100003681B0A28BF41F08001692900F0168399
:10032000642900F01383752900F010836F2900F011
:100330004584782900F08384E92900F0DF83E429EB
:1003400000F0DC83F52900F0D983EF2900F0428426
:10035000F82900F082840368DB0928BF41F080019E
:10036000632901F01182732901F01682E32901F05B
:100370002182F32901F02682002070471FB53BF04F
:1003800060F99DE8030000F095FD01F095FA040086
:10039000002000213AF052FC401C60600020002147
:1003A0003AF062FCE06000F005FA1FBD10B50020D5
:1003B00001F034FA10BD01F059FA1146FFF7DEFFE3
:1003C00037F0E2FB01F048FB03B4FFF7EFFF03BC9B
:1003D00036F0AEFB0A4880470A480047FEE7FEE7D2
:1003E000FEE7FEE7FEE7FEE7FEE7FEE7FEE7FEE7E5
:1003F000FEE7000004480549054A064B7047000027
:1004000001270108390200084883032048A7032078
:100410004895032048950320704753EA020C00F0EA
:1004200069802DE9F04B4FF00006002B1FBFB3FA97
:1004300083F503FA05F424FA05F65E4012BF16436D
:10044000B2FA82F502FA05F4C5F120051EBF22FAC0
:1004500005FC44EA0C04203556EA044C4FEA1444E7
:1004600018BF641C4FF000084FF00009904271EB78
:10047000030C39D3002919BFB1FA81F701FA07F645
:10048000B0FA80F700FA07F6C7F120071EBF20FA7E
:1004900007FC46EA0C062037B6FBF4FCA7EB050781
:1004A000103F07F01F0BCBF120062CFA06F60CFAD2
:1004B0000BFB44BFB3460026202FA4BF5E464FF07F
:1004C000000B5BEA060C08BF4FF0010B19EB0B09A0
:1004D00048EB0608ABFB027C06FB02CC0BFB03CC13
:1004E000C01B71EB0C01C1E70B4602464146484672
:1004F000BDE8F08B13B5084318BF4FF0FF3001463D
:10050000AFF30080BDE81C40704700000FB4044901
:1005100010B503AA029800F081FA10BC5DF814FB34
:100520000C6D03200B460146184600F076BC000017
:100530000EB5054614460E4613A000F085FC28466D
:1005400000F082FC16A000F07FFC304600F07CFC3E
:1005500015A000F079FC00218DF80B100A210DF197
:100560000A008DF80A1008E094FBF1F201FB124238
:1005700094FBF1F4303200F8012D002CF4DC00F093
:1005800063FC00F03FFC00002A2A2A206173736597
:100590007274696F6E206661696C65643A20000050
:1005A0002C2066696C6520002C206C696E6520002B
:1005B00030B505460B462A4613F8014B12F8010BDD
:1005C00008B1A042F8D01CB1002802D06D1CF1E7A0
:1005D000284630BD40EA010310B59B070FD1042A1D
:1005E0000DD310C808C9121F9C42F8D020BA19BAFE
:1005F000884201D9012010BD4FF0FF3010BD1AB163
:10060000D30703D0521C07E0002010BD10F8013BB7
:1006100011F8014B1B1B07D110F8013B11F8014BDE
:100620001B1B01D1921EF1D1184610BD032A40F2C6
:10063000308010F0030C00F0158011F8013BBCF184
:10064000020F624498BF11F801CB00F8013B38BF9C
:1006500011F8013BA2F1040298BF00F801CB38BFAA
:1006600000F8013B11F0030300F02580083AC0F0C8
:10067000088051F8043B083A51F804CBA0E8081070
:10068000F5E7121D5CBF51F8043B40F8043BAFF3A3
:100690000080D20724BF11F8013B11F801CB48BFFD
:1006A00011F8012B24BF00F8013B00F801CB48BF33
:1006B00000F8012B704710B5203AC0F00B80B1E86C
:1006C0001850A0E81850B1E81850A0E81850203A87
:1006D000BFF4F5AF5FEA027C24BFB1E81850A0E890
:1006E000185044BF18C918C0BDE810405FEA827CAA
:1006F00024BF51F8043B40F8043B08BF7047D207C1
:1007000028BF31F8023B48BF11F8012B28BF20F861
:10071000023B48BF00F8012B70474FF0000204294C
:10072000C0F0128010F0030C00F01B80CCF1040C20
:10073000BCF1020F18BF00F8012BA8BF20F8022B54
:10074000A1EB0C0100F00DB85FEAC17C24BF00F8FA
:10075000012B00F8012B48BF00F8012B70474FF028
:10076000000200B5134694469646203922BFA0E801
:100770000C50A0E80C50B1F12001BFF4F7AF09070D
:1007800028BFA0E80C5048BF0CC05DF804EB8900FE
:1007900028BF40F8042B08BF704748BF20F8022B41
:1007A00011F0804F18BF00F8012B70477047704759
:1007B0007047000070B5064C7C44064D7D4404E053
:1007C0002046016808448047241DAC42F8D170BD22
:1007D000580505005C050500704770B5064600F039
:1007E00049FB056806F10B0020F00704B4429CBFEA
:1007F000002070BD2B466A68BAB11068A04210D3C1
:1008000004F1080188423CBF5068586007D3516822
:10081000101941601168091B016058601460101DB7
:1008200070BD13465268002AE7D12146284600F0E1
:100830002DFB0028DED170BD70B50446051F00F009
:1008400019FB0068002C14BF446870BD002C18BF51
:10085000AC423CBF20466468F8D301680A18AA423B
:1008600018BF456003D12A68054611440160286815
:100870004119A1421CBF6C6070BD6168696021684C
:100880000844286070BD70B5044685690068C106DB
:1008900001D5302600E02026C00707D070BDD4E97E
:1008A000012130469047206A401C20626D1EF6D51B
:1008B00070BD70B5044685690078C00707D170BD6A
:1008C000D4E9012120209047206A401C20626D1E3F
:1008D000F6D570BD09684A0501D540B27047C90513
:1008E000FCD500B2704709684A0501D5C0B270470F
:1008F000C905FCD580B2704770B50C460546012A83
:1009000005D02878800600D5EA69002302E001239B
:1009100005E05B1C934202D2E05C0028F9D1A86993
:10092000E618C01AA861286A184428622846FFF70A
:10093000AAFF04E0D5E9012114F8010B9047B44265
:10094000F8D32846FFF7B5FF70BD00002DE9F04150
:100950000646002410687529314616A510D0FFF709
:10096000B9FF002802DA404213A507E031688A0780
:1009700001D512A502E0490704D511A5012401E023
:10098000FFF7B1FF00210A2206F1240709E0B0FBBE
:10099000F2FCB0FBF2F302FB1C0030307854184636
:1009A000491C0028F3D123462A463046BDE8F041D1
:1009B00000F0FBBA000000002D0000002B0000003A
:1009C0002000000011680268006A530501D5087014
:1009D0000AE0D30501D5088006E0130603D5C21747
:1009E000C1E9000200E008600120704701694A1C6B
:1009F00002610878704700B58FB0CDE90131002160
:100A0000059105497944CDE903101146684600F087
:100A100035F90FB000BD0000E5FFFFFF074B70B5D3
:100A20000D467B44FFF7E7FF0446284600F0CEFE64
:100A300010B14FF0FF3070BD204670BD5B700300F9
:100A40002DE9FF5F15468A460446DFF8AC80F8447E
:100A50000027D8E900103E46CDE9001010E03AF832
:100A600016106A4602A800F0B5FE411C07D0217896
:100A7000890603D5E269391891420DD80744761CDE
:100A80002078800602D5E069B84205DDAE42E6DB9B
:100A90003AF816000028E2D1A069C01BA0612046E8
:100AA000FFF7F1FED8E90010CDE90010002017E0B3
:100AB0003AF818106A4602A800F08CFEB0F1FF3F29
:100AC00081460BD000250DF1080B05E0D4E901218A
:100AD0001BF8050090476D1C4D45F7D308F1010048
:100AE000B0428046E4DB206A384420622046FFF7AB
:100AF000E0FEBDE8FF9F00001EAC03002DE9F041C1
:100B00008046D21D22F007020025D2E90002F52915
:100B100015A614D0011E72F1000106DA0023D0EBF5
:100B2000030063EB020211A608E0D8F800108B075F
:100B300001D50FA602E0490701D50EA601251146F1
:100B4000002408F1240704E000F0EAF930323A55B5
:100B5000641C50EA0102F7D12B463246214640463A
:100B6000BDE8F04100F021BA000000002D000000B7
:100B70002B0000002000000030B4002100F124040C
:100B800008E002F00705D208303542EA4372DB087C
:100B90006554491C52EA0305F3D10468002310A2EE
:100BA000250708D504F020040C4304D0C4690123B0
:100BB0000CA2641EC46130BC00F0F7B910B5044645
:100BC00021461068FFF78FFE02462046BDE8104020
:100BD0000023D1E7D21D22F00701D1E90023CBE7A2
:100BE0000000000030000000F0B40D460188090547
:100BF00002D5214C7C4402E01F4C7C440E34002181
:100C000000F1240608E002F00F071209E75D42EA4E
:100C100003721B097754491C52EA0307F3D1027887
:100C20000023120704D5702D06D009B10223113418
:100C30002246F0BC00F0B9B901231034F8E770B5D2
:100C400004460D4621461068FFF74DFE0246294630
:100C50002046BDE870400023C6E7D21D22F00703FE
:100C6000D3E90023C0E70368126843F02003036060
:100C70000823C3610023B7E780AA03002DE9F05FD2
:100C8000894604464FF0000ADFF874B1FB44C0F80F
:100C900020A02046E1688847002874D0252806D087
:100CA000D4E901219047206A401C2062F1E7002628
:100CB0005F462046E16888472028054607DB312D3E
:100CC00005D2781910F8200C08B10643F1E7B007F7
:100CD00001D526F00406C4F81CA00027C4F818A00B
:100CE0002A2D09D0284639F0A1FF38B304EB870834
:100CF000303DC8F8185019E059F8041B204604EBA1
:100D000087029161E1688847012F054618D1E069A3
:100D1000002820DA26F020061DE0D8F8180000EBA5
:100D2000800005EB40003038C8F818002046E16824
:100D30008847054639F07AFF0028EED1012F0AD006
:100D40002E2D08D12046E16888477F1C0546022FDA
:100D500046F02006C4DBA069002803DA404246F0D2
:100D60000106A061F00701D026F010066C2D0BD013
:100D7000682D09D04C2D39D06A2D35D0742D35D041
:100D80007A2D33D016E038E0E1682F4620468847B8
:100D9000B842054609D16C2F26D04FF48060E16837
:100DA000064320468847054604E06C2F1AD04FF4CE
:100DB000807006430DB3A5F14100192802D82035F3
:100DC00046F400664A462946204626604E46FFF70E
:100DD0008DFA80B101280BD0F61D26F0070000F136
:100DE000080956E74020E4E78020D8E70020D6E74E
:100DF00006F104094DE7284652E7206ABDE8F09F56
:100E000010AA030010B5002000F029FDFFF7CEFA6C
:100E1000BDE81040012035F08BBE2DE9F0410746BA
:100E200015460E461020FFF7D8FC04000AD0676074
:100E3000C4E9026500F022F8016821600460002026
:100E4000BDE8F0810120FBE710B5044602E0641C18
:100E500035F072FE20780028F9D110BD00487047A7
:100E6000D058022010B500F027FD001D10BD00BFB6
:100E7000CD9D030000487047D858022000487047B5
:100E800008590220704770477047704738B50446CC
:100E90000A4600206946AFF30080002808BF38BD2D
:100EA00002460099204600F00BFD012038BD0120CC
:100EB00000F0F8BDF8B5AFF30080054600200C4601
:100EC000102000BF0646A819A0420DD93246694637
:100ED0000020AFF30080070008BF00F0E3FD00989A
:100EE000A04218BF0546C419FFF7C4FF05600746B6
:100EF000F01D20F007004619284600F00AF8B44219
:100F000008BFF8BDA21B31463868BDE8F84000F0C4
:100F1000D7BC00210160C0E9011070471020704764
:100F200030B5B0F10A0271F100034FEA900E4EEABB
:100F3000817EB0EB0E0061EB91014FEA101E4EEA8C
:100F4000017E10EB0E0041EB11114FEA102E4EEA1C
:100F5000016E10EB0E0041EB11214FEA104E4EEAEC
:100F6000014E10EB0E0041EB1141401841F1000120
:100F70004FEAD00040EA41704FEAD1014FEA8104C4
:100F800044EA907410EB800544EB01046D1944EBC6
:100F90000404521BA3414FF0000348BF0A3200D59E
:100FA00030BD401C41F1000130BD2DE9F0470D4638
:100FB00099469246044600F124080168880604D543
:100FC000E06921F01001216000E00120A84201DD6C
:100FD000471B00E00027A1697A1902EB0900081AF3
:100FE000A0612078C00602D42046FFF74CFC002602
:100FF00008E0D4E901211AF806009047206A401C55
:10100000761C20624E45F4DB2078C0060AD52046C7
:10101000FFF739FC06E0D4E9012130209047206A2F
:10102000401C2062381EA7F10107F4DC07E0D4E978
:10103000012118F805009047206A401C2062281EF4
:10104000A5F10105F3DC2046FFF733FC207800060C
:1010500002D50220BDE8F0870120FBE72DE9FF4F14
:101060000C461E464FF0FF378BB0D2E90001DDF889
:1010700060800A908A46C1F30A5505B93D460021B1
:1010800008464FF00000BAF1000F00F4400005DA06
:1010900000EB80004FF4400101EA50004FEA905904
:1010A000B9F1010F00DDB9460A9850EA4A000ED0A6
:1010B00044F61050A5F2FF3545432F14B8F1000F48
:1010C0001ED07542291E1EDDC9F100021CE0B8F1D8
:1010D000010F4FF0000001D0302103E0F24305E0A2
:1010E0002154401CB042FBDB304600220021215439
:1010F0000B99C1F80880C1E900200FB0BDE8F08F5E
:10110000BD1B6D1CDEE74A4600DA694206A800F006
:1011100031FC06AB93E8070003AB83E807005046B9
:101120000A9939F0A2F98DE80700A0F500501F38A0
:1011300000900398002D0ADD42F21F014A46084440
:10114000002303A90390684639F00CFC09E0A0F5E0
:1011500000504A461F38002303A90390684639F01F
:1011600016FC8DE807000004000C03D04FF0FF30A0
:10117000410800E01046B8F1000F03D000220092B1
:1011800015461EE0751E05D4FFF7CAFE30326255C3
:101190006D1EF9D5B3460122084302D000227F1C00
:1011A00004E02078302801D100227F1E002A099710
:1011B00084D01DE0112D07DAFFF7B2FE3032625500
:1011C0006D1C50EA0102F5D1084302D00098C8B165
:1011D0000EE00021681E05E0235C625C635422542B
:1011E000401E491C8142F7DBAB46A81B401E0990FC
:1011F000002004F80B000B98099AC0F80880C0E999
:10120000002B7AE711264FF0000857E72DE9F04F41
:1012100088460446D21D22F0070191B0D1E90001B1
:10122000CDE90A0139F0EAFC02460B98C00F01D063
:101230002D2007E02068810701D52B2002E0202126
:1012400001EAC000032A099001D0072A05DB034602
:101250004146204600F04EFB0BE12078800601D588
:10126000E06900E00620B8F1650F814606D0B8F1CC
:10127000660F18D0B8F1670F70D131E00020B9F1D6
:10128000110F009001DB112301E009F101030AAA0B
:1012900001A90CA8FFF7E2FEDDE90C70002609F1B8
:1012A0000105834647E001204B4600904FF0004780
:1012B0000AAA01A90CA8FFF7D1FEDDE90DB00C992F
:1012C0005D46002610B909F101000D18B9EB0500C3
:1012D00003D4C0F1FF3609F10105A5EB09002BE0AD
:1012E000B9F1010F01DA4FF001090020B9F1110F36
:1012F0000090484601DD112300E003460AAA01A937
:101300000CA8FFF7ABFEDDE90C704D4600268346C6
:10131000207800070AD4AB4500DA5D4601A8012D0C
:1013200004DD411911F8011C302907D04F4502DABC
:1013300017F1040F04DA012082460FE06D1EEEE77C
:10134000002F02DCED1B3E4403E0781CA84200DDC8
:101350007D1CB81B00F1010A4FF000472078000700
:1013600003D4AA4501DB4FF0FF3A0021B7F1004F4B
:101370000DF143088DF8431024D002202B23002FB9
:1013800001DA7F422D230A21021EA0F1010000DCB8
:101390005FB197FBF1FC97FBF1F201FB1C7C174658
:1013A0000CF1300C08F801CDEEE7A8F10100037054
:1013B0002188090501D5452100E06521A0F101083A
:1013C00000F8011C09980FA9A1EB0807FF1D00B147
:1013D0000120411901EBEA70A1693844081A401E46
:1013E000A0612078C00602D42046FFF74CFA099885
:1013F00028B1D4E901219047206A401C206220785E
:10140000C00622D52046FFF73EFA1EE0002E04DB80
:10141000B34502DD01A8805D00E03020D4E9012160
:101420009047206A401C2062761CAAF101005FEA06
:10143000000A0AD100F040FAC0680168405CD4E9B3
:1014400001219047206A401C2062281EA5F1010559
:10145000DCDC07E0D4E9012118F8010B9047206A91
:10146000401C2062381EA7F10107F3DC2046FFF77D
:1014700020FA032011B041E62DE9F04F04460D4655
:10148000D21D22F0070089B0D0E9009748463946BE
:1014900039F0B4FB0246F80F01D02D2307E0206895
:1014A000810701D52B2302E0202101EAC0038DF83A
:1014B00020300BB1012000E00020032A824601D039
:1014C000072A04DB2946204600F014FA3FE1207881
:1014D000800601D40D2500E0E569C7F30A560D2DFD
:1014E00049DA00214FEA175B08464FF00000002F51
:1014F00000F4400007DA00EB80004FF4400100EBFD
:10150000D07001EA60008115012901DD4FF0FF3143
:1015100000224FEA850CBCF1180F06D31346ACF13C
:1015200018004FF08052C24003E04FF4801323FABA
:101530000CF30CF10C0CBCF1200F04D3ACF1200C1B
:1015400009FA0CF001E007FA0CF000294FF000480E
:1015500001DD18B90FE00ED140450CD319EB02099B
:101560005F4121B9404502D19F4329EA0209BBEB03
:10157000175F00D0761C2088000502D57B48784490
:1015800002E07A487844193808AA302302F80A3071
:10159000037C0AF10101002E0AF1020A53546A4643
:1015A00002DC4FF0300101E04FF031014FF0010853
:1015B0008DF8001002D0A6F2FF3603E059EA470189
:1015C00000D06B4E002D02DC2178090704D54FF0C6
:1015D00002082E218DF80110C44600210BE0C7F34C
:1015E00003433F01C35C491C6D1E02F80830052906
:1015F00008F1010801DA002DF1DC00210CE000EB1C
:101600001973491C1B786D1E082902F808304FEA2F
:10161000091908F1010801DA002DF0DC21688B06B8
:1016200002D516E0A8F10108E04505DD02EB08034C
:1016300013F8013C302BF5D0B8F1000F09DD02EBB7
:10164000080313F8013C2E2B03D1090701D4A8F19C
:101650000108002D05DD3E2102F808106D1E08F17D
:101660000108407C002E02F8080008F1010804DAA5
:101670002D20764202F8080002E02B2002F8080034
:101680000A214FF47A70864208F101080BDB96FBC1
:10169000F0F3303302F8083096FBF0F308F101085C
:1016A00000FB136601E0642E0CDB642096FBF0F374
:1016B000303302F8083096FBF0F308F1010800FB24
:1016C000136601E00A2E06DB96FBF1F0303002F8DB
:1016D000080008F1010896FBF1F001FB10603030C2
:1016E00002F80800A16908F1010808EB050202EB05
:1016F0000A00081AA0612078C00602D42046FFF72D
:10170000C2F8216A08AE01EB0A00206204E0D4E9C5
:10171000012116F8010B9047BAF1010AF7D220789F
:10172000C00602D52046FFF7AEF86E4609E016F86F
:10173000010B3E280FD0D4E901219047206A401CBC
:101740002062B8F10108F2D22046FFF7B2F809B0E2
:101750000320BDE8F08F206A2844206203E0D4E92A
:101760000121302090476D1EEBD3F8E742A1030022
:1017700002FCFFFF10B5436913B1AFF3008001E035
:10178000FFF7BAF8012010BD127800F124010A70A9
:1017900000224A700122EDE711684FF0FF32E9E7BD
:1017A00010B5436913B1AFF3008001E0FFF748F9CA
:1017B000012010BD128800F1240182840022C2841D
:1017C0000122EDE711684FF0FF32E9E7007B00F0FE
:1017D000800070472DE9F04116460C460546FFF79C
:1017E00041FB036893F80101012807D0FF2C12D8B0
:1017F000185D80B101202C70BDE8F081D3F807019D
:101800003246214603F20713C7182846BC46BDE8F6
:10181000F041002360474FF0FF30EDE72DE9F04144
:101820000646FFF72BFB8046454613E016B1E068FD
:10183000B0420ED120682860D4E90101D8F80070C8
:1018400088472046FEF7F8FFD8F80000B842EBD1F1
:1018500000E025462C68002CE8D1BDE8F08110B5E9
:1018600000F008F9BDE8104000F0FFB87546FFF73A
:10187000F5FAAE4605006946534620F00700854656
:1018800018B020B5FEF7B6FDBDE820404FF00006C9
:101890004FF000074FF000084FF0000BAC46ACE8EB
:1018A000C009ACE8C009ACE8C009ACE8C00921F047
:1018B00007018D467047000000487047F05802202D
:1018C000034640688C46002818BF88423CBF034648
:1018D0004068F8D318681844884207D00CF1030018
:1018E00020F00700001D411A521A0146081D0A6027
:1018F000FEF7A2BF2DE9F0411F460446032601680A
:10190000072A01F4006004DB08B116A505E016A55E
:1019100003E008B115A500E015A521F01000206036
:10192000A069C01EA0610FB1401EA0612046FEF755
:10193000AAFF4FB1D4E9012138469047206A401CE4
:101940002062C01C206206E0206AFAE7D4E9012187
:1019500015F8010B9047761EF8D22046FEF7A9FF36
:10196000BDE8F0814E414E006E616E00494E46006A
:10197000696E66002DE9F047814616468AB0354803
:1019800078440DC88DE80D0032487844801C03ACC3
:101990000DC884E80D0041F69B300844372190FBC8
:1019A000F1F290FBF1F5A5F1800501FB12041B3C5F
:1019B00002D56442012000E00020DFF898A08046B4
:1019C0000027FA44AAF1BE0A0EE0E0070AD0324628
:1019D000684607EB470101230AEB810138F0D7FF86
:1019E0008DE8070064107F1C002CEED1194F7F4456
:1019F000AE3F19E0E80715D007EB04100DF1180A07
:101A000090E80E008AE80E00C068F04201D19819F3
:101A100008903246012306A903A838F0B8FF03ABAB
:101A200083E807006D10641C002DE3D14FF0010323
:101A300032466946B8F1000F03A802D038F092FF91
:101A400001E038F0A4FFC9E90001C9F808200AB094
:101A5000BDE8F087D09D030010B50446AFF30080C9
:101A60002046BDE81040FEF7AFBC002801D035F09D
:101A70005FB8704710B5002102A000F01AF80120ED
:101A800010BD0000534947414252543A2041626E12
:101A90006F726D616C207465726D696E6174696FCF
:101AA0006E00000010B500F01DF8BDE81040FFF713
:101AB000DCBF70B505460C460A2000E06D1C35F011
:101AC0003BF835B128780028F8D102E0641C35F0E5
:101AD00033F814B120780028F8D1BDE870400A200E
:101AE00035F02AB810B5012805D0002103A0FFF772
:101AF000E0FF012010BD09A1F8E70000534947525B
:101B0000544D454D3A204F7574206F6620686561CD
:101B100070206D656D6F7279000000003A20486595
:101B20006170206D656D6F727920636F7272757070
:101B3000746564000000000030B44FF0013C50F8C0
:101B4000042B51F8043BCCFA52F4D51A20D1FCB93D
:101B500050F8042B51F8043BCCFA52F4D51A17D1A3
:101B6000B4B950F8042B51F8043BCCFA52F4D51A0E
:101B70000ED16CB950F8042B51F8043BCCFA52F456
:101B8000D51A05D1002CDAD030BC4FF000007047D8
:101B900029BAB1FA81F111F01801D1F12000844085
:101BA000F2D1CA40CB4012F0FF0213F0FF0330BC69
:101BB000D01A704780B582B001900198C06D009036
:101BC0000098806F10F0500F4AD1FFE70099886F9E
:101BD00040F40070886700980068006800070028DB
:101BE00021D5FFE7009800680EF0A2FED0B1FFE714
:101BF00000980068C0688004002812D4FFE70099AC
:101C0000886F20F4807088670098806FC004002877
:101C100006D4FFE70099886F40F001008867FFE76E
:101C2000FFE7FFE718E000980068C068800790B9F8
:101C3000FFE70099886F20F4807088670098806FB4
:101C4000C004002806D4FFE70099886F40F0010027
:101C50008867FFE7FFE7FFE7009802F059FB10E015
:101C60000098806FC006002804D5FFE7009802F0B6
:101C70005FFB05E00098006F816E01988847FFE7E1
:101C8000FFE702B080BD000080B582B001900198EE
:101C9000C06D00900099886F40F0400088670099FF
:101CA000C86F40F00400C867009802F041FB02B022
:101CB00080BD000080B582B001900198C06D009099
:101CC000009802F031FB02B080BD000080B584B006
:101CD0000290029800680EF013FE002860D1FFE722
:101CE0000298006880683F21C8F2000108420ED0C7
:101CF000FFE70299886F40F0100088670299C86F6B
:101D000040F00100C86701208DF80F004CE00298F8
:101D1000016801200860029800680EF097FD0298A3
:101D2000006A48B1FFE70298006841F20001C4F27E
:101D30000261884233D0FFE704F068FD0190FFE7BD
:101D4000029800680068C00740BBFFE7029800687F
:101D50000EF0D6FD28B9FFE7029800680EF076FD78
:101D6000FFE704F053FD0199401A032815D3FFE75C
:101D7000029800680068C00770B9FFE70299886F91
:101D800040F0100088670299C86F40F00100C867F2
:101D900001208DF80F0007E0FFE7D1E7FFE7FFE73D
:101DA00000208DF80F00FFE79DF80F0004B080BD04
:101DB00080B582B00020ADF80600ADF80400E32045
:101DC00000F03CF8ADF80600E52000F037F8ADF87B
:101DD0000400BDF8060000EE100AB8EE400A9FEDC0
:101DE000131A80EE010A9FED122A20EE020A9FEDDF
:101DF000112A30EE020A47F63850C2F2030080ED95
:101E0000000ABDF8041000EE101AB8EE400A80EE89
:101E1000010A9FED091A20EE010AB9EE081A30EE08
:101E2000010A80ED010A02B080BD00BF00008047BA
:101E300052B82F4366663BC20000FA4280B586B0B6
:101E40008DF817000020ADF814008DF81200ADF8E1
:101E50001000694664200190086047F6EC60C2F209
:101E60000300029080210DF11702012304F00AFF04
:101E70000A20039004F0C4F9019902986A4611609F
:101E8000812104AA032304F0EFFD039804F0B8F9BC
:101E90009DF810109DF8110040EA0120ADF81400E3
:101EA000BDF8140006B080BDFFE7FEE780B542F242
:101EB0000003CEF200031A684EF6005C22F0010225
:101EC000CEF2000C1A60DCF800204FF6F07E02EA39
:101ED0000E024CF240239A4207D0DCF800204CF26C
:101EE000702302EA0E029A4205D142F20002CEF2BB
:101EF0000402126882B143F20802C4F20202012312
:101F0000136000BF136893B3136883B3136873B38C
:101F10001368002BF6D12AE041F2000CC5F6004C04
:101F2000DCF800306FF31F33B3F58A6F0FD0DCF8A5
:101F3000003040F283426FF31F33934207D0DCF846
:101F4000002040F285436FF31F329A42D3D144F60A
:101F50000842C5F602020123136000BF136833B1C3
:101F6000136823B1136813B11368002BF6D142F83C
:101F7000080C52F8080C401AB0FA80F0400980BDF5
:101F800085B004900498006A039004980068406942
:101F900020F4430003990843049909684861049BAD
:101FA0001A6958699969DB6918431043084303901B
:101FB0000498016801205022C4F20202914202906A
:101FC00000F06781FFE70498016801205022C5F204
:101FD00002029142029000F05C81FFE704980168E0
:101FE0000120D022C4F202029142029000F05181FD
:101FF000FFE7049801680120D022C5F20202914255
:10200000029000F04681FFE704980168012040F249
:102010005012C4F202029142029000F03A81FFE7AE
:1020200004980168012040F25012C5F20202914268
:10203000029000F02E81FFE704980168012040F231
:10204000D012C4F202029142029000F02281FFE716
:1020500004980168012040F2D012C5F202029142B8
:10206000029000F01681FFE704980168012040F219
:102070005022C4F202029142029000F00A81FFE76E
:1020800004980168012040F25022C5F202029142F8
:10209000029000F0FE80FFE704980168012040F202
:1020A000D022C4F202029142029000F0F280FFE7D7
:1020B00004980168012040F2D022C5F20202914248
:1020C000029000F0E680FFE704980168012040F2EA
:1020D0005032C4F202029142029000F0DA80FFE72F
:1020E00004980168012040F25032C5F20202914288
:1020F000029000F0CE80FFE704980168012040F2D2
:10210000D032C4F202029142029000F0C280FFE796
:1021100004980168012040F2D032C5F202029142D7
:10212000029000F0B680FFE704980168012040F2B9
:102130005042C4F202029142029000F0AA80FFE7EE
:1021400004980168012040F25042C5F20202914217
:10215000029000F09E80FFE704980168012040F2A1
:10216000D042C4F202029142029000F09280FFE756
:1021700004980168012040F2D042C5F20202914267
:10218000029000F08680FFE704980168012040F289
:102190005052C4F20202914202907AD0FFE70498B2
:1021A0000168012040F25052C5F2020291420290B1
:1021B0006FD0FFE704980168012040F2D052C4F2CA
:1021C00002029142029064D0FFE704980168012066
:1021D00040F2D052C5F202029142029059D0FFE77C
:1021E00004980168012040F25062C4F20202914258
:1021F00002904ED0FFE704980168012040F250623F
:10220000C5F202029142029043D0FFE704980168B0
:10221000012040F2D062C4F202029142029038D012
:10222000FFE704980168012040F2D062C5F2020283
:10223000914202902DD0FFE704980168012040F2FE
:102240005072C4F202029142029022D0FFE7049839
:102250000168012040F25072C5F2020291420290E0
:1022600017D0FFE704980168012040F2D072C4F251
:102270000202914202900CD0FFE7049800684FF6EA
:102280003001CAF6FD710844B0FA80F040090290AE
:10229000FFE70298C007B8B1FFE70498426A836A73
:1022A000C06A0021CFF6F07101EB035101F07C719F
:1022B00008436FF00F0101EB021101F47C7101433F
:1022C000039808430390FFE704980068006C00F04F
:1022D00080200399084304990968086404994A68AE
:1022E0008868096B02F07F0210430843039004984A
:1022F000C068B0F5806F40F07C81FFE7049801680A
:1023000001205022C4F202029142019000F0678144
:10231000FFE70498016801205022C5F202029142B1
:10232000019000F05C81FFE7049801680120D02251
:10233000C4F202029142019000F05181FFE704983B
:1023400001680120D022C5F202029142019000F002
:102350004681FFE704980168012040F25012C4F260
:1023600002029142019000F03A81FFE7049801686F
:10237000012040F25012C5F202029142019000F099
:102380002E81FFE704980168012040F2D012C4F2C8
:1023900002029142019000F02281FFE70498016857
:1023A000012040F2D012C5F202029142019000F0E9
:1023B0001681FFE704980168012040F25022C4F220
:1023C00002029142019000F00A81FFE7049801683F
:1023D000012040F25022C5F202029142019000F029
:1023E000FE80FFE704980168012040F2D022C4F289
:1023F00002029142019000F0F280FFE70498016828
:10240000012040F2D022C5F202029142019000F078
:10241000E680FFE704980168012040F25032C4F2E0
:1024200002029142019000F0DA80FFE7049801680F
:10243000012040F25032C5F202029142019000F0B8
:10244000CE80FFE704980168012040F2D032C4F248
:1024500002029142019000F0C280FFE704980168F7
:10246000012040F2D032C5F202029142019000F008
:10247000B680FFE704980168012040F25042C4F2A0
:1024800002029142019000F0AA80FFE704980168DF
:10249000012040F25042C5F202029142019000F048
:1024A0009E80FFE704980168012040F2D042C4F208
:1024B00002029142019000F09280FFE704980168C7
:1024C000012040F2D042C5F202029142019000F098
:1024D0008680FFE704980168012040F25052C4F260
:1024E0000202914201907AD0FFE70498016801202E
:1024F00040F25052C5F20202914201906FD0FFE7C4
:1025000004980168012040F2D052C4F202029142C4
:10251000019064D0FFE704980168012040F2D05296
:10252000C5F202029142019059D0FFE70498016878
:10253000012040F25062C4F20202914201904ED05A
:10254000FFE704980168012040F25062C5F20202E0
:102550009142019043D0FFE704980168012040F2C6
:10256000D062C4F202029142019038D0FFE7049891
:102570000168012040F2D062C5F20202914201904E
:102580002DD0FFE704980168012040F25072C4F298
:1025900002029142019022D0FFE7049801680120D5
:1025A00040F25072C5F202029142019017D0FFE74B
:1025B00004980168012040F2D072C4F202029142F4
:1025C00001900CD0FFE7049800684FF63001CAF67E
:1025D000FD710844B0FA80F040090190FFE70198CE
:1025E000C00728B1FFE7039840F480600390FFE73D
:1025F0000CE00498C068B0F5007F05D1FFE70398B0
:1026000040F40070039000E0FFE7FFE704980068E3
:10261000406C43F28011C3F6C0410840039908435F
:102620000499096848640498016800208864049843
:102630000168012040F25062C4F20202914200900F
:102640004ED0FFE704980168012040F25062C5F2C5
:1026500002029142009043D0FFE7049801680120F4
:1026600040F2D062C4F202029142009038D0FFE7FB
:1026700004980168012040F2D062C5F20202914242
:1026800000902DD0FFE704980168012040F25072BD
:10269000C4F202029142009022D0FFE70498016840
:1026A000012040F25072C5F202029142009017D010
:1026B000FFE704980168012040F2D072C4F20202E0
:1026C000914200900CD0FFE7049800684FF630016B
:1026D000CAF6FD710844B0FA80F040090090FFE7A7
:1026E0000098C00740B1FFE70498016800204865E2
:1026F000049909688865FFE7049801680020C867A5
:1027000005B0704783B002900191029B1A69586925
:102710009969D3F81CC040EA0C00DB6B18431043E6
:1027200008430199086002980078800600281BD5AC
:10273000FFE702994A6A8B6AC86A896B08430021DD
:10274000CFF6F07101EB035101F07C7108436FF09B
:102750000F0101EB021101F47C7140EA01020199C1
:10276000086810430860FFE702984168006B40F278
:102770007F2211400843019948600298C068B0F573
:10278000806F0DD1FFE7029800788006002806D5FB
:10279000FFE70199486840F480604860FFE70DE07A
:1027A0000298C068B0F5007F06D1FFE7019948683C
:1027B00040F40070486000E0FFE7FFE70298406CDB
:1027C00070B1FFE70299086C4A6C896C104301F004
:1027D0003F0140EA01420199486810434860FFE721
:1027E0000298B0F868000199886002980078800724
:1027F000002859D5FFE70298C16C0020CFF6FF7082
:1028000000EB01400021C0F2FF7100EA01020199D2
:102810008868104388600298006DB0F1FF3F06DCC5
:10282000FFE70199886840F08050886005E00199D1
:10283000886820F080508860FFE70298406DB0F112
:10284000FF3F06DCFFE70199886840F00050886090
:1028500005E00199886820F000508860FFE7029841
:10286000806DB0F1FF3F06DCFFE70199886840F01A
:102870008040886005E00199886820F08040886089
:10288000FFE70298C06DB0F1FF3F06DCFFE701995A
:10289000886840F00040886005E00199886820F071
:1028A00000408860FFE7FFE70298006E0199C8606A
:1028B0000298406E0199086102980078800700280C
:1028C0006AD5FFE70298006DB0F1FF3F0ADCFFE731
:1028D0000298006D4042009000986FF35F300199BC
:1028E000486106E00298006D6FF35F30019948611E
:1028F000FFE70298406DB0F1FF3F0FDCFFE7029861
:10290000406D4042009000990020C1F6FF7000EA3F
:10291000014201994869104348610BE00298416DFA
:102920000020C1F6FF7000EA014201994869104396
:102930004861FFE70298806DB0F1FF3F09DCFFE7D7
:102940000298806D40420090BDF8000001998861B6
:1029500005E00298B0F8580001998861FFE70298F5
:10296000C06DB0F1FF3F0BDCFFE70298C06D404245
:102970000090009A0199886940EA0240886107E066
:102980000298C26D0199886940EA02408861FFE7B8
:1029900001990020C86103E0019900204861FFE728
:1029A0000298006801990862029800788007002860
:1029B00006D5FFE70199086A40F4E060086205E087
:1029C0000199086A40F4A0600862FFE703B070470D
:1029D00086B00490039102920498039908430299E7
:1029E00008434FF6FF71884301900020009004983F
:1029F00018B1FFE7049800900EE0039818B1FFE7C4
:102A00000398009007E0029818B1FFE70298009041
:102A100000E0FFE7FFE7FFE70198BDF80210B0EB29
:102A2000014F03D0FFE70120059002E00020059050
:102A3000FFE7059806B0704785B0039002910192B8
:102A400000200090039828B1FFE7039890F8200039
:102A5000009012E0029828B1FFE7029890F8200059
:102A6000009009E0019828B1FFE7019890F8200054
:102A7000009000E0FFE7FFE7FFE7029858B1FFE7AB
:102A80000098029991F82010884203D0FFE70220B5
:102A9000049011E0FFE7019858B1FFE70098019911
:102AA00091F82010884203D0FFE70320049003E050
:102AB000FFE700200490FFE7049805B0704700008E
:102AC00089B007900691059200200490039002902F
:102AD000059800680190069828BBFFE7FFE7049877
:102AE0000799896888421DD2FFE7049838B9FFE743
:102AF000079800684FF6FC71084003900EE00398B9
:102B0000029003980799498800EB0140019950F819
:102B100021004FF6FC7108400390FFE70498013054
:102B20000490DCE734E0FFE704990798826800200E
:102B3000914200900AD2FFE7039806994FF6FC7283
:102B40001140401A18BF01200090FFE70098C0070D
:102B5000E8B1FFE7049838B9FFE7079800684FF637
:102B6000FC71084003900EE00398029003980799C7
:102B7000498800EB0140019950F821004FF6FC71A3
:102B800008400390FFE7049801300490CCE7FFE78A
:102B9000069860B1FFE7039806994FF6FC72114062
:102BA000884203D0FFE70120089029E0FFE704985E
:102BB0000599886002980799498840EA014005997B
:102BC000486003980799498840EA01400599C86020
:102BD0000598C068019950F8210070B1FFE7059988
:102BE000C868019A50F822004FF6FC721040079A0C
:102BF000528840EA02400861FFE700200890FFE7A2
:102C0000089809B07047000083B0029001910092CB
:102C1000029890F820008007002811D5FFE701985E
:102C200030B1FFE701990020CFF601600860FFE7AF
:102C3000009820B1FFE7009907200860FFE710E047
:102C4000019830B1FFE701990020CFF6010008603C
:102C5000FFE7009820B1FFE7009905200860FFE733
:102C6000FFE703B07047000083B002900191019824
:102C700090F82000029908600198006800F00800B0
:102C8000029908610198006800F4002002994861E7
:102C90000198006800F003000299886101980068BB
:102CA00000F440300299C8610198006800F47C711A
:102CB000012000EB1111029A51620199096801F09B
:102CC0007C7100EB1150029988620198006800F055
:102CD00040200299C8620198006842F20001C0F6E3
:102CE00000410840029988630198006800F4C050D0
:102CF0000299C863019840798007002807D5FFE74B
:102D000002994FF4007048600299C86015E001987C
:102D1000406800F07F0002994860019840794007C0
:102D2000002805D5FFE702994FF48060C86003E0F2
:102D300002990020C860FFE7FFE70198406800F4AF
:102D40000060029988600198406800F44040029950
:102D500008640198406800F0407002994864019846
:102D60004068C0F30540029988640198406800F00B
:102D70004040029908630198008902998866029888
:102D80000078800700280CD5FFE7019880680021B3
:102D9000C0F2FF710140012000EB11400299C864AC
:102DA00003E002990120C864FFE70198C068029916
:102DB00008660198006902994866029800788007C1
:102DC000002851D5FFE7019840696FF35F30ADF8F7
:102DD0000200BDF802000299086501984069C0F33D
:102DE0000C40ADF80200BDF8020002994865019858
:102DF000C07AC006002805D5FFE70299086D404259
:102E00000865FFE70198C07A8006002805D5FFE72E
:102E10000299486D40424865FFE701988069ADF826
:102E20000200BDF80200029988650198408BADF858
:102E30000200BDF802000299C8650198C07A4006F8
:102E4000002805D5FFE70299886D40428865FFE7B5
:102E50000198C07A0006002805D5FFE70299C86DE1
:102E60004042C865FFE709E0029900200865029921
:102E70004865029988650299C865FFE703B0704705
:102E800084B003900399886BC96B08430290039840
:102E9000016801205022C4F202029142019000F028
:102EA0006781FFE70398016801205022C5F2020202
:102EB0009142019000F05C81FFE7039801680120D6
:102EC000D022C4F202029142019000F05181FFE74A
:102ED000039801680120D022C5F2020291420190BC
:102EE00000F04681FFE703980168012040F250128C
:102EF000C4F202029142019000F03A81FFE7039888
:102F00000168012040F25012C5F202029142019084
:102F100000F02E81FFE703980168012040F2D012F3
:102F2000C4F202029142019000F02281FFE703986F
:102F30000168012040F2D012C5F2020291420190D4
:102F400000F01681FFE703980168012040F250224B
:102F5000C4F202029142019000F00A81FFE7039857
:102F60000168012040F25022C5F202029142019014
:102F700000F0FE80FFE703980168012040F2D022B4
:102F8000C4F202029142019000F0F280FFE7039840
:102F90000168012040F2D022C5F202029142019064
:102FA00000F0E680FFE703980168012040F250320C
:102FB000C4F202029142019000F0DA80FFE7039828
:102FC0000168012040F25032C5F2020291420190A4
:102FD00000F0CE80FFE703980168012040F2D03274
:102FE000C4F202029142019000F0C280FFE7039810
:102FF0000168012040F2D032C5F2020291420190F4
:1030000000F0B680FFE703980168012040F25042CB
:10301000C4F202029142019000F0AA80FFE70398F7
:103020000168012040F25042C5F202029142019033
:1030300000F09E80FFE703980168012040F2D04233
:10304000C4F202029142019000F09280FFE70398DF
:103050000168012040F2D042C5F202029142019083
:1030600000F08680FFE703980168012040F250528B
:10307000C4F20202914201907AD0FFE703980168FE
:10308000012040F25052C5F20202914201906FD0ED
:10309000FFE703980168012040F2D052C4F2020217
:1030A0009142019064D0FFE703980168012040F24B
:1030B000D052C5F202029142019059D0FFE7039825
:1030C0000168012040F25062C4F202029142019074
:1030D0004ED0FFE703980168012040F25062C5F22C
:1030E00002029142019043D0FFE70398016801205A
:1030F00040F2D062C4F202029142019038D0FFE760
:1031000003980168012040F2D062C5F202029142A8
:1031100001902DD0FFE703980168012040F2507222
:10312000C4F202029142019022D0FFE703980168A5
:10313000012040F25072C5F202029142019017D074
:10314000FFE703980168012040F2D072C4F2020246
:10315000914201900CD0FFE7039800684FF63001D0
:10316000CAF6FD710844B0FA80F040090190FFE70B
:103170000198C00730B1FFE70398016C029808433B
:103180000290FFE703980068406920F44300029929
:10319000084303990968486103980168002008649E
:1031A00003990A68496C5164039909688864039912
:1031B0000968C864039909680865039801680120D3
:1031C00040F25062C4F20202914200904ED0FFE7FA
:1031D00003980168012040F25062C5F20202914258
:1031E000009043D0FFE703980168012040F2D062CD
:1031F000C4F202029142009038D0FFE703980168C0
:10320000012040F2D062C5F20202914200902DD01E
:10321000FFE703980168012040F25072C4F20202F5
:103220009142009022D0FFE703980168012040F20C
:103230005072C5F202029142009017D0FFE7039846
:103240000168012040F2D072C4F202029142009063
:103250000CD0FFE7039800684FF63001CAF6FD7105
:103260000844B0FA80F040090090FFE70098C007DA
:1032700040B1FFE703980168002048650399096899
:103280008865FFE7039801680020C86704B07047AD
:1032900084B0039002910192009303980068806CBF
:1032A0004FF6FF718843BDF8001008440399096880
:1032B0008864039801684FF4FE40C860029803993F
:1032C0000968C864019803990968086504B07047E3
:1032D0007047000080B584B003900291019201987C
:1032E0000399486003980CF029F918B1FFE700F042
:1032F00025F8FFE70398029901220CF03FFA0398A2
:1033000001681020086203980168086840F0100006
:10331000086004B080BD000080B5012002F0CCFF41
:1033200080BD000080B54FF4805002F0C5FF80BD25
:1033300080B5202002F0C0FF80BD000072B6FFE71C
:10334000FEE7000080B582B00020C4F202200090A9
:103350004FF400610191002203F03AFA0A2002F0D2
:103360004FFF00980199012203F032FA642002F025
:1033700047FF02B080BD000047F60451C2F20301CE
:10338000012008607047000080B586B08DF81700F6
:10339000694664200290086047F6EC60C2F20300C0
:1033A000039070210DF117020123049303F06AFCCE
:1033B000049802F025FF02990398049B6A46116065
:1033C00071210DF1160203F04FFB9DF8160006B0B7
:1033D00080BD000080B50520FFF7D6FF000980BD45
:1033E00080B582B00320FFF7CFFF8DF806000420E0
:1033F000FFF7CAFF8DF807009DF806109DF807003B
:1034000001F00F0140EA012002B080BD80B582B01A
:103410000520FFF7B9FF8DF806000620FFF7B4FF7F
:103420008DF807009DF806109DF8070001F00F01C8
:1034300040EA012002B080BD80B547F6D850C2F204
:10344000030002F041FB80BD80B547F65060C2F238
:10345000030002F039FB80BD80B5CAB026902591EB
:1034600000208DF8930021902698006841F2000119
:10347000C4F20261884209D0FFE72598C06810F5C0
:10348000803F01D0FFE700E0FFE710E026980069E9
:10349000B0F1004F08D0FFE7269800691021C8F26C
:1034A0000001884201D1FFE700E0FFE7FFE7FFE707
:1034B000269890F87400012805D1FFE702208DF8C6
:1034C0009F0000F021BF2699012081F87400FFE7DA
:1034D000FFE7269800680DF023FA002840F00087E7
:1034E000FFE72698006841F20001C4F202618842B9
:1034F00000F00A84FFE725980068000230B9FFE772
:1035000025980068C0F384601D9015E02598006838
:1035100090FAA0F04890489820B9FFE720208DF855
:10352000270105E04898B0FA80F08DF82701FFE701
:103530009DF827011D90FFE71D9800F01F01012055
:1035400000FA01F226980168C8691043C8612698FC
:10355000006825990A6849680DF034FA26980068D1
:103560000DF0DEF92090269800680DF0B9F91F9053
:103570002098002840F0C781FFE71F98002840F0FE
:10358000C281FFE726980068259A116892680DF0BD
:103590007FFA2598406926990968C96801F00C01ED
:1035A0004908884023902598006904283DD0FFE70A
:1035B0002698006825990A680969239B0DF010FB7D
:1035C00026980068259A1169D2690DF023FB259889
:1035D000807E012818D1FFE726980068259A116996
:1035E000527EB2FA82F2520952060DF03BFB269847
:1035F0000068259A1169527E013AB2FA82F25209A4
:1036000092060DF01BFB0FE02698006825990969CA
:1036100000221C920DF026FB1C9A26980068259922
:1036200009690DF00BFBFFE76CE1269800680021AB
:103630000DF032F9000248B9FFE726980068002132
:103640000DF02AF9C0F384601B9018E026980068FA
:1036500000210DF021F990FAA0F04690469820B98B
:10366000FFE720208DF81F0105E04698B0FA80F0B2
:103670008DF81F01FFE79DF81F011B90FFE71B98C6
:103680001A9025980068000230B9FFE72598006875
:10369000C0F38460199015E02598006890FAA0F0B6
:1036A0004490449820B9FFE720208DF8170105E0E9
:1036B0004498B0FA80F08DF81701FFE79DF81701E4
:1036C0001990FFE71A981999884209D1FFE72698BF
:1036D000006825990A68002319460DF081FAFFE772
:1036E0002698006801210DF0D7F8000248B9FFE7DD
:1036F0002698006801210DF0CFF8C0F3846018907F
:1037000018E02698006801210DF0C6F890FAA0F0A4
:103710004290429820B9FFE720208DF80F0105E084
:103720004298B0FA80F08DF80F01FFE79DF80F0185
:103730001890FFE71898179025980068000230B994
:10374000FFE725980068C0F38460169015E025987F
:10375000006890FAA0F04090409820B9FFE7202040
:103760008DF8070105E04098B0FA80F08DF8070168
:10377000FFE79DF807011690FFE717981699884212
:1037800009D1FFE72698006825990A6801210023DE
:103790000DF026FAFFE72698006802210DF07CF86C
:1037A000000248B9FFE72698006802210DF074F87E
:1037B000C0F38460159018E02698006802210DF08F
:1037C0006BF890FAA0F03E903E9820B9FFE72020D9
:1037D0008DF8FF0005E03E98B0FA80F08DF8FF000C
:1037E000FFE79DF8FF001590FFE7159814902598C6
:1037F0000068000230B9FFE725980068C0F38460D4
:10380000139015E02598006890FAA0F03C903C9841
:1038100020B9FFE720208DF8F70005E03C98B0FACA
:1038200080F08DF8F700FFE79DF8F7001390FFE7B1
:1038300014981399884209D1FFE7269800682599C2
:103840000A68022100230DF0CBF9FFE726980068F3
:1038500003210DF021F8000248B9FFE7269800681F
:1038600003210DF019F8C0F38460129018E0269837
:10387000006803210DF010F890FAA0F03A903A9801
:1038800020B9FFE720208DF8EF0005E03A98B0FA64
:1038900080F08DF8EF00FFE79DF8EF001290FFE752
:1038A0001298119025980068000230B9FFE725981A
:1038B0000068C0F38460109015E02598006890FAC5
:1038C000A0F03890389820B9FFE720208DF8E70065
:1038D00005E03898B0FA80F08DF8E700FFE79DF832
:1038E000E7001090FFE711981099884209D1FFE78F
:1038F0002698006825990A68032100230DF070F9C5
:10390000FFE7FFE7FFE7269800680CF0F9FF0028C3
:1039100040F0F981FFE726980068259A1168D2687F
:103920000DF00EF92598C06810F5803F40F0D98061
:10393000FFE725980068000230B9FFE72598006886
:10394000C0F384600F9015E02598006890FAA0F00D
:103950003690369820B9FFE720208DF8DF0005E08B
:103960003698B0FA80F08DF8DF00FFE79DF8DF00B1
:103970000F90FFE70F98013000F01F00092852D880
:10398000FFE725980068000230B9FFE72598006836
:10399000C0F384600E9015E02598006890FAA0F0BE
:1039A0003490349820B9FFE720208DF8D70005E047
:1039B0003498B0FA80F08DF8D700FFE79DF8D70073
:1039C0000E90FFE70E98013000F01F0080060D906A
:1039D00025980068000230B9FFE725980068C0F319
:1039E00084600C9015E02598006890FAA0F0329061
:1039F000329820B9FFE720208DF8CF0005E03298FB
:103A0000B0FA80F08DF8CF00FFE79DF8CF000C9062
:103A1000FFE70D980C99013101F01F02012191403F
:103A200008430B9053E025980068000230B9FFE787
:103A300025980068C0F384600A9015E02598006816
:103A400090FAA0F03090309820B9FFE720208DF850
:103A5000C70005E03098B0FA80F08DF8C700FFE7A6
:103A60009DF8C7000A90FFE70A98013000F01F0098
:103A70008006099025980068000230B9FFE7259874
:103A80000068C0F38460089015E02598006890FAFB
:103A9000A0F02E902E9820B9FFE720208DF8BF00CF
:103AA00005E02E98B0FA80F08DF8BF00FFE79DF892
:103AB000BF000890FFE709980899013101F01F0243
:103AC00001219140084340F000700B90FFE70B98F4
:103AD0001E90269800681E99259A92680CF0D8FFCF
:103AE000FFE72598C0780006002840F10B81FFE72A
:103AF0002698016848F20002C4F20222069241F2BE
:103B00000830C4F202600790914204BF48F20830C6
:103B1000C4F202200CF0B8FE069A014607982291E2
:103B200026990968914204BF48F20830C4F2022085
:103B300048F20831C4F20221884208D1FFE748F276
:103B40000000C4F202200CF0DBFE059007E041F219
:103B50000000C4F202600CF0D3FE0590FFE7059868
:103B6000002840F0C580FFE7259800680021CCF6CA
:103B7000086188424BD1FFE79DF88A0000060028C3
:103B800045D4FFE72698006848F20001C4F20221FC
:103B9000884209D0FFE72698006841F20001C4F28C
:103BA0000261884232D1FFE72698016848F200029C
:103BB000C4F2022241F20830C4F20260914204BF12
:103BC00048F20830C4F20220229941F400010CF0BE
:103BD000DFFF40F20000C2F2000000684FEA9010E0
:103BE00042F66351C0F23E51A0FB01104FEA901122
:103BF0004FF0020000EB41002190FFE7219820B137
:103C0000FFE7219801382190F8E7FFE76FE025985A
:103C100000680021CCF6042188422ED1FFE79DF8F0
:103C20008B00C00748BBFFE72698006848F20001F8
:103C3000C4F20221884209D0FFE72698006841F2C9
:103C40000001C4F20261884216D1FFE7269801689C
:103C500048F20002C4F2022241F20830C4F20260CB
:103C6000914204BF48F20830C4F20220229941F088
:103C700080710CF08DFFFFE738E025980068012186
:103C8000C8F2000188422FD1FFE79DF88A00400664
:103C9000002829D4FFE72698006848F20001C4F202
:103CA0000221884209D0FFE72698006841F200010E
:103CB000C4F20261884216D1FFE72698016848F2F3
:103CC0000002C4F2022241F20830C4F202609142C2
:103CD00004BF48F20830C4F20220229941F4800166
:103CE0000CF056FFFFE700E0FFE7FFE7FFE708E023
:103CF0002699886F40F02000886701208DF8930096
:103D0000FFE7FFE7FFE7EAE2259800681E9002F070
:103D100075FDB0F5805F4DD1FFE72598006842F250
:103D20000001CBF20061884205D1FFE70020CDF60B
:103D300040201E903DE02598006844F20001CBF63B
:103D40000021884205D1FFE70020CDF680601E905B
:103D50002EE02598006841F20001CBF20021884254
:103D600005D1FFE70120C8F200101E901FE0259842
:103D700000680021CDF22061884205D1FFE70020D4
:103D8000CDF210201E9011E0259800680021CDF2A0
:103D90002071884205D1FFE70020CDF220601E90FF
:103DA00003E0259800681E90FFE7FFE7FFE7FFE7C5
:103DB000FFE7FFE725984068022800F0B481FFE79D
:103DC00026980069B0F1004F08D0FFE726980069F7
:103DD0001021C8F20001884206D1FFE7269800684A
:103DE0001E990CF0B1FD94E02698D0F88800259932
:103DF000496801F01F020F219140884304901E98EA
:103E0000000228B9FFE71E98C0F38460039014E015
:103E10001E9890FAA0F02C902C9820B9FFE7202053
:103E20008DF8B70005E02C98B0FA80F08DF8B70057
:103E3000FFE79DF8B7000390FFE704980399259AE0
:103E4000526802F01F02914008432699C1F8880089
:103E500025984168012000EB91002699896A8842E3
:103E600056D8FFE702F0CAFCB0F5805F48D8FFE7FC
:103E70001E98000228B9FFE71E98C0F384600290E4
:103E800014E01E9890FAA0F02A902A9820B9FFE733
:103E900020208DF8AF0005E02A98B0FA80F08DF868
:103EA000AF00FFE79DF8AF000290FFE702981428EB
:103EB00025D3FFE71E98000228B9FFE71E98C0F33C
:103EC0008460019014E01E9890FAA0F02890289841
:103ED00020B9FFE720208DF8A70005E02898B0FA68
:103EE00080F08DF8A700FFE79DF8A7000190FFE79D
:103EF0000198A0F10901012088401E90FFE7FFE72B
:103F000026980068259949681E9A0CF05BFDFFE72A
:103F1000FFE7269800681E99259A92680CF0B8FD74
:103F20002598C0780006002840F1FC80FFE726981D
:103F3000016848F20002C4F2022241F20830C4F2E1
:103F40000260914204BF48F20830C4F202200CF033
:103F50009BFC22902598006842F20001CBF20061A0
:103F6000884236D1FFE79DF88A000006002830D449
:103F7000FFE72698016848F20002C4F2022241F2EB
:103F80000830C4F20260914204BF48F20830C4F223
:103F90000220229941F400010CF0FAFD40F20000E9
:103FA000C2F2000000684FEA901042F66351C0F27E
:103FB0003E51A0FB01016FF0010000EA5110219079
:103FC000FFE7219820B1FFE7219801382190F8E719
:103FD00089E02598006844F20001CBF60021884270
:103FE0001BD1FFE79DF88B00C007B0B9FFE726980B
:103FF000016848F20002C4F2022241F20830C4F221
:104000000260914204BF48F20830C4F202202299B3
:1040100041F080710CF0BCFD64E02598006801213E
:10402000C8F2000188421CD1FFE79DF88A004006D3
:10403000002816D4FFE72698016848F20002C4F26F
:10404000022241F20830C4F20260914204BF48F2F9
:104050000830C4F20220229941F480010CF098FD4E
:104060003FE02598006841F20001CBF20021884230
:1040700035D1FFE79DF88A00400600282FD4FFE7DE
:104080002698006841F20001C4F20261884225D1FD
:10409000FFE72698016848F20002C4F2022241F2CA
:1040A0000830C4F20260914204BF48F20830C4F202
:1040B0000220229941F480010CF06AFD02F09EFB7F
:1040C000B0F5805F09D8FFE726980168D1F8D000E5
:1040D00040F00100C1F8D000FFE7FFE700E0FFE794
:1040E000FFE7FFE7FFE702F089FBB0F5005F18D1BB
:1040F000FFE7259800680021CDF2207188420FD19A
:10410000FFE79DF88A004006002809D4FFE72698BB
:104110000168D1F8D00040F00100C1F8D000FFE7FD
:10412000FFE7FFE7DAE026980069B0F1004F08D01A
:10413000FFE7269800691021C8F20001884206D1E5
:10414000FFE7269800681E990CF02CFCFFE72598E5
:10415000C0780006002840F1C080FFE7269801687B
:1041600048F20002C4F2022241F20830C4F20260B6
:10417000914204BF48F20830C4F202200CF084FBE4
:1041800022902598006840F20001CCF60861884230
:1041900016D1FFE72698016848F20002C4F2022215
:1041A00041F20830C4F20260914204BF48F2083084
:1041B000C4F20220229921F400010CF0E9FC6DE028
:1041C000259800680021CCF60421884216D1FFE72B
:1041D0002698016848F20002C4F2022241F2083037
:1041E000C4F20260914204BF48F20830C4F20220D7
:1041F000229921F080710CF0CBFC4EE025980068EC
:104200000121C8F20001884216D1FFE72698016813
:1042100048F20002C4F2022241F20830C4F2026005
:10422000914204BF48F20830C4F20220229921F4DE
:1042300080010CF0ADFC2FE02598006841F20001F0
:10424000CBF20021884225D1FFE72698016848F289
:104250000002C4F2022241F20830C4F2026091422C
:1042600004BF48F20830C4F20220229921F48001F0
:104270000CF08EFC02F0C2FAB0F5805F09D8FFE7BF
:1042800026980168D1F8D00040F00100C1F8D000B4
:10429000FFE700E0FFE7FFE7FFE7FFE702F0AEFA26
:1042A000B0F5005F18D1FFE7259800680021CDF236
:1042B000207188420FD1FFE79DF88A004006002850
:1042C00009D4FFE726980168D1F8D00040F001003A
:1042D000C1F8D000FFE7FFE7FFE7FFE7FFE708E0EF
:1042E0002699886F40F02000886701208DF89300A0
:1042F000FFE7FFE72699002081F87400FFE79DF8AB
:1043000093008DF89F00FFE79DF89F004AB080BDA5
:1043100081B0009047F63451C2F20301087840F0B2
:104320000400087001B0704781B0009001B0704780
:1043300081B0009001B0704780B590B00E90002021
:104340008DF837000C900B900E9820B9FFE70120F4
:104350008DF83F000BE30E98006841F20001C4F2B3
:104360000261884201D0FFE700E0FFE70E98006994
:10437000C8B1FFE70E98006841F20001C4F2026183
:10438000884208D0FFE70E9890F82C00012801D150
:10439000FFE7FFE706E00E980069012801D1FFE77B
:1043A000FFE7FFE7FFE70E98806F50B9FFE70E9831
:1043B00000F0E2FA0E990020C8670E9981F87400A7
:1043C000FFE70E9800680CF093FA28B1FFE70E980B
:1043D00000680CF02FFAFFE70E9800680CF098FACE
:1043E000F0B9FFE70E9800680CF03EFA40F20000CA
:1043F000C2F200000068800942F66351C0F23E51EB
:10440000A0FB01108109022000EB41000990FFE7A9
:10441000099820B1FFE7099801380990F8E7FFE70C
:104420000E9800680CF074FA70B9FFE70E99886F67
:1044300040F0100088670E99C86F40F00100C8670F
:1044400001208DF83700FFE70E9800680CF068FA3D
:104450000A900E98806FC006002800F17A82FFE76C
:104460000A98002840F07582FFE70E98806F40F0B0
:10447000020020F480700E9988670E9800680CF096
:104480003FFA00285AD1FFE70E98006841F2000178
:10449000C4F2026188423FD0FFE70E98016848F2FB
:1044A0000002C4F2022241F20830C4F202609142DA
:1044B00004BF48F20830C4F2022048F20831C4F2C6
:1044C0000221884208D1FFE748F20000C4F202202E
:1044D0000CF016FA069007E041F20000C4F2026008
:1044E0000CF00EFA0690FFE70698A0B9FFE70E98C9
:1044F0000268416848F20003C4F2022341F2083026
:10450000C4F202609A4204BF48F20830C4F20220AA
:104510000CF030FBFFE710E00E99086889680CF09A
:10452000B5FB41F20831C4F2026108680E9A526884
:10453000920C62F395400860FFE7FFE70E98006871
:1045400041F20001C4F2026188420ED0FFE70E99E9
:1045500091F82420486C40EA42308A68104391F870
:104560002C1040EA01400C903DE00E98017F890339
:1045700090F8242041EA4231436C01F58052002B2F
:1045800018BF1146426911430591C07C00060028FE
:1045900006D5FFE70E98006920F00040049003E084
:1045A0004FF400100490FFE7059804990843039026
:1045B0000E98006848F20001C4F20221884205D139
:1045C000FFE70E9890F84000029005E00E9890F8F2
:1045D000400040000290FFE70398029901430C98C5
:1045E00008430C90FFE70E9890F82C0001282BD17F
:1045F000FFE70E98006841F20001C4F202618842B0
:104600000BD0FFE70E98016B0020CFF6FE7000EB99
:1046100041410C9808430C9015E00E9890F8240046
:1046200028B9FFE70C9840F480300C900AE00E990E
:10463000886F40F0200088670E99C86F40F0010035
:10464000C867FFE7FFE7FFE70E98006841F2000147
:10465000C4F2026188421CD0FFE70E98406B50B153
:10466000FFE70E99486B896B00F4787001430C9852
:1046700008430C90FFE70E980068C0684CF21301E5
:10468000CFF6F07108400C9908430E990968C8608C
:1046900031E00E98406B50B1FFE70E99486B896B83
:1046A00000F4E07001430C9808430C90FFE70E986B
:1046B0000068C06848F20D01CFF6DE7108400C9921
:1046C00008430E990968C8600E98006A38B1FFE780
:1046D0000E980168026A486C10434864FFE70E9820
:1046E000C06E38B1FFE70E980168C26E486C104387
:1046F0004864FFE7FFE70E98006841F20001C4F24A
:104700000261884200F0A380FFE70E9800680CF079
:1047100007F908900E9800680CF0E2F807900898E6
:10472000002873D1FFE7079800286FD1FFE70E98A4
:10473000017F89030191006848F20001C4F202215F
:10474000884204D1FFE70E98C06B009004E00E98F9
:10475000C06B40000090FFE70198009908430C905F
:104760000E980068C06844F2030188430C9908431E
:104770000E990968C8600E98C06830B1FFE70E99BD
:104780000868C9680CF012FAFFE70E9890F8540018
:10479000012829D1FFE70E98406B20B1FFE70E9862
:1047A000806B08B9FFE7FFE70E98006800694FF6D5
:1047B0001E01CFF6004100EA01020E9B1968D3F8F2
:1047C00058E0D86DD3F860C040EA0E4040EA0C00D3
:1047D000D3F864C040EA0C009B6E40EA930010439B
:1047E00040F00100086106E00E980168086920F0B9
:1047F00001000861FFE70E980068006920F0704032
:104800000E9A1168126D10430861FFE70E98006957
:1048100001280CD1FFE70E980068006B20F00F0014
:104820000E9A1168926A013A1043086306E00E98E6
:104830000168086B20F00F000863FFE70E98806F97
:1048400040F0010020F002000E99886780E00E9889
:1048500090F85400012810D1FFE70E99886DCB6DB8
:104860000A6E896E1843104301430B9808430B905E
:104870000B9840F001000B90FFE70E98006800696C
:104880004FF60241CFF2FF7108400B9908430E9991
:10489000096808610E9908688A6C00210CF014FA06
:1048A0000E990868CA6C6FF0FB010CF00DFA0E98B7
:1048B000006938B9FFE70E980168886A60F00F0058
:1048C00088621BE00E980069B0F5001F14D1FFE765
:1048D0000E980068806A0E980168836AD0F8882074
:1048E0006FF0030000EB830000F01C036FF00F007B
:1048F00098401043886200E0FFE7FFE70E980068E9
:10490000C0684FF6F371C8F23F3108400C998842F5
:104910000CD1FFE70E990020C8670E98806F40F019
:10492000010020F002000E99886710E00E98806F59
:1049300040F0100020F002000E9988670E99C86FB1
:1049400040F00100C86701208DF83700FFE7FFE75E
:1049500008E00E99886F40F01000886701208DF8FC
:104960003700FFE79DF837008DF83F00FFE79DF81F
:104970003F0010B080BD000080B5D8B05790002037
:104980005690559054905390529037A86C21FBF755
:10499000E6FE06A8C021FBF7E2FE5798006848F241
:1049A0000001C4F20221884240F0D980FFE70020D4
:1049B00007904FF4004006904FF480402F9006A8D7
:1049C00005F074FF18B1FFE7FEF7B8FCFFE7FFE75B
:1049D00040F68C40C4F20260016841F480610160DD
:1049E000006800F4806005900598FFE7FFE740F657
:1049F0008C40C4F20260016841F00101016000686E
:104A000000F0010004900498FFE7FFE740F68C40B7
:104A1000C4F20260016841F002010160006800F028
:104A2000020003900398FFE70220529003200090B9
:104A300053900020029054900020C4F2022052A90A
:104A4000019101F0ADFC009A0199029852925392A3
:104A5000549040F20040C4F2022001F0A1FC029800
:104A600021213791389039903A903B904FF40021B2
:104A70003C9101213D914FF480323E924091419111
:104A80004FF0402142914390449048904590469089
:104A900045F65851C2F2020137A800F073FA18B176
:104AA000FFE7FEF74BFCFFE745F64050C2F202007D
:104AB00045F65852C2F20202002100F06DFC18B116
:104AC000FFE7FEF73BFCFFE745F64050C2F202006D
:104AD00000F0FAFD18B1FFE7FEF730FCFFE747F6FC
:104AE0005060C2F20300D021C4F2020101604FF411
:104AF000000181630021C1634FF40032026441640C
:104B00008121816400F086FA18B1FFE7FEF716FCF8
:104B1000FFE747F65060C2F2030045F64051C2F28B
:104B2000020100F007FD18B1FFE7FEF707FCFFE701
:104B3000FFE7579847F65061C2F2030101675798A3
:104B4000C865FFE747F65060C2F20300102100F08D
:104B500073FF18B1FFE7FEF7F1FBFFE7FFE758B07F
:104B600080BD000080B5A2B020901F911E922098B9
:104B700000680BF0D5FE002840F0FD80FFE7FFE75E
:104B8000209890F87400012804D1FFE702208DF8E6
:104B90008700F9E02099012081F87400FFE7FFE722
:104BA0002098FDF793F88DF877009DF8770000289E
:104BB00040F0D980FFE72098806F40F4807040F685
:104BC00001618843209988672098006841F20001BC
:104BD000C4F20261884211D0FFE72098806FC004C0
:104BE000002806D5FFE72099C86F20F00600C867A7
:104BF00003E020990020C867FFE703E02099002028
:104C0000C867FFE72098016F41F6B530C0F6000095
:104C100008662098016F41F6B540C0F6000048666E
:104C20002098016F41F68940C0F600008866209800
:104C300001681C200860FFE72099002081F87400BB
:104C4000FFE720980168486840F01000486020980D
:104C5000006841F20001C4F20261884207D1FFE717
:104C600020980168C86840F00100C860FFE72098FC
:104C7000006F90F85000000600284CD5FFE7209800
:104C8000006F406F002841D0FFE72098006F406F11
:104C90000068D8B3FFE72098006F406F016801A853
:104CA00000F09EF920B1FFE701208DF887006BE04E
:104CB0000798022804D1FFE71E9880001C900BE0A3
:104CC0000798012804D1FFE71E9840001C9002E0DD
:104CD0001E981C90FFE7FFE71C982099096F496F09
:104CE0000968886020990868096F4030496F096831
:104CF000C8601F982099096F496F0968086120985A
:104D0000006F00F047FD8DF8770003E001208DF87B
:104D10007700FFE722E02098006F8069022804D125
:104D2000FFE71E9880001C900DE02098006F8069BE
:104D3000012804D1FFE71E9840001C9002E01E9855
:104D40001C90FFE7FFE720980168006F40311F9A31
:104D50001C9B01F0EBF98DF87700FFE720980068C5
:104D60000BF088FE06E0FFE72099002081F8740030
:104D7000FFE7FFE703E002208DF87700FFE79DF8EB
:104D800077008DF88700FFE79DF8870022B080BD8F
:104D900087B006900591049200208DF80F001F2027
:104DA00002909DF81400C00720B9FFE701208DF89C
:104DB0000F004BE0FFE70299481E0290002001908F
:104DC00051B1FFE70598029901F01F0120FA01F1A6
:104DD000012088430190FFE70198C00708B1FFE771
:104DE000E9E70498009018282BD80099DFE801F033
:104DF00028292929292929291F292929292929292E
:104E000016292929292929290D000298072804D3C0
:104E1000FFE701208DF80F00FFE716E00298082851
:104E200004D3FFE701208DF80F00FFE70DE00298A3
:104E3000102804D3FFE701208DF80F00FFE704E0FE
:104E400003E001208DF80F00FFE7FFE79DF80F005A
:104E500078B9FFE7059806990968486106980068DF
:104E6000806820F018000499084306990968886052
:104E7000FFE79DF80F0007B07047000080B582B0D3
:104E80000090009820B9FFE701208DF8070057E057
:104E90000098407F38B9FFE7009900200877009814
:104EA00000F052F8FFE70099022048770098007957
:104EB00080B9FFE70098016841F6B750C0F2C140E1
:104EC000486100980068806820F01800009909681F
:104ED00088600BE000988168C268FFF759FF20B135
:104EE000FFE701208DF807002AE0FFE700984079EE
:104EF00030B9FFE7009801684FF0FF30086104E027
:104F00000098016800690861FFE700980068806800
:104F100020F06000009A1168526910438860009880
:104F20000068806820F08000009A11689269104340
:104F3000886000990120487700208DF80700FFE77E
:104F40009DF8070002B080BD82B001900198006812
:104F500043F20001C4F20201884210D1FFE7FFE7EB
:104F600040F68840C4F20260016841F4805101605B
:104F7000006800F4805000900098FFE7FFE702B05F
:104F80007047000080B584B002900191029818B17A
:104F9000FFE7019820B9FFE701208DF80F001AE024
:104FA000029800788006002801D5FFE7FFE7029805
:104FB000406C08B1FFE7FFE70298007880070028FF
:104FC00001D5FFE7FFE702980199FDF79BFB002061
:104FD0008DF80F00FFE79DF80F0004B080BD0000C2
:104FE00080B584B002900191029818B1FFE7019852
:104FF00020B9FFE701208DF80F0007E00298019922
:10500000FDF732FE00208DF80F00FFE79DF80F003E
:1050100004B080BD80B584B0029001F0F7FB019030
:10502000029820B9FFE701208DF80F00AFE1029848
:10503000016801205022C4F202029142009000F067
:105040006781FFE70298016801205022C5F2020241
:105050009142009000F05C81FFE702980168012016
:10506000D022C4F202029142009000F05181FFE789
:10507000029801680120D022C5F2020291420090FC
:1050800000F04681FFE702980168012040F25012CB
:10509000C4F202029142009000F03A81FFE70298C8
:1050A0000168012040F25012C5F2020291420090C4
:1050B00000F02E81FFE702980168012040F2D01233
:1050C000C4F202029142009000F02281FFE70298B0
:1050D0000168012040F2D012C5F202029142009014
:1050E00000F01681FFE702980168012040F250228B
:1050F000C4F202029142009000F00A81FFE7029898
:105100000168012040F25022C5F202029142009053
:1051100000F0FE80FFE702980168012040F2D022F3
:10512000C4F202029142009000F0F280FFE7029880
:105130000168012040F2D022C5F2020291420090A3
:1051400000F0E680FFE702980168012040F250324B
:10515000C4F202029142009000F0DA80FFE7029868
:105160000168012040F25032C5F2020291420090E3
:1051700000F0CE80FFE702980168012040F2D032B3
:10518000C4F202029142009000F0C280FFE7029850
:105190000168012040F2D032C5F202029142009033
:1051A00000F0B680FFE702980168012040F250420B
:1051B000C4F202029142009000F0AA80FFE7029838
:1051C0000168012040F25042C5F202029142009073
:1051D00000F09E80FFE702980168012040F2D04273
:1051E000C4F202029142009000F09280FFE7029820
:1051F0000168012040F2D042C5F2020291420090C3
:1052000000F08680FFE702980168012040F25052CA
:10521000C4F20202914200907AD0FFE7029801683E
:10522000012040F25052C5F20202914200906FD02C
:10523000FFE702980168012040F2D052C4F2020256
:105240009142009064D0FFE702980168012040F28B
:10525000D052C5F202029142009059D0FFE7029865
:105260000168012040F25062C4F2020291420090B3
:105270004ED0FFE702980168012040F25062C5F26B
:1052800002029142009043D0FFE70298016801209A
:1052900040F2D062C4F202029142009038D0FFE79F
:1052A00002980168012040F2D062C5F202029142E8
:1052B00000902DD0FFE702980168012040F2507263
:1052C000C4F202029142009022D0FFE702980168E6
:1052D000012040F25072C5F202029142009017D0B4
:1052E000FFE702980168012040F2D072C4F2020286
:1052F000914200900CD0FFE7029800684FF6300111
:10530000CAF6FD710844B0FA80F040090090FFE74A
:105310000098C00708B1FFE7FFE7FFE70299002008
:1053200081F84C00FFE70299022081F854000298AE
:105330000168486940F006004861FFE7029800688C
:105340004069C00798B1FFE701F060FA0199401A7F
:1053500006280BD3FFE702991020886502990320E5
:1053600081F8540001208DF80F0010E0E6E7029864
:10537000FDF786FD0299886C086502990020886512
:10538000029A012182F854108DF80F00FFE79DF872
:105390000F0004B080BD000080B58CB00A90099168
:1053A00008920A9818B1FFE7089820B9FFE7012092
:1053B0008DF82F00B9E00A984069012807D1FFE76E
:1053C0000A990420086101208DF82F00ADE00A98A9
:1053D00000680999089AFDF7FBFA38B1FFE70A99C6
:1053E0000520086101208DF82F009EE00A980068D2
:1053F0000999089AFDF720FB38B1FFE70A990420C4
:10540000086101208DF82F008FE00A9902200873AF
:105410000A9900200861089807A906AAFDF7F4FB7D
:105420000A980068E0B9FFE7099838B9FFE70898DB
:105430000A9908600A990120886010E009980A9981
:10544000086008984FF6FC710840079908430999CD
:10545000069A41F822000A9902208860FFE75BE083
:10546000099878B9FFE70A9800684FF6FC71084080
:10547000079908430899069A41F8220008980A9962
:10548000086044E0069801900A98099901AAFDF77E
:1054900017FBA0BBFFE703980A99896888421BD1D4
:1054A000FFE70A98406860B1FFE70A9840684FF646
:1054B000FC710840079908430899069A41F82200B0
:1054C000FFE708984FF6FC710840079908430999CF
:1054D000069A41F8220011E00998069A50F8220035
:1054E000089941F8220008984FF6FC710840079986
:1054F00008430999069A41F82200FFE706E00A9955
:105500000620086101208DF82F000EE0FFE70A99C0
:10551000886801308860FFE70A99002008610A9ACC
:10552000012111738DF82F00FFE79DF82F000CB0BB
:1055300080BD000085B003900291039818B1FFE789
:10554000029820B9FFE701208DF81300B7E0039817
:1055500090F854008DF80700039890F85400022842
:1055600005D0FFE79DF8070005280DD1FFE7039957
:1055700040208865FFE70399002081F84C00FFE791
:1055800001208DF813009AE00298007B022806D1D2
:10559000FFE70299012008618DF813008FE003985E
:1055A0000168012040F25062C4F202029142009070
:1055B0004ED0FFE703980168012040F25062C5F227
:1055C00002029142009043D0FFE703980168012056
:1055D00040F2D062C4F202029142009038D0FFE75C
:1055E00003980168012040F2D062C5F202029142A4
:1055F00000902DD0FFE703980168012040F250721F
:10560000C4F202029142009022D0FFE703980168A1
:10561000012040F25072C5F202029142009017D070
:10562000FFE703980168012040F2D072C4F2020241
:10563000914200900CD0FFE7039800684FF63001CC
:10564000CAF6FD710844B0FA80F040090090FFE707
:105650000098C00778B9FFE70298006890F820002A
:105660008007002807D5FFE7029903200861012081
:105670008DF8130023E00398006D81280CD1FFE71B
:105680000298406838B9FFE70299042008610120B8
:105690008DF8130013E00BE00298406838B1FFE783
:1056A00002990420086101208DF8130007E0FFE74C
:1056B00002980399486700208DF81300FFE79DF8D2
:1056C000130005B07047000080B58AB008900898B4
:1056D00020B9FFE701208DF8270056E00898006800
:1056E00038B9FFE708990220086101208DF82700EA
:1056F0004BE00898406888B1FFE708980168406867
:10570000884204D1FFE700208DF827003DE008998A
:105710000420086101208DF8270036E008984069D0
:10572000012807D1FFE708990420086101208DF8BE
:1057300027002AE0089902200873089900200090A9
:1057400008610898006807A906AAFDF75DFA0099A4
:1057500006980190089801AAFDF7B2F900980899F7
:1057600009684FF6FC721140079A1143049A069B90
:1057700042F82310089A1168516008990861089A44
:10578000012111738DF82700FFE79DF827000AB06B
:1057900080BD000080B586B00490049820B1FFE77A
:1057A0000498406F20B9FFE701208DF8170088E0CA
:1057B000049890F854008DF80F0004980068406930
:1057C00000F4803002909DF80F00012809D0FFE717
:1057D0009DF80F00022863D1FFE7029800285FD0F0
:1057E000FFE7049890F85400012852D1FFE7FFE743
:1057F000049890F84C00012804D1FFE702208DF8AE
:1058000017005EE00499012081F84C00FFE7FFE7F4
:105810000499022081F854000499496F087304998F
:10582000002088650499496F0861049801684869F7
:1058300040F4BA4048610498406E38B1FFE70498DC
:105840000168486940F400704861FFE70498006F00
:1058500038B1FFE704980168486940F40050486196
:10586000FFE70498406F006801A90022FDF7CCF91A
:1058700004980168406F408800040860049801683B
:10588000406F00684FF6FC721040019A1043C867E1
:10589000FFE704980168486940F0010048610CE0A6
:1058A000049940208865FFE70499002081F84C00A6
:1058B000FFE701208DF8170003E000208DF81700A6
:1058C000FFE79DF8170006B080BD000080B584B0EA
:1058D000029000F09BFF0190029820B9FFE70120A1
:1058E0008DF80F0079E0029890F8540002280DD04E
:1058F000FFE7029920208865FFE70299002081F8E0
:105900004C00FFE701208DF80F0066E00298016867
:10591000486940F0040048610299052081F854006C
:10592000FFE70298006800698004002827D4FFE799
:1059300000F06CFF0199401A06281FD3FFE7029977
:10594000886D40F0100088650299032081F85400AA
:10595000029890F850000006002805D5FFE702984D
:10596000416F01200873FFE7FFE70299002081F8EB
:105970004C00FFE701208DF80F002EE0D1E70298E0
:105980000168486940F0020048610299042081F8EA
:105990005400029801684FF4FE40C860029901204B
:1059A00081F85400029890F850000006002809D5AC
:1059B000FFE70298416F01200873029801680020F8
:1059C0008864FFE7FFE70299002081F84C00FFE7B9
:1059D000FFE700208DF80F00FFE79DF80F0004B0EF
:1059E00080BD000082B00090009820B9FFE7012040
:1059F0008DF807001CE0009890F85400022807D0AA
:105A0000FFE700992020886501208DF807000FE04E
:105A10000099042081F8540000980168486942F216
:105A2000040210434861FFE700208DF80700FFE7FC
:105A30009DF8070002B0704785B00390029103986B
:105A400020B9FFE701208DF813002AE003980068D1
:105A500040F6FF7188430190039800685038C0F306
:105A6000C4110120884000909DF80800C00600285D
:105A700013D5FFE7029800F01100112806D1FFE7C7
:105A8000009A019948681043486005E0009A01991E
:105A9000486890434860FFE7FFE700208DF8130057
:105AA000FFE79DF8130005B07047000081B000903B
:105AB0000098806D01B0704781B00090009890F818
:105AC000540001B07047000080B584B00390039883
:105AD000006840F6FF7188430290039800685038D0
