S013000052413850315F54455354322E73726563F4
S3150200000000040022990700028506000295070002F5
S315020000109507000295070002950700029507000260
S31502000020000000000000000000000000950700022A
S3150200003095070002000000009507000295070002DE
S315020000400348044B834202D0034B03B1184770475F
S3150200005028F1C90228F1C90200000000064B07492F
S31502000060C91A891048BF0131491003D0044B0BB19C
S3150200007001481847704700BF28F1C90228F1C90292
S315020000800000000010B5064C237843B9FFF7D8FFED
S31502000090044B13B10448AFF300800123237010BD53
S315020000A0300400220000000028F1C90208B5054B01
S315020000B01BB105490548AFF30080BDE80840FFF7CC
S315020000C0CDBF00BF000000003404002228F1C9029F
S315020000D0704700BF022800D070470249024800F06C
S315020000E0D7B800BF700A00024C04002208B5FFF719
S315020000F0EFFF002008BD00BF2DE9F84F0388DBB1F2
S315020001004FF0000A80464FF00109DFF8D4B0002410
S31502000110314D4FEACA07D8F8043035F8022BD919FF
S31502000120898891420AD00134032CF4D1B8F8003000
S315020001300AF1010A5345EAD8BDE8F88FDB5909FAF4
S3150200014004F603F0B853B3F1807F244BF6B293F86A
S315020001504C2C12D0324230D104F120021BF812305C
S31502000160DB09E0D01BF81230012123F08003C820FE
S315020001700BF8123000F042FAD5E7324210D004F101
S3150200018020021BF81230DB09CDD11BF812300121F7
S3150200019043F08003C8200BF8123000F02FFAC2E7B2
S315020001A0012000F0CDFA0D4B012093F84C2C32437E
S315020001B083F84C2C00F094FAE1E7012000F0C0FA33
S315020001C0064B012093F84C2C22EA060283F84C2CAB
S315020001D000F086FAC0E700BF9C0A000200E0014078
S315020001E000202040F8B50646FFF786FFEFF310829F
S315020001F0012383F31088234F3B681BB94020224911
S315020002000B7508753B6801333B6082F310883388AF
S3150200021000211BB31D4D08E01B01134445F8234082
S31502000220328801318BB29A4218D9736853F8314039
S3150200023003EBC1029288E0034FEA1223D2B2EBD556
S3150200024002EB031055F820E024F4803C2EF4803EA5
S3150200025045F820E01B0145F820C0DEE7EFF31082E7
S31502000260012383F310883B6813B13B68013B3B6073
S315020002703B681BB9802004490B75087582F3108808
S31502000280F8BD00BFAC040022000D4040000840400B
S3150200029008B5034B03600846FFF7A4FF002008BD1C
S315020002A054524F501D4A92F82630928CDBB202F01D
S315020002B00F02A2F1080103292BD8DFE801F020166C
S315020002C00C021749174A51F82330A2FB03231B09D4
S315020002D0154A136070471249124A51F82330A2FB9D
S315020002E00323114ADB08136070470D490D4A51F882
S315020002F02330A2FB03230C4A9B081360704708496C
S31502000300084A51F82330A2FB0323074A5B0813600D
S315020003107047034951F82330D340D9E700E0014042
S3150200032000040022ABAAAAAABC040022704700BF9E
S315020003304AF203514FF400429FED6F6B9FED707BC3
S3150200034038B57148714B724CD861724D72485D6115
S315020003501862A4F8FA131A6183ED007FFFF7A2FF71
S3150200036009230A2284F8502A84F8A23094F8003C21
S3150200037023B994F8013C980700F0B680644C94F8CF
S31502000380003C002B00F0A5800022614B83F8012C73
S3150200039083F8002C00235E4A82F8323092F83C3011
S315020003A01907FBD54FF6021140F25143C2F8AC10C1
S315020003B0A2F84C30BFF34F8FBFF36F8F0020574B1D
S315020003C0596921F400315961C3F85002BFF34F8FC6
S315020003D0BFF36F8F52490B6823F440530B60BFF390
S315020003E04F8FBFF36F8F0120137D01F1C04160F380
S315020003F0020313750B7DDA06FCD4494A136843F4EB
S3150200040040531360BFF34F8FBFF36F8FA2F5734252
S31502000410536913F4003311D1BFF34F8FBFF36F8FBC
S31502000420C2F85032BFF34F8FBFF36F8F536943F455
S3150200043000335361BFF34F8FBFF36F8F0023344AEC
S3150200044082F82A3092F83C309B06FBD50022354BC7
S315020004501A701A781A781A785A68FA2A04D032491F
S3150200046059605A68FA2AFBD12E4B9A687D2A04D023
S315020004702E4999609A687D2AFBD1052242F2201103
S31502000480234B2B481862998483F82620FFF70AFF2C
S3150200049001211E2000F0B2F8224A5368C3F3090371
S315020004A0642B84BF01231370FFF7FCFE4AF201524C
S315020004B0204B1A80BFF35F8F01201872BFF35F8F44
S315020004C04FF42541124A198082F85300A2F8FA1312
S315020004D038BD0121C82084F8001C00F08FF894F87A
S315020004E0003C012BFBD14FE74FF47A70FFF71EFF5A
S315020004F050E700BFAFF30080006CDC0200127A0006
S315020005000080000000366E015543DE13000400220F
S3150200051000E0014000CA9A3B0084D71700ED00E0D4
S3150200052000E001E000C01340FA00001E7D0000E179
S31502000530323423320020004038B50025284C0121F0
S31502000540C82084F8285000F059F884F8245094F80A
S315020005502430002BFBD194F82430214943F00203C6
S3150200056084F8243091F82430C3F340009B07F9D471
S315020005701B4A81F8220092F8223003F0FF00002B7A
S31502000580F9D192F84030164960F3C71382F8403029
S3150200059091F84030DB09FBD191F84200104A63F32F
S315020005A0C71081F8420092F84230DB09FBD192F87B
S315020005B044000B4963F3C71082F8440091F84430B3
S315020005C0C3F3C014DB09F9D1012000F0B9F8054BD9
S315020005D0012083F84C4CBDE8384000F081B800BFDA
S315020005E00020204000E00140704700BF00000000EC
S315020005F0A0F101000028FBD1704700BF1E4B1F4A25
S315020006001B6800FB01F1934213D302F1854202F506
S31502000610071203F5742302F6834203F23F23A2FB79
S3150200062003239B0CA3FB01314FF0FF30E1B1FFF72F
S31502000630DFBF4FF47A7210B4114C4FF0FF30B4FBA7
S31502000640F3F3A1FB02C434B9BCFBF3F080B15DF84D
S31502000650044BFFF7CDBFB1FBF3F1A1FB0212002A57
S31502000660F5D1084620B1F2E71846002BDFD17047D4
S315020006705DF8044B704700BFBC04002200127A00EA
S3150200068000CA9A3BF8B5002401260D4B0D4FD3F84C
S315020006900021D3F82051154006FA04F32B4204D068
S315020006A057F82430E0B203B198470134152CF3D140
S315020006B0034AC2F81051D2F820312B42FBD1F8BDC1
S315020006C000C0004058040022034B1A8812B1034BA3
S315020006D0C3F80023704700BFD40C000200C00040DC
S315020006E0EFF31081012383F31088124B33F81020A5
S315020006F092B22AB133F81020013A92B223F81020AE
S3150200070033F810309BB293B910B40B4A0B4CB2F8C3
S31502000710FA3334F810009BB243F4254323EA00036C
S31502000720A2F8FA3381F310885DF8044B704781F31F
S3150200073010887047B004002200E00140D80C000285
S3150200074030B4EFF31081012383F310880E4A32F896
S3150200075010309BB26BB90D4C0D4DB4F8FA3335F827
S3150200076010C09BB243EA0C0343F425439BB2A4F8A0
S31502000770FA3332F8103001339BB222F8103081F38B
S31502000780108830BC704700BFB004002200E0014070
S31502000790D80C000200BE704708B500F035F8FFF726
S315020007A0A5FCFEE7F8B5174F05463E68A6B17C687C
S315020007B006EB460604EB860602E00C34B4420BD086
S315020007C0637AAB42F9D1D4E900020021121A0C3441
S315020007D000F038F9B442F3D1BE6896B1FC6804EB76
S315020007E0061602E01034A6420BD0637BAB42F9D167
S315020007F0D4E90002A168121A103400F02BF9A642BD
S31502000800F3D1F8BDA40A0002F8B5844A844B5A61B2
S31502000810BFF34F8FBFF36F8F1B6803F47002B2F5FD
S31502000820801F00F0D48013F4600F00F0BC807D4A74
S31502000830136823F004031360BFF34F8FBFF36F8F68
S315020008404FF47002784B764C0020C4F88820A360DF
S31502000850FFF740FC0025FFF76BFD4AF202514FF409
S315020008602542724B0120A3F8FA1383F8B05AA3F873
S31502000870FA23FFF72FFC6E4B83F30A88694B1A683B
S31502000880910704D5A268B2F1007F00F0A48000208F
S31502000890FFF788FFFFF706FDFFF74EFE0320FFF77F
S315020008A04FFF00234FF00E0E1C464EF001E0614949
S315020008B003F10C0221F8224001330FF007C803208E
S315020008C0FFF70EFF0320FFF73BFF5B4B03205C6045
S315020008D09C60DC601C61554CFFF702FFD4F8D833EC
S315020008E09A0747D5D4F8D833504CD4F8D8335B0797
S315020008F027D5D4F8D8330220FFF7ECFB0120FFF707
S3150200090051FFBFF34F8FBFF36F8F0024444BC3F8E1
S315020009105042BFF34F8FBFF36F8F484B484D5B1B5F
S31502000920A3424FEAA30605DD55F8043B0134984776
S31502000930A642F9DCFFF7C8FEBDE8F8400020FFF743
S3150200094053BE94F81431002BD5D00120FFF7F8FEE0
S3150200095094F8143103F0C003802BF9D10023334AF3
S3150200096084F8143192F814313F2BFBD80120FFF79B
S31502000970B7FEC0E794F81031002BB5D00120FFF77F
S31502000980DFFE94F8103103F0C003802BF9D1002367
S31502000990264A84F8103192F810313F2BFBD80120F9
S315020009A0FFF79EFEA0E71F4A136843F00403136095
S315020009B0BFF34F8FBFF36F8F4FF0E022936843F47C
S315020009C080339360BFF34F8FBFF36F8F38E71807FB
S315020009D07FF42DAF27E701211A695869C2F3C302D2
S315020009E0093201FA02F300260027DB0843F005C0AC
S315020009F0E5E802670FF005C0C0F3C303093301FA45
S31502000A0003F34FF00052DB0843F007C0AFF3008058
S31502000A10E2E802670FF005C039E700BF01020E00E7
S31502000A2000ED00E000E001E00000000200E001400D
S31502000A3000000022000D404000402040400D000210
S31502000A403C0D000202440346934200D1704703F86C
S31502000A50011BF9E70A44431E914200D1704710B5C3
S31502000A6011F8014B914203F8014FF9D110BD000074
S31502000A70040000007C0A00020000000000000100E1
S31502000A800802000000000100090200000000010047
S31502000A900A020000000001000B0200000204030427
S31502000AA0040400000A0000005C0C000218000000AA
S31502000AB0DC0A000204000000BC0A00020000006812
S31502000AC00000006800000080000000800000007046
S31502000AD000000070000000220000002200000068F2
S31502000AE000000068000000900001090D0000006887
S31502000AF0000000680000007800010B0D000000688D
S31502000B0000000068000000270001020D00000068D6
S31502000B1000000068400000020001010D0000008094
S31502000B20000000800000009000010908000000801B
S31502000B30000000800000007800010B080000008021
S31502000B40000000800000002700010208000000806B
S31502000B500000008040000002000101080000007051
S31502000B6000000070000000900001090A00000070F9
S31502000B70000000700000007800010B0A00000070FF
S31502000B8000000070000000270001020A0000007049
S31502000B9000000070400000020001010A000000008F
S31502000BA0000000000000009001010905000000009D
S31502000BB0000000000000007801010B0500000000A3
S31502000BC000000000000000270100020500000000EE
S31502000BD000000000400000020100010500000020A4
S31502000BE0000000200000009001010904000000201E
S31502000BF0000000200000007801010B040000002024
S31502000C00000000200000002701000204000000206E
S31502000C100000002040000002010001040000002242
S31502000C2000000022000000900001090300000022DB
S31502000C30000000220000007800010B0300000022E1
S31502000C40000000220000002700000203000000222C
S31502000C5000000022400000020000010300000068BC
S31502000C60000000680001000D000000680000006836
S31502000C700001000D00000080000000800001000855
S31502000C8000000080000000800001000800000070E3
S31502000C90000000700001000A0000007000000070F1
S31502000CA00001000A0000000000000000010000052B
S31502000CB000000020000000200100000400000022C5
S31502000CC0000000220000000330040022C0040022BB
S31502000CD000000003000000000100020008001000EE
S31502000CE0200000004275696C74207769746820528E
S31502000CF0656E6573617320416476616E6365642017
S31502000D00466C657869626C6520536F6674776172AA
S31502000D1065205061636B6167652076657273696FE2
S31502000D206E20362E342E3000362E342E3000000041
S30902000D3000000406AD
S30902000D34F8B500BF47
S30902000D38F8B500BF43
S30902000D3CAD000002FC
S30902000D408500000220
S30902C9F040FFFFFFFFFF
S30902C9F044EFFFFFFF0B
S30902C9F0C0FFFFFFFD81
S30902C9F0C4FFFFFFFF7B
S30902C9F120000000001A
S30902C9F1240000000016
S7050200079958
