S014000052413850315F5445535431312E73726563C3
S3150200000000620022C12B000295290002BD2B0002CC
S31502000010BD2B0002BD2B0002BD2B0002BD2B000230
S31502000020000000000000000000000000BD2B0002DE
S31502000030BD2B000200000000BD2B0002BD2B0002FA
S31502000040AD140002051400023D15000289150002D6
S31502000050A52400027D1D0002111F000235200002A8
S3150200006019210002AD140002051400023D1500021A
S31502000070891500027D1D0002111F000235200002B3
S3150200008019210002AD140002051400023D150002FA
S3150200009089150002AD140002051400023D15000286
S315020000A089150002AD140002051400023D15000276
S311020000B089150002A1220002F90D0002CF
S315020000BC0100000000000000000000001C000022ED
S315020000CC0000000000000000000000005862082238
S315020000DC10400000000000000300000030640822FB
S315020000EC34000022000000003064082298640822C2
S315020000FC006508220000000000000000000000005D
S3150200010C00000000000000000000000000000000DB
S3150200011C00000000000000000000000000000000CB
S3150200012C00000000000000000000000000000000BB
S3150200013C4300000000000000000000000000000068
S3150200014C000000000000000000000000000000009B
S3150200015C4300000000000000000000000000000048
S3150200016C000000000000000000000000000000007B
S3150200017C4300000000000000000000000000000028
S3150200018C000000000000000000000000000000005B
S3150200019C4300000000000000000000000000000008
S315020001AC000000000000000000000000000000003B
S315020001BC43000000000000000000000000000000E8
S315020001CC000000000000000000000000000000001B
S315020001DC43000000000000000000000000000000C8
S315020001EC00000000000000000000000000000000FB
S315020001FC43000000000000000000000000000000A8
S3150200020C00000000000000000000000000000000DA
S3150200021C3D5A0002195A000200000000B887070274
S3150200022CB9860702A5860702A5860702A5860702D6
S3150200023CA5860702A5860702A5860702A5860702DA
S3150200024CA5860702A5860702FFFFFFFFFFFFFFFF3A
S3150200025CFFFFFFFFFFFF0000010041534349490026
S3150200026C000000000000000000000000000000007A
S3150200027C0000000000000000000041534349490001
S3150200028C000000000000000000000000000000005A
S3110200029C0000000000000000000000004E
S315020002B00348044B834202D0034B03B118477047ED
S315020002C0EC010022EC01002200000000064B074967
S315020002D0C91A891048BF0131491003D0044B0BB12A
S315020002E001481847704700BFEC010022EC010022CA
S315020002F00000000010B5064C237843B9FFF7D8FF7B
S31502000300044B13B10448AFF300800123237010BDE0
S31502000310306200220000000028F1C90208B5054B30
S315020003201BB105490548AFF30080BDE80840FFF759
S31502000330CDBF00BF000000003462002228F1C902CE
S3150200034010B10379022B00D070470122014B1A70BB
S31502000350704700BF0000002270B5151E10DD91B176
S315020003600A4B4FF0000C9868094C06461868B368A9
S3150200037084F800C098472378002BFCD0284670BD2D
S315020003800025284670BD0D46284670BD7C7B0702B7
S31502000390000000224FF0FF30704700BF0020704778
S315020003A04FF0FF30704700BF0020704701207047B2
S315020003B02DE9F04F2DED048B82488BB003F090FDB2
S315020003C08149824800F0AAFC002800F0F780014625
S315020003D07F4803F01DFD02F0CFFE044640B1014600
S315020003E07C480BB0BDEC048BBDE8F04F03F010BDAA
S315020003F00DF1260002F0E4FDBDF82610764803F062
S3150200040007FD204602F066FE012002F041FE02F0E0
S315020004101FFF00F005F9064600F00CF90522054615
S315020004204FF440416D4803F0F3FC9FED6D8A9FED5A
S315020004306D9ADFED6D8A34464FF416316B4802F041
S315020004400DFF60B14FF47A714FF4967002F05EFAC6
S315020004504FF41631654802F001FF0028F2D14FF43D
S31502000460FA7002F00BFF83460028E5D1224640F2DD
S315020004709C5A4FF4B07940F2DB2840F2167ECDE961
S31502000480064515464FF0000C8027584B4FEAEB16EF
S3150200049006EB860603EBC61605924FEAEC1313F03B
S315020004A0010F23F0010306EB4302D07816F813106E
S315020004B0537818BF03469078803909FB01F28038D9
S315020004C00AFB00F40EFB01F108FB00F0A3EBA222EB
S315020004D003EBA424A2EBA02203EBA123033584F3AE
S315020004E0080482F3080283F30803013F0CF5A07C9B
S315020004F005F8034C05F8022C05F8013CCDD1059A06
S315020005000BF1F00BBBF5F04F02F5C072B9D100202A
S31502000510DDE9064500F098F82B79F6EE007A07EE4B
S31502000520103AB8EEC77A27EE087AB4EEE77AF1EE19
S3150200053010FA2B7806EE103A6B7805EE903AAB7805
S3150200054005EE103AEB7806EE903A2FDDF8EEE66A03
S31502000550B8EEC55AF8EEE55AB8EEC66AB7EEC77AED
S3150200056066EE886A26EE086A25EE085A65EE885A0D
S315020005708DED027B25EE095A66EEA87A26EE097AF9
S3150200058065EEA86AFDEEE77ABDEEC56AFDEEE66A9D
S31502000590BDEEC77A16EE103A16EE902A17EE101A2C
S315020005A0CDED007A124803F033FC45E7B7EEC77A81
S315020005B0104853EC172B03F02BFC3DE70E4803F0D3
S315020005C08FFC08E7585A00026C7B070204000022DF
S315020005D06C5A0002845A0002945A0002A45A00027B
S315020005E00000803B0000A04300007043000000684A
S315020005F0BC5A0002E45A00027C5A0002022800D0C9
S31502000600704708B50449054801F0CCF8BDE8084032
S31502000610012002F069BA00BFF87B07025062082285
S31502000620024B03481B681844704700BF687B0702E9
S3150200063050620022024B03481B681844704700BFF1
S31502000640647B07025062002200F000B84FF40021DA
S31502000650002370B54FF440451C4A98B01C4CCDE9B6
S315020006600A1102F58021CDE914132468194E049269
S3150200067006920994059307930F930E960C9504A977
S3150200068091ED007F10AC84ED007FC8B902F1100035
S3150200069000250524104A09AB00931690CDE90145C1
S315020006A012680E490EAB0E4817950D9400F01EFB0C
S315020006B0A0F1FF30B0FA80F04009404218B070BD98
S315020006C002F1100013611375E2E700BF50620022C7
S315020006D0607B0702C0620002B8620002105C000280
S315020006E05862082208B5FFF763FE002008BD00BF66
S315020006F0704700BF2DE9F843089E082E42DC00240D
S315020007008146154608464FF0FF32214698464FF07D
S31502000710FF37FFF7EDFF874274EB01012CD3D9F8BF
S315020007200030002E1861D9F800301D6214DDA8F1E0
S315020007300805A046F5E902012246FFF7D9FF8742DE
S3150200074078EB010112D304F11002D9F8003001341A
S31502000750A64243F83200EDD1D9F80020936803F09F
S315020007600C0343F001039360BDE8F883A421084B10
S31502000770084A094802F0C2F89821084B054A064879
S3150200078002F0BCF89421064B024A034802F0B6F87E
S31502000790705B0002807F07021C5B0002585B00024E
S315020007A0F45A0002704700BF0268936803F00C0314
S315020007B043F00203936003685A685107C2F380004C
S315020007C012D45A68C2F30011D2060CD45A68C2F384
S315020007D0C010120606D45A68D20504D45868C0F36B
S315020007E040107047084670470020704710B4002436
S315020007F0D0E90112121BB1FA81F118BF0122844617
S31502000800490942EA4102006862F30704C4601F4BC9
S31502000810DCF8001001E0013B02D04A681207FAD464
S315020008204B68C3F3C0001B0709D4DCF804304A6ADC
S31502000830B3FA83F3C2F340025B09934204D04FF04A
S31502000840FF305DF8044B7047DCF808204B6A003A2B
S3150200085018BF012203F001039A42F0D1022245F2A7
S315020008605354CA61DCF80020094BD463DCF800203B
S315020008701364DCF800205364DCF800209364DCF88F
S315020008800020D3645DF8044B704700BFA0860100C8
S3150200089000001F0F08B5C0E9001283608B6A1B0FA8
S315020008A001D0002008BDFFF7A1FFB0FA80F0400991
S315020008B008BD00BF0068022A836803F00C0306D055
S315020008C0A2F10102B2FA82F2520962F3C3030229C9
S315020008D006D0A1F10101B1FA81F1490961F382035E
S315020008E083600020704700BF10B50068836A046801
S315020008F08B422AD04FEA136C4B405FFA83FE1B07EA
S315020009004FEA11611DD18CEA01000F288CBF00202D
S315020009100120BEF1100F28BF00201CF0080F03D1E2
S3150200092011F0080F18BF002082EA0403B3F1805FBA
S3150200093009D2C2F30752C4F30754A24288BF002069
S3150200094010BD0020E5E7002010BD0120ECE700BF46
S315020009500048704714630822002070470020704741
S3150200096008B5012002F0A2FC08B10023037008BDFD
S3150200097000E020BF0378002BFBD0013B0370002070
S31502000980704700BF03780133037040BF00207047F1
S31502000990704700BF704700BF437C012B0FD0022374
S315020009A010B503740446FFF7FFFE034683F0010306
S315020009B05B00DBB2E06A6374FFF7E4FF10BD7047C9
S315020009C02DE9F843234E044637688946154698466C
S315020009D0002F38D0204F3B686BB3DDE908234FF078
S315020009E0020C2563002549462046C4F8388084F85F
S315020009F041C084F842C06563E563FFF74BFFF8B177
S31502000A00FFF7AEFFE062D8B1306825616561A56186
S31502000A10E56125626562A562FFF79EFF0F4B3068AE
S31502000A201A681C60E260FFF799FF3868FFF7AAFFB1
S31502000A302846BDE8F883FFF793FF38600028CCD13B
S31502000A404FF0FF30F5E7FFF783FF30600028C1D192
S31502000A50F6E700BF1C6308221863082220630822F7
S31502000A6038B5037C0446012BD8B20ED002280ED02C
S31502000A70002853D000234FF0FF3023616361A36146
S31502000A80E36123626362A36238BD0029FCD0626A15
S31502000A90002A15DD002502E00135954210DA94F8A8
S31502000AA042302B41DB07F7D5D4E9073252F825103D
S31502000AB053F8350000F0D0F9626A01359542EEDB53
S31502000AC04FF0FF324FF0FF33E06AFFF751FF002885
S31502000AD027DB2046A16AFFF75DFFE36B3BB1013BD3
S31502000AE0E36323B9012220461146FFF7E3FE637C46
S31502000AF003F0FF0083B1637C022B20D02046FFF770
S31502000B0075FE38B9E26B2046B2FA82F252091146F4
S31502000B10FFF7D0FE4FF0FF300023AEE76FF0010083
S31502000B2038BD01216174237C022BD2D14FF0FF32F2
S31502000B304FF0FF33E06A6174FFF71AFFC9E72046F8
S31502000B40FFF730FEDAE700BF2DE9F04782B0DDE9B4
S31502000B500A7C002900F0A980002B00F0B480002F47
S31502000B6000F0AA800446007C01EB020800F0FF05B3
S31502000B7000284BD10C98C4E90512C4E9073725743D
S31502000B80C4F824C0A062534D0868A84236D112F0B8
S31502000B90030633D10D1DD4E90C1251EA020069D1C4
S31502000BA0A8450FD92B78022B10D0052B34D0012B58
S31502000BB024D1D5E901122046FFF796FEF0B10C3595
S31502000BC0A845EFD8304602B0BDE8F0876B786F884B
S31502000BD005F1040947EA034719F00F0A4FEA8707A6
S31502000BE00CD1606A002830DDE2690346083A01E06A
S31502000BF0013B20D052F8081F0907F9D000232361D0
S31502000C006361A361E36123626362A3624FF0FF360D
S31502000C10304602B0BDE8F0870435C1E7236A53F8CF
S31502000C202A10E36953F83A0000F014F9606A0AF1EF
S31502000C30010A824509DA94F8413043FA0AF3DB07DE
S31502000C40ECD40AF1010A8245F5DBE36B5A1CE26336
S31502000C50D3B101232046A16A2374FFF799FE636A82
S31502000C603A46009349462046E3690437FFF742FDB8
S31502000C703D4495E7BCF1020F92DDBF68A06B874247
S31502000C80BCD8C3E904128BE72046FFF7AFFD40B993
S31502000C90E26B2046B2FA82F252091146FFF70AFEC9
S31502000CA0D7E7E36B013BE363A8E740F282210A4BF5
S31502000CB00A4A0B4801F022FE4FF42171094B074AFA
S31502000CC0074801F01BFE40F28321074B034A044802
S31502000CD001F014FE434F5031C85B0002A07F0702A9
S31502000CE0945B0002F45B0002E05B000210B584B084
S31502000CF0069C0094079C0194089C02940446FFF704
S31502000D0023FF002806DB0121204604B0BDE810407F
S31502000D10FFF7A6BE4FF0FF3004B010BD70B5054612
S31502000D2082B00C46EFF31086012181F310882C4B1A
S31502000D301A6822F480321A601B681E2001F0E6FD52
S31502000D4086F310880023AA68A17B1068627BCDE92E
S31502000D5000211A462349FFF733FE00283CD1A36837
S31502000D6094F90C201B01002ADBB22FDB02F1604151
S31502000D7001F5614181F800331B491C4B41F82250B1
S31502000D8002F5C65153F8210020F4803043F82100C1
S31502000D9053F82130BFF35F8F012153099B0002F004
S31502000DA01F0203F1604303F5614301FA02F2C3F83D
S31502000DB080211A60002318466C6022680C49EA609A
S31502000DC0626829606A612B6102B070BD094902F04E
S31502000DD00F0001440B76CFE7032002B070BD00BFBF
S31502000DE0003020400000144080630822006000406A
S31502000DF054454D52FCEC00E030B583B0EFF303836B
S31502000E00124A103B5CB252F82450AB681868FFF7DE
S31502000E10C3FDEB685BB12869B0B1036801936B69E6
S31502000E200360EB6898472B690BB1019A1A60084A6E
S31502000E3004F5C65352F8231021F4803142F82310E8
S31502000E4052F8233003B030BD01A8E8E780630822D8
S31502000E5000600040704700BF704700BF0346002095
S31502000E60C3E90612704700BF844610B4406A83681D
S31502000E7023F440138360DCF82440A36C5800FCD5AD
S31502000E80A36823F01003A360DCF82440237FC3F396
S31502000E900010DB06FAD4CCE90412A36843F010135F
S31502000EA0A3605DF8044B704784460020CCE90B3200
S31502000EB0CCF82810704700BF4FF0FF330020C1E97D
S31502000EC0003370478B0784461DD5426A936823F424
S31502000ED040139360426A936C5800FCD5936823F0E2
S31502000EE010039360DCF82400037FC3F30012DB06D1
S31502000EF0FAD41046CCF81420CB0703D500231846A3
S31502000F00CCF81C3070470620F6E700BF03460022E5
S31502000F1010B4DC6910460C60DA615DF8044B704768
S31502000F200620704730B40124164D530902F01F0CF7
S31502000F30203304FA0CF445F82340BFF34F8FBFF376
S31502000F406F8F114B02F5C65C53F82C4024F48034A3
S31502000F5043F82C4053F82C300901002AC9B207DBAA
S31502000F600A4B154485F8001343F8220030BC70473B
S31502000F70074B02F00F0423441976044B43F8220070
S31502000F8030BC704700E100E0006000408063082248
S31502000F90FCEC00E0F0B5C46A85B005460F469446FF
S31502000FA06E46B4B194E80F0086E80F002B6A20461D
S31502000FB01B78A760236084F804C02B6BE360AB6ADE
S31502000FC09847EC6A1CB196E80F0084E80F0005B05A
S31502000FD0F0BD3446EAE700BFF8B5394B42689A429B
S31502000FE06BD10446426A936823F440139360426AC3
S31502000FF0936823F010039360426A137FC3F30015CC
S31502001000DB06FAD40121236A2E4A93F907305809DE
S3150200101003F01F03203001FA03F342F82030BFF336
S315020010204F8FBFF36F8F236A93F90930580903F084
S315020010301F0301FA03F3203042F82030BFF34F8F2B
S31502001040BFF36F8F606A836823F480338360236AF9
S3150200105093F90530580903F01F0301FA03F3203010
S3150200106042F82030BFF34F8FBFF36F8F236A93F995
S315020010700B30580903F01F0301FA03F3203042F83C
S315020010802030BFF34F8FBFF36F8FEFF3108681F3DC
S3150200109010884FF00043276A0B4A97F800C0506841
S315020010A023FA0CF30343536053681E2001F02EFC0F
S315020010B086F3108865602846F8BD0720F8BD00BF94
S315020010C04249435300E100E000302040002370B55E
S315020010D0026AD56983606B7C03B970BD184B0446FE
S315020010E093F8543003F00F03072B24D8DFE803F0FC
S315020010F0040404211F191B1D01269E40104B93F860
S31502001100550000F00F0001F099FBB0FBF6F00D4B15
S315020011101A686B7C02FB03F3B3FBF0F30133A360A3
S3150200112070BD0326EAE70526E8E70A26E6E708266B
S31502001130E4E70626E2E71026083B9E40DEE700BF0C
S3150200114000E001400C640822F8B5002704460E466A
S31502001150416A8D6825F4441222F011028A60076101
S31502001160FFF7B4FF636A326825F440151A61636AB1
S3150200117038469D60F8BD00BF0620704700222DE963
S31502001180F04101270B78027003F5800303F55653ED
S315020011901B02436201624B690D4683628B690446F8
S315020011A0C0E90B238378CE6967F3010383704B781A
S315020011B0934214BF3A460222837862F30103837094
S315020011C091F90B20897AFFF7ADFE95F90520297969
S315020011D0FFF7A8FE95F90720A979FFF7A3FE95F96F
S315020011E00920297AFFF79EFEEFF3108887F310880D
S315020011F04FF000412A787B4BD1405A6822EA01021D
S315020012005A605B681E20394601F080FB88F310881D
S315020012104FF48062636A9A606B78E978EA691B0226
S31502001220890301F4804103F440730B43117850683B
S31502001230090601F040710B435178C90389B20B4389
S31502001240517B490501F400110B43616A43F4805353
S315020012504B611378991EB94240F2BD800368616AF8
S315020012600B61117BAB7801F0030141F0300133B120
S31502001270022B14BF4FF440734FF4807319439378D3
S3150200128000201B0703F080530B43616ACB600123E6
S31502001290616A886129788B40C3F3090313B1636AD3
S315020012A0514959620025937BD17B127C01F01F01C3
S315020012B003F0010302F01F0243EA0123616A43EAD3
S315020012C002430B632046C4E90455C4E90655FFF7F9
S315020012D0FDFE7089626A4549A0819166226A444B85
S315020012E092F9052002F5C65153F8210065F3104024
S315020012F043F8210053F82110BFF35F8F012102F05A
S315020013001F005209920002F1604202F5614201FA9F
S3150200131000F0C2F880011060226A92F90B2002F5F1
S31502001320C65053F8206065F3104643F8206053F820
S315020013302000BFF35F8F02F01F005209920002F1F4
S31502001340604201FA00F002F56142C2F880011060C3
S31502001350226A92F9072002F5C65053F8206065F317
S31502001360104643F8206053F82000BFF35F8F02F067
S315020013701F005209920002F1604201FA00F002F5E2
S315020013806142C2F880011060226A92F9092002F5D0
S31502001390C65053F8206065F3104643F8206053F8B0
S315020013A02030BFF35F8F53099B0002F01F0203F147
S315020013B06043914003F56143C3F8801119600D4AF9
S315020013C0636A9A60626A137FDB07FCD50A4B0020C8
S315020013D06360BDE8F0810949022B094B18BF0B4631
S315020013E03DE700BF0030204000001F1F1000079D90
S315020013F000600040110401004249435304FF00FF0C
S3150200140024FF00FF38B5EFF30383103B254A5BB296
S3150200141003F5C65152F8210020F4803042F821002B
S3150200142052F82120204A52F82340236A1B69B3B19D
S31502001430636903B138BD636A9D68A06825F48015A7
S3150200144045F4001518BB00219D60A36A2161002B9B
S31502001450F0D02046BDE838408022FFF79BBD626986
S31502001460636A002AE8D0A278216902F00302022AFE
S3150200147011D00A781A71A278D4E9041302F0030291
S315020014809B1A1144C4E90413002BD3D1D3E701F00C
S3150200149037FA636AD7E70A8822F4DC4292B25A60C4
S315020014A0E9E700BF006000408063082210B582B001
S315020014B0EFF30383103B1F4A5BB203F5C65152F8A2
S315020014C0210020F4803042F8210052F821201A4AE5
S315020014D052F82340A27802F00303022B636A0CBF80
S315020014E019681978E3690CBFC1F30801C9B2019101
S315020014F043B9A36AB3B10422204602B0BDE8104044
S31502001500FFF748BD02F0030201A9A06902F041FEFD
S31502001510D4E90621A37803F003031A44C91AC4E9DD
S31502001520062109B102B010BDA36A002BFAD001222E
S31502001530E2E700BF006000408063082210B5EFF3C7
S3150200154003830F4A103B5CB252F82400426A936846
S3150200155023F4401323F010039360836A1BB1022223
S315020015600021FFF717FD074A04F5C65352F8231068
S3150200157021F4803142F8231052F8233010BD00BF07
S31502001580806308220060004038B5EFF303831D4AEA
S31502001590103B5CB252F824008378456A03F00303D9
S315020015A0022B0CBF29682978AA6C08BFC1F308016F
S315020015B0C2F30073C2F3006C4FEA031343EA4C13FF
S315020015C0C2F3C06243EAC20C18BFC9B2DB06624666
S315020015D004D5AB6C1B0458BF4CF04002AB6E43F013
S315020015E0C853AB66836A0BB1FFF7D4FC064A04F50F
S315020015F0C65352F8231021F4803142F8231052F8D0
S31502001600233038BD80630822006000402DE9F84F80
S315020016100388DBB14FF0000A80464FF00109DFF87C
S31502001620D4B00024314D4FEACA07D8F8043035F851
S31502001630022BD919898891420AD00134032CF4D19C
S31502001640B8F800300AF1010A5345EAD8BDE8F88F26
S31502001650DB5909FA04F603F0B853B3F1807F244B41
S31502001660F6B293F84C2C12D0324230D104F1200259
S315020016701BF81230DB09E0D01BF81230012123F0EF
S315020016808003C8200BF8123001F040F9D5E7324248
S3150200169010D004F120021BF81230DB09CDD11BF861
S315020016A01230012143F08003C8200BF8123001F0FA
S315020016B02DF9C2E7012001F0D5F90D4B012093F86F
S315020016C04C2C324383F84C2C01F09CF9E1E70120C3
S315020016D001F0C8F9064B012093F84C2C22EA0602C7
S315020016E083F84C2C01F08EF9C0E700BFE07F0702B9
S315020016F000E0014000202040F8B50646FFF786FFCD
S31502001700EFF31082012383F31088234F3B681BB942
S31502001710402022490B7508753B6801333B6082F312
S315020017201088338800211BB31D4D08E01B011344AA
S3150200173045F82340328801318BB29A4218D9736830
S3150200174053F8314003EBC1029288E0034FEA1223B9
S31502001750D2B2EBD502EB031055F820E024F4803C1C
S315020017602EF4803E45F820E01B0145F820C0DEE756
S31502001770EFF31082012383F310883B6813B13B68B1
S31502001780013B3B603B681BB9802004490B75087519
S3150200179082F31088F8BD00BF7C630822000D40402A
S315020017A00008404008B5034B03600846FFF7A4FF54
S315020017B0002008BD54524F500346002059601A7249
S315020017C0704700BF84460020CCE90E32CCF83410B4
S315020017D0704700BF0346044ADB6800209B1AB3FA2F
S315020017E083F35B090B7070474349495230B5836BEB
S315020017F083B004460A466D46A3B193E8030085E822
S315020018000300E16B1A7119601846636B9847A36B64
S315020018101BB195E8030083E80300002384F82B300C
S3150200182003B030BD2B46ECE730B5454B83B01B6A9F
S3150200183001690193019B03F00F230193019A019D14
S315020018400B7C90F82C409CB9C2F30322DBB2A2EBCC
S31502001850156293409B0804D1082003B030BD013BBA
S31502001860FAD04A78C2F3C014D209F8D1CC71016910
S31502001870002390F826408569026880F82B30C561FE
S3150200188080F82D3080F8274080F82E3080F82830F6
S3150200189080F82F30036280F83030546A227894F848
S315020018A001E0012A14BF4FF0040C4FF0050C6279D7
S315020018B0120142EA4E0294F806E042EACE124CEADD
S315020018C00202D2B2CA7001690A7942F010020A71A2
S315020018D001690A7963F3C3020A7101690A7963F33A
S315020018E004120A710269E179137961F3C71313715C
S315020018F00269537943F001035371036893F90F3078
S31502001900002B07DB012203F01F040E495B09A240EC
S3150200191041F82320BF210269537A03F0F30353727D
S315020019200369D97190F82C302BB1002380F82C3042
S31502001930002003B030BD022203695A70F8E700BFE7
S3150200194000E0014000E100E090F808C0C0E905129D
S31502001950BCF1010F80F82A3008D10022436880F8D2
S3150200196026C05B0080F8243080F82520002380F80A
S315020019702930FFF759BF00BF90F808C0C0E9051229
S31502001980BCF1010F80F82A300AD10022436880F8A0
S3150200199026C05B0043F0010380F8243080F825203E
S315020019A0012380F82930FFF73FBF00BF70B400243F
S315020019B0402203691C7003691A70026913785B0678
S315020019C0FCD5C0231370036802695B6A804D1B79DC
S315020019D04FF0000C43F0E0031374036802695B6A7C
S315020019E0B324DB7843F0E0035374036802695B6A4D
S315020019F09B781B0103F0700343F00803937003689E
S31502001A0002695B6A1E78012E5E7814BF04230523E1
S31502001A1043EA4603DBB2D37003685B68AB4214BF8A
S31502001A207722F72203695A71036983F806C00369AC
S31502001A30DC7191F911204B7B6245C0F2AA801B0131
S31502001A4002F16044DBB204F5614484F80033614C70
S31502001A50614B44F8220002F5C65553F8256026F478
S31502001A60803643F8256053F82530BFF35F8F012592
S31502001A7053099B0002F01F0203F1604303F5614321
S31502001A8005FA02F2C3F880211A6091F90F204B7B06
S31502001A90002AC0F295801B0102F16045DBB205F512
S31502001AA0614585F800334C4B44F8220002F5C655D1
S31502001AB053F8256026F4803643F8256053F825301E
S31502001AC0BFF35F8F012553099B0002F01F0203F14A
S31502001AD0604303F5614305FA02F2C3F880211A60F6
S31502001AE091F910204B7B002A63DB1B0102F1604552
S31502001AF0DBB205F5614585F80033374B44F8220021
S31502001B0002F5C65553F8256026F4803643F825605B
S31502001B1053F82530BFF35F8F012553099B0002F06E
S31502001B201F0203F1604303F5614305FA02F2C3F8AB
S31502001B3080211A6091F90E204B7B002A31DB1B01B2
S31502001B4002F16041DBB201F5614181F80033224BBB
S31502001B5044F8220002F5C65153F8214024F4803499
S31502001B6043F8214053F82130BFF35F8F0121530917
S31502001B709B0002F01F0203F1604303F5614301FA81
S31502001B8002F2C3F880211A609F2203691A7070BCA0
S31502001B907047124C02F00F051B01DBB22C44237670
S31502001BA055E70E4902F00F051B01DBB229440B76FD
S31502001BB0CDE70B4D1B0102F00F06DBB2AB559CE7DE
S31502001BC0074D1B0102F00F06DBB2AB556BE700BFF8
S31502001BD040420F008063082200600040FCEC00E0F7
S31502001BE014ED00E0F8B500250A781C4B0160134499
S31502001BF01B0203618B680E4643600B7B044603722D
S31502001C00CB6943630B6A80F82950C36380F82A5074
S31502001C10856380F82B50C0E90555C0E9075580F861
S31502001C202C50EFF31087012181F310880C4A337888
S31502001C305068C3F1090301FA03F320EA0303536070
S31502001C4053681E2000F062FE87F310882046314654
S31502001C50FFF7ACFE034B2846E360F8BDE0254000E3
S31502001C60003020404349495238B5002503690446ED
S31502001C70DD710168FFF79AFEB32290F82600A1698A
S31502001C80236984F82C5084F82800E561216284F8DF
S31502001C902A50DA71284638BD70B500250446036914
S31502001CA0DD710168FFF782FEB320012194F8263028
S31502001CB084F82C5084F82830A36984F82A50C4E9A1
S31502001CC0075323692B4AD8712369DD712368E560BE
S31502001CD093F91130580903F01F0301FA03F3203078
S31502001CE042F82030BFF34F8FBFF36F8F236893F90B
S31502001CF00E30580903F01F0301FA03F3203042F8AD
S31502001D002030BFF34F8FBFF36F8F236893F91030E4
S31502001D10580903F01F0301FA03F3203042F820307A
S31502001D20BFF34F8FBFF36F8F236893F90F305809B4
S31502001D3003F01F0301FA03F3203042F82030BFF309
S31502001D404F8FBFF36F8FEFF3108681F310882368EE
S31502001D50094A1B785068C3F1090301FA03F30343E6
S31502001D60536053681E2000F0D1FD86F31088284682
S31502001D7070BD00BF00E100E00030204010B582B027
S31502001D80EFF30383103B5F4A5BB203F5C65352F887
S31502001D90231021F4803142F8231052F82330EFF356
S31502001DA00383594A103B5BB252F8234094F82D3014
S31502001DB05BBBA369022B22D9E369012B0ED12269EF
S31502001DC0137943F0100313712269137943F0080360
S31502001DD013712269137923F01003137123685B6A66
S31502001DE0DB79002B3ED101222369DB7CDBB28DF845
S31502001DF007309DF8073084F82D2002B010BD226905
S31502001E00137943F040031371D6E7E369002BF4D04C
S31502001E102268526AD279FAB9032B17D0022B26D03E
S31502001E20012B34D02269236AD17C6269D154D4E968
S31502001E3007320132013BC4E90732002BDDD12169A9
S31502001E400A7963F386120A7102B010BD2269137908
S31502001E5043F040031371E5E705212046FFF7C6FC70
S31502001E60E369D9E705212046FFF7C0FCBBE72269F3
S31502001E70137943F0100313712269137943F00803AF
S31502001E8013712269137923F010031371CAE794F8C8
S31502001E902A2072B322681D4892F90F20510902F0D6
S31502001EA01F0203FA02F2203140F82120BFF34F8FBE
S31502001EB0BFF36F8F04202169CA7942F08002CA718A
S31502001EC021690A7942F010020A7121690A7922F01F
S31502001ED008020A7121690A7922F010020A7122693E
S31502001EE0507021694A7922F001024A7184F82C3035
S31502001EF098E708212269537A03F0F703537223699C
S31502001F0059708FE7006000408063082200E100E01C
S31502001F1010B5EFF30383103B434A5BB203F5C65396
S31502001F2052F8231021F4803142F8231052F823305C
S31502001F30EFF303833D4A103B5BB252F8234094F819
S31502001F402730002B40D194F82930002B3BD123684F
S31502001F505B6ADB792BB194F82B3013B9236A002B19
S31502001F605CD1E3692169002B41D1CB79C02223F0F0
S31502001F708003CB71216901E0013A02D0CB79DB09FA
S31502001F80FAD12368284A93F9103003F5C65352F85A
S31502001F90231021F4803142F8231052F823302368AB
S31502001FA093F91030002B09DB01215A09204803F06E
S31502001FB01F03603201FA03F340F822302269D37913
S31502001FC043F04003D37110BD94F82630032B1CD086
S31502001FD094F8242023699A7494F8282094F82730D8
S31502001FE00132013B84F8282084F8273010BD236A89
S31502001FF06269D35C8B74D4E907320132013BC4E9CE
S315020020000732002BDFD12169AFE794F82830022B83
S31502002010DED194F83030002BDAD110BD05212046EE
S31502002020FFF7E4FB9DE700BF0060004080630822E3
S3150200203000E100E038B5EFF30383344A103B5BB2AC
S3150200204052F8234023685B6ADB79002B4BD194F864
S3150200205029301BB194F82730012B52D0E369E3B142
S315020020602169C023CA7922F04002CA71216901E0BE
S31502002070013B02D0CA795206FAD4EFF30383103B2E
S31502002080234A5BB203F5C65352F8231021F480317A
S3150200209042F8231052F8233038BD94F82A203AB376
S315020020A0012022681B4D92F90F20510902F01F02EE
S315020020B0203100FA02F245F82120BFF34F8FBFF319
S315020020C06F8F4FF0040C2169CA7942F08002CA71FF
S315020020D0226982F801C021694A7963F300024A71D2
S315020020E084F82C00BCE705212046FFF77FFBAEE70C
S315020020F008212269537A03F0F70353722369597050
S31502002100AEE794F83030002BAAD0A7E78063082206
S315020021100060004000E100E038B5EFF303834F4A68
S31502002120103B5BB252F823000269537A517ADC06FD
S3150200213001F0E00151725FFA83FC03F003022CD531
S315020021400369597849064ED40024012580F82B509C
S31502002150DC710168FFF72AFCB32290F82630816908
S3150200216080F82830036980F82C400162C46180F847
S315020021702A402946DA71FFF739FBEFF30383103B56
S31502002180374A5BB203F5C65352F8231021F4803165
S3150200219042F8231052F8233038BD002A5CD11CF0D5
S315020021A0080F11D0C369002B45D190F82B30002BB4
S315020021B041D1B32290F829100369C1F10301C9B2D2
S315020021C0DA71FFF713FBD8E790F82C200CF0040322
S315020021D042B3002BD1D0C369002B3BD190F82B30F0
S315020021E0002B37D1E5E7002AAED15A78C2F3801127
S315020021F05206D4D5082280F82B105A70036801695A
S315020022005A6A94791378527943EAC41343EA021359
S3150200221043F00203DBB2CB700269537943F0010348
S315020022205371AAE7002BA8D003685B6ADB79002BFF
S31502002230A3D00421C5E70023B32190F82650846970
S31502002240026980F82C3080F828500462C36180F855
S315020022502A30D1710121B4E7036975E78063082248
S315020022600060004070B5836984B004468C46164609
S3150200227001AD9BB193E8070085E8070083F804C027
S315020022809E60E26918461A6063699847A3691BB1A2
S3150200229095E8070083E8070004B070BD2B46EDE71A
S315020022A02DE9F041EFF30383103B7B4C59B201F564
S315020022B0C65E54F82E008A0020F4803002F1804275
S315020022C044F82E0002F54042D2F80003734850F853
S315020022D02100456895F800C0ED69BCF1010F09D0EF
S315020022E043692BB1BDE8F04100221146FFF7BABFA0
S315020022F0BDE8F0814FF00008D0E90276BE6086683C
S3150200230003F0FF03C6F848808668C6F84C808668E4
S31502002310C6F8508054F82E7068F3104744F82E70B1
S31502002320D2F80023BFF35F8F5D4A490903F01F030A
S315020023300CFA03F3603142F8213095F84830D90798
S3150200234003D595F92810414576DA9B0704D595F908
S315020023502930002B80F2888095F92A30002B53DA37
S3150200236095F92B30002B37DA95F92C30002B1BDA36
S3150200237095F92D30002BB3DB474A03F5C65152F8C7
S31502002380214024F4803442F8214052F82120BFF340
S315020023905F8F01215A09424C03F01F03603201FA92
S315020023A003F344F822309BE73B4A03F5C65152F841
S315020023B0214024F4803442F8214052F82120BFF310
S315020023C05F8F01215A09364C03F01F03603201FA6E
S315020023D003F344F82230CBE72F4A03F5C65152F8ED
S315020023E0214024F4803442F8214052F82120BFF3E0
S315020023F05F8F01215A092A4C03F01F03603201FA4A
S3150200240003F344F82230AFE7234A03F5C65152F8E4
S31502002410214024F4803442F8214052F82120BFF3AF
S315020024205F8F01215A091E4C03F01F03603201FA25
S3150200243003F344F8223093E701F5C65354F82370A8
S3150200244068F3104744F8237054F82330BFF35F8FC4
S315020024504C0901F01F010CFA01F304F1600142F884
S31502002460213095F8483070E70B4A03F5C65152F809
S31502002470214024F4803442F8214052F82120BFF34F
S315020024805F8F01215A09064C03F01F03603201FADD
S3150200249003F344F822305FE70060004080630822BD
S315020024A000E100E0F0B5234B8BB05D6FEA435A675B
S315020024B0EFF30383103B204A5BB203F5C65152F891
S315020024C0210020F4803042F8210052F821201B4AD4
S315020024D052F8234063694BB30021226902912A40D4
S315020024E0E0690092A769A2680191CDE90320FFB1D4
S315020024F0BC463E46BCE80F00EE4605AD0FC5DCF80D
S3150200250000302B60BEE80F000FC6DEF80030CCF8B4
S315020025100030636938469847A4693CB10DF1140C42
S31502002520BCE80F000FC4DCF8005025600BB0F0BD0C
S315020025306F46EFE700803440006000408063082267
S315020025401D4A92F82630928CDBB202F00F02A2F1FB
S31502002550080103292BD8DFE801F020160C021749DF
S31502002560174A51F82330A2FB03231B09154A1360AD
S3150200257070471249124A51F82330A2FB0323114A2B
S31502002580DB08136070470D490D4A51F82330A2FB50
S3150200259003230C4A9B08136070470849084A51F8FE
S315020025A02330A2FB0323074A5B08136070470349E3
S315020025B051F82330D340D9E700E0014000620022FF
S315020025C0ABAAAAAA0C640822704700BF000000004A
S315020025D04AF203529FED844B9FED855B38B58A48DC
S315020025E08A4B8B498B4CC3E908018B499FED826B61
S315020025F09FED837B9962A4F8FA23A3EC045F83ED33
S31502002600007FFFF79DFF09230A2284F8502A84F8E7
S31502002610A23094F8003C23B994F8013C980700F0E4
S31502002620DC807C4C94F8003C002B00F0CB8000222E
S31502002630784B83F8012C83F8002C0023754A82F824
S31502002640323092F83C301907FBD540F22344002081
S315020026504FF6021140F65103704DC2F8C850A2F867
S315020026604E4082F84A00C2F8AC10A2F84C30BFF3D2
S315020026704F8FBFF36F8F6A4B596921F4003159614D
S31502002680C3F85002BFF34F8FBFF36F8F65490B68D4
S3150200269023F440530B60BFF34F8FBFF36F8F0120BC
S315020026A0137D01F1C04160F3020313750B7DDA0657
S315020026B0FCD45C4A136843F440531360BFF34F8F54
S315020026C0BFF36F8FA2F57342536913F4003311D12E
S315020026D0BFF34F8FBFF36F8FC2F85032BFF34F8FE6
S315020026E0BFF36F8F536943F400335361BFF34F8FC8
S315020026F0BFF36F8F0023474A82F82A3092F83C30A4
S315020027009B06FBD50022484B1A701A781A781A785B
S315020027105A68FA2A04D0454959605A68FA2AFBD1FE
S31502002720414B9A687D2A04D0414999609A687D2A6C
S31502002730FBD1052242F22011364B3E48186299849B
S3150200274083F82620FFF7FCFE01211E2000F0DEF8AA
S31502002750354A5368C3F30903642B84BF01231370FC
S31502002760FFF7EEFE4AF20152334B1A80BFF35F8F38
S3150200277001211972BFF35F8F4FF42540254A188055
S3150200278082F8531092F8553043F0400382F85530E0
S3150200279092F85530DB09FBD0CA23022082F8540096
S315020027A082F8553092F855301A4903F0BF0382F881
S315020027B0553091F85530DB09FBD14FF42543A1F88A
S315020027C0FA3338BD0121C82084F8001C00F09EF8B7
S315020027D094F8003C012BFBD129E74FF47A70FFF7FE
S315020027E0F3FE2AE7AFF30080006CDC0200127A00E7
S315020027F00080000000366E010080000000CA9A3B8D
S315020028000046C3235543DE138ED73E0D00620022D7
S315020028100008AF2F00E0014000389C1C022B01008B
S3150200282000ED00E000E001E000C01340FA00001EE7
S315020028307D0000E13234233200200040014B53F880
S31502002840200070470062002238B50025284C01217D
S31502002850C82084F8285000F059F884F8245094F8D7
S315020028602430002BFBD194F82430214943F0020393
S3150200287084F8243091F82430C3F340009B07F9D43E
S315020028801B4A81F8220092F8223003F0FF00002B47
S31502002890F9D192F84030164960F3C71382F84030F6
S315020028A091F84030DB09FBD191F84200104A63F3FC
S315020028B0C71081F8420092F84230DB09FBD192F848
S315020028C044000B4963F3C71082F8440091F8443080
S315020028D0C3F3C014DB09F9D1012000F0C3F8054B9C
S315020028E0012083F84C4CBDE8384000F08BB800BF9D
S315020028F00020204000E00140704700BF00BEFEE716
S31502002900A0F101000028FBD1704700BF1E4B1F4AF1
S315020029101B6800FB01F1934213D302F1854202F5D3
S31502002920071203F5742302F6834203F23F23A2FB46
S3150200293003239B0CA3FB01314FF0FF30E1B1FFF7FC
S31502002940DFBF4FF47A7210B4114C4FF0FF30B4FB74
S31502002950F3F3A1FB02C434B9BCFBF3F080B15DF81A
S31502002960044BFFF7CDBFB1FBF3F1A1FB0212002A24
S31502002970F5D1084620B1F2E71846002BDFD17047A1
S315020029805DF8044B704700BF0C64082200127A00FF
S3150200299000CA9A3BF8B5002401260D4B0D4FD3F819
S315020029A00021D3F82051154006FA04F32B4204D035
S315020029B057F82430E0B203B198470134152CF3D10D
S315020029C0034AC2F81051D2F820312B42FBD1F8BD8E
S315020029D000C000402863082200221F2310B40748C3
S315020029E0074C30F8021F02F5C65C013209B144F801
S315020029F02C10013BF5D15DF8044B70473E7F070270
S31502002A0000600040EFF31081012383F31088124B1C
S31502002A1033F8102092B22AB133F81020013A92B25A
S31502002A2023F8102033F810309BB293B910B40B4A36
S31502002A300B4CB2F8FA3334F810009BB243F4254338
S31502002A4023EA0003A2F8FA3381F310885DF8044BF7
S31502002A50704781F310887047FC63082200E001404A
S31502002A603882070230B4EFF31081012383F3108812
S31502002A700E4A32F810309BB26BB90D4C0D4DB4F8BC
S31502002A80FA3335F810C09BB243EA0C0343F42543EC
S31502002A909BB2A4F8FA3332F8103001339BB222F813
S31502002AA0103081F3108830BC704700BFFC630822E7
S31502002AB000E001403882070208B509490A6883180E
S31502002AC0B3F5005F03D807480B60104408BD01F058
S31502002AD049FB0C2203461A604FF0FF3008BD00BFC7
S31502002AE00864082200020022F8B50646304C94F823
S31502002AF0503C03F0FF05002BF9D187221023A4F8DE
S31502002B00242C84F8003C002E3FD1012200232849C0
S31502002B1081F8022C81F8013C91F8503C002BFBD144
S31502002B20D6B14FF40C73224AA1F8483C92F8503CB5
S31502002B30D807C3F30001F9D447F208040120112390
S31502002B401C4DC2F8445C82F8401CA2F8144C82F870
S31502002B50160C82F8003CF8BD47F208000123154C1A
S31502002B60134AC1F8444C81F8406CA1F8140C81F860
S31502002B70163C92F8003CDB07FBD492F8503C002B43
S31502002B80F7D1012382F8103CF8BD01272846FFF74A
S31502002B9069FF094B284683F85370FFF733FF044A4F
S31502002BA084F8207C92F8503C1C07FBD4ADE700BFAA
S31502002BB0003000400325050000E0014000BE7047DA
S31502002BC008B500F035F8FDF78DFDFEE7F8B5174FAD
S31502002BD005463E68A6B17C6806EB460604EB860609
S31502002BE002E00C34B4420BD0637AAB42F9D1D4E999
S31502002BF000020021121A0C3401F052FAB442F3D147
S31502002C00BE6896B1FC6804EB061602E01034A642D2
S31502002C100BD0637BAB42F9D1D4E90002A168121A48
S31502002C20103401F0B6FAA642F3D1F8BD08800702C5
S31502002C30F8B5844A844B5A61BFF34F8FBFF36F8F47
S31502002C401B6803F47002B2F5801F00F0D48013F4FF
S31502002C50600F00F0BC807D4A136823F00403136002
S31502002C60BFF34F8FBFF36F8F4FF47002784B764CE2
S31502002C700020C4F88820A360FDF7C0FC0025FFF7FA
S31502002C80A7FC4AF202514FF42542724B0120A3F8E7
S31502002C90FA1383F8B05AA3F8FA23FDF7AFFC6E4B8A
S31502002CA083F30A88694B1A68910704D5A268B2F1C0
S31502002CB0007F00F0A4800020FFF788FFFFF740FCAA
S31502002CC0FFF7C2FD0320FFF7CDFE00234FF00E0EE5
S31502002CD01C464EF001E0614903F10C0221F8224044
S31502002CE001330FF007C80320FFF78CFE0320FFF71E
S31502002CF0B9FE5B4B03205C609C60DC601C61554C3A
S31502002D00FFF780FED4F8D8339A0747D5D4F8D833DC
S31502002D10504CD4F8D8335B0727D5D4F8D8330220E1
S31502002D20FDF76CFC0120FFF751FFBFF34F8FBFF396
S31502002D306F8F0024444BC3F85042BFF34F8FBFF34B
S31502002D406F8F484B484D5B1BA3424FEAA30605DD36
S31502002D5055F8043B01349847A642F9DCFFF73CFEDE
S31502002D60BDE8F8400020FFF7C7BD94F81431002BE8
S31502002D70D5D00120FFF776FE94F8143103F0C00394
S31502002D80802BF9D10023334A84F8143192F8143196
S31502002D903F2BFBD80120FFF735FEC0E794F8103130
S31502002DA0002BB5D00120FFF75DFE94F8103103F039
S31502002DB0C003802BF9D10023264A84F8103192F8F9
S31502002DC010313F2BFBD80120FFF71CFEA0E71F4A5C
S31502002DD0136843F004031360BFF34F8FBFF36F8F83
S31502002DE04FF0E022936843F480339360BFF34F8F32
S31502002DF0BFF36F8F38E718077FF42DAF27E701215E
S31502002E001A695869C2F3C302093201FA02F30026AB
S31502002E100027DB0843F005C0E5E802670FF005C0AE
S31502002E20C0F3C303093301FA03F34FF00052DB0880
S31502002E3043F007C0AFF30080E2E802670FF005C077
S31502002E4039E700BF01020E0000ED00E000E001E0FC
S31502002E500000000200E0014000220022000D404076
S31502002E60004020401889070214890702F8B50F4E60
S31502002E703378C3B90E4C0F4D0F4F09E02B7853B977
S31502002E80013C0ED001210846FFF740FD337813B905
S31502002E903B78002BF2D02B78002B14BF1220002097
S31502002EA0F8BD1420F8BD034DF5E700BF26640822DD
S31502002EB0A1860100246408222564082203790122DE
S31502002EC0022B07D0032B02D0044B1A707047044B17
S31502002ED01A707047034B1A70704700BF24640822A9
S31502002EE026640822256408228446F0B58E4600230D
S31502002EF00C4A83B091680C4F0C4E0D4D9CFA9CFC0B
S31502002F008C68106801A90322ADF804C08DF806E0AA
S31502002F103B7033702B70A04708B9FFF7A7FF03B0C9
S31502002F20F0BD00BFBC7B0702266408222564082286
S31502002F30246408221E4B2DE9F0439E6886461B68D0
S31502002F404FF0000C184685B09EFA9EFEDFF86C9094
S31502002F50184F194D012302228846B468ADF80CE0D9
S31502002F6003A989F800C0019087F800C085F800C05F
S31502002F70A047034618B1184605B0BDE8F083FFF72F
S31502002F8075FF03460028F6D189F800004146012262
S31502002F90019874683B702B70A04703460028EAD15B
S31502002FA0FFF764FF0346184605B0BDE8F08300BF8D
S31502002FB0BC7B0702256408222464082226640822B0
S31502002FC0002210B582B004460DF1060143F20A0052
S31502002FD08DF806208DF80720FFF7ACFF08B102B086
S31502002FE010BD43F20B000DF10701FFF7A3FF002806
S31502002FF0F5D19DF806209DF8073043EA022304B175
S31502003000238045F24062934218BF222002B010BDCF
S315020030102DE9F04106460D4643F60800110A904690
S315020030201F46FFF761FF5FFA88F1044643F609007F
S31502003030FFF75AFF0346390A43F60A001C43FFF715
S3150200304053FF0346F9B243F60B001C43FFF74CFF4E
S315020030500346310A43F610001C43FFF745FF0346B9
S31502003060F1B243F611001C43FFF73EFF0346290A5D
S3150200307043F612001C43FFF737FF0346E9B243F655
S3150200308013001C43FFF730FF2043BDE8F08100BF69
S3150200309010B578B10138012819D8002145F21F0070
S315020030A0FFF722FF302104464FF48640FFF71CFF4C
S315020030B0204310BD012145F21F00FFF715FF6F21C6
S315020030C004464FF48640FFF70FFF204310BD03204E
S315020030D010BD00BF08B5072805D8DFE800F0121DAD
S315020030E0040429043506032008BD00214FF4F363C6
S315020030F04FF422620846FFF78BFF194B194A9A6072
S3150200310008BD0021F0234FF4A0720846FFF780FFA6
S31502003110134B154A9A6008BD00214FF4F0734FF421
S3150200312020720846FFF774FF0D4B104A9A6008BDDD
S3150200313000214FF434734FF4A0620846FFF768FF8C
S31502003140074B0B4A9A6008BD00214FF487634FF480
S31502003150F0620846FFF75CFF014B064A9A6008BD1B
S3150200316014640822200A98074001F0008002E00158
S315020031700005D00280073804F8B5314B9D681E68F9
S315020031802A6830465968904720B10E28044601D075
S315020031902046F8BD01223C2130462B699847044659
S315020031A00028F5D14FF47A711420FFF7AFFB802186
S315020031B043F20800FFF798FE04460028E8D14FF4D0
S315020031C07A711420FFF7A2FB2046FFF7F9FE0446A8
S315020031D00028DDD11B4D4FF6FF7605F54F7708E047
S315020031E0A978FFF781FE04460028D1D10435AF4203
S315020031F008D02888B042F3D14FF47A71A878FFF745
S3150200320085FBF3E700214FF4F0734FF42072084672
S31502003210FFF7FEFE0C4D0D4B0446AB600028B7D1FE
S31502003220012145F21F00FFF75FFE6F2104464FF4AE
S315020032308640FFF759FE0443AAD12C736C73A7E7A5
S31502003240BC7B070248820702146408228002E0015E
S31502003250022143F20800FFF747BE00BF38B1002340
S31502003260044A05491060537318460B7070470220D2
S31502003270704700BF146408221064082200EB800025
S3150200328070B50024084E450006E001216420013491
S31502003290FFF73CFBA54204D33378002BF5D0002080
S315020032A070BD142070BD00BF10640822024B014697
S315020032B0186800F025B800BF3000002270B50F4E26
S315020032C00C460546316811B900F02AFF30602146E6
S315020032D0284600F025FF431C03D14FF0FF34204659
S315020032E070BDC41C24F00304A042F8D0211A28465B
S315020032F000F016FF0130F2D1EFE700BF2864082282
S315020033002DE9F843CD1C064625F0030508350C2D9C
S3150200331038BF0C25002D01DBA94204D90C233360EA
S315020033200020BDE8F883DFF8D48000F069F8D8F809
S3150200333000301C4644BB29463046FFF7BFFF431CFC
S31502003340044658D1D8F800402746002F43D1002C16
S315020033504BD023683946304604EB030900F0E0FE01
S31502003360814542D1216830466D1A2946FFF7A6FFEC
S3150200337001303AD023682B442360D8F800305A68CB
S3150200338062BBC8F800700FE02268521B20D40B2AD9
S3150200339017D96119A342256018BF5960636808BF2F
S315020033A0C8F8001062514B60304600F02FF804F165
S315020033B00B00231D20F00700C21A1CBF1B1AA350C4
S315020033C0AFE76268A3420CBFC8F800205A60EBE779
S315020033D023466468AEE73C467F68B6E71A465B68F2
S315020033E0A342FBD100235360DEE70C233046336051
S315020033F000F00CF894E70560D6E700BF2C640822BB
S31502003400014800F0B6BE00BF70650822014800F010
S31502003410B1BE00BF70650822F0B52DED028BB0EE8D
S31502003420408B85B017460C460D9D18EE902A0C9ED1
S3150200343025F02005002AB6BF2D220022B1EE408BD0
S31502003440462D1A7004D0452D00D10134022100E028
S31502003450032103ABB0EE480B2246019302AB009365
S31502003460334600F039FF472D14D1FB070AD502195E
S31502003470B5EE408B3021F1EE10FA08BF0392039BA2
S31502003480934219D3039B0E9A1B1A136005B0BDEC27
S31502003490028BF0BD462D00EB0402E9D10378302BF6
S315020034A007D1B5EE408BF1EE10FA1CBFC4F1010450
S315020034B0346033681A44DBE75C1C03941970DEE758
S315020034C0F7B500290270BABF49422D232B230929D9
S315020034D0437028DD0DF107030A271D461A46013BF4
S315020034E0B1FBF7F607FB1614303402F8014C0C4612
S315020034F03146632CF2DC3031941E03F8011C411C68
S315020035002346AB420AD30DF109039B1AAC4288BF8C
S31502003510002302330344181A03B0F0BD13F8016BFB
S3150200352001F8016FEDE7302330318370031DC1705E
S31502003530F1E70000000000002DE9F04F8DB00C46C7
S3150200354016461F46DDF85880054600F0B1FDD0F854
S3150200355000B0584600F02AFE002394F818900A9309
S31502003560D8F8003022680733059023F0070303F1E9
S315020035700801C8F8001093ED000B9FED976BB0EEB3
S31502003580C07B84ED120BB4EE467BF1EE10FA24DD1D
S31502003590B5EEC00BF1EE10FA02D52D2384F84330B6
S315020035A08F49904BB9F1470F8CBF8846984622F057
S315020035B0040203234FF0000A2260236133460BAA5A
S315020035C021462846009700F0D1F9013040F0898063
S315020035D04FF0FF300DB0BDE8F08FB4EE400BF1EEC8
S315020035E010FA09D710EE903A7F49002BBCBF2D2363
S315020035F084F843307D4BD5E7636809F0DF0A591C2E
S3150200360039D10623636042F4806200232846226091
S3150200361003930AABCDE9019309AB00930DF12303A2
S315020036206168FFF7F9FEBAF1470F8046099929D179
S31502003630C81C02DB6368994241DDA9F102095FFAFF
S3150200364089F901394A4604F150000991FFF738FF1A
S315020036500A9A82461318012A236102DC2268D207DB
S3150200366001D5013323619DF82330002BA6D02D23EB
S3150200367084F84330A2E7BAF1470FC4D1002BC2D176
S315020036800123BFE7B9F1650FDBD9B9F1660F18D18E
S31502003690002963680BDD216113B92268D00702D5C0
S315020036A001330B4423614FF0000AA165DBE713B92E
S315020036B02268D20701D50233F4E70123F2E74FF07D
S315020036C067090A9B994205DB23682161D807EAD577
S315020036D04B1CE7E70029D4BFC1F1020201221344C1
S315020036E0E0E723685A0507D423694246314628464D
S315020036F0B84701302AD16BE7B9F1650F40F2E08095
S3150200370094ED127BB5EE407BF1EE10FA33D1012334
S31502003710374A31462846B84701303FF459AFDDE90A
S315020037200938434502DB2368D8070FD5059B5A465D
S3150200373031462846B84701303FF44AAF4FF00009F8
S3150200374008F1FF3804F11A0AC84509DC23689B0709
S3150200375000F10781E0680B9B9842B8BF184639E72B
S315020037600123524631462846B84701303FF430AF6E
S3150200377009F10109E8E7099B002B3BDC01231C4AFE
S3150200378031462846B84701303FF422AFDDE9093910
S3150200379059EA030302D12368D907D7D5059B5A46AE
S315020037A031462846B84701303FF412AF4FF0000ABF
S315020037B004F11A0B099B5B42534501DC4B4694E725
S315020037C001235A4631462846B84701303FF400AF36
S315020037D00AF1010AEEE700BFFFFFFFFFFFFFEF7FDF
S315020037E08885070284850702908507028C85070271
S315020037F094850702A36DDDF828A05345A8BF53465A
S31502003800002B994637DC002329EAE97904F11A02EA
S315020038100793A36D07990693A3EB09038B4231DC49
S31502003820099B9A453BDC2368DA0738D4099BAAEB45
S315020038300309069BAAEB03039945A8BF9946B9F16A
S31502003840000F34DC4FF0000829EAE97904F11A0B7B
S31502003850099BAAEB0303A3EB090343457FF776AF64
S3150200386001235A4631462846B84701303FF4B0AEE6
S3150200387008F10108ECE7424631462846B8470130CE
S31502003880C1D1A5E60123314628460692B847013042
S315020038903FF49EAE079B069A01330793B9E7059B51
S315020038A05A4631462846B8470130BFD190E6069AB5
S315020038B04B46314628464244B8470130C2D187E6D4
S315020038C0DDF82890B9F1010F01DCDB0736D50123BB
S315020038D0424631462846B84701303FF479AE059B49
S315020038E05A4631462846B84701303FF471AE09F1CF
S315020038F0FF3994ED127BB5EE407BF1EE10FA18D04B
S315020039004B4608F1010231462846B84701300CD130
S315020039105EE601235A4631462846B84701303FF44F
S3150200392057AE08F10108C845F3DB534604F15002CD
S31502003930DCE64FF0000804F11A0BF4E701234246D5
S31502003940E1E701234A4631462846B84701303FF4AB
S315020039503FAE08F10108E3680B995B1A4345F0DCB8
S31502003960F8E64FF0000804F11909F4E72DE9F047EB
S31502003970164698468A6807460B690C46DDF820907B
S315020039809342B8BF1346336091F843200AB101331C
S3150200399033602368990642BF336802333360256871
S315020039A015F0060506D104F1190AE36832689B1A76
S315020039B0AB422BDC94F843302268003B18BF01234C
S315020039C0920630D404F1430241463846C8470130D4
S315020039D023D023681A3454F80A2C03F00603042B66
S315020039E00ABF54F80E5C002533684FF0000608BF84
S315020039F0ED1A54F8123C08BF25EAE5759342C4BF96
S31502003A009B1AED18B5421AD1002008E0012352464E
S31502003A1041463846C847013003D14FF0FF30BDE872
S31502003A20F0870135C1E7E1185A1C302002332244DF
S31502003A3081F8430094F8451082F84310C2E7012347
S31502003A40224641463846C8470130E6D00136D9E714
S31502003A502DE9FF470F7E914680460C46782F9A46FF
S31502003A600C9E01F1430207D8622F0AD8002F00F0FC
S31502003A70D180582F00F0B88004F1420684F84270D3
S31502003A803AE0A7F16303152BF6D801A151F823F00A
S31502003A90E93A0002FD3A0002793A0002793A000256
S31502003AA0793A0002793A0002FD3A0002793A0002B6
S31502003AB0793A0002793A0002793A0002FB3B0002A7
S31502003AC0273B0002B53B0002793A0002793A00022E
S31502003AD01D3C0002793A0002273B0002793A0002B5
S31502003AE0793A0002BD3B000233681A1D1B68326038
S31502003AF004F1420684F8423001239CE033682068D0
S31502003B00191D3160060601D51D6803E04506FBD581
S31502003B10B3F90050002D03DA2D236D4284F84330A9
S31502003B2058480A2311E021683368080653F8045BF3
S31502003B3002D4490648BFADB26F2F3360514814BF55
S31502003B400A230823002184F843106668002EA66023
S31502003B5005DB21682E4321F0040121604BD0164675
S31502003B60B5FBF3F103FB1157C75D06F8017D2F463E
S31502003B700D46BB42F4D9082B0BD12368DF0708D5C3
S31502003B80236961689942DEBF302306F8013C06F1DB
S31502003B90FF36921B22614B4603AA21464046CDF8C8
S31502003BA000A0FFF7E3FE01304AD14FF0FF3004B028
S31502003BB0BDE8F087236843F0200323607827324864
S31502003BC0236884F845701F06316851F8045B02D4F5
S31502003BD05F0648BFADB23160D90744BF43F0200348
S31502003BE023601DB11023ADE72648E9E7236823F0D9
S31502003BF020032360F6E71646BDE733682568181DDD
S31502003C00616930602E061B6801D5196002E06806FC
S31502003C10FBD51980002316462361BCE733680021D1
S31502003C201A1D32601E686268304600F0A4FA08B1B6
S31502003C30801B606063682361002384F84330AAE72F
S31502003C402369324649464046D0470130ADD0236803
S31502003C509B0713D4E068039B9842B8BF1846A6E7B1
S31502003C600123324649464046D04701309DD00135B0
S31502003C70E36803995B1AAB42F2DCEBE7002504F139
S31502003C801906F5E796850702A7850702002310B5F0
S31502003C9004468360818119464366C2810822836194
S31502003CA0C0E90033C0E904335C3000F0F9F90D4B8A
S31502003CB0246263620C4BA3620C4BE3620C4B2363DC
S31502003CC00C4B9C4206D003F16802944202D0D033D8
S31502003CD09C4205D104F15800BDE8104000F048BAF4
S31502003CE010BD00BFF13E0002133F00024B3F00022F
S31502003CF06F3F000230640822024A0349034800F07B
S31502003D0069B800BF2400002299580002340000223C
S31502003D1041680C4B994210B5044601D001F0BCFD36
S31502003D20A168094B994202D0204601F0B5FDE1682F
S31502003D30064B994204D02046BDE8104001F0ACBDC6
S31502003D4010BD00BF3064082298640822006508226C
S31502003D5010B50B4B04210B4C0B4A20461A6000226D
S31502003D60FFF794FF04F1680001220921FFF78EFF95
S31502003D7004F1D00002221221BDE81040FFF786BFEF
S31502003D806865082230640822F93C0002014800F006
S31502003D90F0B900BF71650822014800F0EBB900BF17
S31502003DA07165082210B50446FFF7F0FF236A1BB1BE
S31502003DB0BDE81040FFF7F0BF044B2362044B1B68BB
S31502003DC0002BF5D1FFF7C4FFF2E700BF113D000259
S31502003DD0686508222DE9F8430746884614460026F8
S31502003DE0D4E90195B9F1010905D52468002CF7D16A
S31502003DF03046BDE8F883AB89012B07D9B5F90E30F9
S31502003E00013303D029463846C04706436835E9E7F9
S31502003E100FB407B5064904AB086853F8042B81684A
S31502003E20019301F09DFB03B05DF804EB04B070470B
S31502003E3030000022036A70B505460E4684680BB947
S31502003E40FFF7B0FF636EDB0705D4A389980502D49A
S31502003E50A06D00F08EF9A389190702D52369002BFC
S31502003E6035D12146284600F0C5F880B34FF0FF351C
S31502003E70636EDA0705D4A3899B0502D4A06D00F010
S31502003E8079F9284670BD002B04DAA2699A4217DC3A
S31502003E900A2915D023685A1C22601970A36816F8DD
S31502003EA0011F013BA3600029EDD1002B11DA224646
S31502003EB00A21284600F05FF80130D7D00A25D7E755
S31502003EC02246284600F057F80130E7D1CEE7013EF8
S31502003ED0E4E723685A1C22600A221A70EEE7000001
S31502003EE0024B01461868FFF7A5BF00BF300000224B
S31502003EF010B50C46B1F90E1000F000F90028ABBF60
S31502003F00636DA3891B1823F48053ACBF6365A38139
S31502003F1010BD2DE9F0411F468B8905460C46DB058F
S31502003F20164605D502230022B1F90E1000F0D4F888
S31502003F30A3893246B4F90E10284623F48053A3818E
S31502003F403B46BDE8F04100F0FBB810B50C46B1F9AE
S31502003F500E1000F0C1F8431CA38915BF606523F457
S31502003F60805343F48053A38118BFA38110BDB1F9D6
S31502003F700E1000F0A1B8F8B50E461446054618B163
S31502003F80036A0BB9FFF70EFFA369A360A3891A0799
S31502003F9001D5236943B92146284600F02BF818B10A
S31502003FA04FF0FF373846F8BD2368F6B22269374626
S31502003FB0981A6369834205DC2146284601F06CFCA7
S31502003FC00028EDD1A368013BA36023685A1C226036
S31502003FD01E70431C62699A4204D0A389DB07E1D5AD
S31502003FE00A2EDFD12146284601F056FC0028D9D0F8
S31502003FF0D6E7000038B5294B05460C46186818B1B5
S31502004000036A0BB9FFF7CEFEB4F90C30190722D4B6
S31502004010DA0607D409222A6043F040034FF0FF3044
S31502004020A38133E0580712D5616B41B104F1440311
S31502004030994202D0284600F09DFE00236363A389BD
S3150200404023F02403A3810023636023692360A389E9
S3150200405043F00803A38123694BB9A38903F42073B0
S31502004060B3F5007F03D02146284601F062FCB4F97D
S315020040700C3013F001020AD00022A2606269524299
S31502004080A261226942B913F08000C5D138BD9907F1
S3150200409058BF6269A260F4E70020F7E73000002209
S315020040A002440346934200D1704703F8011BF9E725
S315020040B0004870477001002238B50023054D0446BA
S315020040C008462B60FCF766F9431C02D12B6803B144
S315020040D0236038BD6C65082238B50446064D08468D
S315020040E0114600222A601A46FCF758F9431C02D1EF
S315020040F02B6803B1236038BD6C65082238B50446C7
S31502004100064D0846114600222A601A46FCF748F96F
S31502004110431C02D12B6803B1236038BD6C650822AB
S3150200412038B50023054D044608462B60FEF7C4FC4D
S31502004130431C02D12B6803B1236038BD6C6508228B
S3150200414038B50446064D0846114600222A601A462C
S31502004150FCF702F9431C02D12B6803B1236038BD78
S315020041606C650822014B1868704700BF30000022B8
S31502004170704770477047C9B20346024410B593426E
S31502004180184601D1002003E0047801338C42F6D1AF
S3150200419010BD0A44431E914200D1704710B511F872
S315020041A0014B914203F8014FF9D110BD034613F8B2
S315020041B0012B002AFBD1181A013870472DE9F74F57
S315020041C0036907460C69A342C0F28380013C00F1F1
S315020041D0140501F11408A30055F8242008EB8409FC
S315020041E0009305EB8403019358F8243001339A4275
S315020041F0B2FBF3F631D34FF0000AC446AE46D346BD
S315020042005CF8043B98B2E1454FEA134306FB00A073
S315020042104FEA104280B206FB0323DEF8002092B278
S315020042204FEA134AA2EB00029BB2DEF800005A44A0
S31502004230C3EB224392B203EB104342EA03424FEA34
S31502004240234B4EF8042BDBD2009BEB582BB9019B78
S31502004250043B9D421A4630D33C61384601F04AF887
S31502004260002826DB2946002058F8042BD1F800C086
S315020042701FFA82FEC1451FFA8CF34FEA1242A3EBE4
S315020042800E030344C2EB23429BB202EB1C4243EAF7
S3150200429002434FEA224041F8043BE5D255F8242076
S315020042A005EB840322B9043B9D421A460BD33C61BB
S315020042B00136304603B0BDE8F08F1268043B002A8F
S315020042C0CAD1013CC5E71268043B002AEFD1013C82
S315020042D0EAE70020EEE700002DE9F04FC7698146C4
S315020042E02DED028B91B055EC104B1C9E0691099256
S315020042F00C938DED020B7FB91020FEF7D7FF024615
S31502004300C9F81C0020B99E4BEF219E48FEF7F6FA2B
S31502004310C0E901770760C760D9F81C30196859B13E
S315020043205A680123484693404A608B6000F0ACFD10
S31502004330D9F81C3000221A602B1EB7BF23F00043A7
S31502004340002301220393ACBF336032608E4B039E7F
S31502004350B34310D142F20F730C9A1360C6F31303E0
S31502004360234300F0D5841D9B884F002B00F0D78491
S31502004370FB1C00F0D2BC9DED028BB5EE408BF1EE3C
S3150200438010FA0AD101230C9A13601D9B13B1804BBC
S315020043901D9A13607F4F00F0C2BC0EAAB0EE480B06
S315020043A00FA9484601F05AF8C6F30A530E9A01902D
S315020043B0002B45D018EE901AB0EE487BA3F2FF33DD
S315020043C00025C1F3130141F07F5141F44011B7EECC
S315020043D0086B07EE901A9FED645B37EE467B9FED06
S315020043E0646BA7EE056B07EE903AB8EEE74B9FEDCE
S315020043F0625BB0EE467BA4EE057BB5EEC07BFDEEBE
S31502004400C76BF1EE10FA16EE908A08D5B8EEE66B97
S31502004410B4EE476BF1EE10FA18BF08F1FF38B8F1A7
S31502004420160F2DD85C4901EBC80191ED007BB4EE65
S31502004430C78BF1EE10FA01D508F1FF38002120E012
S315020044400F9B0125134403F232412029C9BFC1F152
S315020044504001C1F120018E4003F21241D8BF04FA95
S3150200446001F103F1FF33C4BF24FA01F1314307EE30
S31502004470901AB8EE677B17EE901AA1F1F871A6E7CB
S315020044800121D21A0B91531E059345BFC2F10103B6
S31502004490002200230592B8F1000F17DB059ACDF82A
S315020044A028804244059200220792069A092A42D897
S315020044B0052AC5BF043A002401240692069A023A46
S315020044C0032A43D8DFE802F03335160AC8F10002A0
S315020044D0A3EB0803079200220A92E6E7012208925A
S315020044E0099A08EB020B0BF1010A5246012AB8BFE0
S315020044F0012206E001220892099A002A29DD934642
S315020045009246D9F81C700021042000F11406964246
S3150200451026D979604846049300F076FC049B074648
S3150200452000283DD11D4B024640F2AF11EDE60022B6
S31502004530E1E70022D3E701240022089406924FF015
S31502004540FF3B00211222DA460991DAE7012208929C
S31502004550F5E74FF0010BDA465A46CDF824B0D0E71C
S3150200456001314000D1E700BF61436F63A787D23FA5
S31502004570B3C8608B288AC63FFB799F501344D33F4A
S31502004580C5850702DC8507020000F07FC1850702A8
S315020045909585070294850702F0860702358607028B
S315020045A0D9F81C20BAF10E0F10606ED8002C6CD010
S315020045B0B8F1000F40F3B48008F00F01C74A18F4AF
S315020045C0807F02EBC1024FEA281192ED007B00F0D8
S315020045D09B80C34A01F00F0192ED086B032288EE1D
S315020045E0066B8DED026BBE48002940F08F809DED73
S315020045F0026B86EE077B8DED027B0B999DED027BAE
S31502004600002900F0B380B7EE006BB4EEC67BF1EE84
S3150200461010FA40F1AB80BAF1000F00F0A780BBF1AF
S31502004620000F30DDB2EE046B08F1FF3101325C4659
S31502004630049127EE067B8DED027B07EE902AB1EE02
S315020046400C5B9DED026BB8EEE77BA7EE065B15EE03
S31502004650902A51EC150BA2F15071002C40F08A8081
S31502004660B1EE047B36EE476B41EC170BB4EEC76B2B
S31502004670F1EE10FA00F35D82B1EE477BB4EEC76B42
S31502004680F1EE10FA23D48DED028B0F990029C0F2B8
S315020046902981B8F10E0F00F32581904B03EBC80375
S315020046A093ED006B099B002B80F2C880BAF1000FD4
S315020046B000F3C4800BD1B1EE047B26EE076B9DEDB1
S315020046C0027BB4EEC76BF1EE10FAC0F22F82002421
S315020046D02546099B3E46DB4304934FF000082146DC
S315020046E0484600F0D1FB002D00F0A280B8F1000F81
S315020046F005D0A84503D04146484600F0C5FB2946E9
S31502004700484600F0C1FB93E002226CE7CC0704D5D1
S31502004710013290ED006B27EE067B4910083063E705
S3150200472022D0C8F100016D4A002401F00F000911E0
S3150200473002EBC0026A4892ED007B022228EE077B5A
S315020047408DED027B29B9002C3FF457AF8DED027B2C
S3150200475053E7CE0705D50132012490ED006B27EE13
S31502004760067B49100830EDE7022246E75446CDF8AB
S31502004770108062E7594A02EBC4023C4412ED024B36
S31502004780089A41EC170B4AB3B6EE003B3E46B7EE2B
S31502004790002B83EE045BB2EE043B35EE477BFDEE67
S315020047A0C64BB8EEE45B14EE902A303236EE456B19
S315020047B006F8012BB4EEC76BF1EE10FA38D432EEDE
S315020047C0465BB4EEC75BF1EE10FA6ED4A6423FF436
S315020047D05AAF27EE037B26EE036BE0E727EE047B58
S315020047E021463E46B2EE043BFDEEC64B14EE902A3F
S315020047F0B8EEE45B303236EE456B06F8012BA64284
S3150200480019D1B6EE005B37EE054BB4EEC46BF1EE92
S3150200481010FA4ADC35EE475BB4EEC56BF1EE10FAE0
S315020048207FF531AF0E46013916F8013C302BF9D02F
S31502004830DDF8108027E026EE036BD5E79DED027BBF
S31502004840B2EE044B3E4687EE065BBDEEC55B15EE49
S31502004850103AB8EEC53B3033A3EE467B06F8013B71
S31502004860F31B9A4532D137EE077BB4EEC67BF1EEE7
S3150200487010FA18DCB4EE467BF1EE10FA03D115EE0F
S31502004880103ADB070FD40199484600F0FDFA0023DF
S315020048900C9A337008F1010313601D9B002B00F084
S315020048A03E821E603BE2CDF8108033461E4613F868
S315020048B0012D392A06D19F42F8D1049A0132049277
S315020048C030223A701A7801321A70B1E727EE047B69
S315020048D0B5EE407BF1EE10FAB5D1D4E7F0860702C9
S315020048E0C8860702089A002A00F0E580069A012A7D
S315020048F000F3C680002D00F0BF8001F23341079C11
S315020049001E460B4448460493059B0B44012105931E
S3150200491000F070FB049B054656B1059A002A07DD96
S31502004920B2420599A8BF32469B1AB61A8A1A05924E
S31502004930079A12B3089A002A00F0C1809CB1294650
S31502004940224648460D9300F00FFC019A01460546A1
S31502004950484600F065FB01990490484600F094FA37
S31502004960049A0D9B0192079A121B06D00493019991
S31502004970484600F0F9FB049B019001214846049346
S3150200498000F038FB0A9A0446049B002A00F0CD8107
S315020049900146484600F0E8FB069B0446012B049BB1
S315020049A000F39480029A002A40F08C80039AC2F3A4
S315020049B01302002A40F08880039A22F00042120D68
S315020049C0120522B1059A013301320592012207929C
S315020049D00A9A002A00F0AF812269049304EB82024C
S315020049E0106900F0BBFA049BC0F12000059A10443E
S315020049F010F01F0075D0C0F12002042A69DDC0F153
S31502004A001C00059A0344024406440592002B05DD68
S31502004A101A460199484600F001FC0190059B002BBD
S31502004A2005DD21461A46484600F0F8FB04460B9B74
S31502004A30002B58D02146019800F05CFC002852DA7F
S31502004A4008F1FF330A22019948460493002300F035
S31502004A503DFA089B0190002B00F06F812946002346
S31502004A600A22484600F032FABBF1000F054666DC20
S31502004A70069B022B40DC62E00E99C1F136013EE74D
S31502004A800AF1FF34079AA24207DBBAF1000FA2EB42
S31502004A9004040CDB1E46514633E7079A1E460A9962
S31502004AA0A21A0794002411440A91514629E7A3EB5E
S31502004AB00A06002125E7079C1E46089D2CE7079A51
S31502004AC0049354E7002282E7029A80E700220792C3
S31502004AD082E79BD01C320599114413441644059172
S31502004AE094E70246F6E7BAF1000FD346CDF81080F6
S31502004AF021DC069B022B1EDDBBF1000F7FF4E9AD24
S31502004B0021465B460522484600F0E0F90146044686
S31502004B10019800F0EFFB00287FF7DBAD31233E461C
S31502004B2006F8013B049B01330493D6E55446CDF8BF
S31502004B3010802546F2E7089B002B00F00281002E2A
S31502004B4005DD29463246484600F068FB0546079BC6
S31502004B50002B58D06968484600F056F9064628B92F
S31502004B60824B024640F2EF21FFF7CFBB2A6905F1DD
S31502004B700C010C3002329200FFF70BFB0122314688
S31502004B80484600F04BFB7B1CA8460546059307EBFF
S31502004B900B030993029B03F001030893059B21462D
S31502004BA0019803F1FF3BFFF709FB4146029000F132
S31502004BB0300A019800F09EFB2A4607902146484695
S31502004BC000F0B4FBC2680646FAB90146019800F045
S31502004BD091FB0246314648460A9200F055F90A9A76
S31502004BE0DDE9056342EA0301089B19430FD1BAF1D5
S31502004BF0390F28D0079B002B02DD029B03F1310AF5
S31502004C008BF800A06BE52846BDE70122E2E7079B89
S31502004C10002B04DB06990B4308990B4320D1002A8B
S31502004C20EEDD01220199484600F0F8FA214601908C
S31502004C3000F060FB002803DCE2D11AF0010FDFD09E
S31502004C40BAF1390FD9D139238BF8003033461E46D3
S31502004C50013B16F8012C392A52D001321A703EE570
S31502004C60002A07DDBAF1390FEDD00AF101038BF8FC
S31502004C70003034E5059B099A03F801AC934229D02A
S31502004C8000230A220199484600F020F9A84501901E
S31502004C904FF000034FF00A024146484607D100F0A2
S31502004CA015F980460546059B0133059376E700F024
S31502004CB00DF92946804600230A22484600F006F9E5
S31502004CC00546F0E7BBF1000F4FF00008CCBF5E4689
S31502004CD001263E4401220199484600F09FFA2146E8
S31502004CE0019000F007FB0028B0DC02D11AF0010F98
S31502004CF0ACD133461E4613F8012D302AFAD0EEE423
S31502004D009F42A4D1049B0133049331233B70E6E412
S31502004D101D9B174F1BB107F108031D9A13603846F6
S31502004D2011B0BDEC028BBDE8F08F069A012A7FF71F
S31502004D3039AE0A9A0792012058E6BBF1000F7FF7B7
S31502004D40D8AE3E4621460198FFF738FA00F1300AFE
S31502004D5006F801ABF21B9345B4DD00230A22019942
S31502004D60484600F0B3F80190ECE700BF358607022B
S31502004D70B885070238B50546002941D051F8043CEA
S31502004D800C1F002BB8BFE418FEF73AFB1D4A136846
S31502004D9033B9636014602846BDE83840FEF736BB77
S31502004DA0A34208D9206821188B4201BF19685B68A3
S31502004DB009182160EDE71A465B680BB1A342FAD9DE
S31502004DC011685018A0420BD1206801445018116096
S31502004DD08342E0D118685B68084453601060DAE7E2
S31502004DE002D90C232B60D6E7206821188B4202BF1A
S31502004DF019685B680918636008BF21605460CAE7D6
S31502004E0038BD00BF2C64082270B5C66904460D463B
S31502004E1076B91020FEF74AFA0246E06120B9184B2D
S31502004E206B211848FDF76AFDC0E901660660C66097
S31502004E30E669F36883B1E369DB6853F82500B8B91C
S31502004E400121204601FA05F6721D920000F0D0FDFE
S31502004E5060B1C0E901560EE021220421204600F08D
S31502004E60C7FDE369F060DB68002BE4D1002070BD6A
S31502004E70026843F825200023C0E90333F7E700BFA1
S31502004E80C58507024686070270B5C66905460C4601
S31502004E9076B91020FEF70AFA0246E86120B9094BF4
S31502004EA08F210948FDF72AFDC0E901660660C66042
S31502004EB03CB1EB696268DB6853F82210216043F863
S31502004EC0224070BDC5850702468607022DE9F041DC
S31502004ED001F1140C07460C461E460D690020DCF84B
S31502004EE00030013099B2854202FB01614FEA134656
S31502004EF04FEA114389B202FB063301EB03414FEA43
S31502004F0013464CF8041BEADC0EB3A368AB4219DC69
S31502004F10616838460131FFF777FF804628B90246B5
S31502004F200C4BBA210C48FDF7E9FC226904F10C018D
S31502004F300C3002329200FFF72CF9214644463846DD
S31502004F40FFF7A2FF04EB850301355E61256120466A
S31502004F50BDE8F0813586070246860702B0F5803F36
S31502004F60034636BF030400201020B3F1807F3CBF06
S31502004F701B020830B3F1805F3CBF1B010430B3F162
S31502004F80804F3CBF9B000230002B05DB13F0804FA5
S31502004F9000F1010008BF202070470368024613F0A3
S31502004FA007000BD0D90721D4980747BF5B08012019
S31502004FB09B0802204CBF13601360704799B209B96F
S31502004FC01B0C1020D9B209B908301B0A190704BFF5
S31502004FD01B090430990704BF9B080230D90703D482
S31502004FE05B0800F1010003D0136070470020704790
S31502004FF02020704710B50C460121FFF705FF024637
S3150200500028B9054B40F245110448FDF777FC012308
S315020050104461036110BD00BF35860702468607025A
S315020050202DE9F04F17460A69894685B03B699A42CF
S31502005030A2BF3B460F4699463D69BB68D9F810A008
S31502005040796805EB0A06B342B8BF0131FFF7DCFE09
S3150200505030B90246424B4FF4B1714248FDF74EFC5D
S3150200506000F11404002204EB860E2346734520D376
S3150200507007F1140809F1140108EB850501EB8A030F
S315020050800293EB1B1537153B23F003030433BD4292
S3150200509038BF04230193029B03918B420CD8002E46
S315020050A003DD5EF8043D002B57D0066105B0BDE86E
S315020050B0F08F43F8042BD9E7B1F800A0BAF1000F3C
S315020050C021D0C446A14600275CF8042BD9F800304B
S315020050D01FFA82FB65459BB24FEA12420AFB0B336B
S315020050E03B44D9F800704FEA17470AFB027202EBFB
S315020050F013429BB24FEA124743EA024349F8043B82
S31502005100E2D8019BE750039B0431B3F80290B9F150
S31502005110000F20D023684746A4464FF0000AB7F88E
S3150200512000B09BB2BCF8022009FB0B22524443EAB0
S3150200513002434CF8043B57F8043B4FEA134ABCF8C7
S315020051400030BD4209FB0A3303EB12434FEA134A0E
S31502005150E5D8019AA35004349DE7013E9FE700BFBC
S3150200516035860702468607022DE9F843154612F0F0
S31502005170030207460E4607D0013A254C002354F88F
S315020051802220FFF7A3FE0646AD103DD0FC697CB98E
S315020051901020FEF78BF80246F86128B91D4B40F243
S315020051A0B3111D48FDF7AAFBC0E901440460C460BF
S315020051B0D7F81C80D8F808404CB940F2712138461D
S315020051C0FFF718FF00230446C8F8080003604FF0F3
S315020051D00009EB070AD5314622463846FFF720FF7B
S315020051E08046314638464646FFF74EFE6D100BD0D6
S315020051F0206838B9224621463846FFF711FF20605B
S31502005200C0F800900446E4E73046BDE8F88300BFE4
S31502005210BC860702C5850702468607022DE9F047C6
S315020052200C46074691464FEA621A2369496803EB20
S315020052306218A36808F10106B3420BDB3846FFF792
S31502005240E3FD054648B90246284B4FF4EF7128485C
S31502005250FDF754FB01315B00EEE7002300F1140178
S3150200526000F110021846534533DB2AEAEA7A04F1C2
S315020052701403206919F01F0901EB8A0103EB800C64
S315020052802BD0C9F1200E8A460022186800FA09F0CE
S3150200529010434AF8040B53F8042B9C4522FA0EF2EB
S315020052A0F3D8ACEB040304F11500153B23F003031A
S315020052B00433604588BF0423CA500AB108F10206C6
S315020052C0013E384621462E61FFF7DEFD2846BDE83F
S315020052D0F087013342F8040FC5E7043953F8042B6B
S315020052E09C4541F8042FF9D8EAE700BF3586070244
S315020052F04686070203460A690069801A30B50ED14E
S315020053001433143103EB820401EB820154F8045D79
S3150200531051F8042D954203D005D24FF0FF3030BD2F
S31502005320A342F3D3FBE70120F9E700002DE9F74F8B
S3150200533089460646114614464846FFF7DBFF051E18
S3150200534012D129463046FFF75FFD024628B9414B86
S3150200535040F237214048FDF7D1FA0123C0E904356E
S31502005360104603B0BDE8F08FBCBF4B46A14630469F
S31502005370B8BF0125D9F80410B4BF1C460025FFF7B3
S3150200538043FD024618B9334B40F24521E2E7D9F80C
S31502005390107004F1140E266900F1140BC56009F1B0
S315020053A0140509F110030EEB860605EB8708D946AC
S315020053B04FF0000C0193019B5EF8040B53F804AF07
S315020053C0764501931FFA8AF3194683B24FEA1040D3
S315020053D0A1EB0303C0EB1A40634400EB23409BB2EC
S315020053E04FEA204C43EA004349F8043BE3D8331B17
S315020053F01534153B23F003030433A64238BF0423B6
S315020054001D445B442C461E4644450ED308F1030157
S31502005410491B033D21F00301A84538BF00210B4477
S3150200542053F8041D99B117619AE754F8041BE6462E
S315020054301FFA81FC080C7144F44489B200EB2C403B
S3150200544041EA00414FEA204C46F8041BDCE7013FE3
S31502005450E6E700BF35860702468607022DE9F743CF
S315020054600F460121164659EC108BFFF7CDFC044678
S3150200547030B90246234B40F20F312348FDF73EFA7C
S31502005480C9F30A55C9F313030DB143F4801301930B
S31502005490B8F1000323D068460093FFF77EFDDDE9ED
S315020054A00012D0B1C0F1200302FA03F3C2400B434B
S315020054B001926361019B002BA3610CBF01220222B0
S315020054C02261A5B1A5F233450544C0F135003D6020
S315020054D03060204603B0BDE8F0836161EAE701A8C7
S315020054E0FFF75BFD019B203001226361E8E7A0F232
S315020054F0324004EB820338601869FFF72FFDC0EBD8
S315020055004210E5E735860702468607029368013BA5
