S013000052413850315F54455354332E73726563F3
S3150200000000620022C93400029D320002C534000299
S31502000010C5340002C5340002C5340002C5340002EC
S31502000020000000000000000000000000C5340002CD
S31502000030C534000200000000C5340002C5340002C7
S31502000040C11C0002191C0002511D00029D1D000266
S31502000050B12D00029125000225270002492800023F
S315020000602D290002C11C0002191C0002511D0002AA
S315020000709D1D000291250002252700024928000243
S315020000802D290002C11C0002191C0002511D00028A
S315020000909D1D0002C11C0002191C0002511D000216
S315020000A09D1D0002C11C0002191C0002511D000206
S30D020000B09D1D00020D1600025F
S315020000B80100000000000000000000001C000022F1
S315020000C800000000000000000000000028FA0022DC
S315020000D81040000000000000030000001CFC002283
S315020000E834000022000000001CFC002284FC0022CE
S315020000F8ECFC0022000000000000000000000000E6
S3150200010800000000000000000000000000000000DF
S3150200011800000000000000000000000000000000CF
S3150200012800000000000000000000000000000000BF
S31502000138430000000000000000000000000000006C
S31502000148000000000000000000000000000000009F
S31502000158430000000000000000000000000000004C
S31502000168000000000000000000000000000000007F
S31502000178430000000000000000000000000000002C
S31502000188000000000000000000000000000000005F
S31502000198430000000000000000000000000000000C
S315020001A8000000000000000000000000000000003F
S315020001B843000000000000000000000000000000EC
S315020001C8000000000000000000000000000000001F
S315020001D843000000000000000000000000000000CC
S315020001E800000000000000000000000000000000FF
S315020001F843000000000000000000000000000000AC
S3150200020800000000000000000000000000000000DE
S3150200021805630002E162000200000000900B06027C
S31502000228910A06027D0A06027D0A06027D0A06026E
S315020002387D0A06027D0A06027D0A06027D0A060272
S315020002487D0A06027D0A0602FFFFFFFFFFFFFFFF88
S31502000258FFFFFFFFFFFF000001004153434949002A
S31502000268000000000000000000000000000000007E
S315020002780000000000000000000041534349490005
S31502000288000000000000000000000000000000005E
S3110200029800000000000000000000000052
S315020002B00348044B834202D0034B03B118477047ED
S315020002C0EC010022EC01002200000000064B074967
S315020002D0C91A891048BF0131491003D0044B0BB12A
S315020002E001481847704700BFEC010022EC010022CA
S315020002F00000000010B5064C237843B9FFF7D8FF7B
S31502000300044B13B10448AFF300800123237010BDE0
S31502000310306200220000000028F1C90208B5054B30
S315020003201BB105490548AFF30080BDE80840FFF759
S31502000330CDBF00BF000000003462002228F1C902CE
S315020003402DE9F0410446D0E902854068A8EB05078D
S3150200035097422844154408D80E463A46A5EB0805A6
S3150200036004F07BFB2A466068F11904F076FBBFF3C2
S315020003705F8FE560BDE8F0812DE9F8434FF0000993
S31502000380064688461746D0E902243369151B9C4265
S3150200039003F1FF3125BF03F1FF339B180B1B1B1B18
S315020003A0BD4228BF3D469D4228BF1D467068414654
S315020003B02A46204404F051FBB2682C44A24208BFEC
S315020003C00024A944A8447F1BBFF35F8FF460002F6B
S315020003D0DBD14846BDE8F883F8B5154CA8220021C2
S315020003E0204604F0C1FA4FF480660023032010224F
S315020003F01049114F114D20616061A161E7612662CA
S31502000400A3626362E36221666566A2662367E366A8
S315020004106367BFF35F8F0A4B42F001E01846C21AC8
S3150200042013F9011DA1540FF007C0BFF35F8FF8BD8A
S31502000430606600227063000260620022506200223F
S31502000440F065000270B51D4D441C00EB400005EB43
S31502000450C00304EB440405EBC400DC6A8C46012CA1
S31502000460164612D0022C0CD0FCB99A6A596A8A42F4
S315020004709CBF1B6AD218013A511A8E4218D92046DD
S3150200048070BDBDE87040FFF777BF9A6A5C6AA24208
S315020004909CBF1B6AD218013A141BB44228BF3446C9
S315020004A02246FFF74DFF204670BD0024204670BD50
S315020004B032466146FFF744FF3446E0E760660022B3
S315020004C0F8B50B4B04461B780D46532B164601D046
S315020004D0FFF782FFEFF311874FF0200181F31188B6
S315020004E0324629462046FFF7ADFF87F31188F8BD4D
S315020004F060660022F8B5054608460C4604F0BAFACC
S315020005000A4B06461B78532B01D0FFF765FFEFF324
S3150200051011874FF0200181F3118832462146284681
S31502000520FFF790FF87F31188F8BD00BF60660022CF
S315020005302DE9F0411A4D044695F800C08846BCF1F3
S31502000540530F17461E4601D0FFF746FF022C23D84B
S31502000550EFF311834FF0200181F3118820464CB945
S31502000560069A204405EBC005EA6283F3118800204F
S31502000570BDE8F0810021601C00EB4000C00004EBE6
S31502000580440245F8008005EBC20228444760166221
S31502000590600091625162E3E74FF0FF30E8E700BF87
S315020005A06066002210B50446D0E90132501C98421A
S315020005B007D8236899540246E16863680131C4E9A1
S315020005C002019A4200D010BD21682069FFF778FF28
S315020005D0A368984215BF4FF0FF330023E360A36080
S315020005E010BD00BF2DE9F84F91428A46DDE90A8423
S315020005F0154683461E466AD30B460127B3FBF5F31F
S315020006009D4207F10107F9D9B74238BF374614F0C0
S31502000610010902D1B8F1000F40D1DBF80C30002BF2
S315020006202CDB0124002E14BF3346234601E005FBD2
S3150200063004F4013BFBD1BAFBF4F39D4205D805FB5A
S3150200064004F4BAFBF4F39D42F9D9224E06E0AC4219
S31502000650B4FBF5F30CD31C46BAFBF3F3F15658463A
S3150200066004FB13AAFFF79EFFDBF80C30002BEEDA31
S31502000670B9F1000F02D0B8F1000F09D1BDE8F88F29
S3150200068020215846FFF78EFFDBF80C30002BF5DBF6
S31502000690B84508F1FF38F3D8BDE8F88FA30711D49F
S315020006A020240CE021465846FFF77CFFDBF80C308D
S315020006B008F1FF38002BE1DBB8F1000FAFD0B845E7
S315020006C0F0D8AAE7002E0CBF30242024F7E7012732
S315020006D09AE700BFF86500022DE9F04F0023402596
S315020006E09BB00DF1280980460C461746CDE9055305
S315020006F0CDE90730CDF8109006E004A8FFF752FFC7
S31502000700079B002BC0F2AD8014F9011B002900F0F3
S31502000710A0802529F1D10026234613F9011BA1F158
S3150200072023020D2A08D8DFE802F07F07070707072A
S3150200073007077B0783070777A1F13002D2B2092A9E
S315020007404FF0000501D90EE0013305EB850501EBFB
S31502000750450593F900101C46A1F13002D2B2092ACE
S31502000760A5F13005F0D92E297FD00022924694F9C0
S31502000770001021F00403682B04F101045CD0252942
S31502000780BBD05839CBB2202BBAD82029B8D801A36E
S3150200079053F821F0B908000201070002010700021E
S315020007A00107000201070002010700020107000219
S315020007B00107000201070002010700020107000209
S315020007C0D50800025D0900020107000201070002C6
S315020007D001070002010700020107000201070002E9
S315020007E001070002010700020107000201070002D9
S315020007F0010700023F090002010700020107000289
S315020008000309000201070002E908000201070002CB
S3150200081001070002B90800021C4646F002067BE701
S315020008201C4646F0040677E71C4646F0080673E7C0
S315020008301C4646F001066FE714F9011B21F004037A
S31502000840682B9CD114F9011B21F00403682B96D165
S31502000850F2E7079B002B04DD069C002C40F0B280D9
S31502000860234418461BB0BDE8F08F94F901102A29DB
S3150200087009D13B684FF0010A1A1D3A6094F9021039
S315020008801A68023475E7A1F13003DBB2092B4FF087
S31502000890000204F1010400F2E18002EB820201EBA4
S315020008A0420214F9011F303AA1F13003DBB2092BDF
S315020008B0F3D94FF0010A5CE7134610223968081D86
S315020008C0386009680DEB0200CDE90056FFF78AFE93
S315020008D0079B16E73B6804A81A1D3A6093F90010B5
S315020008E0FFF760FE079B0CE739681346081D386060
S315020008F009680A22CDE9005604A8FFF773FE079B92
S31502000900FFE63B68191D39601D68002D00F08D80D9
S315020009100132AE1815F9011B00293FF4F1AEBAF106
S31502000920000F02D0B5423FF4EBAE04A8FFF73AFE41
S31502000930079B002BEEDA18461BB0BDE8F08F3A682B
S315020009400823111D3960116800201022CDE90030FC
S315020009500DEB0200FFF746FE079BD2E63B684FF01F
S31502000960010A191D3960D3F800B08BEAEB73A3EBC9
S31502000970EB73092B09DD4A481946A0FB03C3632919
S315020009800AF1010A4FEAD303F6DC924538BF9246D2
S315020009900DBB079900250B460029FFF662AFBBF196
S315020009A0000F46DB730752D406F00303022B57D01F
S315020009B0134659460A22CDE9005604A8FFF712FE4D
S315020009C0079B9EE62246494640460393FFF778FD7B
S315020009D0039B234445E7BBF1000F06F002031BDB32
S315020009E0710719D4002B53D09AB1F3070FD510E033
S315020009F0202104A80392FFF7D5FD0799039A00293F
S31502000A000B4605F1FF35FFF62CAF002DC4D0AA45E3
S31502000A10EED307990B46BFE7013D0BB1002AF8D08A
S31502000A20F107F6D4002DF2D1B3E74FF0000A1D4DBF
S31502000A306EE72D2104A80392FFF7B4FD039ACBF1CA
S31502000A40000B079900290B46FFF60BAFACE72B21EB
S31502000A5004A80392FFF7A6FD039AF2E7924688E6F8
S31502000A60002AA5D1002DA3D0554517D9302104A8B7
S31502000A700392FFF797FD0799013D00290B46FFF602
S31502000A80F0AE039A002DEFD10029FFF6EAAE8FE70A
S31502000A90F007BCD5079B002B8ADAE2E60B46F3E7A2
S31502000AA0CDCCCCCC7C6300020EB400B582B003ABD5
S31502000AB053F8041B01AA0193FFF70EFE02B05DF87C
S31502000AC004EB03B0704700BF28B10379022B02D1B1
S31502000AD00122014B1A7070470000002270B5151EE4
S31502000AE010DD91B10A4B4FF0000C9868094C06468E
S31502000AF01868B36884F800C098472378002BFCD0A6
S31502000B00284670BD0025284670BD0D46284670BD94
S31502000B102CFF050200000022164B2DE9F04153F886
S31502000B202030154D0024DFF86480144E2B6010E04F
S31502000B3039460134FFF7B8FFB4F5447F104B16D09F
S31502000B4006FB04F2B3EBB20F04D300200D49FFF704
S31502000B50ABFF0D4F2B68185D0028E9D041460020F7
S31502000B600134FFF7A1FFB4F5447F054BE8D1BDE898
S31502000B70F08100BF0866000218670022B76DDBB677
S31502000B804992240984630002886300028C6300028E
S31502000B902DE9F041044600F02DF921464FF4447246
S31502000BA003F05BFF00F09CF900F0A0F90346304C1D
S31502000BB00020236000F032F900F098F903462D4D2B
S31502000BC02D4A2B602B6824682C491B1B1360126864
S31502000BD00020FFF769FF00F017F900F1290320F062
S31502000BE01F0123F01F03264D5B1A002B286012DD1E
S31502000BF0BFF34F8F203B5B09224801F120020133EC
S31502000C0000E02032013BC0F85C121146F9D1BFF375
S31502000C104F8FBFF36F8F00231B4C1C4F3B7023700B
S31502000C202378092B22D81A4EDFF8688006E023784B
S31502000C300133DBB223702378092B17D822782B686D
S31502000C4094F800C0314613F80C300020FFF72CFF51
S31502000C5023782A68D35CFF2BE9D123784146DBB29D
S31502000C603B703A780020FFF71FFFE0E7BDE8F0810E
S31502000C7014670022106700220C67002290630002AC
S31502000C801C67002200ED00E00867002209670022C7
S31502000C90B4630002C4630002F0B5012085B002F01D
S31502000CA0A7FB02240023009419461A461846FFF7AA
S31502000CB03FFC3849384800F03BFC002852D1044634
S31502000CC000F0FAF820463549FFF714FC344BD3E915
S31502000CD00112186812689047ADF80E4002F0E0FE65
S31502000CE0044630BB0DF10E0002F0FEFD00284AD08C
S31502000CF0002002F083FE002840D1002002F05CFEB4
S31502000D00002836D1274803F04FFD4FF47A714FF48D
S31502000D10FA7002F07FFA244BD3E9011218681268BE
S31502000D20904758B10E2809D00146204803F0D4FC5A
S31502000D30FEE701461E4803F0CFFCFEE71D4D1E4F9F
S31502000D401E4E224631460020FFF7AEFE55F8040B32
S31502000D50FFF71EFF01343878FFF7DEFE0A2CF0D1CA
S31502000D6005B0F0BD0020164905B0BDE8F040FFF71A
S31502000D70C1BB0146134803F0AFFCC3E70146124864
S31502000D8003F0AAFCB9E7BDF80E10104803F0A4FC64
S31502000D90AEE700BF1CFF050204000022F463000256
S31502000DA02CFF0502746400026CFF050294640002C3
S31502000DB0086400023066000209670022AC64000281
S31502000DC0DC6300025C6400024064000224640002E8
S31502000DD0022800D0704708B50449054801F0ECF82E
S31502000DE0BDE80840012002F003BB00BFECFF05028C
S31502000DF020FA0022024B03481B681844704700BFC2
S31502000E0018FF050220670022024B03481B6818449C
S31502000E10704700BF14FF05022067002200F000B8E9
S31502000E204FF41341002370B54FF444751C4A98B031
S31502000E301C4CCDE90A1102F54451CDE9141324687C
S31502000E40194E049206920994059307930F9304A9E7
S31502000E500E960C9591ED007F10AC84ED007F02F1A9
S31502000E601001C0B9002405260A25104A09AB0093D1
S31502000E701691CDE9016412680D490EAB0D4817941F
S31502000E800D9500F03DFBA0F1FF30B0FA80F040096D
S31502000E90404218B070BDC2E904331383E2E700BFD3
S31502000EA02067002210FF050260900002589000029F
S31502000EB00085000228FA00220749084AD1F8FC30C8
S31502000EC043F0807343F48033C1F8FC30136843F077
S31502000ED001031360704700BF00ED00E0001000E060
S31502000EE00022014B5A607047001000E0014B58681F
S31502000EF0704700BF001000E008B5FFF7CDFE0020E6
S31502000F0008BD00BF704700BF2DE9F843089E082EB2
S31502000F1042DC00248146154608464FF0FF32214640
S31502000F2098464FF0FF37FFF7EDFF874274EB01015A
S31502000F302CD3D9F80030002E1861D9F800301D6282
S31502000F4014DDA8F10805A046F5E902012246FFF7DD
S31502000F50D9FF874278EB010112D304F11002D9F8C6
S31502000F6000300134A64243F83200EDD1D9F8002010
S31502000F70936803F00C0343F001039360BDE8F88322
S31502000F80A421084B084A094802F03CF99821084B6B
S31502000F90054A064802F036F99421064B024A0348EE
S31502000FA002F030F94465000244030602F0640002CE
S31502000FB02C650002C8640002704700BF026893688D
S31502000FC003F00C0343F00203936003685A68510767
S31502000FD0C2F3800012D45A68C2F30011D2060CD4AE
S31502000FE05A68C2F3C010120606D45A68D20504D44F
S31502000FF05868C0F340107047084670470020704793
S3150200100010B40024D0E90112121BB1FA81F118BF03
S3150200101001228446490942EA4102006862F3070452
S31502001020C4601F4BDCF8001001E0013B02D04A68A5
S315020010301207FAD44B68C3F3C0001B0709D4DCF8C5
S3150200104004304A6AB3FA83F3C2F340025B0993425D
S3150200105004D04FF0FF305DF8044B7047DCF80820EF
S315020010604B6A003A18BF012203F001039A42F0D1FB
S31502001070022245F25354CA61DCF80020094BD463BC
S31502001080DCF800201364DCF800205364DCF800204E
S315020010909364DCF80020D3645DF8044B704700BF0C
S315020010A0A086010000001F0F08B5C0E90012836088
S315020010B08B6A1B0F01D0002008BDFFF7A1FFB0FA13
S315020010C080F0400908BD00BF0068022A836803F069
S315020010D00C0306D0A2F10102B2FA82F2520962F3BD
S315020010E0C303022906D0A1F10101B1FA81F149092E
S315020010F061F3820383600020704700BF10B5006869
S31502001100836A04688B422AD04FEA136C4B405FFA1B
S3150200111083FE1B074FEA11611DD18CEA01000F28DD
S315020011208CBF00200120BEF1100F28BF00201CF04A
S31502001130080F03D111F0080F18BF002082EA04033A
S31502001140B3F1805F09D2C2F30752C4F30754A24235
S3150200115088BF002010BD0020E5E7002010BD012059
S31502001160ECE700BF0048704704FB002200207047EE
S315020011700020704708B5012002F0FEFC08B10023EA
S31502001180037008BD00E020BF0378002BFBD0013BB3
S3150200119003700020704700BF03780133037040BF1D
S315020011A000207047704700BF704700BF437C012B89
S315020011B00FD0022310B503740446FFF7FFFE034661
S315020011C083F001035B00DBB2E06A6374FFF7E4FFBE
S315020011D010BD70472DE9F843234E04463768894609
S315020011E015469846002F38D0204F3B686BB3DDE991
S315020011F008234FF0020C2563002549462046C4F811
S31502001200388084F841C084F842C06563E563FFF71D
S315020012104BFFF8B1FFF7AEFFE062D8B13068256147
S315020012206561A561E56125626562A562FFF79EFFBC
S315020012300F4B30681A681C60E260FFF799FF386846
S31502001240FFF7AAFF2846BDE8F883FFF793FF386049
S315020012500028CCD14FF0FF30F5E7FFF783FF30606F
S315020012600028C1D1F6E700BF0CFB002208FB0022D2
S3150200127010FB002238B5037C0446012BD8B20ED0EF
S3150200128002280ED0002853D000234FF0FF302361EE
S315020012906361A361E36123626362A36238BD0029CD
S315020012A0FCD0626A002A15DD002502E0013595426E
S315020012B010DA94F842302B41DB07F7D5D4E907322E
S315020012C052F8251053F8350000F0D0F9626A01355C
S315020012D09542EEDB4FF0FF324FF0FF33E06AFFF745
S315020012E051FF002827DB2046A16AFFF75DFFE36B6B
S315020012F03BB1013BE36323B9012220461146FFF7C6
S31502001300E3FE637C03F0FF0083B1637C022B20D0F3
S315020013102046FFF775FE38B9E26B2046B2FA82F232
S3150200132052091146FFF7D0FE4FF0FF300023AEE719
S315020013306FF0010038BD01216174237C022BD2D1EA
S315020013404FF0FF324FF0FF33E06A6174FFF71AFF86
S31502001350C9E72046FFF730FEDAE700BF2DE9F0477E
S3150200136082B0DDE90A7C002900F0A980002B00F09A
S31502001370B480002F00F0AA800446007C01EB02082C
S3150200138000F0FF0500284BD10C98C4E90512C4E908
S3150200139007372574C4F824C0A062534D0868A842D2
S315020013A036D112F0030633D10D1DD4E90C1251EADF
S315020013B0020069D1A8450FD92B78022B10D0052B34
S315020013C034D0012B24D1D5E901122046FFF796FE2F
S315020013D0F0B10C35A845EFD8304602B0BDE8F0872B
S315020013E06B786F8805F1040947EA034719F00F0A7B
S315020013F04FEA87070CD1606A002830DDE2690346AE
S31502001400083A01E0013B20D052F8081F0907F9D03B
S31502001410002323616361A361E36123626362A362C2
S315020014204FF0FF36304602B0BDE8F0870435C1E71B
S31502001430236A53F82A10E36953F83A0000F014F9C4
S31502001440606A0AF1010A824509DA94F8413043FAE0
S315020014500AF3DB07ECD40AF1010A8245F5DBE36BFA
S315020014605A1CE263D3B101232046A16A2374FFF713
S3150200147099FE636A3A46009349462046E369043771
S31502001480FFF742FD3D4495E7BCF1020F92DDBF68CE
S31502001490A06B8742BCD8C3E904128BE72046FFF74C
S315020014A0AFFD40B9E26B2046B2FA82F2520911460A
S315020014B0FFF70AFED7E7E36B013BE363A8E740F2D7
S315020014C082210A4B0A4A0B4801F09CFE4FF4217115
S315020014D0094B074A074801F095FE40F28321074B64
S315020014E0034A044801F08EFE434F50319C650002C8
S315020014F06403060268650002C8650002B46500025C
S3150200150010B584B0069C0094079C0194089C029432
S315020015100446FFF723FF002806DB0121204604B01C
S31502001520BDE81040FFF7A6BE4FF0FF3004B010BD75
S3150200153070B5054682B00C46EFF31086012181F3A1
S3150200154010882C4B1A6822F480321A601B681E20FF
S3150200155001F060FE86F310880023AA68A17B10685A
S31502001560627BCDE900211A462349FFF733FE0028A4
S315020015703CD1A36894F90C201B01002ADBB22FDBB5
S3150200158002F1604101F5614181F800331B491C4BB0
S3150200159041F8225002F5C65153F8210020F480305A
S315020015A043F8210053F82130BFF35F8F012153091D
S315020015B09B0002F01F0203F1604303F5614301FA47
S315020015C002F2C3F880211A60002318466C60226872
S315020015D00C49EA60626829606A612B6102B070BDDB
S315020015E0094902F00F0001440B76CFE7032002B04F
S315020015F070BD00BF003020400000144070FB002286
S315020016000060004054454D52FCEC00E030B583B01A
S31502001610EFF30383124A103B5CB252F82450AB68D4
S315020016201868FFF7C3FDEB685BB12869B0B10368C0
S3150200163001936B690360EB6898472B690BB1019ABA
S315020016401A60084A04F5C65352F8231021F4803171
S3150200165042F8231052F8233003B030BD01A8E8E760
S3150200166070FB002200600040704700BF704700BF59
S3150200167003460020C3E90612704700BF844610B431
S31502001680406A836823F440138360DCF82440A36C29
S315020016905800FCD5A36823F01003A360DCF82440AD
S315020016A0237FC3F30010DB06FAD4CCE90412A36845
S315020016B043F01013A3605DF8044B70478446002084
S315020016C0CCE90B32CCF82810704700BF4FF0FF333D
S315020016D00020C1E9003370478B0784461DD5426A54
S315020016E0936823F440139360426A936C5800FCD5C6
S315020016F0936823F010039360DCF82400037FC3F39E
S315020017000012DB06FAD41046CCF81420CB0703D518
S3150200171000231846CCF81C3070470620F6E700BFB7
S315020017200346002210B4DC6910460C60DA615DF8EB
S31502001730044B70470620704730B40124164D5309F6
S3150200174002F01F0C203304FA0CF445F82340BFF3D1
S315020017504F8FBFF36F8F114B02F5C65C53F82C40C7
S3150200176024F4803443F82C4053F82C300901002A23
S31502001770C9B207DB0A4B154485F8001343F8220069
S3150200178030BC7047074B02F00F0423441976044B12
S3150200179043F8220030BC704700E100E000600040E0
S315020017A070FB0022FCEC00E0F0B5C46A85B0054689
S315020017B00F4694466E46B4B194E80F0086E80F00D1
S315020017C02B6A20461B78A760236084F804C02B6B23
S315020017D0E360AB6A9847EC6A1CB196E80F0084E8AE
S315020017E00F0005B0F0BD3446EAE700BFF8B5394B45
S315020017F042689A426BD10446426A936823F44013C4
S315020018009360426A936823F010039360426A137FDF
S31502001810C3F30015DB06FAD40121236A2E4A93F993
S315020018200730580903F01F03203001FA03F342F888
S315020018302030BFF34F8FBFF36F8F236A93F90930BE
S31502001840580903F01F0301FA03F3203042F820304F
S31502001850BFF34F8FBFF36F8F606A836823F48033C1
S315020018608360236A93F90530580903F01F0301FACE
S3150200187003F3203042F82030BFF34F8FBFF36F8F50
S31502001880236A93F90B30580903F01F0301FA03F395
S31502001890203042F82030BFF34F8FBFF36F8FEFF344
S315020018A0108681F310884FF00043276A0B4A97F897
S315020018B000C0506823FA0CF30343536053681E209A
S315020018C001F0A8FC86F3108865602846F8BD07205B
S315020018D0F8BD00BF4249435300E100E0003020401A
S315020018E0002370B5026AD56983606B7C03B970BD4B
S315020018F0184B044693F8543003F00F03072B24D8F1
S31502001900DFE803F0040404211F191B1D01269E4073
S31502001910104B93F8550000F00F0001F013FCB0FBDA
S31502001920F6F00D4B1A686B7C02FB03F3B3FBF0F384
S315020019300133A36070BD0326EAE70526E8E70A2617
S31502001940E6E70826E4E70626E2E71026083B9E407D
S31502001950DEE700BF00E00140F8FB0022F8B50027F1
S3150200196004460E46416A8D6825F4441222F011029D
S315020019708A600761FFF7B4FF636A326825F440158F
S315020019801A61636A38469D60F8BD00BF062070473B
S3150200199000222DE9F04101270B78027003F580033E
S315020019A003F556531B02436201624B690D4683627D
S315020019B08B690446C0E90B238378CE6967F301037A
S315020019C083704B78934214BF3A460222837862F3BD
S315020019D00103837091F90B20897AFFF7ADFE95F921
S315020019E005202979FFF7A8FE95F90720A979FFF7BF
S315020019F0A3FE95F90920297AFFF79EFEEFF31088D8
S31502001A0087F310884FF000412A787B4BD1405A6801
S31502001A1022EA01025A605B681E20394601F0FAFB8F
S31502001A2088F310884FF48062636A9A606B78E9786B
S31502001A30EA691B02890301F4804103F440730B43F4
S31502001A4011785068090601F040710B435178C903B9
S31502001A5089B20B43517B490501F400110B43616ABC
S31502001A6043F480534B611378991EB94240F2BD800C
S31502001A700368616A0B61117BAB7801F0030141F0E7
S31502001A80300133B1022B14BF4FF440734FF480730D
S31502001A901943937800201B0703F080530B43616AB6
S31502001AA0CB600123616A886129788B40C3F30903FD
S31502001AB013B1636A514959620025937BD17B127C2B
S31502001AC001F01F0103F0010302F01F0243EA0123A2
S31502001AD0616A43EA02430B632046C4E90455C4E93A
S31502001AE00655FFF7FDFE7089626A4549A081916637
S31502001AF0226A444B92F9052002F5C65153F8210099
S31502001B0065F3104043F8210053F82110BFF35F8FAD
S31502001B10012102F01F005209920002F1604202F511
S31502001B20614201FA00F0C2F880011060226A92F95D
S31502001B300B2002F5C65053F8206065F3104643F8B1
S31502001B40206053F82000BFF35F8F02F01F00520996
S31502001B50920002F1604201FA00F002F56142C2F817
S31502001B6080011060226A92F9072002F5C65053F8E6
S31502001B70206065F3104643F8206053F82000BFF357
S31502001B805F8F02F01F005209920002F1604201FAD1
S31502001B9000F002F56142C2F880011060226A92F9F1
S31502001BA0092002F5C65053F8206065F3104643F843
S31502001BB0206053F82030BFF35F8F53099B0002F079
S31502001BC01F0203F16043914003F56143C3F880119C
S31502001BD019600D4A636A9A60626A137FDB07FCD555
S31502001BE00A4B00206360BDE8F0810949022B094BCC
S31502001BF018BF0B463DE700BF0030204000001F1F04
S31502001C001000079D00600040110401004249435341
S31502001C1004FF00FF24FF00FF38B5EFF30383103BF8
S31502001C20254A5BB203F5C65152F8210020F48030F2
S31502001C3042F8210052F82120204A52F82340236A12
S31502001C401B69B3B1636903B138BD636A9D68A06855
S31502001C5025F4801545F4001518BB00219D60A36A82
S31502001C602161002BF0D02046BDE838408022FFF7E4
S31502001C709BBD6269636A002AE8D0A278216902F0F4
S31502001C800302022A11D00A781A71A278D4E904133F
S31502001C9002F003029B1A1144C4E90413002BD3D1A8
S31502001CA0D3E701F0B1FA636AD7E70A8822F4DC4285
S31502001CB092B25A60E9E700BF0060004070FB002262
S31502001CC010B582B0EFF30383103B1F4A5BB203F5F4
S31502001CD0C65152F8210020F4803042F8210052F811
S31502001CE021201A4A52F82340A27802F00303022B5B
S31502001CF0636A0CBF19681978E3690CBFC1F308015E
S31502001D00C9B2019143B9A36AB3B10422204602B013
S31502001D10BDE81040FFF748BD02F0030201A9A06921
S31502001D2002F09BFED4E90621A37803F003031A44CA
S31502001D30C91AC4E9062109B102B010BDA36A002B73
S31502001D40FAD00122E2E700BF0060004070FB0022E9
S31502001D5010B5EFF303830F4A103B5CB252F824002E
S31502001D60426A936823F4401323F010039360836A54
S31502001D701BB102220021FFF717FD074A04F5C653DD
S31502001D8052F8231021F4803142F8231052F82330FE
S31502001D9010BD00BF70FB00220060004038B5EFF3B3
S31502001DA003831D4A103B5CB252F824008378456ACD
S31502001DB003F00303022B0CBF29682978AA6C08BF1B
S31502001DC0C1F30801C2F30073C2F3006C4FEA0313B6
S31502001DD043EA4C13C2F3C06243EAC20C18BFC9B24B
S31502001DE0DB06624604D5AB6C1B0458BF4CF04002BE
S31502001DF0AB6E43F0C853AB66836A0BB1FFF7D4FCF4
S31502001E00064A04F5C65352F8231021F4803142F8EB
S31502001E10231052F8233038BD70FB002200600040C8
S31502001E202DE9F84F0388DBB14FF0000A80464FF0E8
S31502001E300109DFF8D4B00024314D4FEACA07D8F8B9
S31502001E40043035F8022BD919898891420AD0013417
S31502001E50032CF4D1B8F800300AF1010A5345EAD846
S31502001E60BDE8F88FDB5909FA04F603F0B853B3F16B
S31502001E70807F244BF6B293F84C2C12D0324230D1EA
S31502001E8004F120021BF81230DB09E0D01BF81230F5
S31502001E90012123F08003C8200BF8123001F0BAF9B1
S31502001EA0D5E7324210D004F120021BF81230DB09CA
S31502001EB0CDD11BF81230012143F08003C8200BF864
S31502001EC0123001F0A7F9C2E7012001F04FFA0D4BDB
S31502001ED0012093F84C2C324383F84C2C01F016FA6D
S31502001EE0E1E7012001F042FA064B012093F84C2C5F
S31502001EF022EA060283F84C2C01F008FAC0E700BF7A
S31502001F00A403060200E0014000202040F8B5064680
S31502001F10FFF786FFEFF31082012383F31088234F26
S31502001F203B681BB9402022490B7508753B68013393
S31502001F303B6082F31088338800211BB31D4D08E0F5
S31502001F401B01134445F82340328801318BB29A4271
S31502001F5018D9736853F8314003EBC1029288E00343
S31502001F604FEA1223D2B2EBD502EB031055F820E06A
S31502001F7024F4803C2EF4803E45F820E01B0145F80F
S31502001F8020C0DEE7EFF31082012383F310883B685B
S31502001F9013B13B68013B3B603B681BB98020044997
S31502001FA00B75087582F31088F8BD00BF6CFB002222
S31502001FB0000D40400008404008B5034B0360084648
S31502001FC0FFF7A4FF002008BD54524F5003460020DD
S31502001FD059601A72704700BF84460020CCE90E325F
S31502001FE0CCF83410704700BF0346044ADB68002071
S31502001FF09B1AB3FA83F35B090B7070474349495244
S3150200200030B5836B83B004460A466D46A3B193E8A6
S31502002010030085E80300E16B1A7119601846636BC9
S315020020209847A36B1BB195E8030083E803000023DE
S3150200203084F82B3003B030BD2B46ECE730B5454B68
S3150200204083B01B6A01690193019B03F00F2301937D
S31502002050019A019D0B7C90F82C409CB9C2F3032295
S31502002060DBB2A2EB156293409B0804D1082003B0B1
S3150200207030BD013BFAD04A78C2F3C014D209F8D176
S31502002080CC710169002390F826408569026880F8C0
S315020020902B30C56180F82D3080F8274080F82E302D
S315020020A080F8283080F82F30036280F83030546A86
S315020020B0227894F801E0012A14BF4FF0040C4FF085
S315020020C0050C6279120142EA4E0294F806E042EAEF
S315020020D0CE124CEA0202D2B2CA7001690A7942F001
S315020020E010020A7101690A7963F3C3020A7101696E
S315020020F00A7963F304120A710269E179137961F3C9
S31502002100C71313710269537943F0010353710368CC
S3150200211093F90F30002B07DB012203F01F040E494F
S315020021205B09A24041F82320BF210269537A03F0DA
S31502002130F30353720369D97190F82C302BB1002343
S3150200214080F82C30002003B030BD022203695A7099
S31502002150F8E700BF00E0014000E100E090F808C0A7
S31502002160C0E90512BCF1010F80F82A3008D100221D
S31502002170436880F826C05B0080F8243080F825206A
S31502002180002380F82930FFF759BF00BF90F808C036
S31502002190C0E90512BCF1010F80F82A300AD10022EB
S315020021A0436880F826C05B0043F0010380F82430C0
S315020021B080F82520012380F82930FFF73FBF00BFB2
S315020021C070B40024402203691C7003691A70026904
S315020021D013785B06FCD5C0231370036802695B6A39
S315020021E0804D1B794FF0000C43F0E0031374036833
S315020021F002695B6AB324DB7843F0E0035374036835
S3150200220002695B6A9B781B0103F0700343F00803C3
S315020022109370036802695B6A1E78012E5E7814BFAA
S315020022200423052343EA4603DBB2D37003685B68E3
S31502002230AB4214BF7722F72203695A71036983F806
S3150200224006C00369DC7191F911204B7B6245C0F22D
S31502002250AA801B0102F16044DBB204F5614484F8F2
S315020022600033614C614B44F8220002F5C65553F81F
S31502002270256026F4803643F8256053F82530BFF3EF
S315020022805F8F012553099B0002F01F0203F1604391
S3150200229003F5614305FA02F2C3F880211A6091F947
S315020022A00F204B7B002AC0F295801B0102F160458C
S315020022B0DBB205F5614585F800334C4B44F8220044
S315020022C002F5C65553F8256026F4803643F8256094
S315020022D053F82530BFF35F8F012553099B0002F0A7
S315020022E01F0203F1604303F5614305FA02F2C3F8E4
S315020022F080211A6091F910204B7B002A63DB1B01B7
S3150200230002F16045DBB205F5614585F80033374BCE
S3150200231044F8220002F5C65553F8256026F48036A5
S3150200232043F8256053F82530BFF35F8F0125530923
S315020023309B0002F01F0203F1604303F5614305FAB5
S3150200234002F2C3F880211A6091F90E204B7B002A13
S3150200235031DB1B0102F16041DBB201F5614181F81B
S315020023600033224B44F8220002F5C65153F82140AD
S3150200237024F4803443F8214053F82130BFF35F8FB1
S31502002380012153099B0002F01F0203F1604303F58A
S31502002390614301FA02F2C3F880211A609F2203699F
S315020023A01A7070BC7047124C02F00F051B01DBB2AB
S315020023B02C44237655E70E4902F00F051B01DBB2CA
S315020023C029440B76CDE70B4D1B0102F00F06DBB25B
S315020023D0AB559CE7074D1B0102F00F06DBB2AB556E
S315020023E06BE700BF40420F0070FB00220060004016
S315020023F0FCEC00E014ED00E0F8B500250A781C4B71
S31502002400016013441B0203618B680E4643600B7B1B
S3150200241004460372CB6943630B6A80F82950C3638F
S3150200242080F82A50856380F82B50C0E90555C0E92B
S31502002430075580F82C50EFF31087012181F310889D
S315020024400C4A33785068C3F1090301FA03F320EA10
S315020024500303536053681E2000F0DCFE87F31088E6
S3150200246020463146FFF7ACFE034B2846E360F8BD33
S31502002470E0254000003020404349495238B5002546
S3150200248003690446DD710168FFF79AFEB32290F8EC
S315020024902600A169236984F82C5084F82800E56196
S315020024A0216284F82A50DA71284638BD70B50025B3
S315020024B004460369DD710168FFF782FEB32001213C
S315020024C094F8263084F82C5084F82830A36984F8CE
S315020024D02A50C4E9075323692B4AD8712369DD714F
S315020024E02368E56093F91130580903F01F0301FAD6
S315020024F003F3203042F82030BFF34F8FBFF36F8FC4
S31502002500236893F90E30580903F01F0301FA03F307
S31502002510203042F82030BFF34F8FBFF36F8F23680E
S3150200252093F91030580903F01F0301FA03F3203020
S3150200253042F82030BFF34F8FBFF36F8F236893F9B2
S315020025400F30580903F01F0301FA03F3203042F853
S315020025502030BFF34F8FBFF36F8FEFF3108681F3F7
S3150200256010882368094A1B785068C3F1090301FAE7
S3150200257003F30343536053681E2000F04BFE86F3B9
S315020025801088284670BD00BF00E100E00030204000
S3150200259010B582B0EFF30383103B5F4A5BB203F5DB
S315020025A0C65352F8231021F4803142F8231052F810
S315020025B02330EFF30383594A103B5BB252F82340B0
S315020025C094F82D305BBBA369022B22D9E369012B58
S315020025D00ED12269137943F010031371226913791C
S315020025E043F0080313712269137923F01003137160
S315020025F023685B6ADB79002B3ED101222369DB7CEF
S31502002600DBB28DF807309DF8073084F82D2002B032
S3150200261010BD2269137943F040031371D6E7E369CB
S31502002620002BF4D02268526AD279FAB9032B17D05A
S31502002630022B26D0012B34D02269236AD17C62690F
S31502002640D154D4E907320132013BC4E90732002BE7
S31502002650DDD121690A7963F386120A7102B010BDCF
S315020026602269137943F040031371E5E705212046F9
S31502002670FFF7C6FCE369D9E705212046FFF7C0FC50
S31502002680BBE72269137943F01003137122691379A8
S3150200269043F0080313712269137923F010031371AF
S315020026A0CAE794F82A2072B322681D4892F90F20CD
S315020026B0510902F01F0203FA02F2203140F82120EA
S315020026C0BFF34F8FBFF36F8F04202169CA7942F09F
S315020026D08002CA7121690A7942F010020A712169DF
S315020026E00A7922F008020A7121690A7922F0100297
S315020026F00A712269507021694A7922F001024A71EF
S3150200270084F82C3098E708212269537A03F0F703FC
S315020027105372236959708FE70060004070FB0022F4
S3150200272000E100E010B5EFF30383103B434A5BB2CE
S3150200273003F5C65352F8231021F4803142F82310D0
S3150200274052F82330EFF303833D4A103B5BB252F853
S31502002750234094F82730002B40D194F82930002BDF
S315020027603BD123685B6ADB792BB194F82B3013B922
S31502002770236A002B5CD1E3692169002B41D1CB7915
S31502002780C02223F08003CB71216901E0013A02D015
S31502002790CB79DB09FAD12368284A93F9103003F57D
S315020027A0C65352F8231021F4803142F8231052F80E
S315020027B02330236893F91030002B09DB01215A09D3
S315020027C0204803F01F03603201FA03F340F8223077
S315020027D02269D37943F04003D37110BD94F82630B1
S315020027E0032B1CD094F8242023699A7494F8282089
S315020027F094F827300132013B84F8282084F82730E8
S3150200280010BD236A6269D35C8B74D4E90732013244
S31502002810013BC4E90732002BDFD12169AFE794F807
S315020028202830022BDED194F83030002BDAD110BDDD
S3150200283005212046FFF7E4FB9DE700BF006000404C
S3150200284070FB002200E100E038B5EFF30383344A5F
S31502002850103B5BB252F8234023685B6ADB79002B9C
S315020028604BD194F829301BB194F82730012B52D062
S31502002870E369E3B12169C023CA7922F04002CA7131
S31502002880216901E0013B02D0CA795206FAD4EFF37C
S315020028900383103B234A5BB203F5C65352F8231057
S315020028A021F4803142F8231052F8233038BD94F8CF
S315020028B02A203AB3012022681B4D92F90F205109B2
S315020028C002F01F02203100FA02F245F82120BFF37E
S315020028D04F8FBFF36F8F4FF0040C2169CA7942F014
S315020028E08002CA71226982F801C021694A7963F3BA
S315020028F000024A7184F82C00BCE705212046FFF746
S315020029007FFBAEE708212269537A03F0F70353727D
S3150200291023695970AEE794F83030002BAAD0A7E7A6
S3150200292070FB00220060004000E100E038B5EFF3E2
S3150200293003834F4A103B5BB252F823000269537A73
S31502002940517ADC0601F0E00151725FFA83FC03F072
S3150200295003022CD50369597849064ED40024012571
S3150200296080F82B50DC710168FFF72AFCB32290F83D
S315020029702630816980F82830036980F82C4001628C
S31502002980C46180F82A402946DA71FFF739FBEFF372
S315020029900383103B374A5BB203F5C65352F8231042
S315020029A021F4803142F8231052F8233038BD002A30
S315020029B05CD11CF0080F11D0C369002B45D190F8E9
S315020029C02B30002B41D1B32290F829100369C1F1B3
S315020029D00301C9B2DA71FFF713FBD8E790F82C208E
S315020029E00CF0040342B3002BD1D0C369002B3BD1B8
S315020029F090F82B30002B37D1E5E7002AAED15A7872
S31502002A00C2F380115206D4D5082280F82B105A70D0
S31502002A10036801695A6A94791378527943EAC413AE
S31502002A2043EA021343F00203DBB2CB700269537925
S31502002A3043F001035371AAE7002BA8D003685B6A2F
S31502002A40DB79002BA3D00421C5E70023B32190F83C
S31502002A5026508469026980F82C3080F82850046276
S31502002A60C36180F82A30D1710121B4E7036975E7A1
S31502002A7070FB00220060004084460020CCE906324A
S31502002A80CCF81410704700BF0A4B1A68D2030FD451
S31502002A90DA6FD2074EBF01231B6803F001030B70E6
S31502002AA08268044B4A60D3F8843000208B607047FA
S31502002AB00223F4E700803440F8B500240121164DC4
S31502002AC0164F2C6703685E6996F91D305A0903F0A2
S31502002AD01F0301FA03F3203247F82230BFF34F8F68
S31502002AE0BFF36F8F0E4B96F91D2043F822404FF429
S31502002AF080332B604460EFF3108581F31088094B15
S31502002B009A6842F480329A609B681E2000F082FB2B
S31502002B1085F310882046F8BD0080344000E100E0CD
S31502002B2070FB002200302040174AD36FDB0727D400
S31502002B301368DB0324D41368DB0723D410B40368B9
S31502002B405C6981602378022B08D14B1EC1680B4455
S31502002B5023F01F0343F00103D36581680A4BD9634F
S31502002B60227822B9D0E9022102EB51021A6400222C
S31502002B700121054B10465A6719605DF8044B7047F0
S31502002B80082070471E207047008034402DE9F04F20
S31502002B9001600B7A4F884C6903FB07F794F80380B0
S31502002BA0B1F80690B8F1000F08F10108B7FBF8F882
S31502002BB014BF4FF0010B4FF0020B0D46217806466B
S31502002BC0CA46B8FBFBF283B051B9216988B2002824
S31502002BD040F0D180B1F5803FCA4628BFB4F816A0AE
S31502002BE0EB68019273612378022B14BF07FB0AF389
S31502002BF0A368F360EFF310830121009381F3108839
S31502002C006348836823F48033836080681E2000F063
S31502002C1001FB009B83F310885E49019ACB6FDB07A9
S31502002C20FCD45C4B1868C0F30041C003FAD4C2F36B
S31502002C300B0201922269C8F30C0000901A63996193
S31502002C40627B120502F440125A6094F804E094F88A
S31502002C50058094F806C00EF0010208F001082078FB
S31502002C6048EA0268CEF340024FEA4C0C48EA826216
S31502002C70CEF3800E0CF0020C000142EACE6200F0A6
S31502002C80300042EA0C0202436078000200F440700F
S31502002C900243E078000300F4805002439A60B5F8DC
S31502002CA006C068883C4AC0F30D0002EA0C420243A1
S31502002CB0DA602888394A0BFB00F0AD88C0F30C00B5
S31502002CC002EA054528431861019D009802EA09496E
S31502002CD002EA0A422A4349EA00005861D9655A6360
S31502002CE022787B08002A08BF1F462A482C4D876394
S31502002CF00166A278237B120102F0100203F0070399
S31502002D00134343663368C6E901515B699A693261C6
S31502002D1093F91D201B7F002A31DB1B0102F1604162
S31502002D20DBB201F5614181F800331E491E4B41F8C1
S31502002D30226002F5C65153F8210020F4803043F890
S31502002D40210053F82130BFF35F8F012153099B0005
S31502002D5002F01F0203F1604303F5614301FA02F236
S31502002D60C3F880211A6000200A4B586732691A6735
S31502002D7003B0BDE8F08FA28A02FB03F72AE70B49EC
S31502002D8002F00F001B01DBB201440B76CDE700BF58
S31502002D9000302040008034400000FF3F0000FF0F5B
S31502002DA05545435270FB002200600040FCEC00E0F7
S31502002DB0F0B5234B8BB05D6FEA435A67EFF303839B
S31502002DC0103B204A5BB203F5C65152F8210020F4AB
S31502002DD0803042F8210052F821201B4A52F8234043
S31502002DE063694BB30021226902912A40E06900928D
S31502002DF0A769A2680191CDE90320FFB1BC463E4610
S31502002E00BCE80F00EE4605AD0FC5DCF800302B60BE
S31502002E10BEE80F000FC6DEF80030CCF8003063695A
S31502002E2038469847A4693CB10DF1140CBCE80F0072
S31502002E300FC4DCF8005025600BB0F0BD6F46EFE71B
S31502002E40008034400060004070FB00221D4A92F868
S31502002E502630928CDBB202F00F02A2F1080103299E
S31502002E602BD8DFE801F020160C021749174A51F851
S31502002E702330A2FB03231B09154A1360704712492C
S31502002E80124A51F82330A2FB0323114ADB081360CE
S31502002E9070470D490D4A51F82330A2FB03230C4A11
S31502002EA09B08136070470849084A51F82330A2FB71
S31502002EB00323074A5B0813607047034951F823301E
S31502002EC0D340D9E700E0014000620022ABAAAAAAD9
S31502002ED0F8FB0022704700BF4AF203529FED844B73
S31502002EE09FED855B38B58A488A4B8B498B4CC3E983
S31502002EF008018B499FED826B9FED837B9962A4F853
S31502002F00FA23A3EC045F83ED007FFFF79FFF0923FB
S31502002F100A2284F8502A84F8A23094F8003C23B995
S31502002F2094F8013C980700F0DC807C4C94F8003C55
S31502002F30002B00F0CB800022784B83F8012C83F81B
S31502002F40002C0023754A82F8323092F83C30190779
S31502002F50FBD540F2234400204FF6021140F65103FE
S31502002F60704DC2F8C850A2F84E4082F84A00C2F824
S31502002F70AC10A2F84C30BFF34F8FBFF36F8F6A4B82
S31502002F80596921F400315961C3F85002BFF34F8FDA
S31502002F90BFF36F8F65490B6823F440530B60BFF391
S31502002FA04F8FBFF36F8F0120137D01F1C04160F394
S31502002FB0020313750B7DDA06FCD45C4A136843F4EC
S31502002FC040531360BFF34F8FBFF36F8FA2F5734267
S31502002FD0536913F4003311D1BFF34F8FBFF36F8FD1
S31502002FE0C2F85032BFF34F8FBFF36F8F536943F46A
S31502002FF000335361BFF34F8FBFF36F8F0023474AEE
S3150200300082F82A3092F83C309B06FBD50022484BC8
S315020030101A701A781A781A785A68FA2A04D0454920
S3150200302059605A68FA2AFBD1414B9A687D2A04D024
S31502003030414999609A687D2AFBD1052242F2201104
S31502003040364B3E481862998483F82620FFF7FEFE27
S3150200305001211E2000F0DEF8354A5368C3F3090346
S31502003060642B84BF01231370FFF7F0FE4AF201526C
S31502003070334B1A80BFF35F8F01211972BFF35F8F43
S315020030804FF42540254A188082F8531092F855309D
S3150200309043F0400382F8553092F85530DB09FBD0F5
S315020030A0CA23022082F8540082F8553092F855302D
S315020030B01A4903F0BF0382F8553091F85530DB09FF
S315020030C0FBD14FF42543A1F8FA3338BD0121C820BC
S315020030D084F8001C00F09EF894F8003C012BFBD10A
S315020030E029E74FF47A70FFF7F5FE2AE7AFF300807F
S315020030F0006CDC0200127A000080000000366E01CD
S315020031000080000000CA9A3B0046C3235543DE13E3
S315020031108ED73E0D006200220008AF2F00E001406C
S3150200312000389C1C022B010000ED00E000E001E0EB
S3150200313000C01340FA00001E7D0000E13234233243
S3150200314000200040014B53F8200070470062002225
S3150200315038B50025284C0121C82084F8285000F0F3
S3150200316059F884F8245094F82430002BFBD194F8B3
S315020031702430214943F0020384F8243091F82430A4
S31502003180C3F340009B07F9D41B4A81F8220092F848
S31502003190223003F0FF00002BF9D192F84030164995
S315020031A060F3C71382F8403091F84030DB09FBD157
S315020031B091F84200104A63F3C71081F8420092F870
S315020031C04230DB09FBD192F844000B4963F3C71086
S315020031D082F8440091F84430C3F3C014DB09F9D1F4
S315020031E0012000F0C3F8054B012083F84C4CBDE8E2
S315020031F0384000F08BB800BF0020204000E00140BC
S31502003200704700BF00BEFEE7A0F101000028FBD117
S31502003210704700BF1E4B1F4A1B6800FB01F1934219
S3150200322013D302F1854202F5071203F5742302F65F
S31502003230834203F23F23A2FB03239B0CA3FB013130
S315020032404FF0FF30E1B1FFF7DFBF4FF47A7210B4EF
S31502003250114C4FF0FF30B4FBF3F3A1FB02C434B9B7
S31502003260BCFBF3F080B15DF8044BFFF7CDBFB1FBB9
S31502003270F3F1A1FB0212002AF5D1084620B1F2E7CA
S315020032801846002BDFD170475DF8044B704700BF2C
S31502003290F8FB002200127A0000CA9A3BF8B5002415
S315020032A001260D4B0D4FD3F80021D3F820511540BE
S315020032B006FA04F32B4204D057F82430E0B203B1E5
S315020032C098470134152CF3D1034AC2F81051D2F8AB
S315020032D020312B42FBD1F8BD00C0004018FB002272
S315020032E000221E2310B40748074C30F8021F02F5CD
S315020032F0C65C013209B144F82C10013BF5D15DF8E8
S31502003300044B70470603060200600040EFF310818B
S31502003310012383F31088124B33F8102092B22AB19C
S3150200332033F81020013A92B223F8102033F8103005
S315020033309BB293B910B40B4A0B4CB2F8FA3334F879
S3150200334010009BB243F4254323EA0003A2F8FA33A2
S3150200335081F310885DF8044B704781F3108870473B
S31502003360E8FB002200E001401006060230B4EFF34B
S315020033701081012383F310880E4A32F810309BB273
S315020033806BB90D4C0D4DB4F8FA3335F810C09BB23B
S3150200339043EA0C0343F425439BB2A4F8FA3332F80A
S315020033A0103001339BB222F8103081F3108830BC02
S315020033B0704700BFE8FB002200E00140100606024B
S315020033C008B509490A688318B3F5005F03D80748A8
S315020033D00B60104408BD01F029FB0C2203461A605B
S315020033E04FF0FF3008BD00BFF4FB002200020022AE
S315020033F0F8B50646304C94F8503C03F0FF05002B16
S31502003400F9D187221023A4F8242C84F8003C002E3C
S315020034103FD101220023284981F8022C81F8013C80
S3150200342091F8503C002BFBD1D6B14FF40C73224AD3
S31502003430A1F8483C92F8503CD807C3F30001F9D4EE
S3150200344047F20804012011231C4DC2F8445C82F89D
S31502003450401CA2F8144C82F8160C82F8003CF8BD07
S3150200346047F208000123154C134AC1F8444C81F86F
S31502003470406CA1F8140C81F8163C92F8003CDB076C
S31502003480FBD492F8503C002BF7D1012382F8103C72
S31502003490F8BD01272846FFF769FF094B284683F83E
S315020034A05370FFF733FF044A84F8207C92F8503CAD
S315020034B01C07FBD4ADE700BF003000400325050022
S315020034C000E0014000BE704708B500F035F8FDF790
S315020034D013FDFEE7F8B5174F05463E68A6B17C68B0
S315020034E006EB460604EB860602E00C34B4420BD029
S315020034F0637AAB42F9D1D4E900020021121A0C34E4
S3150200350001F032FAB442F3D1BE6896B1FC6804EB1C
S31502003510061602E01034A6420BD0637BAB42F9D109
S31502003520D4E90002A168121A103401F096FAA642F2
S31502003530F3D1F8BDE0030602F8B5844A844B5A611A
S31502003540BFF34F8FBFF36F8F1B6803F47002B2F5A0
S31502003550801F00F0D48013F4600F00F0BC807D4A17
S31502003560136823F004031360BFF34F8FBFF36F8F0B
S315020035704FF47002784B764C0020C4F88820A36082
S31502003580FDF726FC0025FFF7A7FC4AF202514FF48D
S315020035902542724B0120A3F8FA1383F8B05AA3F816
S315020035A0FA23FDF715FC6E4B83F30A88694B1A68FA
S315020035B0910704D5A268B2F1007F00F0A480002032
S315020035C0FFF788FFFFF742FCFFF7C2FD0320FFF774
S315020035D0CDFE00234FF00E0E1C464EF001E061496F
S315020035E003F10C0221F8224001330FF007C8032031
S315020035F0FFF78CFE0320FFF7B9FE5B4B03205C60EE
S315020036009C60DC601C61554CFFF780FED4F8D83311
S315020036109A0747D5D4F8D833504CD4F8D8335B0739
S3150200362027D5D4F8D8330220FDF7D2FB0120FFF7C5
S3150200363051FFBFF34F8FBFF36F8F0024444BC3F884
S315020036405042BFF34F8FBFF36F8F484B484D5B1B02
S31502003650A3424FEAA30605DD55F8043B0134984719
S31502003660A642F9DCFFF73CFEBDE8F8400020FFF772
S31502003670C7BD94F81431002BD5D00120FFF776FE92
S3150200368094F8143103F0C003802BF9D10023334A96
S3150200369084F8143192F814313F2BFBD80120FFF73E
S315020036A035FEC0E794F81031002BB5D00120FFF7A4
S315020036B05DFE94F8103103F0C003802BF9D100238C
S315020036C0264A84F8103192F810313F2BFBD801209C
S315020036D0FFF71CFEA0E71F4A136843F004031360BA
S315020036E0BFF34F8FBFF36F8F4FF0E022936843F41F
S315020036F080339360BFF34F8FBFF36F8F38E718079E
S315020037007FF42DAF27E701211A695869C2F3C30274
S31502003710093201FA02F300260027DB0843F005C04E
S31502003720E5E802670FF005C0C0F3C303093301FAE7
S3150200373003F34FF00052DB0843F007C0AFF30080FB
S31502003740E2E802670FF005C039E700BF01020E008A
S3150200375000ED00E000E001E00000000200E00140B0
S3150200376000220022000D404000402040F00C0602DC
S31502003770EC0C0602F8B50F4E3378C3B90E4C0F4D5A
S315020037800F4F09E02B7853B9013C0ED001210846B0
S31502003790FFF740FD337813B93B78002BF2D02B7834
S315020037A0002B14BF12200020F8BD1420F8BD034DD3
S315020037B0F5E700BF12FC0022A186010010FC0022E0
S315020037C011FC002203790122022B07D0032B02D01F
S315020037D0044B1A707047044B1A707047034B1A70E9
S315020037E0704700BF10FC002212FC002211FC0022CE
S315020037F00368012B05D10348034A044903700B7081
S3150200380053737047FDFB002200FC0022FCFB0022E2
S315020038108446F0B58E4600230C4A83B091680C4F5D
S315020038200C4E0D4D9CFA9CFC8C68106801A9032273
S31502003830ADF804C08DF806E03B7033702B70A047DC
S3150200384008B9FFF797FF03B0F0BD00BFB0FF05024E
S3150200385012FC002211FC002210FC00221E4B2DE954
S31502003860F0439E6886461B684FF0000C184685B0EA
S315020038709EFA9EFEDFF86C90184F194D0123022224
S315020038808846B468ADF80CE003A989F800C0019037
S3150200389087F800C085F800C0A047034618B118464D
S315020038A005B0BDE8F083FFF765FF03460028F6D1B1
S315020038B089F8000041460122019874683B702B701A
S315020038C0A04703460028EAD1FFF754FF03461846ED
S315020038D005B0BDE8F08300BFB0FF050211FC00226F
S315020038E010FC002212FC0022002210B582B004460F
S315020038F00DF1060143F20A008DF806208DF8072025
S31502003900FFF7ACFF08B102B010BD43F20B000DF198
S315020039100701FFF7A3FF0028F5D19DF806209DF8C1
S31502003920073043EA022304B1238045F24062934200
S3150200393018BF222002B010BD2DE9F04106460D4601
S3150200394043F60800110A90461F46FFF761FF5FFA29
S3150200395088F1044643F60900FFF75AFF0346390A7F
S3150200396043F60A001C43FFF753FF0346F9B243F638
S315020039700B001C43FFF74CFF0346310A43F61000C7
S315020039801C43FFF745FF0346F1B243F611001C4301
S31502003990FFF73EFF0346290A43F612001C43FFF7D0
S315020039A037FF0346E9B243F613001C43FFF730FF25
S315020039B02043BDE8F08100BF10B578B10138012877
S315020039C019D8002145F21F00FFF722FF30210446D5
S315020039D04FF48640FFF71CFF204310BD012145F23C
S315020039E01F00FFF715FF6F2104464FF48640FFF7CD
S315020039F00FFF204310BD032010BD00BF08B50728E6
S31502003A0005D8DFE800F0121D040429043506032058
S31502003A1008BD00214FF4F3634FF422620846FFF714
S31502003A208BFF194B194A9A6008BD0021F0234FF407
S31502003A30A0720846FFF780FF134B154A9A6008BD2D
S31502003A4000214FF4F0734FF420720846FFF774FF1B
S31502003A500D4B104A9A6008BD00214FF434734FF49F
S31502003A60A0620846FFF768FF074B0B4A9A6008BD3B
S31502003A7000214FF487634FF4F0620846FFF75CFFBC
S31502003A80014B064A9A6008BD00FC0022200A9807EC
S31502003A904001F0008002E0010005D00280073804F0
S31502003AA0F8B5314B9D681E682A68304659689047BA
S31502003AB020B10E28044601D02046F8BD01223C2141
S31502003AC030462B69984704460028F5D14FF47A719F
S31502003AD01420FFF79FFB802143F20800FFF798FEB0
S31502003AE004460028E8D14FF47A711420FFF792FBBE
S31502003AF02046FFF7F9FE04460028DDD11B4D4FF69E
S31502003B00FF7605F54F7708E0A978FFF781FE0446B0
S31502003B100028D1D10435AF4208D02888B042F3D16B
S31502003B204FF47A71A878FFF775FBF3E700214FF49B
S31502003B30F0734FF420720846FFF7FEFE0C4D0D4B54
S31502003B400446AB600028B7D1012145F21F00FFF7FA
S31502003B505FFE6F2104464FF48640FFF759FE044389
S31502003B60AAD12C736C73A7E7B0FF050220060602E2
S31502003B7000FC00228002E001024B0146186800F0B8
S31502003B8025B800BF3000002270B50F4E0C46054620
S31502003B90316811B900F028FF30602146284600F04E
S31502003BA023FF431C03D14FF0FF34204670BDC41CD3
S31502003BB024F00304A042F8D0211A284600F014FF8C
S31502003BC00130F2D1EFE700BF14FC00222DE9F843E1
S31502003BD0CD1C064625F0030508350C2D38BF0C25ED
S31502003BE0002D01DBA94204D90C2333600020BDE875
S31502003BF0F883DFF8D48000F069F8D8F800301C4664
S31502003C0044BB29463046FFF7BFFF431C044658D142
S31502003C10D8F800402746002F43D1002C4BD023680A
S31502003C203946304604EB030900F0DEFE814542D1F7
S31502003C30216830466D1A2946FFF7A6FF01303AD0B1
S31502003C4023682B442360D8F800305A6862BBC8F850
S31502003C5000700FE02268521B20D40B2A17D9611973
S31502003C60A342256018BF5960636808BFC8F80010F0
S31502003C7062514B60304600F02FF804F10B00231D11
S31502003C8020F00700C21A1CBF1B1AA350AFE76268D6
S31502003C90A3420CBFC8F800205A60EBE723466468CB
S31502003CA0AEE73C467F68B6E71A465B68A342FBD19D
S31502003CB000235360DEE70C233046336000F00CF835
S31502003CC094E70560D6E700BF18FC0022014800F021
S31502003CD0B4BE00BF5CFD0022014800F0AFBE00BFCB
S31502003CE05CFD0022F0B52DED028BB0EE408B85B067
S31502003CF017460C460D9D18EE902A0C9E25F02005BF
S31502003D00002AB6BF2D220022B1EE408B462D1A7034
S31502003D1004D0452D00D10134022100E0032103AB7A
S31502003D20B0EE480B2246019302AB0093334600F0F5
S31502003D3037FF472D14D1FB070AD50219B5EE408B82
S31502003D403021F1EE10FA08BF0392039B934219D376
S31502003D50039B0E9A1B1A136005B0BDEC028BF0BDD5
S31502003D60462D00EB0402E9D10378302B07D1B5EEDC
S31502003D70408BF1EE10FA1CBFC4F1010434603368C3
S31502003D801A44DBE75C1C03941970DEE7F7B50029D9
S31502003D900270BABF49422D232B230929437028DD1D
S31502003DA00DF107030A271D461A46013BB1FBF7F63A
S31502003DB007FB1614303402F8014C0C463146632CCC
S31502003DC0F2DC3031941E03F8011C411C2346AB423F
S31502003DD00AD30DF109039B1AAC4288BF00230233B2
S31502003DE00344181A03B0F0BD13F8016B01F8016F12
S31502003DF0EDE7302330318370031DC170F1E7000017
S31502003E002DE9F04F8DB00C4616461F46DDF8588058
S31502003E10054600F0B1FDD0F800B0584600F02AFE83
S31502003E20002394F818900A93D8F8003022680733D2
S31502003E30059023F0070303F10801C8F8001093ED7B
S31502003E40000B9FED976BB0EEC07B84ED120BB4EEC8
S31502003E50467BF1EE10FA24DDB5EEC00BF1EE10FA58
S31502003E6002D52D2384F843308F49904BB9F1470F81
S31502003E708CBF8846984622F0040203234FF0000ABC
S31502003E802260236133460BAA21462846009700F09A
S31502003E90D1F9013040F089804FF0FF300DB0BDE816
S31502003EA0F08FB4EE400BF1EE10FA09D710EE903A0D
S31502003EB07F49002BBCBF2D2384F843307D4BD5E7C9
S31502003EC0636809F0DF0A591C39D10623636042F49C
S31502003ED0806200232846226003930AABCDE9019350
S31502003EE009AB00930DF123036168FFF7FBFEBAF1FC
S31502003EF0470F8046099929D1C81C02DB636899429B
S31502003F0041DDA9F102095FFA89F901394A4604F14C
S31502003F1050000991FFF73AFF0A9A82461318012ABE
S31502003F20236102DC2268D20701D5013323619DF8A1
S31502003F302330002BA6D02D2384F84330A2E7BAF112
S31502003F40470FC4D1002BC2D10123BFE7B9F1650FD8
S31502003F50DBD9B9F1660F18D1002963680BDD21613F
S31502003F6013B92268D00702D501330B4423614FF0FF
S31502003F70000AA165DBE713B92268D20701D502332D
S31502003F80F4E70123F2E74FF067090A9B994205DB42
S31502003F9023682161D807EAD54B1CE7E70029D4BF7D
S31502003FA0C1F1020201221344E0E723685A0507D44D
S31502003FB02369424631462846B84701302AD16BE783
S31502003FC0B9F1650F40F2E08094ED127BB5EE407BCD
S31502003FD0F1EE10FA33D10123374A31462846B84763
S31502003FE001303FF459AFDDE90938434502DB236866
S31502003FF0D8070FD5059B5A4631462846B8470130A1
S315020040003FF44AAF4FF0000908F1FF3804F11A0AEB
S31502004010C84509DC23689B0700F10781E0680B9B12
S315020040209842B8BF184639E7012352463146284618
S31502004030B84701303FF430AF09F10109E8E7099BBF
S31502004040002B3BDC01231C4A31462846B847013087
S315020040503FF422AFDDE9093959EA030302D12368A5
S31502004060D907D7D5059B5A4631462846B847013067
S315020040703FF412AF4FF0000A04F11A0B099B5B42A0
S31502004080534501DC4B4694E701235A4631462846FE
S31502004090B84701303FF400AF0AF1010AEEE700BF6C
S315020040A0FFFFFFFFFFFFEF7F600906025C090602C2
S315020040B068090602640906026C090602A36DDDF8A8
S315020040C028A05345A8BF5346002B994637DC002348
S315020040D029EAE97904F11A020793A36D079906936F
S315020040E0A3EB09038B4231DC099B9A453BDC23682F
S315020040F0DA0738D4099BAAEB0309069BAAEB03034A
S315020041009945A8BF9946B9F1000F34DC4FF0000873
S3150200411029EAE97904F11A0B099BAAEB0303A3EB3B
S31502004120090343457FF776AF01235A4631462846AF
S31502004130B84701303FF4B0AE08F10108ECE7424659
S3150200414031462846B8470130C1D1A5E6012331469A
S3150200415028460692B84701303FF49EAE079B069A60
S3150200416001330793B9E7059B5A4631462846B847B5
S315020041700130BFD190E6069A4B4631462846424464
S31502004180B8470130C2D187E6DDF82890B9F1010FB0
S3150200419001DCDB0736D50123424631462846B847BD
S315020041A001303FF479AE059B5A4631462846B84758
S315020041B001303FF471AE09F1FF3994ED127BB5EE91
S315020041C0407BF1EE10FA18D04B4608F10102314657
S315020041D02846B84701300CD15EE601235A463146DD
S315020041E02846B84701303FF457AE08F10108C845E2
S315020041F0F3DB534604F15002DCE64FF0000804F10B
S315020042001A0BF4E701234246E1E701234A46314607
S315020042102846B84701303FF43FAE08F10108E3688B
S315020042200B995B1A4345F0DCF8E64FF0000804F1FF
S315020042301909F4E72DE9F047164698468A680746B3
S315020042400B690C46DDF820909342B8BF13463360E3
S3150200425091F843200AB1013333602368990642BFBD
S31502004260336802333360256815F0060506D104F17A
S31502004270190AE36832689B1AAB422BDC94F8433086
S315020042802268003B18BF0123920630D404F1430290
S3150200429041463846C847013023D023681A3454F8B9
S315020042A00A2C03F00603042B0ABF54F80E5C002501
S315020042B033684FF0000608BFED1A54F8123C08BFE7
S315020042C025EAE5759342C4BF9B1AED18B5421AD189
S315020042D0002008E00123524641463846C8470130CD
S315020042E003D14FF0FF30BDE8F0870135C1E7E11891
S315020042F05A1C30200233224481F8430094F84510B8
S3150200430082F84310C2E70123224641463846C8478F
S315020043100130E6D00136D9E72DE9FF470F7E9146F7
S3150200432080460C46782F9A460C9E01F1430207D826
S31502004330622F0AD8002F00F0D180582F00F0B880E3
S3150200434004F1420684F842703AE0A7F16303152BA2
S31502004350F6D801A151F823F0B1430002C543000289
S31502004360414300024143000241430002414300022D
S31502004370C543000241430002414300024143000299
S3150200438041430002C3440002EF4300027D4400029F
S315020043904143000241430002E54400024143000258
S315020043A0EF430002414300024143000285440002FA
S315020043B033681A1D1B68326004F1420684F84230E3
S315020043C001239CE033682068191D3160060601D579
S315020043D01D6803E04506FBD5B3F90050002D03DA4C
S315020043E02D236D4284F8433058480A2311E0216890
S315020043F03368080653F8045B02D4490648BFADB2D7
S315020044006F2F3360514814BF0A230823002184F812
S3150200441043106668002EA66005DB21682E4321F054
S31502004420040121604BD01646B5FBF3F103FB11578D
S31502004430C75D06F8017D2F460D46BB42F4D9082B0F
S315020044400BD12368DF0708D5236961689942DEBF6D
S31502004450302306F8013C06F1FF36921B22614B46D9
S3150200446003AA21464046CDF800A0FFF7E3FE01303D
S315020044704AD14FF0FF3004B0BDE8F087236843F01D
S315020044802003236078273248236884F845701F0684
S31502004490316851F8045B02D45F0648BFADB23160A1
S315020044A0D90744BF43F0200323601DB11023ADE7B3
S315020044B02648E9E7236823F020032360F6E7164639
S315020044C0BDE733682568181D616930602E061B68D2
S315020044D001D5196002E06806FBD51980002316464D
S315020044E02361BCE7336800211A1D32601E686268C8
S315020044F0304600F0A4FA08B1801B6060636823614D
S31502004500002384F84330AAE72369324649464046E7
S31502004510D0470130ADD023689B0713D4E068039BD4
S315020045209842B8BF1846A6E7012332464946404696
S31502004530D04701309DD00135E36803995B1AAB423F
S31502004540F2DCEBE7002504F11906F5E76E0906022F
S315020045507F090602002310B504468360818119464D
S315020045604366C28108228361C0E90033C0E904338D
S315020045705C3000F0F9F90D4B246263620C4BA362C6
S315020045800C4BE3620C4B23630C4B9C4206D003F1AB
S315020045906802944202D0D0339C4205D104F15800FD
S315020045A0BDE8104000F048BA10BD00BFB94700028E
S315020045B0DB47000213480002374800021CFC0022B7
S315020045C0024A0349034800F069B800BF24000022EA
S315020045D0616100023400002241680C4B994210B519
S315020045E0044601D001F0BCFDA168094B994202D0F4
S315020045F0204601F0B5FDE168064B994204D02046FB
S31502004600BDE8104001F0ACBD10BD00BF1CFC00228D
S3150200461084FC0022ECFC002210B50B4B04210B4C4F
S315020046200B4A20461A600022FFF794FF04F1680045
S3150200463001220921FFF78EFF04F1D0000222122186
S31502004640BDE81040FFF786BF54FD00221CFC002285
S31502004650C1450002014800F0F0B900BF5DFD00222D
S31502004660014800F0EBB900BF5DFD002210B504461B
S31502004670FFF7F0FF236A1BB1BDE81040FFF7F0BF5A
S31502004680044B2362044B1B68002BF5D1FFF7C4FFD2
S31502004690F2E700BFD945000254FD00222DE9F84396
S315020046A00746884614460026D4E90195B9F1010960
S315020046B005D52468002CF7D13046BDE8F883AB89CE
S315020046C0012B07D9B5F90E30013303D029463846F6
S315020046D0C04706436835E9E70FB407B5064904AB98
S315020046E0086853F8042B8168019301F09DFB03B01F
S315020046F05DF804EB04B0704730000022036A70B51F
S3150200470005460E4684680BB9FFF7B0FF636EDB07FA
S3150200471005D4A389980502D4A06D00F08EF9A38969
S31502004720190702D52369002B35D12146284600F008
S31502004730C5F880B34FF0FF35636EDA0705D4A38957
S315020047409B0502D4A06D00F079F9284670BD002BB6
S3150200475004DAA2699A4217DC0A2915D023685A1C80
S3150200476022601970A36816F8011F013BA360002995
S31502004770EDD1002B11DA22460A21284600F05FF815
S315020047800130D7D00A25D7E72246284600F057F847
S315020047900130E7D1CEE7013EE4E723685A1C2260E6
S315020047A00A221A70EEE70000024B01461868FFF76C
S315020047B0A5BF00BF3000002210B50C46B1F90E109D
S315020047C000F000F90028ABBF636DA3891B1823F420
S315020047D08053ACBF6365A38110BD2DE9F0411F462E
S315020047E08B8905460C46DB05164605D502230022B3
S315020047F0B1F90E1000F0D4F8A3893246B4F90E10BE
S31502004800284623F48053A3813B46BDE8F04100F0DD
S31502004810FBB810B50C46B1F90E1000F0C1F8431CF6
S31502004820A38915BF606523F4805343F48053A381A3
S3150200483018BFA38110BDB1F90E1000F0A1B8F8B5EA
S315020048400E461446054618B1036A0BB9FFF70EFF6A
S31502004850A369A360A3891A0701D5236943B921462F
S31502004860284600F02BF818B14FF0FF373846F8BD4E
S315020048702368F6B222693746981A6369834205DCD1
S315020048802146284601F06CFC0028EDD1A368013BC5
S31502004890A36023685A1C22601E70431C62699A42F6
S315020048A004D0A389DB07E1D50A2EDFD121462846AB
S315020048B001F056FC0028D9D0D6E7000038B5294BBE
S315020048C005460C46186818B1036A0BB9FFF7CEFE07
S315020048D0B4F90C30190722D4DA0607D409222A6061
S315020048E043F040034FF0FF30A38133E0580712D55F
S315020048F0616B41B104F14403994202D0284600F0AB
S315020049009DFE00236363A38923F02403A38100236E
S31502004910636023692360A38943F00803A3812369A3
S315020049204BB9A38903F42073B3F5007F03D0214664
S31502004930284601F062FCB4F90C3013F001020AD0E9
S315020049400022A26062695242A261226942B913F050
S315020049508000C5D138BD990758BF6269A260F4E7E5
S315020049600020F7E73000002202440346934200D1BA
S31502004970704703F8011BF9E70048704770010022EF
S3150200498038B50023054D044608462B6001F0C8FCE5
S31502004990431C02D12B6803B1236038BD58FD0022A7
S315020049A038B50446064D0846114600222A601A46C4
S315020049B001F0CEFC431C02D12B6803B1236038BD43
S315020049C058FD002238B50446064D08461146002217
S315020049D02A601A4601F0C4FC431C02D12B6803B1BB
S315020049E0236038BD58FD002238B50023054D044624
S315020049F008462B60FEF7E4FC431C02D12B6803B188
S31502004A00236038BD58FD002238B50446064D0846D7
S31502004A10114600222A601A46FCF760F8431C02D1AE
S31502004A202B6803B1236038BD58FD0022014B18687C
S31502004A30704700BF30000022704770477047C9B206
S31502004A400346024410B59342184601D1002003E002
S31502004A50047801338C42F6D110BD0A44431E9142BA
S31502004A6000D1704710B511F8014B914203F8014F7E
S31502004A70F9D110BD034613F8012B002AFBD1181AEF
S31502004A80013870472DE9F74F036907460C69A342BF
S31502004A90C0F28380013C00F1140501F11408A30061
S31502004AA055F8242008EB8409009305EB840301934F
S31502004AB058F8243001339A42B2FBF3F631D34FF061
S31502004AC0000AC446AE46D3465CF8043B98B2E145BA
S31502004AD04FEA134306FB00A04FEA104280B206FBE0
S31502004AE00323DEF8002092B24FEA134AA2EB000239
S31502004AF09BB2DEF800005A44C3EB224392B203EBA8
S31502004B00104342EA03424FEA234B4EF8042BDBD210
S31502004B10009BEB582BB9019B043B9D421A4630D3AE
S31502004B203C61384601F04AF8002826DB2946002077
S31502004B3058F8042BD1F800C01FFA82FEC1451FFAAD
S31502004B408CF34FEA1242A3EB0E030344C2EB234259
S31502004B509BB202EB1C4243EA02434FEA224041F86F
S31502004B60043BE5D255F8242005EB840322B9043B25
S31502004B709D421A460BD33C610136304603B0BDE86E
S31502004B80F08F1268043B002ACAD1013CC5E71268BD
S31502004B90043B002AEFD1013CEAE70020EEE70000E1
S31502004BA02DE9F04FC76981462DED028B91B055EC88
S31502004BB0104B1C9E069109920C938DED020B7FB948
S31502004BC01020FEF7D9FF0246C9F81C0020B99E4BF9
S31502004BD0EF219E48FEF716FBC0E901770760C76022
S31502004BE0D9F81C30196859B15A68012348469340CE
S31502004BF04A608B6000F0ACFDD9F81C3000221A60C6
S31502004C002B1EB7BF23F00043002301220393ACBF40
S31502004C10336032608E4B039EB34310D142F20F7360
S31502004C200C9A1360C6F31303234300F0D5841D9B2D
S31502004C30884F002B00F0D784FB1C00F0D2BC9DED00
S31502004C40028BB5EE408BF1EE10FA0AD101230C9AD3
S31502004C5013601D9B13B1804B1D9A13607F4F00F0AA
S31502004C60C2BC0EAAB0EE480B0FA9484601F05AF88C
S31502004C70C6F30A530E9A0190002B45D018EE901AED
S31502004C80B0EE487BA3F2FF330025C1F3130141F0D6
S31502004C907F5141F44011B7EE086B07EE901A9FED73
S31502004CA0645B37EE467B9FED646BA7EE056B07EE02
S31502004CB0903AB8EEE74B9FED625BB0EE467BA4EE10
S31502004CC0057BB5EEC07BFDEEC76BF1EE10FA16EE74
S31502004CD0908A08D5B8EEE66BB4EE476BF1EE10FAA1
S31502004CE018BF08F1FF38B8F1160F2DD85C4901EB51
S31502004CF0C80191ED007BB4EEC78BF1EE10FA01D537
S31502004D0008F1FF38002120E00F9B0125134403F22E
S31502004D1032412029C9BFC1F14001C1F120018E40B3
S31502004D2003F21241D8BF04FA01F103F1FF33C4BF03
S31502004D3024FA01F1314307EE901AB8EE677B17EEBB
S31502004D40901AA1F1F871A6E70121D21A0B91531E0E
S31502004D50059345BFC2F10103002200230592B8F173
S31502004D60000F17DB059ACDF82880424405920022EF
S31502004D700792069A092A42D8052AC5BF043A002490
S31502004D8001240692069A023A032A43D8DFE802F081
S31502004D903335160AC8F10002A3EB08030792002274
S31502004DA00A92E6E701220892099A08EB020B0BF136
S31502004DB0010A5246012AB8BF012206E001220892E0
S31502004DC0099A002A29DD93469246D9F81C700021D9
S31502004DD0042000F11406964226D9796048460493C7
S31502004DE000F076FC049B074600283DD11D4B024687
S31502004DF040F2AF11EDE60022E1E70022D3E70124FB
S31502004E000022089406924FF0FF3B00211222DA4656
S31502004E100991DAE701220892F5E74FF0010BDA462B
S31502004E205A46CDF824B0D0E701314000D1E700BFA1
S31502004E3061436F63A787D23FB3C8608B288AC63F98
S31502004E40FB799F501344D33F9D090602B40906021B
S31502004E500000F07F990906026D0906026C09060236
S31502004E60C80A06020D0A0602D9F81C20BAF10E0F6C
S31502004E7010606ED8002C6CD0B8F1000F40F3B480ED
S31502004E8008F00F01C74A18F4807F02EBC1024FEA0D
S31502004E90281192ED007B00F09B80C34A01F00F01BE
S31502004EA092ED086B032288EE066B8DED026BBE480F
S31502004EB0002940F08F809DED026B86EE077B8DED1B
S31502004EC0027B0B999DED027B002900F0B380B7EEC1
S31502004ED0006BB4EEC67BF1EE10FA40F1AB80BAF18C
S31502004EE0000F00F0A780BBF1000F30DDB2EE046BBD
S31502004EF008F1FF3101325C46049127EE067B8DED07
S31502004F00027B07EE902AB1EE0C5B9DED026BB8EECA
S31502004F10E77BA7EE065B15EE902A51EC150BA2F184
S31502004F205071002C40F08A80B1EE047B36EE476B5E
S31502004F3041EC170BB4EEC76BF1EE10FA00F35D828B
S31502004F40B1EE477BB4EEC76BF1EE10FA23D48DEDCA
S31502004F50028B0F990029C0F22981B8F10E0F00F3D6
S31502004F602581904B03EBC80393ED006B099B002B45
S31502004F7080F2C880BAF1000F00F3C4800BD1B1EE03
S31502004F80047B26EE076B9DED027BB4EEC76BF1EE5A
S31502004F9010FAC0F22F8200242546099B3E46DB43C7
S31502004FA004934FF000082146484600F0D1FB002D3D
S31502004FB000F0A280B8F1000F05D0A84503D0414603
S31502004FC0484600F0C5FB2946484600F0C1FB93E07F
S31502004FD002226CE7CC0704D5013290ED006B27EE76
S31502004FE0067B4910083063E722D0C8F100016D4AFA
S31502004FF0002401F00F00091102EBC0026A4892ED8B
S31502005000007B022228EE077B8DED027B29B9002C5C
S315020050103FF457AF8DED027B53E7CE0705D501323C
S31502005020012490ED006B27EE067B49100830EDE770
S31502005030022246E75446CDF8108062E7594A02EB4F
S31502005040C4023C4412ED024B089A41EC170B4AB3D8
S31502005050B6EE003B3E46B7EE002B83EE045BB2EEA5
S31502005060043B35EE477BFDEEC64BB8EEE45B14EE31
S31502005070902A303236EE456B06F8012BB4EEC76B3A
S31502005080F1EE10FA38D432EE465BB4EEC75BF1EEBF
S3150200509010FA6ED4A6423FF45AAF27EE037B26EEF1
S315020050A0036BE0E727EE047B21463E46B2EE043B65
S315020050B0FDEEC64B14EE902AB8EEE45B303236EEC5
S315020050C0456B06F8012BA64219D1B6EE005B37EE08
S315020050D0054BB4EEC46BF1EE10FA4ADC35EE475BD3
S315020050E0B4EEC56BF1EE10FA7FF531AF0E4601391B
S315020050F016F8013C302BF9D0DDF8108027E026EEB9
S31502005100036BD5E79DED027BB2EE044B3E4687EE7E
S31502005110065BBDEEC55B15EE103AB8EEC53B303305
S31502005120A3EE467B06F8013BF31B9A4532D137EED6
S31502005130077BB4EEC67BF1EE10FA18DCB4EE467BC2
S31502005140F1EE10FA03D115EE103ADB070FD40199EE
S31502005150484600F0FDFA00230C9A337008F1010369
S3150200516013601D9B002B00F03E821E603BE2CDF8D1
S31502005170108033461E4613F8012D392A06D19F4266
S31502005180F8D1049A0132049230223A701A78013226
S315020051901A70B1E727EE047BB5EE407BF1EE10FA0A
S315020051A0B5D1D4E7C80A0602A00A0602089A002A5E
S315020051B000F0E580069A012A00F3C680002D00F071
S315020051C0BF8001F23341079C1E460B4448460493B6
S315020051D0059B0B440121059300F070FB049B0546D9
S315020051E056B1059A002A07DDB2420599A8BF324692
S315020051F09B1AB61A8A1A0592079A12B3089A002AB5
S3150200520000F0C1809CB12946224648460D9300F023
S315020052100FFC019A01460546484600F065FB0199D6
S315020052200490484600F094FA049A0D9B0192079A5C
S31502005230121B06D004930199484600F0F9FB049B21
S31502005240019001214846049300F038FB0A9A04466D
S31502005250049B002A00F0CD810146484600F0E8FB97
S31502005260069B0446012B049B00F39480029A002AB3
S3150200527040F08C80039AC2F31302002A40F0888021
S31502005280039A22F00042120D120522B1059A013349
S3150200529001320592012207920A9A002A00F0AF8192
S315020052A02269049304EB8202106900F0BBFA049BA4
S315020052B0C0F12000059A104410F01F0075D0C0F10D
S315020052C02002042A69DDC0F11C00059A0344024447
S315020052D006440592002B05DD1A460199484600F060
S315020052E001FC0190059B002B05DD21461A46484626
S315020052F000F0F8FB04460B9B002B58D02146019880
S3150200530000F05CFC002852DA08F1FF330A22019908
S3150200531048460493002300F03DFA089B0190002BB7
S3150200532000F06F81294600230A22484600F032FA2D
S31502005330BBF1000F054666DC069B022B40DC62E0F1
S315020053400E99C1F136013EE70AF1FF34079AA242ED
S3150200535007DBBAF1000FA2EB04040CDB1E46514632
S3150200536033E7079A1E460A99A21A079400241144A3
S315020053700A91514629E7A3EB0A06002125E7079C75
S315020053801E46089D2CE7079A049354E7002282E7FB
S31502005390029A80E70022079282E79BD01C32059987
S315020053A0114413441644059194E70246F6E7BAF10E
S315020053B0000FD346CDF8108021DC069B022B1EDDA2
S315020053C0BBF1000F7FF4E9AD21465B460522484654
S315020053D000F0E0F901460446019800F0EFFB0028D0
S315020053E07FF7DBAD31233E4606F8013B049B0133D2
S315020053F00493D6E55446CDF810802546F2E7089B7D
S31502005400002B00F00281002E05DD29463246484671
S3150200541000F068FB0546079B002B58D06968484692
S3150200542000F056F9064628B9824B024640F2EF21B1
S31502005430FFF7CFBB2A6905F10C010C30023292004C
S31502005440FFF70BFB01223146484600F04BFB7B1C63
S31502005450A8460546059307EB0B030993029B03F047
S3150200546001030893059B2146019803F1FF3BFFF7D1
S3150200547009FB4146029000F1300A019800F09EFBBA
S315020054802A4607902146484600F0B4FBC268064603
S31502005490FAB90146019800F091FB024631464846A8
S315020054A00A9200F055F90A9ADDE9056342EA030118
S315020054B0089B19430FD1BAF1390F28D0079B002B4D
S315020054C002DD029B03F1310A8BF800A06BE5284648
S315020054D0BDE70122E2E7079B002B04DB06990B439B
S315020054E008990B4320D1002AEEDD01220199484694
S315020054F000F0F8FA2146019000F060FB002803DC78
S31502005500E2D11AF0010FDFD0BAF1390FD9D139231E
