S013000052413850315F54455354312E73726563F5
S31502000000E0610022592300022D210002552300023D
S3150200001055230002552300025523000255230002F0
S31502000020000000000000000000000000552300024E
S31502000030552300020000000055230002552300024A
S31502000040250B00027D0A0002B50B0002010C00021C
S315020000503D1C00021D140002B1150002D516000255
S31502000060B9170002250B00027D0A0002B50B000239
S31502000070010C00021D140002B1150002D516000281
S31502000080B9170002250B00027D0A0002B50B000219
S31502000090010C0002250B00027D0A0002B50B0002CC
S315020000A0010C0002250B00027D0A0002B50B0002BC
S309020000B0010C000235
S315020000B401000000104000000000000003000000E0
S315020000C4CC6300221800002200000000CC63002248
S315020000D4346400229C640022000000000000000038
S315020000E40000000000000000000000000000000004
S315020000F400000000000000000000000000000000F4
S3150200010400000000000000000000000000000000E3
S315020001140000000043000000000000000000000090
S3150200012400000000000000000000000000000000C3
S315020001340000000043000000000000000000000070
S3150200014400000000000000000000000000000000A3
S315020001540000000043000000000000000000000050
S315020001640000000000000000000000000000000083
S315020001740000000043000000000000000000000030
S315020001840000000000000000000000000000000063
S315020001940000000043000000000000000000000010
S315020001A40000000000000000000000000000000043
S315020001B400000000430000000000000000000000F0
S315020001C40000000000000000000000000000000023
S315020001D400000000430000000000000000000000D0
S315020001E40000000000000000000000000000000003
S315020001F40000000009660002E56500020000000036
S315020002048873000289720002757200027572000216
S31502000214757200027572000275720002757200022E
S31502000224757200027572000275720002FFFFFFFF0B
S31502000234FFFFFFFFFFFFFFFFFFFF00000100415327
S3150200024443494900000000000000000000000000CD
S3150200025400000000000000000000000000004153FE
S3150200026443494900000000000000000000000000AD
S315020002740000000000000000000000000000000072
S315020002880348044B834202D0034B03B11847704715
S31502000298D0010022D001002200000000064B0749C7
S315020002A8C91A891048BF0131491003D0044B0BB152
S315020002B801481847704700BFD0010022D00100222A
S315020002C80000000010B5064C237843B9FFF7D8FFA3
S315020002D8044B13B10448AFF300800123237010BD09
S315020002E8106200220000000028F1C90208B5054B79
S315020002F81BB105490548AFF30080BDE80840FFF782
S31502000308CDBF00BF000000001462002228F1C90216
S3150200031828B10379022B02D10122014B1A707047C8
S315020003280000002270B5151E10DD91B10A4B4FF080
S31502000338000C9868094C06461868B36884F800C029
S3150200034898472378002BFCD0284670BD00252846FE
S3150200035870BD0D46284670BD48670002000000229F
S315020003682DE9F043414B85B0D3E9011218681268AA
S3150200037890470023ADF80E3003F00EFD20B101467A
S315020003883B4804F071FAFEE70DF10E0003F028FC73
S31502000398002855D0002003F0ADFC002856D10020D5
S315020003A803F086FC002856D1324804F0C5FA4FF409
S315020003B87A714FF4FA7001F071FE2F4B9F68D3F8E9
S315020003C800803A6840465968904708B10E2847D1D6
S315020003D802F07CFB294804F0AFFA4FF47A710A203E
S315020003E801F05CFE4FF00009254D264E00214FF420
S315020003F89622304604F080FB31464046BB6885F8B3
S3150200040800909847B8B92B7863B94FF4FA6401E0BB
S31502000418013C07D04FF47A71012001F03FFE2B7898
S31502000428002BF5D00021F0234FF4A072084600965F
S3150200043803F02CFADAE70146134804F015FAFEE748
S31502000448BDF80E10114804F00FFAA3E7014610484A
S3150200045804F00AFAA3E701460E4804F005FAA3E7F0
S3150200046801460D4804F000FAFEE700BF486700029D
S3150200047874660002E06600028867000218670002D6
S31502000488B6630022000000682C670002906600022C
S31502000498AC660002C866000200670002022800D0A5
S315020004A8704708B50449054800F0C8FCBDE808408D
S315020004B8012001F0E1BE00BF086800022C6200229A
S315020004C808B5FFF74DFF002008BD00BF0346002010
S315020004D8C3E90612704700BF844610B4406A8368AF
S315020004E823F440138360DCF82440A36C5800FCD53F
S315020004F8A36823F01003A360DCF82440237FC3F328
S315020005080010DB06FAD4CCE90412A36843F01013F0
S31502000518A3605DF8044B704784460020CCE90B3291
S31502000528CCF82810704700BF4FF0FF330020C1E90E
S31502000538003370478B0784461DD5426A936823F4B5
S3150200054840139360426A936C5800FCD5936823F073
S3150200055810039360DCF82400037FC3F30012DB0662
S31502000568FAD41046CCF81420CB0703D50023184634
S31502000578CCF81C3070470620F6E700BF0346002277
S3150200058810B4DC6910460C60DA615DF8044B7047FA
S315020005980620704730B40124164D530902F01F0C89
S315020005A8203304FA0CF445F82340BFF34F8FBFF308
S315020005B86F8F114B02F5C65C53F82C4024F4803435
S315020005C843F82C4053F82C300901002AC9B207DB3C
S315020005D80A4B154485F8001343F8220030BC7047CD
S315020005E8074B02F00F0423441976044B43F8220002
S315020005F830BC704700E100E0006000402063002242
S31502000608FCEC00E0F0B5C46A85B005460F46944690
S315020006186E46B4B194E80F0086E80F002B6A2046AE
S315020006281B78A760236084F804C02B6BE360AB6A6F
S315020006389847EC6A1CB196E80F0084E80F0005B0EB
S31502000648F0BD3446EAE700BFF8B5394B42689A422C
S315020006586BD10446426A936823F440139360426A54
S31502000668936823F010039360426A137FC3F300155D
S31502000678DB06FAD40121236A2E4A93F90730580970
S3150200068803F01F03203001FA03F342F82030BFF3C8
S315020006984F8FBFF36F8F236A93F90930580903F016
S315020006A81F0301FA03F3203042F82030BFF34F8FBD
S315020006B8BFF36F8F606A836823F480338360236A8B
S315020006C893F90530580903F01F0301FA03F32030A2
S315020006D842F82030BFF34F8FBFF36F8F236A93F927
S315020006E80B30580903F01F0301FA03F3203042F8CE
S315020006F82030BFF34F8FBFF36F8FEFF3108681F36E
S3150200070810884FF00043276A0B4A97F800C05068D2
S3150200071823FA0CF30343536053681E2001F0BEFC10
S3150200072886F3108865602846F8BD0720F8BD00BF25
S315020007384249435300E100E000302040002370B5EF
S31502000748026AD56983606B7C03B970BD184B04468F
S3150200075893F8543003F00F03072B24D8DFE803F08D
S31502000768040404211F191B1D01269E40104B93F8F1
S31502000778550000F00F0001F029FCB0FBF6F00D4B16
S315020007881A686B7C02FB03F3B3FBF0F30133A36035
S3150200079870BD0326EAE70526E8E70A26E6E70826FD
S315020007A8E4E70626E2E71026083B9E40DEE700BF9E
S315020007B800E00140A4630022F8B5002704460E466D
S315020007C8416A8D6825F4441222F011028A60076193
S315020007D8FFF7B4FF636A326825F440151A61636A43
S315020007E838469D60F8BD00BF0620704700222DE9F5
S315020007F8F04101270B78027003F5800303F556537F
S315020008081B02436201624B690D4683628B69044689
S31502000818C0E90B238378CE6967F3010383704B78AB
S31502000828934214BF3A460222837862F30103837025
S3150200083891F90B20897AFFF7ADFE95F905202979FA
S31502000848FFF7A8FE95F90720A979FFF7A3FE95F900
S315020008580920297AFFF79EFEEFF3108887F310889E
S315020008684FF000412A787B4BD1405A6822EA0102AE
S315020008785A605B681E20394601F010FC88F310881E
S315020008884FF48062636A9A606B78E978EA691B02B8
S31502000898890301F4804103F440730B4311785068CD
S315020008A8090601F040710B435178C90389B20B431B
S315020008B8517B490501F400110B43616A43F48053E5
S315020008C84B611378991EB94240F2BD800368616A8A
S315020008D80B61117BAB7801F0030141F0300133B1B2
S315020008E8022B14BF4FF440734FF480731943937865
S315020008F800201B0703F080530B43616ACB60012378
S31502000908616A886129788B40C3F3090313B1636A64
S31502000918514959620025937BD17B127C01F01F0154
S3150200092803F0010302F01F0243EA0123616A43EA64
S3150200093802430B632046C4E90455C4E90655FFF78A
S31502000948FDFE7089626A4549A0819166226A444B16
S3150200095892F9052002F5C65153F8210065F31040B5
S3150200096843F8210053F82110BFF35F8F012102F0EB
S315020009781F005209920002F1604202F5614201FA31
S3150200098800F0C2F880011060226A92F90B2002F583
S31502000998C65053F8206065F3104643F8206053F8B2
S315020009A82000BFF35F8F02F01F005209920002F186
S315020009B8604201FA00F002F56142C2F88001106055
S315020009C8226A92F9072002F5C65053F8206065F3A9
S315020009D8104643F8206053F82000BFF35F8F02F0F9
S315020009E81F005209920002F1604201FA00F002F574
S315020009F86142C2F880011060226A92F9092002F562
S31502000A08C65053F8206065F3104643F8206053F841
S31502000A182030BFF35F8F53099B0002F01F0203F1D8
S31502000A286043914003F56143C3F8801119600D4A8A
S31502000A38636A9A60626A137FDB07FCD50A4B002059
S31502000A486360BDE8F0810949022B094B18BF0B46C2
S31502000A583DE700BF0030204000001F1F1000079D21
S31502000A6800600040110401004249435304FF00FF9D
S31502000A7824FF00FF38B5EFF30383103B254A5BB228
S31502000A8803F5C65152F8210020F4803042F82100BD
S31502000A9852F82120204A52F82340236A1B69B3B12F
S31502000AA8636903B138BD636A9D68A06825F4801539
S31502000AB845F4001518BB00219D60A36A2161002B2D
S31502000AC8F0D02046BDE838408022FFF79BBD626918
S31502000AD8636A002AE8D0A278216902F00302022A90
S31502000AE811D00A781A71A278D4E9041302F0030223
S31502000AF89B1A1144C4E90413002BD3D1D3E701F09E
S31502000B08C7FA636AD7E70A8822F4DC4292B25A60C5
S31502000B18E9E700BF006000402063002210B582B0FA
S31502000B28EFF30383103B1F4A5BB203F5C65152F833
S31502000B38210020F4803042F8210052F821201A4A76
S31502000B4852F82340A27802F00303022B636A0CBF11
S31502000B5819681978E3690CBFC1F30801C9B2019192
S31502000B6843B9A36AB3B10422204602B0BDE81040D5
S31502000B78FFF748BD02F0030201A9A06904F025F8AF
S31502000B88D4E90621A37803F003031A44C91AC4E96F
S31502000B98062109B102B010BDA36A002BFAD00122C0
S31502000BA8E2E700BF006000402063002210B5EFF3C1
S31502000BB803830F4A103B5CB252F82400426A9368D8
S31502000BC823F4401323F010039360836A1BB10222B5
S31502000BD80021FFF717FD074A04F5C65352F82310FA
S31502000BE821F4803142F8231052F8233010BD00BF99
S31502000BF8206300220060004038B5EFF303831D4AE4
S31502000C08103B5CB252F824008378456A03F003036A
S31502000C18022B0CBF29682978AA6C08BFC1F3080100
S31502000C28C2F30073C2F3006C4FEA031343EA4C1390
S31502000C38C2F3C06243EAC20C18BFC9B2DB066246F7
S31502000C4804D5AB6C1B0458BF4CF04002AB6E43F0A4
S31502000C58C853AB66836A0BB1FFF7D4FC064A04F5A0
S31502000C68C65352F8231021F4803142F8231052F861
S31502000C78233038BD20630022006000400020012393
S31502000C888242CAB203FA02F39AB24FEA034308BF90
S31502000C981A460B0A5B0103F1804303F580039A6047
S31502000CA8704700BF2DE9F84F0388DBB14FF0000A01
S31502000CB880464FF00109DFF8D4B00024314D4FEADF
S31502000CC8CA07D8F8043035F8022BD919898891420F
S31502000CD80AD00134032CF4D1B8F800300AF1010A1B
S31502000CE85345EAD8BDE8F88FDB5909FA04F603F04A
S31502000CF8B853B3F1807F244BF6B293F84C2C12D03A
S31502000D08324230D104F120021BF81230DB09E0D05E
S31502000D181BF81230012123F08003C8200BF8123089
S31502000D2801F0BCF9D5E7324210D004F120021BF8D3
S31502000D381230DB09CDD11BF81230012143F08003B2
S31502000D48C8200BF8123001F0A9F9C2E7012001F018
S31502000D5851FA0D4B012093F84C2C324383F84C2C54
S31502000D6801F018FAE1E7012001F044FA064B0120E6
S31502000D7893F84C2C22EA060283F84C2C01F00AFA64
S31502000D88C0E700BF906B000200E00140002020404F
S31502000D98F8B50646FFF786FFEFF31082012383F3C1
S31502000DA81088234F3B681BB9402022490B750875EA
S31502000DB83B6801333B6082F31088338800211BB3FA
S31502000DC81D4D08E01B01134445F8234032880131C2
S31502000DD88BB29A4218D9736853F8314003EBC102B1
S31502000DE89288E0034FEA1223D2B2EBD502EB031044
S31502000DF855F820E024F4803C2EF4803E45F820E0A5
S31502000E081B0145F820C0DEE7EFF31082012383F3C6
S31502000E1810883B6813B13B68013B3B603B681BB9D2
S31502000E28802004490B75087582F31088F8BD00BF47
S31502000E381C630022000D40400008404008B5034BE1
S31502000E4803600846FFF7A4FF002008BD54524F501E
S31502000E580346002059601A72704700BF8446002074
S31502000E68CCE90E32CCF83410704700BF0346044A68
S31502000E78DB6800209B1AB3FA83F35B090B70704791
S31502000E884349495230B5836B83B004460A466D46D8
S31502000E98A3B193E8030085E80300E16B1A711960B0
S31502000EA81846636B9847A36B1BB195E8030083E862
S31502000EB80300002384F82B3003B030BD2B46ECE741
S31502000EC830B5454B83B01B6A01690193019B03F058
S31502000ED80F230193019A019D0B7C90F82C409CB933
S31502000EE8C2F30322DBB2A2EB156293409B0804D13C
S31502000EF8082003B030BD013BFAD04A78C2F3C014C9
S31502000F08D209F8D1CC710169002390F82640856987
S31502000F18026880F82B30C56180F82D3080F82740AA
S31502000F2880F82E3080F8283080F82F30036280F857
S31502000F383030546A227894F801E0012A14BF4FF03F
S31502000F48040C4FF0050C6279120142EA4E0294F83B
S31502000F5806E042EACE124CEA0202D2B2CA7001692D
S31502000F680A7942F010020A7101690A7963F3C30227
S31502000F780A7101690A7963F304120A710269E1794D
S31502000F88137961F3C71313710269537943F00103A5
S31502000F985371036893F90F30002B07DB012203F024
S31502000FA81F040E495B09A24041F82320BF210269AA
S31502000FB8537A03F0F30353720369D97190F82C300C
S31502000FC82BB1002380F82C30002003B030BD02225A
S31502000FD803695A70F8E700BF00E0014000E100E04B
S31502000FE890F808C0C0E90512BCF1010F80F82A3052
S31502000FF808D10022436880F826C05B0080F82430B6
S3150200100880F82520002380F82930FFF759BF00BF52
S3150200101890F808C0C0E90512BCF1010F80F82A3021
S315020010280AD10022436880F826C05B0043F0010318
S3150200103880F8243080F82520012380F82930FFF72C
S315020010483FBF00BF70B40024402203691C700369C5
S315020010581A70026913785B06FCD5C02313700368FD
S3150200106802695B6A804D1B794FF0000C43F0E0037E
S315020010781374036802695B6AB324DB7843F0E003FE
S315020010885374036802695B6A9B781B0103F0700359
S3150200109843F008039370036802695B6A1E78012E9F
S315020010A85E7814BF0423052343EA4603DBB2D370F2
S315020010B803685B68AB4214BF7722F72203695A7149
S315020010C8036983F806C00369DC7191F911204B7B29
S315020010D86245C0F2AA801B0102F16044DBB204F544
S315020010E8614484F80033614C614B44F8220002F5EE
S315020010F8C65553F8256026F4803643F8256053F81A
S315020011082530BFF35F8F012553099B0002F01F02AA
S3150200111803F1604303F5614305FA02F2C3F880213D
S315020011281A6091F90F204B7B002AC0F295801B01A9
S3150200113802F16045DBB205F5614585F800334C4B93
S3150200114844F8220002F5C65553F8256026F480367F
S3150200115843F8256053F82530BFF35F8F01255309FD
S315020011689B0002F01F0203F1604303F5614305FA8F
S3150200117802F2C3F880211A6091F910204B7B002AEB
S3150200118863DB1B0102F16045DBB205F5614585F8B3
S315020011980033374B44F8220002F5C65553F825604A
S315020011A826F4803643F8256053F82530BFF35F8F5F
S315020011B8012553099B0002F01F0203F1604303F560
S315020011C8614305FA02F2C3F880211A6091F90E20EA
S315020011D84B7B002A31DB1B0102F16041DBB201F5D0
S315020011E8614181F80033224B44F8220002F5C651C8
S315020011F853F8214024F4803443F8214053F821302F
S31502001208BFF35F8F012153099B0002F01F0203F10E
S31502001218604303F5614301FA02F2C3F880211A60BA
S315020012289F2203691A7070BC7047124C02F00F05B0
S315020012381B01DBB22C44237655E70E4902F00F0553
S315020012481B01DBB229440B76CDE70B4D1B0102F0DD
S315020012580F06DBB2AB559CE7074D1B0102F00F06E2
S31502001268DBB2AB556BE700BF40420F00206300229A
S3150200127800600040FCEC00E014ED00E0F8B5002543
S315020012880A781C4B016013441B0203618B680E46E5
S3150200129843600B7B04460372CB6943630B6A80F88F
S315020012A82950C36380F82A50856380F82B50C0E919
S315020012B80555C0E9075580F82C50EFF31087012130
S315020012C881F310880C4A33785068C3F1090301FA8E
S315020012D803F320EA0303536053681E2000F0DEFE80
S315020012E887F3108820463146FFF7ACFE034B2846A3
S315020012F8E360F8BDE02540000030204043494952EA
S3150200130838B5002503690446DD710168FFF79AFEC0
S31502001318B32290F82600A169236984F82C5084F830
S315020013282800E561216284F82A50DA71284638BD18
S3150200133870B5002504460369DD710168FFF782FE70
S31502001348B320012194F8263084F82C5084F82830EA
S31502001358A36984F82A50C4E9075323692B4AD8712A
S315020013682369DD712368E56093F91130580903F0A2
S315020013781F0301FA03F3203042F82030BFF34F8FE0
S31502001388BFF36F8F236893F90E30580903F01F03D2
S3150200139801FA03F3203042F82030BFF34F8FBFF330
S315020013A86F8F236893F91030580903F01F0301FA67
S315020013B803F3203042F82030BFF34F8FBFF36F8F0D
S315020013C8236893F90F30580903F01F0301FA03F350
S315020013D8203042F82030BFF34F8FBFF36F8FEFF301
S315020013E8108681F310882368094A1B785068C3F16E
S315020013F8090301FA03F30343536053681E2000F0FE
S315020014084DFE86F31088284670BD00BF00E100E055
S315020014180030204010B582B0EFF30383103B5F4AD9
S315020014285BB203F5C65352F8231021F4803142F811
S31502001438231052F82330EFF30383594A103B5BB269
S3150200144852F8234094F82D305BBBA369022B22D9AC
S31502001458E369012B0ED12269137943F01003137144
S315020014682269137943F0080313712269137923F069
S315020014781003137123685B6ADB79002B3ED10122C4
S315020014882369DB7CDBB28DF807309DF8073084F8D8
S315020014982D2002B010BD2269137943F0400313715F
S315020014A8D6E7E369002BF4D02268526AD279FAB9F0
S315020014B8032B17D0022B26D0012B34D02269236A9C
S315020014C8D17C6269D154D4E907320132013BC4E9BD
S315020014D80732002BDDD121690A7963F386120A7174
S315020014E802B010BD2269137943F040031371E5E790
S315020014F805212046FFF7C6FCE369D9E70521204600
S31502001508FFF7C0FCBBE72269137943F01003137196
S315020015182269137943F0080313712269137923F0B8
S3150200152810031371CAE794F82A2072B322681D4879
S3150200153892F90F20510902F01F0203FA02F2203132
S3150200154840F82120BFF34F8FBFF36F8F0420216924
S31502001558CA7942F08002CA7121690A7942F01002F8
S315020015680A7121690A7922F008020A7121690A793F
S3150200157822F010020A712269507021694A7922F012
S3150200158801024A7184F82C3098E708212269537AB5
S3150200159803F0F7035372236959708FE7006000401E
S315020015A82063002200E100E010B5EFF30383103B4D
S315020015B8434A5BB203F5C65352F8231021F480312D
S315020015C842F8231052F82330EFF303833D4A103BC7
S315020015D85BB252F8234094F82730002B40D194F896
S315020015E82930002B3BD123685B6ADB792BB194F84F
S315020015F82B3013B9236A002B5CD1E3692169002BCE
S3150200160841D1CB79C02223F08003CB71216901E055
S31502001618013A02D0CB79DB09FAD12368284A93F931
S31502001628103003F5C65352F8231021F4803142F8DC
S31502001638231052F82330236893F91030002B09DB64
S3150200164801215A09204803F01F03603201FA03F305
S3150200165840F822302269D37943F04003D37110BD92
S3150200166894F82630032B1CD094F8242023699A7404
S3150200167894F8282094F827300132013B84F8282070
S3150200168884F8273010BD236A6269D35C8B74D4E967
S3150200169807320132013BC4E90732002BDFD1216947
S315020016A8AFE794F82830022BDED194F83030002BBD
S315020016B8DAD110BD05212046FFF7E4FB9DE700BFFE
S315020016C8006000402063002200E100E038B5EFF335
S315020016D80383344A103B5BB252F8234023685B6AA1
S315020016E8DB79002B4BD194F829301BB194F82730BB
S315020016F8012B52D0E369E3B12169C023CA7922F0EA
S315020017084002CA71216901E0013B02D0CA79520638
S31502001718FAD4EFF30383103B234A5BB203F5C653AD
S3150200172852F8231021F4803142F8231052F823305C
S3150200173838BD94F82A203AB3012022681B4D92F943
S315020017480F20510902F01F02203100FA02F245F871
S315020017582120BFF34F8FBFF36F8F4FF0040C21691F
S31502001768CA7942F08002CA71226982F801C02169E7
S315020017784A7963F300024A7184F82C00BCE7052112
S315020017882046FFF77FFBAEE708212269537A03F06A
S31502001798F703537223695970AEE794F83030002B79
S315020017A8AAD0A7E7206300220060004000E100E01B
S315020017B838B5EFF303834F4A103B5BB252F8230066
S315020017C80269537A517ADC0601F0E00151725FFA36
S315020017D883FC03F003022CD50369597849064ED4D3
S315020017E80024012580F82B50DC710168FFF72AFCDA
S315020017F8B32290F82630816980F82830036980F888
S315020018082C400162C46180F82A402946DA71FFF742
S3150200181839FBEFF30383103B374A5BB203F5C65332
S3150200182852F8231021F4803142F8231052F823305B
S3150200183838BD002A5CD11CF0080F11D0C369002BF1
S3150200184845D190F82B30002B41D1B32290F82910BC
S315020018580369C1F10301C9B2DA71FFF713FBD8E7CD
S3150200186890F82C200CF0040342B3002BD1D0C369A4
S31502001878002B3BD190F82B30002B37D1E5E7002A15
S31502001888AED15A78C2F380115206D4D5082280F80E
S315020018982B105A70036801695A6A94791378527937
S315020018A843EAC41343EA021343F00203DBB2CB70E2
S315020018B80269537943F001035371AAE7002BA8D0B2
S315020018C803685B6ADB79002BA3D00421C5E70023F2
S315020018D8B32190F826508469026980F82C3080F882
S315020018E828500462C36180F82A30D1710121B4E715
S315020018F8036975E7206300220060004084460020E1
S31502001908CCE90632CCF81410704700BF0A4B1A68A5
S31502001918D2030FD4DA6FD2074EBF01231B6803F036
S3150200192801030B708268044B4A60D3F884300020A6
S315020019388B6070470223F4E700803440F8B5002430
S315020019480121164D164F2C6703685E6996F91D30FC
S315020019585A0903F01F0301FA03F3203247F822302B
S31502001968BFF34F8FBFF36F8F0E4B96F91D2043F8C7
S3150200197822404FF480332B604460EFF3108581F3E5
S315020019881088094B9A6842F480329A609B681E2036
S3150200199800F084FB85F310882046F8BD00803440A9
S315020019A800E100E02063002200302040174AD36F8E
S315020019B8DB0727D41368DB0324D41368DB0723D495
S315020019C810B403685C6981602378022B08D14B1E28
S315020019D8C1680B4423F01F0343F00103D3658168F2
S315020019E80A4BD963227822B9D0E9022102EB5102C5
S315020019F81A6400220121054B10465A6719605DF8E0
S31502001A08044B7047082070471E20704700803440F8
S31502001A182DE9F04F01600B7A4F884C6903FB07F7F3
S31502001A2894F80380B1F80690B8F1000F08F101089E
S31502001A38B7FBF8F814BF4FF0010B4FF0020B0D4637
S31502001A4821780646CA46B8FBFBF283B051B921692A
S31502001A5888B2002840F0D180B1F5803FCA4628BF37
S31502001A68B4F816A0EB68019273612378022B14BFAF
S31502001A7807FB0AF3A368F360EFF3108301210093CF
S31502001A8881F310886348836823F48033836080680F
S31502001A981E2000F003FB009B83F310885E49019A1F
S31502001AA8CB6FDB07FCD45C4B1868C0F30041C0035C
S31502001AB8FAD4C2F30B0201922269C8F30C00009011
S31502001AC81A639961627B120502F440125A6094F80D
S31502001AD804E094F8058094F806C00EF0010208F0B6
S31502001AE80108207848EA0268CEF340024FEA4C0C15
S31502001AF848EA8262CEF3800E0CF0020C000142EA3A
S31502001B08CE6200F0300042EA0C020243607800021C
S31502001B1800F440700243E078000300F48050024368
S31502001B289A60B5F806C068883C4AC0F30D0002EA16
S31502001B380C420243DA602888394A0BFB00F0AD886A
S31502001B48C0F30C0002EA054528431861019D009876
S31502001B5802EA094902EA0A422A4349EA00005861A6
S31502001B68D9655A6322787B08002A08BF1F462A4885
S31502001B782C4D87630166A278237B120102F01002BC
S31502001B8803F00703134343663368C6E901515B69E9
S31502001B989A69326193F91D201B7F002A31DB1B01EA
S31502001BA802F16041DBB201F5614181F800331E4959
S31502001BB81E4B41F8226002F5C65153F8210020F463
S31502001BC8803043F8210053F82130BFF35F8F01219B
S31502001BD853099B0002F01F0203F1604303F56143B8
S31502001BE801FA02F2C3F880211A6000200A4B5867EC
S31502001BF832691A6703B0BDE8F08FA28A02FB03F7BF
S31502001C082AE70B4902F00F001B01DBB201440B76EF
S31502001C18CDE700BF00302040008034400000FF3F7F
S31502001C280000FF0F55454352206300220060004022
S31502001C38FCEC00E0F0B5234B8BB05D6FEA435A67C4
S31502001C48EFF30383103B204A5BB203F5C65152F801
S31502001C58210020F4803042F8210052F821201B4A44
S31502001C6852F8234063694BB30021226902912A4044
S31502001C78E0690092A769A2680191CDE90320FFB144
S31502001C88BC463E46BCE80F00EE4605AD0FC5DCF87D
S31502001C9800302B60BEE80F000FC6DEF80030CCF825
S31502001CA80030636938469847A4693CB10DF1140CB3
S31502001CB8BCE80F000FC4DCF8005025600BB0F0BD7D
S31502001CC86F46EFE700803440006000402063002240
S31502001CD81D4A92F82630928CDBB202F00F02A2F16C
S31502001CE8080103292BD8DFE801F020160C02174950
S31502001CF8174A51F82330A2FB03231B09154A13601E
S31502001D0870471249124A51F82330A2FB0323114A9B
S31502001D18DB08136070470D490D4A51F82330A2FBC0
S31502001D2803230C4A9B08136070470849084A51F86E
S31502001D382330A2FB0323074A5B0813607047034953
S31502001D4851F82330D340D9E700E00140E061002290
S31502001D58ABAAAAAAA4630022704700BF000000002B
S31502001D684AF203529FED844B9FED855B38B58A484C
S31502001D788A4B8B498B4CC3E908018B499FED826BD1
S31502001D889FED837B9962A4F8FA23A3EC045F83EDA3
S31502001D98007FFFF79DFF09230A2284F8502A84F858
S31502001DA8A23094F8003C23B994F8013C980700F055
S31502001DB8DC807C4C94F8003C002B00F0CB8000229F
S31502001DC8784B83F8012C83F8002C0023754A82F895
S31502001DD8323092F83C301907FBD540F223440020F2
S31502001DE84FF6021140F65103704DC2F8C850A2F8D8
S31502001DF84E4082F84A00C2F8AC10A2F84C30BFF343
S31502001E084F8FBFF36F8F6A4B596921F400315961BD
S31502001E18C3F85002BFF34F8FBFF36F8F65490B6844
S31502001E2823F440530B60BFF34F8FBFF36F8F01202C
S31502001E38137D01F1C04160F3020313750B7DDA06C7
S31502001E48FCD45C4A136843F440531360BFF34F8FC4
S31502001E58BFF36F8FA2F57342536913F4003311D19E
S31502001E68BFF34F8FBFF36F8FC2F85032BFF34F8F56
S31502001E78BFF36F8F536943F400335361BFF34F8F38
S31502001E88BFF36F8F0023474A82F82A3092F83C3014
S31502001E989B06FBD50022484B1A701A781A781A78CC
S31502001EA85A68FA2A04D0454959605A68FA2AFBD16F
S31502001EB8414B9A687D2A04D0414999609A687D2ADD
S31502001EC8FBD1052242F22011364B3E48186299840C
S31502001ED883F82620FFF7FCFE01211E2000F0DEF81B
S31502001EE8354A5368C3F30903642B84BF012313706D
S31502001EF8FFF7EEFE4AF20152334B1A80BFF35F8FA9
S31502001F0801211972BFF35F8F4FF42540254A1880C5
S31502001F1882F8531092F8553043F0400382F8553050
S31502001F2892F85530DB09FBD0CA23022082F8540006
S31502001F3882F8553092F855301A4903F0BF0382F8F1
S31502001F48553091F85530DB09FBD14FF42543A1F8FA
S31502001F58FA3338BD0121C82084F8001C00F09EF827
S31502001F6894F8003C012BFBD129E74FF47A70FFF76E
S31502001F78F3FE2AE7AFF30080006CDC0200127A0057
S31502001F880080000000366E010080000000CA9A3BFD
S31502001F980046C3235543DE138ED73E0DE061002269
S31502001FA80008AF2F00E0014000389C1C022B0100FC
S31502001FB800ED00E000E001E000C01340FA00001E58
S31502001FC87D0000E13234233200200040014B53F8F1
S31502001FD820007047E061002238B50025284C01210F
S31502001FE8C82084F8285000F059F884F8245094F848
S31502001FF82430002BFBD194F82430214943F0020304
S3150200200884F8243091F82430C3F340009B07F9D4AE
S315020020181B4A81F8220092F8223003F0FF00002BB7
S31502002028F9D192F84030164960F3C71382F8403066
S3150200203891F84030DB09FBD191F84200104A63F36C
S31502002048C71081F8420092F84230DB09FBD192F8B8
S3150200205844000B4963F3C71082F8440091F84430F0
S31502002068C3F3C014DB09F9D1012000F0C3F8054B0C
S31502002078012083F84C4CBDE8384000F08BB800BF0D
S315020020880020204000E00140704700BF00BEFEE786
S31502002098A0F101000028FBD1704700BF1E4B1F4A62
S315020020A81B6800FB01F1934213D302F1854202F544
S315020020B8071203F5742302F6834203F23F23A2FBB7
S315020020C803239B0CA3FB01314FF0FF30E1B1FFF76D
S315020020D8DFBF4FF47A7210B4114C4FF0FF30B4FBE5
S315020020E8F3F3A1FB02C434B9BCFBF3F080B15DF88B
S315020020F8044BFFF7CDBFB1FBF3F1A1FB0212002A95
S31502002108F5D1084620B1F2E71846002BDFD1704711
S315020021185DF8044B704700BFA463002200127A00E0
S3150200212800CA9A3BF8B5002401260D4B0D4FD3F889
S315020021380021D3F82051154006FA04F32B4204D0A5
S3150200214857F82430E0B203B198470134152CF3D17D
S31502002158034AC2F81051D2F820312B42FBD1F8BDFE
S3150200216800C00040C862002200221D2310B407489E
S31502002178074C30F8021F02F5C65C013209B144F871
S315020021882C10013BF5D15DF8044B7047266B000213
S3150200219800600040EFF31081012383F31088124B8D
S315020021A833F8102092B22AB133F81020013A92B2CB
S315020021B823F8102033F810309BB293B910B40B4AA7
S315020021C80B4CB2F8FA3334F810009BB243F42543A9
S315020021D823EA0003A2F8FA3381F310885DF8044B68
S315020021E8704781F3108870479463002200E001402B
S315020021F8FC6D000230B4EFF31081012383F31088DB
S315020022080E4A32F810309BB26BB90D4C0D4DB4F82C
S31502002218FA3335F810C09BB243EA0C0343F425435C
S315020022289BB2A4F8FA3332F8103001339BB222F883
S31502002238103081F3108830BC704700BF94630022C7
S3150200224800E00140FC6D000208B509490A688318D6
S31502002258B3F5005F03D807480B60104408BD02F0C7
S315020022689DFC0C2203461A604FF0FF3008BD00BFE2
S31502002278A0630022E0010022F8B50646304C94F825
S31502002288503C03F0FF05002BF9D187221023A4F84E
S31502002298242C84F8003C002E3FD101220023284931
S315020022A881F8022C81F8013C91F8503C002BFBD1B5
S315020022B8D6B14FF40C73224AA1F8483C92F8503C26
S315020022C8D807C3F30001F9D447F208040120112301
S315020022D81C4DC2F8445C82F8401CA2F8144C82F8E1
S315020022E8160C82F8003CF8BD47F208000123154C8B
S315020022F8134AC1F8444C81F8406CA1F8140C81F8D1
S31502002308163C92F8003CDB07FBD492F8503C002BB3
S31502002318F7D1012382F8103CF8BD01272846FFF7BA
S3150200232869FF094B284683F85370FFF733FF044ABF
S3150200233884F8207C92F8503C1C07FBD4ADE700BF1A
S31502002348003000400325050000E0014000BE70474A
S3150200235808B500F035F8FEF7B3F8FEE7F8B5174FFB
S3150200236805463E68A6B17C6806EB460604EB860679
S3150200237802E00C34B4420BD0637AAB42F9D1D4E909
S3150200238800020021121A0C3402F0B6FBB442F3D151
S31502002398BE6896B1FC6804EB061602E01034A64243
S315020023A80BD0637BAB42F9D1D4E90002A168121AB9
S315020023B8103402F00AFCA642F3D1F8BDCC6B000237
S315020023C8F8B5844A844B5A61BFF34F8FBFF36F8FB8
S315020023D81B6803F47002B2F5801F00F0D48013F470
S315020023E8600F00F0BC807D4A136823F00403136073
S315020023F8BFF34F8FBFF36F8F4FF47002784B764C53
S315020024080020C4F88820A360FEF748F80025FFF7E5
S31502002418A7FC4AF202514FF42542724B0120A3F857
S31502002428FA1383F8B05AA3F8FA23FEF737F86E4B75
S3150200243883F30A88694B1A68910704D5A268B2F130
S31502002448007F00F0A4800020FFF788FFFFF740FC1A
S31502002458FFF7C2FD0320FFF7CDFE00234FF00E0E55
S315020024681C464EF001E0614903F10C0221F82240B4
S3150200247801330FF007C80320FFF78CFE0320FFF78E
S31502002488B9FE5B4B03205C609C60DC601C61554CAA
S31502002498FFF780FED4F8D8339A0747D5D4F8D8334D
S315020024A8504CD4F8D8335B0727D5D4F8D833022052
S315020024B8FDF7F4FF0120FFF751FFBFF34F8FBFF37C
S315020024C86F8F0024444BC3F85042BFF34F8FBFF3BC
S315020024D86F8F484B484D5B1BA3424FEAA30605DDA7
S315020024E855F8043B01349847A642F9DCFFF73CFE4F
S315020024F8BDE8F8400020FFF7C7BD94F81431002B59
S31502002508D5D00120FFF776FE94F8143103F0C00304
S31502002518802BF9D10023334A84F8143192F8143106
S315020025283F2BFBD80120FFF735FEC0E794F81031A0
S31502002538002BB5D00120FFF75DFE94F8103103F0A9
S31502002548C003802BF9D10023264A84F8103192F869
S3150200255810313F2BFBD80120FFF71CFEA0E71F4ACC
S31502002568136843F004031360BFF34F8FBFF36F8FF3
S315020025784FF0E022936843F480339360BFF34F8FA2
S31502002588BFF36F8F38E718077FF42DAF27E70121CE
S315020025981A695869C2F3C302093201FA02F300261C
S315020025A80027DB0843F005C0E5E802670FF005C01F
S315020025B8C0F3C303093301FA03F34FF00052DB08F1
S315020025C843F007C0AFF30080E2E802670FF005C0E8
S315020025D839E700BF01020E0000ED00E000E001E06D
S315020025E80000000200E00140E0210022000D404008
S315020025F800402040E8740002E474000270B5082521
S315020026080446154E002240F202613046FEF736FBBA
S3150200261801210846FFF742FD23064CBF012200228C
S3150200262840F201613046FEF729FB01210846FFF711
S3150200263835FD012240F2026130469440FEF71EFB48
S3150200264801210846FFF72AFD681E10F0FF05E4B2CD
S31502002658D8D1284670BD00BF2C62002238B5044680
S315020026680D4D002240F203612846FEF707FB0122C0
S3150200267840F205612846FEF701FB200AFFF7BEFF76
S31502002688E0B2FFF7BBFF2846BDE83840012240F218
S315020026980361FEF7F3BA00BF2C62002210B5124C92
S315020026A8012240F204612046FEF7E8FA4FF47A71F5
S315020026B80A20FFF7F3FC002240F204612046FEF7E7
S315020026C8DDFA4FF47A713220FFF7E8FC40F2046132
S315020026D820460122FEF7D2FABDE810404FF47A717D
S315020026E87820FFF7DBBC00BF2C62002210B51A4C1B
S315020026F8012240F203612046FEF7C0FA012240F2A7
S3150200270802612046FEF7BAFA012240F2016120462A
S31502002718FEF7B4FA012240F204612046FEF7AEFA49
S31502002728012240F203612046FEF7A8FA012240F28E
S3150200273805612046FEF7A2FA002240F20F712046F2
S31502002748FEF79CFAFFF7AAFF2046BDE810400122D1
S3150200275840F20F71FEF792BA2C620022022870B577
S3150200276800F0AE80032800F0B18001284FF0F00196
S315020027784FF000004FF4A0720CBF0225FF252B2351
S31502002788554CA071554821806280A060002240F213
S3150200279803615348A381FEF771FA002240F20561EC
S315020027A84F48FEF76BFA2A20FFF728FF012240F26C
S315020027B803614B48FEF762FA002240F20361484879
S315020027C8FEF75CFA012240F205614548FEF756FA21
S315020027D80020FFF713FF0020FFF710FF012240F247
S315020027E803613F48FEF74AFA2088013880B2FFF7AC
S315020027F835FFA689002240F203613948FEF73EFA00
S31502002808002240F205613648FEF738FAF0B2FFF7C1
S31502002818F5FE012240F203613148FEF72FFA002243
S3150200282840F203612E48FEF729FA012240F20561B9
S315020028382B48FEF723FA0020FFF7E0FE0020FFF7F9
S31502002848DDFE012240F203612548FEF717FA608889
S31502002858013880B2FFF702FF062D8CBF0024214BF8
S315020028684FF0000240F203611D4898BF13F8154065
S31502002878FEF704FA002240F205611948FEF7FEF94E
S315020028883620FFF7BBFE012240F203611448FEF729
S31502002898F5F9002240F203611148FEF7EFF9012229
S315020028A840F205610E48FEF7E9F92046FFF7A6FE53
S315020028B8BDE87040012240F203610948FEF7DEB91D
S315020028C801204FF4A071F022042558E701204FF4A5
S315020028D8A071F022052552E7A86300222C002A00DF
S315020028E82C620022086E00022DE9F041754C002286
S315020028F8B4F80A8040F20361064673482788658859
S31502002908FEF7BCF9002240F205616F48FEF7B6F9F8
S315020029185FFA88F0FFF772FE012240F203616A4805
S31502002928FEF7ACF9002240F203616748FEF7A6F902
S31502002938012240F205616448FEF7A0F90020FFF77C
S315020029485DFE013F0020FFF759FEBFB2012240F2A9
S3150200295803615D48FEF792F93846FFF77FFEA789BD
S31502002968002240F203615848FEF788F9002240F235
S3150200297805615548FEF782F9F8B2FFF73FFE0122D4
S3150200298840F203615048FEF779F9002240F20361EA
S315020029984D48FEF773F9012240F205614A48FEF7EF
S315020029A86DF90020FFF72AFE013D0020FFF726FEFB
S315020029B8ADB2012240F203614348FEF75FF92846A9
S315020029C8FFF74CFE638825886789002240F2036177
S315020029D83D4803FB05F5FEF751F9002240F2056171
S315020029E83948FEF74BF9F8B2FFF708FE012240F222
S315020029F803613548FEF742F9002240F20361324884
S31502002A08FEF73CF9012240F205612F48FEF736F936
S31502002A180020FFF7F3FD0020FFF7F0FD012240F248
S31502002A2803612948FEF72AF9A789002240F20361C1
S31502002A382548FEF723F9002240F205612248FEF7EF
S31502002A481DF9F8B2FFF7DAFD012240F203611E48CA
S31502002A58FEF714F9002240F203611B48FEF70EF94D
S31502002A68012240F205611848FEF708F90020FFF72F
S31502002A78C5FD0020FFF7C2FD012240F2036112489C
S31502002A88FEF7FCF8002240F2036124890E48FEF79D
S31502002A98F5F8002240F205610B48FEF7EFF8E0B2BE
S31502002AA8FFF7ACFD012240F203610748FEF7E6F89C
S31502002AB835B1002430460134FFF7D0FDA542F9D1DD
S31502002AC8BDE8F081A86300222C62002210B5FD4CF5
S31502002AD8FFF70CFE002240F203612046FEF7CEF80D
S31502002AE8002240F205612046FEF7C8F80120FFF7EA
S31502002AF885FD012240F203612046FEF7BFF84FF436
S31502002B087A713220FFF7CAFA4FF47A713220FFF748
S31502002B18C5FA002240F203612046FEF7AFF800220A
S31502002B2840F205612046FEF7A9F8CF20FFF766FDB9
S31502002B38012240F203612046FEF7A0F8002240F285
S31502002B4803612046FEF79AF8012240F20561204603
S31502002B58FEF794F80020FFF751FD012240F20361C7
S31502002B682046FEF78BF8002240F203612046FEF764
S31502002B7885F8012240F205612046FEF77FF8D92042
S31502002B88FFF73CFD012240F203612046FEF776F884
S31502002B98002240F203612046FEF770F8012240F255
S31502002BA805612046FEF76AF83020FFF727FD012265
S31502002BB840F203612046FEF761F8002240F2036103
S31502002BC82046FEF75BF8002240F205612046FEF732
S31502002BD855F8ED20FFF712FD012240F20361204667
S31502002BE8FEF74CF8002240F203612046FEF746F84B
S31502002BF8012240F205612046FEF740F86420FFF7FD
S31502002C08FDFC012240F203612046FEF737F8002256
S31502002C1840F203612046FEF731F8012240F20561CF
S31502002C282046FEF72BF80320FFF7E8FC012240F2C4
S31502002C3803612046FEF722F8002240F2036120468D
S31502002C48FEF71CF8012240F205612046FEF716F847
S31502002C581220FFF7D3FC012240F203612046FEF759
S31502002C680DF8002240F203612046FEF707F801221A
S31502002C7840F205612046FEF701F88120FFF7BEFC07
S31502002C88012240F203612046FDF7F8FF002240F2D6
S31502002C9803612046FDF7F2FF002240F20561204655
S31502002CA8FDF7ECFFE820FFF7A9FC012240F20361D9
S31502002CB82046FDF7E3FF002240F203612046FDF7B6
S31502002CC8DDFF012240F205612046FDF7D7FF852088
S31502002CD8FFF794FC012240F203612046FDF7CEFF7E
S31502002CE8002240F203612046FDF7C8FF012240F2A6
S31502002CF805612046FDF7C2FF1020FFF77FFC01227F
S31502002D0840F203612046FDF7B9FF002240F2036153
S31502002D182046FDF7B3FF012240F205612046FDF782
S31502002D28ADFF7820FFF76AFC012240F203612046D4
S31502002D38FDF7A4FF002240F203612046FDF79EFF3D
S31502002D48002240F205612046FDF798FFCB20FFF7E7
S31502002D5855FC012240F203612046FDF78FFF00224F
S31502002D6840F203612046FDF789FF012240F2056120
S31502002D782046FDF783FF3920FFF740FC012240F287
S31502002D8803612046FDF77AFF002240F203612046DE
S31502002D98FDF774FF012240F205612046FDF76EFF3A
S31502002DA82C20FFF72BFC012240F203612046FDF797
S31502002DB865FF002240F203612046FDF75FFF01220C
S31502002DC840F205612046FDF759FF0020FFF716FC81
S31502002DD8012240F203612046FDF750FF002240F22D
S31502002DE803612046FDF74AFF012240F205612046AB
S31502002DF8FDF744FF3420FFF701FC012240F203618C
S31502002E082046FDF73BFF002240F203612046FDF70C
S31502002E1835FF012240F205612046FDF72FFF022009
S31502002E28FFF7ECFB012240F203612046FDF726FF7D
S31502002E38002240F203612046FDF720FF002240F2FD
S31502002E4805612046FDF71AFFF720FFF7D7FB012297
S31502002E5840F203612046FDF711FF002240F20361AA
S31502002E682046FDF70BFF012240F205612046FDF7D9
S31502002E7805FF2020FFF7C2FB012240F2036120462C
S31502002E88FDF7FCFE002240F203612046FDF7F6FE3E
S31502002E98002240F205612046FDF7F0FEEA20FFF720
S31502002EA8ADFB012240F203612046FDF7E7FE002250
S31502002EB840F203612046FDF7E1FE012240F2056178
S31502002EC8204601E02C620022FDF7D8FE0020FFF71B
S31502002ED895FB012240F203612046FDF7CFFE002250
S31502002EE840F203612046FDF7C9FE012240F2056160
S31502002EF82046FDF7C3FE0020FFF780FB012240F2C1
S31502002F0803612046FDF7BAFE002240F2036120461D
S31502002F18FDF7B4FE002240F205612046FDF7AEFE3B
S31502002F28C020FFF76BFB012240F203612046FDF742
S31502002F38A5FE002240F203612046FDF79FFE01220C
S31502002F4840F205612046FDF799FE2120FFF756FB60
S31502002F58012240F203612046FDF790FE002240F26C
S31502002F6803612046FDF78AFE002240F205612046EB
S31502002F78FDF784FEC120FFF741FB012240F20361FF
S31502002F882046FDF77BFE002240F203612046FDF74C
S31502002F9875FE012240F205612046FDF76FFE1220FA
S31502002FA8FFF72CFB012240F203612046FDF766FE7D
S31502002FB8002240F203612046FDF760FE002240F23D
S31502002FC805612046FDF75AFEC520FFF717FB0122C9
S31502002FD840F203612046FDF751FE002240F20361EA
S31502002FE82046FDF74BFE012240F205612046FDF719
S31502002FF845FE3220FFF702FB012240F2036120461A
S31502003008FDF73CFE002240F203612046FDF736FE3C
S31502003018012240F205612046FDF730FE3C20FFF70B
S31502003028EDFA012240F203612046FDF727FE00224F
S3150200303840F203612046FDF721FE002240F20561B7
S315020030482046FDF71BFEC720FFF7D8FA012240F2F9
S3150200305803612046FDF712FE002240F20361204674
S31502003068FDF70CFE012240F205612046FDF706FE39
S31502003078C120FFF7C3FA012240F203612046FDF799
S31502003088FDFD002240F203612046FDF7F7FD00220E
S3150200309840F205612046FDF7F1FD3620FFF7AEFA4C
S315020030A8012240F203612046FDF7E8FD002240F2C4
S315020030B803612046FDF7E2FD012240F20561204642
S315020030C8FDF7DCFD0020FFF799FA012240F20361C1
S315020030D82046FDF7D3FD002240F203612046FDF7A4
S315020030E8CDFD002240F205612046FDF7C7FD3A20D4
S315020030F8FFF784FA012240F203612046FDF7BEFD7E
S31502003108002240F203612046FDF7B8FD012240F293
S3150200311805612046FDF7B2FD5520FFF76FFA012239
S3150200312840F203612046FDF7A9FD002240F2036141
S315020031382046FDF7A3FD002240F205612046FDF771
S315020031489DFDB120FFF75AFA012240F2036120469B
S31502003158FDF794FD002240F203612046FDF78EFD3D
S31502003168012240F205612046FDF788FD0020FFF79F
S3150200317845FA012240F203612046FDF77FFD00224F
S3150200318840F203612046FDF779FD012240F205610E
S315020031982046FDF773FD1820FFF730FA012240F2A8
S315020031A803612046FDF76AFD002240F203612046CC
S315020031B8FDF764FD002240F205612046FDF75EFD3B
S315020031C8B620FFF71BFA012240F203612046FDF7FB
S315020031D855FD002240F203612046FDF74FFD01220C
S315020031E840F205612046FDF749FD0A20FFF706FA77
S315020031F8012240F203612046FDF740FD002240F21B
S3150200320803612046FDF73AFD012240F20561204698
S31502003218FDF734FDA220FFF7F1F9012240F203611E
S315020032282046FDF72BFD002240F203612046FDF7FA
S3150200323825FD002240F205612046FDF71FFDF2201A
S31502003248FFF7DCF9012240F203612046FDF716FD7D
S31502003258002240F203612046FDF710FD012240F2EA
S3150200326805612046FDF70AFD0020FFF7C7F901228E
S3150200327840F203612046FDF701FD002240F2036198
S315020032882046FDF7FBFC002240F205612046FDF7C9
S31502003298F5FC2620FFF7B2F9012240F20361204627
S315020032A8FDF7ECFC002240F203612046FDF7E6FC3E
S315020032B8012240F205612046FDF7E0FC0120FFF7F6
S315020032C89DF9012240F203612046FDF7D7FC002250
S315020032D840F203612046FDF7D1FC002240F2056167
S315020032E82046FDF7CBFCE020FFF788F9012240F2E1
S315020032F803612046FDF7C2FC002240F20361204624
S31502003308FDF7BCFC012240F205612046FDF7B6FC3A
S315020033180F20FFF773F9012240F203612046FDF7F9
S31502003328ADFC002240F203612046FDF7A7FC01220C
S3150200333840F205612046FDF7A1FC2020FFF75EF961
S31502003348012240F203612046FDF798FC002240F272
S3150200335803612046FDF792FC012240F205612046F0
S31502003368FDF78CFC1E20FFF749F9012240F20361A2
S315020033782046FDF783FC002240F203612046FDF752
S315020033887DFC012240F205612046FDF777FC092003
S31502003398FFF734F9012240F203612046FDF76EFC7D
S315020033A8002240F203612046FDF768FC012240F242
S315020033B805612046FDF762FC1220FFF71FF901227C
S315020033C840F203612046FDF759FC002240F20361F0
S315020033D82046FDF753FC012240F205612046FDF71F
S315020033E84DFC0B20FFF70AF9012240F20361204641
S315020033F8FDF744FC002240F203612046FDF73EFC3D
S31502003408012240F205612046FDF738FC5020FFF7FD
S31502003418F5F8012240F203612046FDF72FFC00224F
S3150200342840F203612046FDF729FC012240F20561BC
S315020034382046FDF723FCBA20FFF7E0F8012240F206
S3150200344803612046FDF71AFC002240F2036120467A
S31502003458FDF714FC012240F205612046FDF70EFC39
S315020034684420FFF7CBF8012240F203612046FDF71C
S3150200347805FC002240F203612046FDF7FFFB01220C
S3150200348840F205612046FDF7F9FB0920FFF7B6F879
S31502003498012240F203612046FDF7F0FB002240F2CA
S315020034A803612046FDF7EAFB012240F20561204648
S315020034B8FDF7E4FB1420FFF7A1F8012240F20361AD
S315020034C82046FDF7DBFB002240F203612046FDF7AA
S315020034D8D5FB012240F205612046FDF7CFFB052008
S315020034E8FFF78CF8012240F203612046FDF7C6FB7E
S315020034F8002240F203612046FDF7C0FB012240F29A
S3150200350805612046FDF7BAFB2320FFF777F801226B
S3150200351840F203612046FDF7B1FB002240F2036147
S315020035282046FDF7ABFB012240F205612046FDF776
S31502003538A5FB2120FFF762F8012240F2036120462B
S31502003548FDF79CFB002240F203612046FDF796FB3D
S31502003558012240F205612046FDF790FB0020FFF7A5
S315020035684DF8012240F203612046FDF787FB00224F
S3150200357840F203612046FDF781FB002240F2056115
S315020035882046FDF77BFBE120FFF738F8012240F2DF
S3150200359803612046FDF772FB002240F203612046D2
S315020035A8FDF76CFB012240F205612046FDF766FB3A
S315020035B80020FFF723F8012240F203612046FDF7B7
S315020035C85DFB002240F203612046FDF757FB01220C
S315020035D840F205612046FDF751FB1920FFF70EF868
S315020035E8012240F203612046FDF748FB002240F221
S315020035F803612046FDF742FB012240F2056120469F
S31502003608FDF73CFB1920FEF7F9FF012240F20361A0
S315020036182046FDF733FB002240F203612046FDF700
S315020036282DFB012240F205612046FDF727FB00200B
S31502003638FEF7E4FF012240F203612046FDF71EFB76
S31502003648002240F203612046FDF718FB012240F2F0
S3150200365805612046FDF712FB1220FEF7CFFF012275
S3150200366840F203612046FDF709FB002240F203619E
S315020036782046FDF703FB012240F205612046FDF7CD
S31502003688FDFA0720FEF7BAFF012240F2036120463F
S31502003698FDF7F4FA002240F203612046FDF7EEFA3E
S315020036A8012240F205612046FDF7E8FA2D20FEF7D1
S315020036B8A5FF012240F203612046FDF7DFFA002248
S315020036C840F203612046FDF7D9FA012240F205616C
S315020036D82046FDF7D3FA2820FEF790FF012240F292
S315020036E803612046FDF7CAFA002240F2036120462A
S315020036F8FDF7C4FA012240F205612046FDF7BEFA3B
S315020037083F20FEF77BFF012240F203612046FDF7C8
S31502003718B5FA002240F203612046FDF7AFFA01220C
S3150200372840F205612046FDF7A9FA0220FEF766FF78
S31502003738012240F203612046FDF7A0FA002240F278
S3150200374803612046FDF79AFA012240F205612046F6
S31502003758FDF794FA0A20FEF751FF012240F20361AF
S315020037682046FDF78BFA002240F203612046FDF758
S3150200377885FA012240F205612046FDF77FFA082004
S31502003788FEF73CFF012240F203612046FDF776FA76
S31502003798002240F203612046FDF770FA012240F248
S315020037A805612046FDF76AFA2520FEF727FF012262
S315020037B840F203612046FDF761FA002240F20361F6
S315020037C82046FDF75BFA012240F205612046FDF725
S315020037D855FA2D20FEF712FF012240F20361204618
S315020037E8FDF74CFA002240F203612046FDF746FA3D
S315020037F8012240F205612046FDF740FA0F20FEF746
S31502003808FDFE012240F203612046FDF737FA002247
S3150200381840F203612046FDF731FA002240F20561C3
S315020038282046FDF72BFA1120FEF7E8FE012240F2A8
S3150200383803612046FDF722FA4FF47A717820FEF7E3
S315020038482DFC002240F203612046FDF717FA0022FA
S3150200385840F205612046FDF711FA2920FEF7CEFE51
S31502003868012240F203612046FDF708FA0220FEF71C
S3150200387875FF2046012240F20F71FDF7FFF9BDE8F8
S3150200388810404FF6FF70FFF72FB800BF2DE9F84F2B
S315020038989046824689461D46724F002240F20361CF
S315020038A8B7F80AB0704803FB08F60A9CFDF7E6F972
S315020038B8002240F205616C48FDF7E0F95FFA8BF0E9
S315020038C8FEF79CFE012240F203616748FDF7D6F92E
S315020038D850460AF1FF3AFEF7C1FE08EB0A0080B22B
S315020038E8FEF7BCFE002240F20361B7F80C805E4880
S315020038F8FDF7C4F9002240F205615B48FDF7BEF9FF
S315020039085FFA88F0FEF77AFE012240F20361564812
S31502003918FDF7B4F9484609F1FF39FEF79FFE05EBB4
S31502003928090080B2FEF79AFE002240F203613D8941
S315020039384D48FDF7A3F9002240F205614A48FDF712
S315020039489DF9E8B2FEF75AFE012240F203614648A3
S31502003958FDF794F9002240F203614348FDF78EF918
S31502003968012240F205614048FDF788F966B1002553
S31502003978023C34F8020F0135000AFEF73FFE2078B2
S31502003988FEF73CFEAE42F4D1012240F2036136480C
S31502003998FDF774F97C89002240F203613248FDF78B
S315020039A86DF9002240F205612F48FDF767F9E0B28A
S315020039B8FEF724FE012240F203612B48FDF75EF969
S315020039C8002240F203612848FDF758F9012240F225
S315020039D805612548FDF752F90020FEF70FFE002083
S315020039E8FEF70CFE012240F203611F48FDF746F975
S315020039F83888013880B2FEF731FEBC89002240F2CF
S31502003A0803611948FDF73AF9002240F205611648A2
S31502003A18FDF734F9E0B2FEF7F1FD012240F2036147
S31502003A281148FDF72BF9002240F203610E48FDF713
S31502003A3825F9012240F205610B48FDF71FF900201E
S31502003A48FEF7DCFD0020FEF7D9FD012240F20361F4
S31502003A580548FDF713F97888BDE8F84F013880B2B2
S31502003A68FEF7FCBDA86300222C620022F8B50F4EB1
S31502003A783378C3B90E4C0F4D0F4F09E02B7853B963
S31502003A88013C0ED001210846FEF708FB337813B92C
S31502003A983B78002BF2D02B78002B14BF1220002083
S31502003AA8F8BD1420F8BD034DF5E700BFCA6300222E
S31502003AB8A1860100C8630022C96300220379012294
S31502003AC8022B07D0032B02D0044B1A707047044B03
S31502003AD81A707047034B1A70704700BFC8630022FA
S31502003AE8CA630022C96300220368012B05D1034871
S31502003AF8034A044903700B7053737047B763002275
S31502003B08B8630022B66300228446F0B58E460023C7
S31502003B180C4A83B091680C4F0C4E0D4D9CFA9CFCD6
S31502003B288C68106801A90322ADF804C08DF806E076
S31502003B383B7033702B70A04708B9FFF797FF03B0A5
S31502003B48F0BD00BFCC670002CA630022C963002227
S31502003B58C86300221E4B2DE9F0439E6886461B6801
S31502003B684FF0000C184685B09EFA9EFEDFF86C9060
S31502003B78184F194D012302228846B468ADF80CE0A5
S31502003B8803A989F800C0019087F800C085F800C02B
S31502003B98A047034618B1184605B0BDE8F083FFF7FB
S31502003BA865FF03460028F6D189F80000414601223E
S31502003BB8019874683B702B70A04703460028EAD127
S31502003BC8FFF754FF0346184605B0BDE8F08300BF69
S31502003BD8CC670002C9630022C8630022CA630022B6
S31502003BE8002210B582B004460DF1060143F20A001E
S31502003BF88DF806208DF80720FFF7ACFF08B102B052
S31502003C0810BD43F20B000DF10701FFF7A3FF0028D1
S31502003C18F5D19DF806209DF8073043EA022304B140
S31502003C28238045F24062934218BF222002B010BD9B
S31502003C382DE9F04106460D4643F60800110A90465C
S31502003C481F46FFF761FF5FFA88F1044643F609004B
S31502003C58FFF75AFF0346390A43F60A001C43FFF7E1
S31502003C6853FF0346F9B243F60B001C43FFF74CFF1A
S31502003C780346310A43F610001C43FFF745FF034685
S31502003C88F1B243F611001C43FFF73EFF0346290A29
S31502003C9843F612001C43FFF737FF0346E9B243F621
S31502003CA813001C43FFF730FF2043BDE8F08100BF35
S31502003CB810B578B10138012819D8002145F21F003C
S31502003CC8FFF722FF302104464FF48640FFF71CFF18
S31502003CD8204310BD012145F21F00FFF715FF6121A0
S31502003CE804464FF48640FFF70FFF204310BD03201A
S31502003CF810BD00BF08B5072805D8DFE800F0121D79
S31502003D08040429043506032008BD00214FF4F36391
S31502003D184FF422620846FFF78BFF194B194A9A603D
S31502003D2808BD0021F0234FF4A0720846FFF780FF72
S31502003D38134B154A9A6008BD00214FF4F0734FF4ED
S31502003D4820720846FFF774FF0D4B104A9A6008BDA9
S31502003D5800214FF434734FF4A0620846FFF768FF58
S31502003D68074B0B4A9A6008BD00214FF487634FF44C
S31502003D78F0620846FFF75CFF014B064A9A6008BDE7
S31502003D88B8630022200A98074001F0008002E00189
S31502003D980005D00280073804F8B5314B9D681E68C5
S31502003DA82A6830465968904720B10E28044601D041
S31502003DB82046F8BD01223C2130462B699847044625
S31502003DC80028F5D14FF47A711420FEF767F980219D
S31502003DD843F20800FFF798FE04460028E8D14FF49C
S31502003DE87A711420FEF75AF92046FFF7F9FE0446BF
S31502003DF80028DDD11B4D4FF6FF7605F54F7708E013
S31502003E08A978FFF781FE04460028D1D10435AF42CE
S31502003E1808D02888B042F3D14FF47A71A878FEF711
S31502003E283DF9F3E700214FF4F0734FF42072084688
S31502003E38FFF7FEFE0C4D0D4B0446AB600028B7D1CA
S31502003E48012145F21F00FFF75FFE612104464FF488
S31502003E588640FFF759FE0443AAD12C736C73A7E771
S31502003E68CC670002186E0002B86300228002E001E5
S31502003E78F0B52DED028BB0EE408B85B017460C4699
S31502003E880D9D18EE902A0C9E25F02005002AB6BF35
S31502003E982D220022B1EE408B462D1A7004D0452DF4
S31502003EA800D10134022100E0032103ABB0EE480B36
S31502003EB82246019302AB0093334600F029FF472DB1
S31502003EC814D1FB070AD50219B5EE408B3021F1EE63
S31502003ED810FA08BF0392039B934219D3039B0E9AC7
S31502003EE81B1A136005B0BDEC028BF0BD462D00EB24
S31502003EF80402E9D10378302B07D1B5EE408BF1EEF7
S31502003F0810FA1CBFC4F10104346033681A44DBE7B3
S31502003F185C1C03941970DEE7F7B500290270BABF74
S31502003F2849422D232B230929437028DD0DF1070366
S31502003F380A271D461A46013BB1FBF7F607FB16147C
S31502003F48303402F8014C0C463146632CF2DC30312F
S31502003F58941E03F8011C411C2346AB420AD30DF1F9
S31502003F6809039B1AAC4288BF002302330344181A7A
S31502003F7803B0F0BD13F8016B01F8016FEDE73023CA
S31502003F8830318370031DC170F1E7000000000000A4
S31502003F982DE9F04F8DB00C4616461F46DDF85880BF
S31502003FA8054600F0B1FDD0F800B0584600F01AFEFA
S31502003FB8002394F818900A93D8F800302268073339
S31502003FC8059023F0070303F10801C8F8001093EDE2
S31502003FD8000B9FED976BB0EEC07B84ED120BB4EE2F
S31502003FE8467BF1EE10FA24DDB5EEC00BF1EE10FABF
S31502003FF802D52D2384F843308F49904BB9F1470FE8
S315020040088CBF8846984622F0040203234FF0000A22
S315020040182260236133460BAA21462846009700F000
S31502004028D1F9013040F089804FF0FF300DB0BDE87C
S31502004038F08FB4EE400BF1EE10FA09D710EE903A73
S315020040487F49002BBCBF2D2384F843307D4BD5E72F
S31502004058636809F0DF0A591C39D10623636042F402
S31502004068806200232846226003930AABCDE90193B6
S3150200407809AB00930DF123036168FFF7F9FEBAF164
S31502004088470F8046099929D1C81C02DB6368994201
S3150200409841DDA9F102095FFA89F901394A4604F1B3
S315020040A850000991FFF738FF0A9A82461318012A27
S315020040B8236102DC2268D20701D5013323619DF808
S315020040C82330002BA6D02D2384F84330A2E7BAF179
S315020040D8470FC4D1002BC2D10123BFE7B9F1650F3F
S315020040E8DBD9B9F1660F18D1002963680BDD2161A6
S315020040F813B92268D00702D501330B4423614FF066
S31502004108000AA165DBE713B92268D20701D5023393
S31502004118F4E70123F2E74FF067090A9B994205DBA8
S3150200412823682161D807EAD54B1CE7E70029D4BFE3
S31502004138C1F1020201221344E0E723685A0507D4B3
S315020041482369424631462846B84701302AD16BE7E9
S31502004158B9F1650F40F2E08094ED127BB5EE407B33
S31502004168F1EE10FA33D10123374A31462846B847C9
S3150200417801303FF459AFDDE90938434502DB2368CC
S31502004188D8070FD5059B5A4631462846B847013007
S315020041983FF44AAF4FF0000908F1FF3804F11A0A52
S315020041A8C84509DC23689B0700F10781E0680B9B79
S315020041B89842B8BF184639E701235246314628467F
S315020041C8B84701303FF430AF09F10109E8E7099B26
S315020041D8002B3BDC01231C4A31462846B8470130EE
S315020041E83FF422AFDDE9093959EA030302D123680C
S315020041F8D907D7D5059B5A4631462846B8470130CE
S315020042083FF412AF4FF0000A04F11A0B099B5B4206
S31502004218534501DC4B4694E701235A463146284664
S31502004228B84701303FF400AF0AF1010AEEE700BFD2
S31502004238FFFFFFFFFFFFEF7F587100025471000274
S31502004248607100025C71000264710002A36DDDF800
S3150200425828A05345A8BF5346002B994637DC0023AE
S3150200426829EAE97904F11A020793A36D07990693D5
S31502004278A3EB09038B4231DC099B9A453BDC236895
S31502004288DA0738D4099BAAEB0309069BAAEB0303B0
S315020042989945A8BF9946B9F1000F34DC4FF00008DA
S315020042A829EAE97904F11A0B099BAAEB0303A3EBA2
S315020042B8090343457FF776AF01235A463146284616
S315020042C8B84701303FF4B0AE08F10108ECE74246C0
S315020042D831462846B8470130C1D1A5E60123314601
S315020042E828460692B84701303FF49EAE079B069AC7
S315020042F801330793B9E7059B5A4631462846B8471C
S315020043080130BFD190E6069A4B46314628464244CA
S31502004318B8470130C2D187E6DDF82890B9F1010F16
S3150200432801DCDB0736D50123424631462846B84723
S3150200433801303FF479AE059B5A4631462846B847BE
S3150200434801303FF471AE09F1FF3994ED127BB5EEF7
S31502004358407BF1EE10FA18D04B4608F101023146BD
S315020043682846B84701300CD15EE601235A46314643
S315020043782846B84701303FF457AE08F10108C84548
S31502004388F3DB534604F15002DCE64FF0000804F171
S315020043981A0BF4E701234246E1E701234A4631466E
S315020043A82846B84701303FF43FAE08F10108E368F2
S315020043B80B995B1A4345F0DCF8E64FF0000804F166
S315020043C81909F4E72DE9F047164698468A6807461A
S315020043D80B690C46DDF820909342B8BF134633604A
S315020043E891F843200AB1013333602368990642BF24
S315020043F8336802333360256815F0060506D104F1E1
S31502004408190AE36832689B1AAB422BDC94F84330EC
S315020044182268003B18BF0123920630D404F14302F6
S3150200442841463846C847013023D023681A3454F81F
S315020044380A2C03F00603042B0ABF54F80E5C002567
S3150200444833684FF0000608BFED1A54F8123C08BF4D
S3150200445825EAE5759342C4BF9B1AED18B5421AD1EF
S31502004468002008E00123524641463846C847013033
S3150200447803D14FF0FF30BDE8F0870135C1E7E118F7
S315020044885A1C30200233224481F8430094F845101E
S3150200449882F84310C2E70123224641463846C847F6
S315020044A80130E6D00136D9E72DE9FF470F7E91465E
S315020044B880460C46782F9A460C9E01F1430207D88D
S315020044C8622F0AD8002F00F0D180582F00F0B8804A
S315020044D804F1420684F842703AE0A7F16303152B09
S315020044E8F6D801A151F823F0494500025D450002BC
S315020044F8D9440002D9440002D9440002D944000230
S315020045085D450002D9440002D9440002D94400029A
S31502004518D94400025B46000287450002154600029E
S31502004528D9440002D94400027D460002D944000259
S3150200453887450002D9440002D94400021D460002FA
S3150200454833681A1D1B68326004F1420684F8423049
S3150200455801239CE033682068191D3160060601D5DF
S315020045681D6803E04506FBD5B3F90050002D03DAB2
S315020045782D236D4284F8433058480A2311E02168F6
S315020045883368080653F8045B02D4490648BFADB23D
S315020045986F2F3360514814BF0A230823002184F879
S315020045A843106668002EA66005DB21682E4321F0BB
S315020045B8040121604BD01646B5FBF3F103FB1157F4
S315020045C8C75D06F8017D2F460D46BB42F4D9082B76
S315020045D80BD12368DF0708D5236961689942DEBFD4
S315020045E8302306F8013C06F1FF36921B22614B4640
S315020045F803AA21464046CDF800A0FFF7E3FE0130A4
S315020046084AD14FF0FF3004B0BDE8F087236843F083
S315020046182003236078273248236884F845701F06EA
S31502004628316851F8045B02D45F0648BFADB2316007
S31502004638D90744BF43F0200323601DB11023ADE719
S315020046482648E9E7236823F020032360F6E716469F
S31502004658BDE733682568181D616930602E061B6838
S3150200466801D5196002E06806FBD5198000231646B3
S315020046782361BCE7336800211A1D32601E6862682E
S31502004688304600F094FA08B1801B606063682361C3
S31502004698002384F84330AAE723693246494640464E
S315020046A8D0470130ADD023689B0713D4E068039B3B
S315020046B89842B8BF1846A6E70123324649464046FD
S315020046C8D04701309DD00135E36803995B1AAB42A6
S315020046D8F2DCEBE7002504F11906F5E7667100023C
S315020046E877710002002310B504468360818119465A
S315020046F84366C28108228361C0E90033C0E90433F4
S315020047085C3000F0F9F90D4B246263620C4BA3622C
S315020047180C4BE3620C4B23630C4B9C4206D003F111
S315020047286802944202D0D0339C4205D104F1580063
S31502004738BDE8104000F038BA10BD00BF514900026A
S3150200474873490002AB490002CF490002CC6300223A
S31502004758024A0349034800F069B800BF080000226C
S31502004768456400021800002241680C4B994210B5B4
S31502004778044601D001F062FEA168094B994202D0B3
S31502004788204601F05BFEE168064B994204D02046BA
S31502004798BDE8104001F052BE10BD00BFCC63002236
S315020047A8346400229C64002210B50B4B04210B4C86
S315020047B80B4A20461A600022FFF794FF04F16800AC
S315020047C801220921FFF78EFF04F1D00002221221ED
S315020047D8BDE81040FFF786BF04650022CC630022BD
S315020047E859470002014800F0E0B900BF0D650022F2
S315020047F8014800F0DBB900BF0D65002210B504467A
S31502004808FFF7F0FF236A1BB1BDE81040FFF7F0BFC0
S31502004818044B2362044B1B68002BF5D1FFF7C4FF38
S31502004828F2E700BF71470002046500222DE9F8434A
S315020048380746884614460026D4E90195B9F10109C6
S3150200484805D52468002CF7D13046BDE8F883AB8934
S31502004858012B07D9B5F90E30013303D0294638465C
S31502004868C04706436835E9E70FB407B5064904ABFE
S31502004878086853F8042B8168019301F043FC03B0DE
S315020048885DF804EB04B0704714000022036A70B5A1
S3150200489805460E4684680BB9FFF7B0FF636EDB0761
S315020048A805D4A389980502D4A06D00F07EF9A389E0
S315020048B8190702D52369002B35D12146284600F06F
S315020048C8C5F880B34FF0FF35636EDA0705D4A389BE
S315020048D89B0502D4A06D00F069F9284670BD002B2D
S315020048E804DAA2699A4217DC0A2915D023685A1CE7
S315020048F822601970A36816F8011F013BA3600029FC
S31502004908EDD1002B11DA22460A21284600F05FF87B
S315020049180130D7D00A25D7E72246284600F057F8AD
S315020049280130E7D1CEE7013EE4E723685A1C22604C
S315020049380A221A70EEE70000024B01461868FFF7D2
S31502004948A5BF00BF1400002210B50C46B1F90E101F
S3150200495800F000F90028ABBF636DA3891B1823F486
S315020049688053ACBF6365A38110BD2DE9F0411F4694
S315020049788B8905460C46DB05164605D50223002219
S31502004988B1F90E1000F0D4F8A3893246B4F90E1024
S31502004998284623F48053A3813B46BDE8F04100F044
S315020049A8EBB810B50C46B1F90E1000F0C1F8431C6D
S315020049B8A38915BF606523F4805343F48053A3810A
S315020049C818BFA38110BDB1F90E1000F0A1B8F8B551
S315020049D80E461446054618B1036A0BB9FFF70EFFD1
S315020049E8A369A360A3891A0701D5236943B9214696
S315020049F8284600F02BF818B14FF0FF373846F8BDB5
S31502004A082368F6B222693746981A6369834205DC37
S31502004A182146284601F012FD0028EDD1A368013B84
S31502004A28A36023685A1C22601E70431C62699A425C
S31502004A3804D0A389DB07E1D50A2EDFD12146284611
S31502004A4801F0FCFC0028D9D0D6E7000038B5294B7E
S31502004A5805460C46186818B1036A0BB9FFF7CEFE6D
S31502004A68B4F90C30190722D4DA0607D409222A60C7
S31502004A7843F040034FF0FF30A38133E0580712D5C5
S31502004A88616B41B104F14403994202D0284600F011
S31502004A988DFE00236363A38923F02403A3810023E5
S31502004AA8636023692360A38943F00803A38123690A
S31502004AB84BB9A38903F42073B3F5007F03D02146CB
S31502004AC8284601F008FDB4F90C3013F001020AD0A9
S31502004AD80022A26062695242A261226942B913F0B7
S31502004AE88000C5D138BD990758BF6269A260F4E74C
S31502004AF80020F7E71400002202440346934200D13D
S31502004B08704703F8011BF9E7004870475401002271
S31502004B1838B50023054D044608462B6001F07EFD94
S31502004B28431C02D12B6803B1236038BD08650022F5
S31502004B3838B50446064D0846114600222A601A462A
S31502004B4801F084FD431C02D12B6803B1236038BDF2
S31502004B580865002238B50446064D08461146002265
S31502004B682A601A4601F07AFD431C02D12B6803B16A
S31502004B78236038BD0865002238B50446064D084646
S31502004B88114600222A601A46FBF7CCFB431C02D1C7
S31502004B982B6803B1236038BD08650022014B1868EB
S31502004BA8704700BF14000022704770477047C9B2A9
S31502004BB80346024410B59342184601D1002003E089
S31502004BC8047801338C42F6D110BD0A44431E914241
S31502004BD800D1704710B511F8014B914203F8014F05
S31502004BE8F9D110BD034613F8012B002AFBD1181A76
S31502004BF8013870472DE9F74F036907460C69A34246
S31502004C08C0F28380013C00F1140501F11408A300E7
S31502004C1855F8242008EB8409009305EB84030193D5
S31502004C2858F8243001339A42B2FBF3F631D34FF0E7
S31502004C38000AC446AE46D3465CF8043B98B2E14540
S31502004C484FEA134306FB00A04FEA104280B206FB66
S31502004C580323DEF8002092B24FEA134AA2EB0002BF
S31502004C689BB2DEF800005A44C3EB224392B203EB2E
S31502004C78104342EA03424FEA234B4EF8042BDBD297
S31502004C88009BEB582BB9019B043B9D421A4630D335
S31502004C983C61384601F000F9002826DB2946002047
S31502004CA858F8042BD1F800C01FFA82FEC1451FFA34
S31502004CB88CF34FEA1242A3EB0E030344C2EB2342E0
S31502004CC89BB202EB1C4243EA02434FEA224041F8F6
S31502004CD8043BE5D255F8242005EB840322B9043BAC
S31502004CE89D421A460BD33C610136304603B0BDE8F5
S31502004CF8F08F1268043B002ACAD1013CC5E7126844
S31502004D08043B002AEFD1013CEAE70020EEE7000067
S31502004D182DE9F04FC76981462DED028B91B055EC0E
S31502004D28104B1C9E069109920C938DED020B7FB9CE
S31502004D38102000F085FD0246C9F81C0020B99E4BDA
S31502004D48EF219E48FDF7A2F9C0E901770760C7601F
S31502004D58D9F81C30196859B15A6801234846934054
S31502004D684A608B6000F062FED9F81C3000221A6095
S31502004D782B1EB7BF23F00043002301220393ACBFC7
S31502004D88336032608E4B039EB34310D142F20F73E7
S31502004D980C9A1360C6F31303234300F0D5841D9BB4
S31502004DA8884F002B00F0D784FB1C00F0D2BC9DED87
S31502004DB8028BB5EE408BF1EE10FA0AD101230C9A5A
S31502004DC813601D9B13B1804B1D9A13607F4F00F031
S31502004DD8C2BC0EAAB0EE480B0FA9484601F010F95C
S31502004DE8C6F30A530E9A0190002B45D018EE901A74
S31502004DF8B0EE487BA3F2FF330025C1F3130141F05D
S31502004E087F5141F44011B7EE086B07EE901A9FEDF9
S31502004E18645B37EE467B9FED646BA7EE056B07EE88
S31502004E28903AB8EEE74B9FED625BB0EE467BA4EE96
S31502004E38057BB5EEC07BFDEEC76BF1EE10FA16EEFA
S31502004E48908A08D5B8EEE66BB4EE476BF1EE10FA27
S31502004E5818BF08F1FF38B8F1160F2DD85C4901EBD7
S31502004E68C80191ED007BB4EEC78BF1EE10FA01D5BD
S31502004E7808F1FF38002120E00F9B0125134403F2B5
S31502004E8832412029C9BFC1F14001C1F120018E403A
S31502004E9803F21241D8BF04FA01F103F1FF33C4BF8A
S31502004EA824FA01F1314307EE901AB8EE677B17EE42
S31502004EB8901AA1F1F871A6E70121D21A0B91531E95
S31502004EC8059345BFC2F10103002200230592B8F1FA
S31502004ED8000F17DB059ACDF8288042440592002276
S31502004EE80792069A092A42D8052AC5BF043A002417
S31502004EF801240692069A023A032A43D8DFE802F008
S31502004F083335160AC8F10002A3EB080307920022FA
S31502004F180A92E6E701220892099A08EB020B0BF1BC
S31502004F28010A5246012AB8BF012206E00122089266
S31502004F38099A002A29DD93469246D9F81C7000215F
S31502004F48042000F11406964226D97960484604934D
S31502004F5800F02CFD049B074600283DD11D4B024656
S31502004F6840F2AF11EDE60022E1E70022D3E7012481
S31502004F780022089406924FF0FF3B00211222DA46DD
S31502004F880991DAE701220892F5E74FF0010BDA46B2
S31502004F985A46CDF824B0D0E701314000D1E700BF28
S31502004FA861436F63A787D23FB3C8608B288AC63F1F
S31502004FB8FB799F501344D33F95710002AC710002EE
S31502004FC80000F07F917100026571000264710002AF
S31502004FD8C072000205720002D9F81C20BAF10E0F3F
S31502004FE810606ED8002C6CD0B8F1000F40F3B48074
S31502004FF808F00F01C74A18F4807F02EBC1024FEA94
S31502005008281192ED007B00F09B80C34A01F00F0144
S3150200501892ED086B032288EE066B8DED026BBE4895
S31502005028002940F08F809DED026B86EE077B8DEDA1
S31502005038027B0B999DED027B002900F0B380B7EE47
S31502005048006BB4EEC67BF1EE10FA40F1AB80BAF112
S31502005058000F00F0A780BBF1000F30DDB2EE046B43
S3150200506808F1FF3101325C46049127EE067B8DED8D
S31502005078027B07EE902AB1EE0C5B9DED026BB8EE51
S31502005088E77BA7EE065B15EE902A51EC150BA2F10B
S315020050985071002C40F08A80B1EE047B36EE476BE5
S315020050A841EC170BB4EEC76BF1EE10FA00F35D8212
S315020050B8B1EE477BB4EEC76BF1EE10FA23D48DED51
S315020050C8028B0F990029C0F22981B8F10E0F00F35D
S315020050D82581904B03EBC80393ED006B099B002BCC
S315020050E880F2C880BAF1000F00F3C4800BD1B1EE8A
S315020050F8047B26EE076B9DED027BB4EEC76BF1EEE1
S3150200510810FAC0F22F8200242546099B3E46DB434D
S3150200511804934FF000082146484600F087FC002D0C
S3150200512800F0A280B8F1000F05D0A84503D0414689
S31502005138484600F07BFC2946484600F077FC93E097
S3150200514802226CE7CC0704D5013290ED006B27EEFC
S31502005158067B4910083063E722D0C8F100016D4A80
S31502005168002401F00F00091102EBC0026A4892ED11
S31502005178007B022228EE077B8DED027B29B9002CE3
S315020051883FF457AF8DED027B53E7CE0705D50132C3
S31502005198012490ED006B27EE067B49100830EDE7F7
S315020051A8022246E75446CDF8108062E7594A02EBD6
S315020051B8C4023C4412ED024B089A41EC170B4AB35F
S315020051C8B6EE003B3E46B7EE002B83EE045BB2EE2C
S315020051D8043B35EE477BFDEEC64BB8EEE45B14EEB8
S315020051E8902A303236EE456B06F8012BB4EEC76BC1
S315020051F8F1EE10FA38D432EE465BB4EEC75BF1EE46
S3150200520810FA6ED4A6423FF45AAF27EE037B26EE77
S31502005218036BE0E727EE047B21463E46B2EE043BEB
S31502005228FDEEC64B14EE902AB8EEE45B303236EE4B
S31502005238456B06F8012BA64219D1B6EE005B37EE8E
S31502005248054BB4EEC46BF1EE10FA4ADC35EE475B59
S31502005258B4EEC56BF1EE10FA7FF531AF0E460139A1
S3150200526816F8013C302BF9D0DDF8108027E026EE3F
S31502005278036BD5E79DED027BB2EE044B3E4687EE05
S31502005288065BBDEEC55B15EE103AB8EEC53B30338C
S31502005298A3EE467B06F8013BF31B9A4532D137EE5D
S315020052A8077BB4EEC67BF1EE10FA18DCB4EE467B49
S315020052B8F1EE10FA03D115EE103ADB070FD4019975
S315020052C8484600F0B3FB00230C9A337008F1010339
S315020052D813601D9B002B00F03E821E603BE2CDF858
S315020052E8108033461E4613F8012D392A06D19F42ED
S315020052F8F8D1049A0132049230223A701A780132AD
S315020053081A70B1E727EE047BB5EE407BF1EE10FA90
S31502005318B5D1D4E7C072000298720002089A002A30
S3150200532800F0E580069A012A00F3C680002D00F0F7
S31502005338BF8001F23341079C1E460B44484604933C
S31502005348059B0B440121059300F026FC049B0546A8
S3150200535856B1059A002A07DDB2420599A8BF324618
S315020053689B1AB61A8A1A0592079A12B3089A002A3B
S3150200537800F0C1809CB12946224648460D9300F0AA
S31502005388C5FC019A01460546484600F01BFC0199F0
S315020053980490484600F04AFB049A0D9B0192079A2C
S315020053A8121B06D004930199484600F0AFFC049BF1
S315020053B8019001214846049300F0EEFB0A9A04463E
S315020053C8049B002A00F0CD810146484600F09EFC67
S315020053D8069B0446012B049B00F39480029A002A3A
S315020053E840F08C80039AC2F31302002A40F08880A8
S315020053F8039A22F00042120D120522B1059A0133D0
S3150200540801320592012207920A9A002A00F0AF8118
S315020054182269049304EB8202106900F071FB049B73
S31502005428C0F12000059A104410F01F0075D0C0F193
S315020054382002042A69DDC0F11C00059A03440244CD
S3150200544806440592002B05DD1A460199484600F0E6
S31502005458B7FC0190059B002B05DD21461A464846F6
S3150200546800F0AEFC04460B9B002B58D0214601984F
S3150200547800F012FD002852DA08F1FF330A220199D8
S3150200548848460493002300F0F3FA089B0190002B88
S3150200549800F06F81294600230A22484600F0E8FAFE
S315020054A8BBF1000F054666DC069B022B40DC62E078
S315020054B80E99C1F136013EE70AF1FF34079AA24274
S315020054C807DBBAF1000FA2EB04040CDB1E465146B9
S315020054D833E7079A1E460A99A21A0794002411442A
S315020054E80A91514629E7A3EB0A06002125E7079CFC
S315020054F81E46089D2CE7079A049354E7002282E782
