S015000052413850315F544553545F41492E737265633B
S31502000000A0600022B953000245510002B553000216
S31502000010B5530002B5530002B5530002B5530002B0
S31502000020000000000000000000000000B5530002BE
S31502000030B553000200000000B5530002B55300029A
S31502000040F92B0002CD330002253300025D34000293
S31502000050A93400029D4200023144000255450002C5
S30D0200006039460002BD4A000206
S315020000680100FFFF00000000000000001C00002243
S3150200007800000000000000000000000028610822BD
S31502000088104000000100000000000000000000000F
S3150200009803000000CC6208223C0000220000000097
S315020000A8CC620822346308229C63082200000000FE
S315020000B80000000000000000000000000000000030
S315020000C80000000000000000000000000000000020
S315020000D80000000000000000000000000000000010
S30D020000E8000000000000000008
S315020000F00348044B834202D0034B03B118477047AF
S31502000100880000228800002200000000064B0749F2
S31502000110C91A891048BF0131491003D0044B0BB1EB
S3150200012001481847704700BF880000228800002255
S315020001300000000010B5064C237843B9FFF7D8FF3C
S31502000140044B13B10448AFF300800123237010BDA2
S31502000150D06000220000000028F1C90208B5054B54
S315020001601BB105490548AFF30080BDE80840FFF71B
S31502000170CDBF00BF00000000D460002228F1C902F2
S3150200018010B10379022B00D070470122014B1A707D
S31502000190704700BF0000002270B5151E10DD91B138
S315020001A00A4B4FF0000C9868094C06461868B3686B
S315020001B084F800C098472378002BFCD0284670BDEF
S315020001C00025284670BD0D46284670BD9CA607022E
S315020001D0000000224FF0FF30704700BF002070473A
S315020001E04FF0FF30704700BF002070470120704774
S315020001F02DE9F04F2DED0A8BDA489BB005F07CFC19
S31502000200D949DA4802F08AFC002800F03982014610
S31502000210D74805F009FC00F0CFFC022000F014FBE1
S31502000220002000F0D7FB4FF6FF7410234FF4FC6258
S315020002300021D048D04D02950480CDE90032CF4C42
S31502000240CF4A21800846128801F068FE02F04AF879
S315020002500446002840F00B820DF1260001F066FFED
S31502000260BDF82610C74805F0DFFB204601F0E8FF7F
S31502000270012001F0C3FF02F0A1F801F087FE06900B
S3150200028001F08EFE82464FF4002305224FF44041D0
S31502000290BD4805F0C9FBBD4805F02EFCDFEDBC8A62
S315020002A00594DFEDBC9A9FEDBC9A54464FF4163185
S315020002B0BA4802F089F8002840F0AE814FF4FA708D
S315020002C002F0ACF886460028F0D140F29C5B4FF46F
S315020002D0B07A40F2DB29DDF81880079445464FF0E4
S315020002E0000C8027AD4B4FEAEE1606EB860603EBB3
S315020002F0C6164FEAEC1313F0010F23F0010306EBC7
S31502000300430240F21674507816F81310D37808BFD9
S315020003100346907880390AFB01F2803804FB01F12A
S315020003200BFB00F409FB00F0A3EBA22203EBA424CF
S31502000330A2EBA02203EBA123033584F3080482F384
S31502000340080283F30803013F0CF5A07C05F8034C71
S3150200035005F8022C05F8013CCBD10EF1F00EBEF5E4
S31502000360F04F08F5C078B9D18D4D079C2B78C3B9EB
S3150200037001204FF000468B4B8B49D3F8042E0243E3
S31502000380C3F8042ED1F8FC2042F08072C1F8FC209A
S31502000390D3F8042E42F00402C3F8042EC3F8006C0C
S315020003A02870804E7E4D0020F76F01F003FE2B78F9
S315020003B0BBB901214FF00040D6F8043E7A4A0B43FE
S315020003C0C6F8043ED2F8FC3043F08073C2F8FC3023
S315020003D0D6F8043E43F00403C6F8043EC6F8000C01
S315020003E029702379F6EE00BA06EE903AF8EEE66A3E
S315020003F066EEA86AF4EEEB6AF1EE10FA694B227821
S31502000400DE6F637808EE102A0BEE103AA378B7EE89
S31502000410E6AA07EE903AE378A6EB070607EE103A4D
S3150200042040F30181B8EEC88AB8EECBBA28EE288A24
S31502000430B8EEC77A28EE295A2BEE28BAF8EEE77AF2
S3150200044027EE28CA6BEE095A67EEA8CAFDEEC57AF0
S315020004502CEEA96A17EE901A6CEE096AFDEEE57AA1
S31502000460FDEEE66A17EE902AFDEEC67ACDED006A3B
S3150200047017EE903A8DED02AB4C4805F0D5FA009690
S3150200048000263F4D40214A4A059B0AA805F03CFB3F
S315020004902A88304637232821009601F06DFA282152
S315020004A04FF00C0B4FF6FF7730460DEB01062A880C
S315020004B00E23CDE90176CDF800B001F02FFD298893
S315020004C06B8806EE901A6CEEAB7AB8EEE65A06EE3A
S315020004D0903AF8EEE65A77EE886A66EE856A2CEE70
S315020004E02B7A78EE677AFDEEE66A67EE857A3BEE60
S315020004F0476A16EE902A26EE256AFDEEE77A37EE71
S315020005000B7A914201F1FF3627EE257AD8BF3246A1
S3150200051017EE906AFDEEC67A17EE908AFDEEC77A5E
S3150200052017EE907A581EBB42D8BF07464FF4784959
S3150200053028EAE87826EAE676B6B295B21FFA88FA8B
S31502000540BFB22A46534651463046CDF8009001F0D6
S3150200055001FB2A4628463B465146CDF8009001F05B
S31502000560F9FA27E0D48100028CA6070204000022D1
S31502000570F0810002FE6000220C82000202000022CC
S31502000580F0600022288200023C82000260820002A1
S315020005900000803B0000A04300007043000000689A
S315020005A0EC600022003000E000ED00E0688200020C
S315020005B09482000228463B4632463946CDF80090E0
S315020005C001F0C8FA5346324639463046CDF8009015
S315020005D001F0C0FA40212C4A8DED00AB0AA805F0C5
S315020005E093FA41460A29B8BF0A210AAD0A393C22C2
S315020005F05B463046CDE90195CDF800B089B201F0EF
S315020006008DFC059B4FF4163101332048059301F00A
S31502000610DBFE00283FF452AE4FF47A714FF4967027
S3150200062004F04CFD42E653EC1A2B194805F0FCF98E
S3150200063000960026174D059B4021174A0AA805F089
S3150200064063FA2A88304637232821009601F094F966
S3150200065028214FF6FF7C0C272A880DEB01050E2375
S315020006603046CDE901C5009701F058FCC9E70146BD
S315020006700A481BB0BDEC0A8BBDE8F04F05F0D4B9B1
S31502000680074805F039FAC6E5BC8200020000006898
S31502000690A4820002F0600022948200021882000204
S315020006A000820002024BD3E9011218681268104751
S315020006B05CA70702012802D0022804D0704701462F
S315020006C0064804F077BD08B50549064803F0FAFA6C
S315020006D0BDE80840012004F003BE00BFA5060002E3
S315020006E030A807022061082270B508250446154E77
S315020006F0002240F20261304603F004FA0121084664
S3150200070004F0DCFC23064CBF0122002240F2016108
S31502000710304603F0F7F90121084604F0CFFC012226
S3150200072040F202613046944003F0ECF9012108469A
S3150200073004F0C4FC681E10F0FF05E4B2D8D12846C6
S3150200074070BD00BF2061082238B504460D4D002257
S3150200075040F20361284603F0D5F9012240F2056111
S31502000760284603F0CFF9200AFFF7BEFFE0B2FFF7F3
S31502000770BBFF2846BDE83840012240F2036103F080
S31502000780C1B900BF2061082210B5124C012240F205
S315020007900461204603F0B6F94FF47A710A2004F098
S315020007A08DFC002240F20461204603F0ABF94FF4BF
S315020007B07A71322004F082FC40F204612046012262
S315020007C003F0A0F9BDE810404FF47A71782004F0E6
S315020007D075BC00BF2061082210B51A4C012240F2F6
S315020007E00361204603F08EF9012240F2026120469F
S315020007F003F088F9012240F20161204603F082F9F2
S31502000800012240F20461204603F07CF9012240F203
S315020008100361204603F076F9012240F20561204683
S3150200082003F070F9002240F20F71204603F06AF9D4
S31502000830FFF7AAFF2046BDE81040012240F20F71E1
S3150200084003F060B920610822022870B500F0AE807C
S31502000850032800F0B18001284FF0F0014FF00000AC
S315020008604FF4A0720CBF0225FF252B23554CA07115
S31502000870554821806280A060002240F203615348FD
S31502000880A38103F03FF9002240F205614F4803F0CD
S3150200089039F92A20FFF728FF012240F203614B486B
S315020008A003F030F9002240F20361484803F02AF9C6
S315020008B0012240F20561454803F024F90020FFF7C2
S315020008C013FF0020FFF710FF012240F203613F48A9
S315020008D003F018F92088013880B2FFF735FFA689A0
S315020008E0002240F20361394803F00CF9002240F27B
S315020008F00561364803F006F9F0B2FFF7F5FE01226C
S3150200090040F20361314803F0FDF8002240F2036130
S315020009102E4803F0F7F8012240F205612B4803F056
S31502000920F1F80020FFF7E0FE0020FFF7DDFE0122CE
S3150200093040F20361254803F0E5F86088013880B289
S31502000940FFF702FF062D8CBF0024214B4FF0000259
S3150200095040F203611D4898BF13F8154003F0D2F820
S31502000960002240F20561194803F0CCF83620FFF761
S31502000970BBFE012240F20361144803F0C3F80022D1
S3150200098040F20361114803F0BDF8012240F205610D
S315020009900E4803F0B7F82046FFF7A6FEBDE8704002
S315020009A0012240F20361094803F0ACB801204FF47A
S315020009B0A071F022042558E701204FF4A071F0221D
S315020009C0052552E7F06000222C002A002061082249
S315020009D0DC8300022DE9F041754C0022B4F80A804E
S315020009E040F20361064673482788658803F08AF851
S315020009F0002240F205616F4803F084F85FFA88F03E
S31502000A00FFF772FE012240F203616A4803F07AF8A8
S31502000A10002240F20361674803F074F8012240F2B3
S31502000A200561644803F06EF80020FFF75DFE013FA2
S31502000A300020FFF759FEBFB2012240F203615D4872
S31502000A4003F060F83846FFF77FFEA789002240F2DE
S31502000A500361584803F056F8002240F205615548F2
S31502000A6003F050F8F8B2FFF73FFE012240F20361AD
S31502000A70504803F047F8002240F203614D4803F064
S31502000A8041F8012240F205614A4803F03BF8002092
S31502000A90FFF72AFE013D0020FFF726FEADB2012236
S31502000AA040F20361434803F02DF82846FFF74CFE57
S31502000AB0638825886789002240F203613D4803FB6B
S31502000AC005F503F01FF8002240F20561394803F0EC
S31502000AD019F8F8B2FFF708FE012240F20361354821
S31502000AE003F010F8002240F20361324803F00AF8DC
S31502000AF0012240F205612F4803F004F80020FFF7B7
S31502000B00F3FD0020FFF7F0FD012240F203612948C0
S31502000B1002F0F8FFA789002240F20361254802F09D
S31502000B20F1FF002240F20561224802F0EBFFF8B223
S31502000B30FFF7DAFD012240F203611E4802F0E2FFEE
S31502000B40002240F203611B4802F0DCFF012240F260
S31502000B500561184802F0D6FF0020FFF7C5FD002008
S31502000B60FFF7C2FD012240F20361124802F0CAFFFA
S31502000B70002240F2036124890E4802F0C3FF0022DC
S31502000B8040F205610B4802F0BDFFE0B2FFF7ACFD93
S31502000B90012240F20361074802F0B4FF35B1002496
S31502000BA030460134FFF7D0FDA542F9D1BDE8F08108
S31502000BB0F06000222061082210B5FD4CFFF70CFE02
S31502000BC0002240F20361204602F09CFF002240F21E
S31502000BD00561204602F096FF0120FFF785FD0122FE
S31502000BE040F20361204602F08DFF4FF47A71322003
S31502000BF004F064FA4FF47A71322004F05FFA0022AC
S31502000C0040F20361204602F07DFF002240F20561B8
S31502000C10204602F077FFCF20FFF766FD012240F261
S31502000C200361204602F06EFF002240F20361204675
S31502000C3002F068FF012240F20561204602F062FFDF
S31502000C400020FFF751FD012240F20361204602F027
S31502000C5059FF002240F20361204602F053FF0122AF
S31502000C6040F20561204602F04DFFD920FFF73CFD18
S31502000C70012240F20361204602F044FF002240F2C4
S31502000C800361204602F03EFF012240F20561204642
S31502000C9002F038FF3020FFF727FD012240F2036100
S31502000CA0204602F02FFF002240F20361204602F0A6
S31502000CB029FF002240F20561204602F023FFED20C3
S31502000CC0FFF712FD012240F20361204602F01AFFED
S31502000CD0002240F20361204602F014FF012240F294
S31502000CE00561204602F00EFF6420FFF7FDFC01229B
S31502000CF040F20361204602F005FF002240F2036142
S31502000D00204602F0FFFE012240F20561204602F073
S31502000D10F9FE0320FFF7E8FC012240F203612046B8
S31502000D2002F0F0FE002240F20361204602F0EAFEE3
S31502000D30012240F20561204602F0E4FE1220FFF78E
S31502000D40D3FC012240F20361204602F0DBFE0022C0
S31502000D5040F20361204602F0D5FE012240F205610F
S31502000D60204602F0CFFE8120FFF7BEFC012240F2B0
S31502000D700361204602F0C6FE002240F203612046CD
S31502000D8002F0C0FE002240F20561204602F0BAFEE1
S31502000D90E820FFF7A9FC012240F20361204602F097
S31502000DA0B1FE002240F20361204602F0ABFE0122B0
S31502000DB040F20561204602F0A5FE8520FFF794FC6D
S31502000DC0012240F20361204602F09CFE002240F21C
S31502000DD00361204602F096FE012240F2056120469A
S31502000DE002F090FE1020FFF77FFC012240F2036121
S31502000DF0204602F087FE002240F20361204602F0FE
S31502000E0081FE012240F20561204602F07BFE782037
S31502000E10FFF76AFC012240F20361204602F072FEED
S31502000E20002240F20361204602F06CFE002240F2EC
S31502000E300561204602F066FECB20FFF755FC012233
S31502000E4040F20361204602F05DFE002240F2036199
S31502000E50204602F057FE012240F20561204602F0CA
S31502000E6051FE3920FFF740FC012240F20361204681
S31502000E7002F048FE002240F20361204602F042FEE2
S31502000E80012240F20561204602F03CFE2C20FFF7CB
S31502000E902BFC012240F20361204602F033FE0022BF
S31502000EA040F20361204602F02DFE012240F2056166
S31502000EB0204602F027FE0020FFF716FC012240F230
S31502000EC00361204602F01EFE002240F20361204624
S31502000ED002F018FE012240F20561204602F012FEDF
S31502000EE03420FFF701FC012240F20361204602F0A2
S31502000EF009FE002240F20361204602F003FE0122AF
S31502000F0040F20561204602F0FDFD0220FFF7ECFBF0
S31502000F10012240F20361204602F0F4FD002240F273
S31502000F200361204602F0EEFD002240F205612046F2
S31502000F3002F0E8FDF720FFF7D7FB012240F203613A
S31502000F40204602F0DFFD002240F20361204602F055
S31502000F50D9FD012240F20561204602F0D3FD202090
S31502000F60FFF7C2FB012240F20361204602F0CAFDEE
S31502000F70002240F20361204602F0C4FD002240F244
S31502000F800561204602F0BEFDEA20FFF7ADFB012215
S31502000F9040F20361204602F0B5FD002240F20361F1
S31502000FA0204602F0AFFD012240F20561204601E033
S31502000FB02061082202F0A6FD0020FFF795FB012220
S31502000FC040F20361204602F09DFD002240F20361D9
S31502000FD0204602F097FD012240F20561204602F00A
S31502000FE091FD0020FFF780FB012240F203612046BB
S31502000FF002F088FD002240F20361204602F082FDE3
S31502001000002240F20561204602F07CFDC020FFF777
S315020010106BFB012240F20361204602F073FD0022BF
S3150200102040F20361204602F06DFD012240F20561A5
S31502001030204602F067FD2120FFF756FB012240F20F
S315020010400361204602F05EFD002240F20361204663
S3150200105002F058FD002240F20561204602F052FDE0
S31502001060C120FFF741FB012240F20361204602F054
S3150200107049FD002240F20361204602F043FD0122AF
S3150200108040F20561204602F03DFD1220FFF72CFBDF
S31502001090012240F20361204602F034FD002240F2B2
S315020010A00361204602F02EFD002240F20561204631
S315020010B002F028FDC520FFF717FB012240F203616B
S315020010C0204602F01FFD002240F20361204602F094
S315020010D019FD012240F20561204602F013FD32207D
S315020010E0FFF702FB012240F20361204602F00AFDED
S315020010F0002240F20361204602F004FD012240F282
S315020011000561204602F0FEFC3C20FFF7EDFA0122C3
S3150200111040F20361204602F0F5FC002240F2036130
S31502001120204602F0EFFC002240F20561204602F062
S31502001130E9FCC720FFF7D8FA012240F203612046F4
S3150200114002F0E0FC002240F20361204602F0DAFCE3
S31502001150012240F20561204602F0D4FCC120FFF7CD
S31502001160C3FA012240F20361204602F0CBFC0022C0
S3150200117040F20361204602F0C5FC002240F20561FE
S31502001180204602F0BFFC3620FFF7AEFA012240F2FB
S315020011900361204602F0B6FC002240F203612046BB
S315020011A002F0B0FC012240F20561204602F0AAFCE0
S315020011B00020FFF799FA012240F20361204602F06D
S315020011C0A1FC002240F20361204602F09BFC0022B1
S315020011D040F20561204602F095FC3A20FFF784FAB8
S315020011E0012240F20361204602F08CFC002240F20A
S315020011F00361204602F086FC012240F20561204688
S3150200120002F080FC5520FFF76FFA012240F20361DB
S31502001210204602F077FC002240F20361204602F0EB
S3150200122071FC002240F20561204602F06BFCB120FF
S31502001230FFF75AFA012240F20361204602F062FCED
S31502001240002240F20361204602F05CFC012240F2D9
S315020012500561204602F056FC0020FFF745FA0122FE
S3150200126040F20361204602F04DFC002240F2036187
S31502001270204602F047FC012240F20561204602F0B8
S3150200128041FC1820FFF730FA012240F203612046A2
S3150200129002F038FC002240F20361204602F032FCE2
S315020012A0002240F20561204602F02CFCB620FFF730
S315020012B01BFA012240F20361204602F023FC0022BF
S315020012C040F20361204602F01DFC012240F2056154
S315020012D0204602F017FC0A20FFF706FA012240F226
S315020012E00361204602F00EFC002240F20361204612
S315020012F002F008FC012240F20561204602F002FCDF
S31502001300A220FFF7F1F9012240F20361204602F022
S31502001310F9FB002240F20361204602F0F3FB0022B1
S3150200132040F20561204602F0EDFBF220FFF7DCF900
S31502001330012240F20361204602F0E4FB002240F261
S315020013400361204602F0DEFB012240F205612046DF
S3150200135002F0D8FB0020FFF7C7F9012240F2036131
S31502001360204602F0CFFB002240F20361204602F043
S31502001370C9FB002240F20561204602F0C3FB26208B
S31502001380FFF7B2F9012240F20361204602F0BAFBEE
S31502001390002240F20361204602F0B4FB012240F231
S315020013A00561204602F0AEFB0120FFF79DF90122FE
S315020013B040F20361204602F0A5FB002240F20361DF
S315020013C0204602F09FFB002240F20561204602F011
S315020013D099FBE020FFF788F9012240F203612046DB
S315020013E002F090FB002240F20361204602F08AFBE3
S315020013F0012240F20561204602F084FB0F20FFF72E
S3150200140073F9012240F20361204602F07BFB0022BF
S3150200141040F20361204602F075FB012240F20561AB
S31502001420204602F06FFB2020FFF75EF9012240F210
S315020014300361204602F066FB002240F20361204669
S3150200144002F060FB012240F20561204602F05AFBDF
S315020014501E20FFF749F9012240F20361204602F0FD
S3150200146051FB002240F20361204602F04BFB0122AF
S3150200147040F20561204602F045FB0920FFF734F9E8
S31502001480012240F20361204602F03CFB002240F2B8
S315020014900361204602F036FB012240F20561204636
S315020014A002F030FB1220FFF71FF9012240F203611E
S315020014B0204602F027FB002240F20361204602F09A
S315020014C021FB012240F20561204602F01BFB0B20A4
S315020014D0FFF70AF9012240F20361204602F012FBED
S315020014E0002240F20361204602F00CFB012240F288
S315020014F00561204602F006FB5020FFF7F5F80122AF
S3150200150040F20361204602F0FDFA002240F2036136
S31502001510204602F0F7FA012240F20561204602F067
S31502001520F1FABA20FFF7E0F8012240F20361204601
S3150200153002F0E8FA002240F20361204602F0E2FAE3
S31502001540012240F20561204602F0DCFA4420FFF750
S31502001550CBF8012240F20361204602F0D3FA0022C0
S3150200156040F20361204602F0CDFA012240F2056103
S31502001570204602F0C7FA0920FFF7B6F8012240F228
S315020015800361204602F0BEFA002240F203612046C1
S3150200159002F0B8FA012240F20561204602F0B2FAE0
S315020015A01420FFF7A1F8012240F20361204602F05F
S315020015B0A9FA002240F20361204602F0A3FA0122B0
S315020015C040F20561204602F09DFA0520FFF78CF8ED
S315020015D0012240F20361204602F094FA002240F210
S315020015E00361204602F08EFA012240F2056120468E
S315020015F002F088FA2320FFF777F8012240F203610E
S31502001600204602F07FFA002240F20361204602F0F1
S3150200161079FA012240F20561204602F073FA21208E
S31502001620FFF762F8012240F20361204602F06AFAED
S31502001630002240F20361204602F064FA012240F2DF
S315020016400561204602F05EFA0020FFF74DF80122FE
S3150200165040F20361204602F055FA002240F203618D
S31502001660204602F04FFA002240F20561204602F0BF
S3150200167049FAE120FFF738F8012240F203612046D9
S3150200168002F040FA002240F20361204602F03AFAE2
S31502001690012240F20561204602F034FA0020FFF7EB
S315020016A023F8012240F20361204602F02BFA0022BF
S315020016B040F20361204602F025FA012240F205615A
S315020016C0204602F01FFA1920FFF70EF8012240F217
S315020016D00361204602F016FA002240F20361204618
S315020016E002F010FA012240F20561204602F00AFADF
S315020016F01920FEF7F9FF012240F20361204602F0AB
S3150200170001FA002240F20361204602F0FBF90122AF
S3150200171040F20561204602F0F5F90020FEF7E4FFEB
S31502001720012240F20361204602F0ECF9002240F267
S315020017300361204602F0E6F9012240F205612046E5
S3150200174002F0E0F91220FEF7CFFF012240F2036118
S31502001750204602F0D7F9002240F20361204602F049
S31502001760D1F9012240F20561204602F0CBF90720A9
S31502001770FEF7BAFF012240F20361204602F0C2F9E7
S31502001780002240F20361204602F0BCF9012240F237
S315020017900561204602F0B6F92D20FEF7A5FF0122CB
S315020017A040F20361204602F0ADF9002240F20361E5
S315020017B0204602F0A7F9012240F20561204602F016
S315020017C0A1F92820FEF790FF012240F2036120468C
S315020017D002F098F9002240F20361204602F092F9E3
S315020017E0012240F20561204602F08CF93F20FEF705
S315020017F07BFF012240F20361204602F083F90022B8
S3150200180040F20361204602F07DF9012240F20561B1
S31502001810204602F077F90220FEF766FF012240F227
S315020018200361204602F06EF9002240F2036120466F
S3150200183002F068F9012240F20561204602F062F9DF
S315020018400A20FEF751FF012240F20361204602F010
S3150200185059F9002240F20361204602F053F90122AF
S3150200186040F20561204602F04DF90820FEF73CFFE2
S31502001870012240F20361204602F044F9002240F2BE
S315020018800361204602F03EF9012240F2056120463C
S3150200189002F038F92520FEF727FF012240F2036104
S315020018A0204602F02FF9002240F20361204602F0A0
S315020018B029F9012240F20561204602F023F92D2082
S315020018C0FEF712FF012240F20361204602F01AF9E6
S315020018D0002240F20361204602F014F9012240F28E
S315020018E00561204602F00EF90F20FEF7FDFE0122E9
S315020018F040F20361204602F005F9002240F203613C
S31502001900204602F0FFF8002240F20561204602F06E
S31502001910F9F81120FEF7E8FE012240F203612046A3
S3150200192002F0F0F84FF47A71782003F0C7FB002238
S3150200193040F20361204602F0E5F8002240F205611A
S31502001940204602F0DFF82920FEF7CEFE012240F201
S315020019500361204602F0D6F80220FEF775FF204604
S31502001960012240F20F7102F0CDF8BDE810404FF6A9
S31502001970FF70FFF72FB800BF2DE9F04781461546E5
S3150200198088461C46714F0022B7F80AA040F203614E
S315020019906F48BDF8206002F0B5F8002240F20561FA
S315020019A06B4802F0AFF85FFA8AF0FEF79DFE01225D
S315020019B040F20361664802F0A5F84846FEF7C4FE07
S315020019C0681E80B2FEF7C0FEB7F80CA0002240F2F5
S315020019D003615F4802F096F8002240F205615C4816
S315020019E002F090F85FFA8AF0FEF77EFE012240F2DC
S315020019F00361574802F086F84046FEF7A5FE601ED0
S31502001A0080B2FEF7A1FE002240F20361B7F808A0F9
S31502001A104F4802F077F8002240F205614C4802F086
S31502001A2071F85FFA8AF0FEF75FFEA4EB0804012262
S31502001A3040F203614648A5EB090502F063F804FB90
S31502001A4005F500223C8940F20361414802F05AF84A
S31502001A50002240F205613E4802F054F8E0B2FEF779
S31502001A6043FE012240F20361394802F04BF800249A
S31502001A7030460134FEF768FEA542F9D27C8900227F
S31502001A8040F20361324802F03DF8002240F205615D
S31502001A902F4802F037F8E0B2FEF726FE012240F2A6
S31502001AA003612B4802F02EF8002240F20361284817
S31502001AB002F028F8012240F20561254802F022F8D8
S31502001AC00020FEF711FE0020FEF70EFE012240F274
S31502001AD003611F4802F016F83888013880B2FEF713
S31502001AE033FEBC89002240F20361194802F00AF86B
S31502001AF0002240F20561164802F004F8E0B2FEF751
S31502001B00F3FD012240F20361114801F0FBFF0022BE
S31502001B1040F203610E4801F0F5FF012240F2056131
S31502001B200B4801F0EFFF0020FEF7DEFD0020FEF776
S31502001B30DBFD012240F20361054801F0E3FF7888EC
S31502001B40BDE8F047013880B2FEF7FEBDF060002224
S31502001B50206108222DE9F04F8246A2EB0A0E89B0D7
S31502001B60BEF1000F10468B46BDF848C0A3EB01023A
S31502001B7040F386800120002A40F38A80012396459D
S31502001B80F046B8BF90460793002637463546CDE95C
S31502001B90042C08F10103DFF82491474C0293CDF897
S31502001BA00CE00690B9F80A30002240F203612046A2
S31502001BB0019301F0A7FF002240F20561204601F0E1
S31502001BC0A1FF019B0135D8B2FEF78EFD012240F23C
S31502001BD00361204601F096FF1FFA8AF0FEF7B4FD74
S31502001BE0B9F80C30002240F203612046019301F05D
S31502001BF089FF002240F20561204601F083FF019B26
S31502001C00ADB2D8B2FEF770FD012240F20361204662
S31502001C1001F078FF1FFA8BF0FEF796FDB9F808304F
S31502001C20002240F203612046019301F06BFF00227D
S31502001C3040F20561204601F065FF019BD8B2FEF72E
S31502001C4053FD012240F20361204601F05BFF059835
S31502001C50FEF77AFD039B1F44049B47451E4403DDA2
S31502001C60069BA7EB08079A44464503DD079BA6EBAE
S31502001C7008069B44029B9D4294DD09B0BDE8F08FA5
S31502001C800BD0002AAAEB000E4FF0FF303FF776AFDB
S31502001C9005D107922EEAEE7876E770466BE7CA1A06
S31502001CA09645F046B8BF9046B8F1FF3FE5DB4FF0E8
S31502001CB0FF33079368E700BF20610822F060002225
S31502001CC02DE9F04F9846A2F1200318F0070218BF3B
S31502001CD001220E4602EBD8024FEA580112FB01F22C
S31502001CE089B012F0FF02BDF848E09DF84CA000F062
S31502001CF0F5808449DBB201EB031B5A44009034465B
S31502001D005846B34680490792804A03EB4305804F03
S31502001D1003EBC30301EB850102EB8302CDF818E066
S31502001D20B8F10C0F00F0DD80B8F1100F00F0DB8087
S31502001D30B8F1180F40F0D280157804F10809CDE900
S31502001D400312744E1FFA89F9059012E0BAF1000FD8
S31502001D5063D07B880134A4B26D00A342EDB240F297
S31502001D60BD80A4EB0B03434500F0BF804C4500F059
S31502001D70A9802B06EAD57B89002240F20361304610
S31502001D80019301F0BFFE002240F20561304601F0E8
S31502001D90B9FE019BD8B2FEF7A7FC012240F203610D
S31502001DA0304601F0AFFE0098FEF7CEFCBB8900225A
S31502001DB040F203613046019301F0A4FE002240F294
S31502001DC00561304601F09EFE019BD8B2FEF78CFCFF
S31502001DD0012240F20361304601F094FE2046FEF7EE
S31502001DE0B3FC3B89002240F203613046019301F0C5
S31502001DF089FE002240F20561304601F083FE019B16
S31502001E00D8B2FEF771FC012240F20361304601F0BE
S31502001E1079FE0698FEF798FC9BE73F4B52461B88D5
S31502001E2040F2036101937B893046029301F06AFE18
S31502001E30524640F20561304601F064FE029BD8B27A
S31502001E40FEF752FC012240F20361304601F05AFECF
S31502001E500098FEF779FCBB89524640F20361304690
S31502001E60029301F04FFE524640F20561304601F000
S31502001E7049FE029BD8B2FEF737FC012240F203610B
S31502001E80304601F03FFE2046FEF75EFC3B89524695
S31502001E9040F203613046029301F034FE524640F2AC
S31502001EA00561304601F02EFE029BD8B2FEF71CFCFD
S31502001EB0012240F20361304601F024FE0198FEF74A
S31502001EC043FC46E70598DDE90312079B0130984279
S31502001ED001F1010102F101027FF422AF09B0BDE86E
S31502001EE0F08F0D7829E7057827E7009B05980133DF
S31502001EF09BB21C46DDE9031200933B88A342EDD94F
S31502001F005C46E2E770770002607D0002106A00021A
S31502001F10F060002220610822020000222DE9F04F23
S31502001F20934685B0109D9DF838A02A78BDF83C707E
S31502001F30A2F120065E2E83440B4423D81FFA83F8AF
S31502001F40C3B2044689461FFA8BFB4FEA5A0603932D
S31502001F500FE000205346CDE9007049462046FFF7C0
S31502001F60AFFE15F8012F3444A2F120035E2BA4B272
S31502001F7008D8A34504D80AEB0901039C1FFA81F984
S31502001F80C145E6D305B0BDE8F08F00BF024B03485A
S31502001F901B681844704700BF88A60702206100220A
S31502001FA0024B03481B681844704700BF84A6070209
S31502001FB02061002200F04ABAF8B50F4E3378C3B951
S31502001FC00E4C0F4D0F4F09E02B7853B9013C0ED042
S31502001FD00121084603F072F8337813B93B78002BD7
S31502001FE0F2D02B78002B14BF12200020F8BD14204B
S31502001FF0F8BD034DF5E700BF16610022A186010078
S31502002000146100221561002203790122022B07D0F6
S31502002010032B02D0044B1A707047044B1A70704798
S31502002020034B1A70704700BF14610022166100222A
S31502002030156100220368012B05D10348034A0449AE
S3150200204003700B7053737047016100220461002212
S31502002050006100228446F0B58E4600230C4A83B006
S3150200206091680C4F0C4E0D4D9CFA9CFC8C681068C6
S3150200207001A90322ADF804C08DF806E03B70337067
S315020020802B70A04708B9FFF797FF03B0F0BD00BF5A
S31502002090DCA60702166100221561002214610022E5
S315020020A01E4B2DE9F0439E6886461B684FF0000CD6
S315020020B0184685B09EFA9EFEDFF86C90184F194DB1
S315020020C0012302228846B468ADF80CE003A989F818
S315020020D000C0019087F800C085F800C0A0470346FB
S315020020E018B1184605B0BDE8F083FFF765FF034651
S315020020F00028F6D189F80000414601220198746849
S315020021003B702B70A04703460028EAD1FFF754FF25
S315020021100346184605B0BDE8F08300BFDCA60702F9
S31502002120156100221461002216610022002210B5F8
S3150200213082B004460DF1060143F20A008DF806202C
S315020021408DF80720FFF7ACFF08B102B010BD43F2CD
S315020021500B000DF10701FFF7A3FF0028F5D19DF84B
S3150200216006209DF8073043EA022304B1238045F294
S315020021704062934218BF222002B010BD2DE9F04101
S3150200218006460D4643F60800110A90461F46FFF71B
S3150200219061FF5FFA88F1044643F60900FFF75AFF2A
S315020021A00346390A43F60A001C43FFF753FF034668
S315020021B0F9B243F60B001C43FFF74CFF0346310A04
S315020021C043F610001C43FFF745FF0346F1B243F600
S315020021D011001C43FFF73EFF0346290A43F612008D
S315020021E01C43FFF737FF0346E9B243F613001C43CD
S315020021F0FFF730FF2043BDE8F08100BF10B578B18C
S315020022000138012819D8002145F21F00FFF722FFE5
S31502002210302104464FF48640FFF71CFF204310BDD1
S31502002220012145F21F00FFF715FF6F2104464FF407
S315020022308640FFF70FFF204310BD032010BD00BFED
S3150200224008B5072805D8DFE800F0121D04042904A2
S315020022503506032008BD00214FF4F3634FF42262D2
S315020022600846FFF78BFF194B194A9A6008BD0021F1
S31502002270F0234FF4A0720846FFF780FF134B154A6E
S315020022809A6008BD00214FF4F0734FF4207208469D
S31502002290FFF774FF0D4B104A9A6008BD00214FF4F8
S315020022A034734FF4A0620846FFF768FF074B0B4AE8
S315020022B09A6008BD00214FF487634FF4F062084626
S315020022C0FFF75CFF014B064A9A6008BD04610022D3
S315020022D0200A98074001F0008002E0010005D002C2
S315020022E080073804F8B5314B9D681E682A68304667
S315020022F05968904720B10E28044601D02046F8BD01
S3150200230001223C2130462B69984704460028F5D124
S315020023104FF47A71142002F0D1FE802143F20800B4
S31502002320FFF798FE04460028E8D14FF47A7114208C
S3150200233002F0C4FE2046FFF7F9FE04460028DDD16E
S315020023401B4D4FF6FF7605F54F7708E0A978FFF7A4
S3150200235081FE04460028D1D10435AF4208D0288830
S31502002360B042F3D14FF47A71A87802F0A7FEF3E7F0
S3150200237000214FF4F0734FF420720846FFF7FEFE79
S315020023800C4D0D4B0446AB600028B7D1012145F236
S315020023901F00FFF75FFE6F2104464FF48640FFF7EA
S315020023A059FE0443AAD12C736C73A7E7DCA6070275
S315020023B0F0830002046100228002E001022143F25E
S315020023C00800FFF747BE00BFF0B12DE9F0410F4B01
S315020023D004469E681F680D4638463268596890471B
S315020023E018B10E2801D0BDE8F0810023084A214623
S315020023F014605560074C084D53732B702370384692
S31502002400B268BDE8F04110470220704718A70702DC
S3150200241004610022016100220061002200EB8000BB
S3150200242070B50024084E450006E0012164200134FF
S3150200243002F044FEA54204D33378002BF5D00020E7
S3150200244070BD142070BD00BF016100224FF400214F
S31502002450002370B54FF440451C4A98B01C4CCDE998
S315020024600A1102F58021CDE914132468194E04924B
S3150200247006920994059307930F930E960C9504A959
S3150200248091ED007F10AC84ED007FC8B902F1100017
S3150200249000250524104A09AB00931690CDE90145A3
S315020024A012680E490EAB0E4817950D9400F01EFBEE
S315020024B0A0F1FF30B0FA80F04009404218B070BD7A
S315020024C002F1100013611375E2E700BF20610022DA
S315020024D080A60702E08D0002D88D00023087000236
S315020024E02861082208B5FDF783FE002008BD00BF5B
S315020024F0704700BF2DE9F843089E082E42DC0024EF
S315020025008146154608464FF0FF32214698464FF05F
S31502002510FF37FFF7EDFF874274EB01012CD3D9F8A1
S315020025200030002E1861D9F800301D6214DDA8F1C2
S315020025300805A046F5E902012246FFF7D9FF8742C0
S3150200254078EB010112D304F11002D9F800300134FC
S31502002550A64243F83200EDD1D9F80020936803F081
S315020025600C0343F001039360BDE8F883A421084BF2
S31502002570084A094802F09AFD9821084B054A06487E
S3150200258002F094FD9421064B024A034802F08EFDA6
S31502002590408300023CA90702EC8200022883000263
S315020025A0C4820002704700BF0268936803F00C03FE
S315020025B043F00203936003685A685107C2F380002E
S315020025C012D45A68C2F30011D2060CD45A68C2F366
S315020025D0C010120606D45A68D20504D45868C0F34D
S315020025E040107047084670470020704710B4002418
S315020025F0D0E90112121BB1FA81F118BF01228446F9
S31502002600490942EA4102006862F30704C4601F4BAB
S31502002610DCF8001001E0013B02D04A681207FAD446
S315020026204B68C3F3C0001B0709D4DCF804304A6ABE
S31502002630B3FA83F3C2F340025B09934204D04FF02C
S31502002640FF305DF8044B7047DCF808204B6A003A0D
S3150200265018BF012203F001039A42F0D1022245F289
S315020026605354CA61DCF80020094BD463DCF800201D
S315020026701364DCF800205364DCF800209364DCF871
S315020026800020D3645DF8044B704700BFA0860100AA
S3150200269000001F0F08B5C0E9001283608B6A1B0F8A
S315020026A001D0002008BDFFF7A1FFB0FA80F0400973
S315020026B008BD00BF0068022A836803F00C0306D037
S315020026C0A2F10102B2FA82F2520962F3C3030229AB
S315020026D006D0A1F10101B1FA81F1490961F3820340
S315020026E083600020704700BF10B50068836A0468E3
S315020026F08B422AD04FEA136C4B405FFA83FE1B07CC
S315020027004FEA11611DD18CEA01000F288CBF00200F
S315020027100120BEF1100F28BF00201CF0080F03D1C4
S3150200272011F0080F18BF002082EA0403B3F1805F9C
S3150200273009D2C2F30752C4F30754A24288BF00204B
S3150200274010BD0020E5E7002010BD0120ECE700BF28
S315020027500048704718620822002070470020704720
S3150200276008B5012002F0E8FF08B10023037008BD96
S3150200277000E020BF0378002BFBD0013B0370002052
S31502002780704700BF03780133037040BF00207047D3
S31502002790704700BF704700BF437C012B0FD0022356
S315020027A010B503740446FFF7FFFE034683F00103E8
S315020027B05B00DBB2E06A6374FFF7E4FF10BD7047AB
S315020027C02DE9F843234E044637688946154698464E
S315020027D0002F38D0204F3B686BB3DDE908234FF05A
S315020027E0020C2563002549462046C4F8388084F841
S315020027F041C084F842C06563E563FFF74BFFF8B159
S31502002800FFF7AEFFE062D8B1306825616561A56168
S31502002810E56125626562A562FFF79EFF0F4B306890
S315020028201A681C60E260FFF799FF3868FFF7AAFF93
S315020028302846BDE8F883FFF793FF38600028CCD11D
S315020028404FF0FF30F5E7FFF783FF30600028C1D174
S31502002850F6E700BF206208221C62082224620822D0
S3150200286038B5037C0446012BD8B20ED002280ED00E
S31502002870002853D000234FF0FF3023616361A36128
S31502002880E36123626362A36238BD0029FCD0626AF7
S31502002890002A15DD002502E00135954210DA94F88A
S315020028A042302B41DB07F7D5D4E9073252F825101F
S315020028B053F8350000F018FA626A01359542EEDBEC
S315020028C04FF0FF324FF0FF33E06AFFF751FF002867
S315020028D027DB2046A16AFFF75DFFE36B3BB1013BB5
S315020028E0E36323B9012220461146FFF7E3FE637C28
S315020028F003F0FF0083B1637C022B20D02046FFF752
S3150200290075FE38B9E26B2046B2FA82F252091146D6
S31502002910FFF7D0FE4FF0FF300023AEE76FF0010065
S3150200292038BD01216174237C022BD2D14FF0FF32D4
S315020029304FF0FF33E06A6174FFF71AFFC9E72046DA
S31502002940FFF730FEDAE700BF2DE9F04782B0DDE996
S315020029500A7C002900F0A980002B00F0B480002F29
S3150200296000F0AA800446007C01EB020800F0FF0595
S3150200297000284BD10C98C4E90512C4E9073725741F
S31502002980C4F824C0A062534D0868A84236D112F09A
S31502002990030633D10D1DD4E90C1251EA020069D1A6
S315020029A0A8450FD92B78022B10D0052B34D0012B3A
S315020029B024D1D5E901122046FFF796FEF0B10C3577
S315020029C0A845EFD8304602B0BDE8F0876B786F882D
S315020029D005F1040947EA034719F00F0A4FEA870788
S315020029E00CD1606A002830DDE2690346083A01E04C
S315020029F0013B20D052F8081F0907F9D000232361B2
S31502002A006361A361E36123626362A3624FF0FF36EF
S31502002A10304602B0BDE8F0870435C1E7236A53F8B1
S31502002A202A10E36953F83A0000F014F9606A0AF1D1
S31502002A30010A824509DA94F8413043FA0AF3DB07C0
S31502002A40ECD40AF1010A8245F5DBE36B5A1CE26318
S31502002A50D3B101232046A16A2374FFF799FE636A64
S31502002A603A46009349462046E3690437FFF742FD9A
S31502002A703D4495E7BCF1020F92DDBF68A06B874229
S31502002A80BCD8C3E904128BE72046FFF7AFFD40B975
S31502002A90E26B2046B2FA82F252091146FFF70AFEAB
S31502002AA0D7E7E36B013BE363A8E740F282210A4BD7
S31502002AB00A4A0B4802F0FAFA4FF42171094B074A07
S31502002AC0074802F0F3FA40F28321074B034A04480F
S31502002AD002F0ECFA434F5031988300025CA90702D8
S31502002AE064830002C4830002B083000210B584B07E
S31502002AF0069C0094079C0194089C02940446FFF7E6
S31502002B0023FF002806DB0121204604B0BDE8104061
S31502002B10FFF7A6BE4FF0FF3004B010BD70B50546F4
S31502002B2082B00C46EFF31086012181F310882C4BFC
S31502002B301A6822F480321A601B681E2002F0BEFA5E
S31502002B4086F310880023AA68A17B1068627BCDE910
S31502002B5000211A462349FFF733FE00283CD1A36819
S31502002B6094F90C201B01002ADBB22FDB02F1604133
S31502002B7001F5614181F800331B491C4B41F8225093
S31502002B8002F5C65153F8210020F4803043F82100A3
S31502002B9053F82130BFF35F8F012153099B0002F0E6
S31502002BA01F0203F1604303F5614301FA02F2C3F81F
S31502002BB080211A60002318466C6022680C49EA607C
S31502002BC0626829606A612B6102B070BD094902F030
S31502002BD00F0001440B76CFE7032002B070BD00BFA1
S31502002BE00030204000001440886208220060004045
S31502002BF054454D52FCEC00E030B583B0EFF303834D
S31502002C00124A103B5CB252F82450AB681868FFF7C0
S31502002C10C3FDEB685BB12869B0B1036801936B69C8
S31502002C200360EB6898472B690BB1019A1A60084A50
S31502002C3004F5C65352F8231021F4803142F82310CA
S31502002C4052F8233003B030BD01A8E8E788620822B3
S31502002C500060004030B5F8B100291CDD00F01F030A
S31502002C601944BFF34F8FC2434FF0010EA1F1200367
S31502002C7001440A44520920337244C8BF96464EF0B4
S31502002C8001E0184BC3F8680220300FF005C8BFF305
S31502002C904F8FBFF36F8F30BD124CC4F88400BFF361
S31502002CA04F8F43F6E075D4F88030C3F34E30C3F34A
S31502002CB0C90C40010CF1010E63464EF001E000EA38
S31502002CC0050141EA8372C4F86C22013B0FF007C882
S31502002CD0203810F1200FEDD1BFF34F8FBFF36F8F66
S31502002CE0D9E700BF00ED00E030B5F8B100291CDDE0
S31502002CF000F01F031944BFF34F8FC2434FF0010E7A
S31502002D00A1F1200301440A44520920337244C8BF88
S31502002D1096464EF001E0184BC3F8700220300FF0D1
S31502002D2005C8BFF34F8FBFF36F8F30BD124CC4F887
S31502002D308400BFF34F8F43F6E075D4F88030C3F3B7
S31502002D404E30C3F3C90C40010CF1010E63464EF03E
S31502002D5001E000EA050141EA8372C4F87422013BEC
S31502002D600FF007C8203810F1200FEDD1BFF34F8FB7
S31502002D70BFF36F8FD9E700BF00ED00E003460020E6
S31502002D80C3E90612704700BF844610B4406A8368DE
S31502002D9023F440138360DCF82440A36C5800FCD56E
S31502002DA0A36823F01003A360DCF82440237FC3F357
S31502002DB00010DB06FAD4CCE90412A36843F0101320
S31502002DC0A3605DF8044B704784460020CCE90B32C1
S31502002DD0CCF82810704700BF4FF0FF330020C1E93E
S31502002DE0003370478B0784461DD5426A936823F4E5
S31502002DF040139360426A936C5800FCD5936823F0A3
S31502002E0010039360DCF82400037FC3F30012DB0691
S31502002E10FAD41046CCF81420CB0703D50023184663
S31502002E20CCF81C3070470620F6E700BF03460022A6
S31502002E3010B4DC6910460C60DA615DF8044B704729
S31502002E400620704730B40124164D530902F01F0CB8
S31502002E50203304FA0CF445F82340BFF34F8FBFF337
S31502002E606F8F114B02F5C65C53F82C4024F4803464
S31502002E7043F82C4053F82C300901002AC9B207DB6B
S31502002E800A4B154485F8001343F8220030BC7047FC
S31502002E90074B02F00F0423441976044B43F8220031
S31502002EA030BC704700E100E0006000408862082202
S31502002EB0FCEC00E0F0B5C46A85B005460F469446C0
S31502002EC06E46B4B194E80F0086E80F002B6A2046DE
S31502002ED01B78A760236084F804C02B6BE360AB6A9F
S31502002EE09847EC6A1CB196E80F0084E80F0005B01B
S31502002EF0F0BD3446EAE700BFF8B5394B42689A425C
S31502002F006BD10446426A936823F440139360426A83
S31502002F10936823F010039360426A137FC3F300158C
S31502002F20DB06FAD40121236A2E4A93F9073058099F
S31502002F3003F01F03203001FA03F342F82030BFF3F7
S31502002F404F8FBFF36F8F236A93F90930580903F045
S31502002F501F0301FA03F3203042F82030BFF34F8FEC
S31502002F60BFF36F8F606A836823F480338360236ABA
S31502002F7093F90530580903F01F0301FA03F32030D1
S31502002F8042F82030BFF34F8FBFF36F8F236A93F956
S31502002F900B30580903F01F0301FA03F3203042F8FD
S31502002FA02030BFF34F8FBFF36F8FEFF3108681F39D
S31502002FB010884FF00043276A0B4A97F800C0506802
S31502002FC023FA0CF30343536053681E2002F076F88B
S31502002FD086F3108865602846F8BD0720F8BD00BF55
S31502002FE04249435300E100E000302040002370B51F
S31502002FF0026AD56983606B7C03B970BD184B0446BF
S3150200300093F8543003F00F03072B24D8DFE803F0BC
S31502003010040404211F191B1D01269E40104B93F820
S31502003020550000F00F0001F0E1FFB0FBF6F00D4B8A
S315020030301A686B7C02FB03F3B3FBF0F30133A36064
S3150200304070BD0326EAE70526E8E70A26E6E708262C
S31502003050E4E70626E2E71026083B9E40DEE700BFCD
S3150200306000E00140C0620822F8B5002704460E4679
S31502003070416A8D6825F4441222F011028A600761C2
S31502003080FFF7B4FF636A326825F440151A61636A72
S3150200309038469D60F8BD00BF0620704700222DE924
S315020030A0F04101270B78027003F5800303F55653AE
S315020030B01B02436201624B690D4683628B690446B9
S315020030C0C0E90B238378CE6967F3010383704B78DB
S315020030D0934214BF3A460222837862F30103837055
S315020030E091F90B20897AFFF7ADFE95F9052029792A
S315020030F0FFF7A8FE95F90720A979FFF7A3FE95F930
S315020031000920297AFFF79EFEEFF3108887F31088CD
S315020031104FF000412A787B4BD1405A6822EA0102DD
S315020031205A605B681E20394601F0C8FF88F3108892
S315020031304FF48062636A9A606B78E978EA691B02E7
S31502003140890301F4804103F440730B4311785068FC
S31502003150090601F040710B435178C90389B20B434A
S31502003160517B490501F400110B43616A43F4805314
S315020031704B611378991EB94240F2BD800368616AB9
S315020031800B61117BAB7801F0030141F0300133B1E1
S31502003190022B14BF4FF440734FF480731943937894
S315020031A000201B0703F080530B43616ACB600123A7
S315020031B0616A886129788B40C3F3090313B1636A94
S315020031C0514959620025937BD17B127C01F01F0184
S315020031D003F0010302F01F0243EA0123616A43EA94
S315020031E002430B632046C4E90455C4E90655FFF7BA
S315020031F0FDFE7089626A4549A0819166226A444B46
S3150200320092F9052002F5C65153F8210065F31040E4
S3150200321043F8210053F82110BFF35F8F012102F01A
S315020032201F005209920002F1604202F5614201FA60
S3150200323000F0C2F880011060226A92F90B2002F5B2
S31502003240C65053F8206065F3104643F8206053F8E1
S315020032502000BFF35F8F02F01F005209920002F1B5
S31502003260604201FA00F002F56142C2F88001106084
S31502003270226A92F9072002F5C65053F8206065F3D8
S31502003280104643F8206053F82000BFF35F8F02F028
S315020032901F005209920002F1604201FA00F002F5A3
S315020032A06142C2F880011060226A92F9092002F591
S315020032B0C65053F8206065F3104643F8206053F871
S315020032C02030BFF35F8F53099B0002F01F0203F108
S315020032D06043914003F56143C3F8801119600D4ABA
S315020032E0636A9A60626A137FDB07FCD50A4B002089
S315020032F06360BDE8F0810949022B094B18BF0B46F2
S315020033003DE700BF0030204000001F1F1000079D50
S3150200331000600040110401004249435304FF00FFCC
S3150200332024FF00FF38B5EFF30383103B254A5BB257
S3150200333003F5C65152F8210020F4803042F82100EC
S3150200334052F82120204A52F82340236A1B69B3B15E
S31502003350636903B138BD636A9D68A06825F4801568
S3150200336045F4001518BB00219D60A36A2161002B5C
S31502003370F0D02046BDE838408022FFF79BBD626947
S31502003380636A002AE8D0A278216902F00302022ABF
S3150200339011D00A781A71A278D4E9041302F0030252
S315020033A09B1A1144C4E90413002BD3D1D3E701F0CD
S315020033B07FFE636AD7E70A8822F4DC4292B25A6039
S315020033C0E9E700BF006000408862082210B582B0BB
S315020033D0EFF30383103B1F4A5BB203F5C65152F863
S315020033E0210020F4803042F8210052F821201A4AA6
S315020033F052F82340A27802F00303022B636A0CBF41
S3150200340019681978E3690CBFC1F30801C9B20191C1
S3150200341043B9A36AB3B10422204602B0BDE8104004
S31502003420FFF748BD02F0030201A9A06902F0F9FC08
S31502003430D4E90621A37803F003031A44C91AC4E99E
S31502003440062109B102B010BDA36A002BFAD00122EF
S31502003450E2E700BF006000408862082210B5EFF381
S3150200346003830F4A103B5CB252F82400426A936807
S3150200347023F4401323F010039360836A1BB10222E4
S315020034800021FFF717FD074A04F5C65352F8231029
S3150200349021F4803142F8231052F8233010BD00BFC8
S315020034A0886208220060004038B5EFF303831D4AA4
S315020034B0103B5CB252F824008378456A03F003039A
S315020034C0022B0CBF29682978AA6C08BFC1F3080130
S315020034D0C2F30073C2F3006C4FEA031343EA4C13C0
S315020034E0C2F3C06243EAC20C18BFC9B2DB06624627
S315020034F004D5AB6C1B0458BF4CF04002AB6E43F0D4
S31502003500C853AB66836A0BB1FFF7D4FC064A04F5CF
S31502003510C65352F8231021F4803142F8231052F890
S31502003520233038BD886208220060004006207047BA
S3150200353006207047062070470620704710B50368BC
S3150200354004699B699B681A79002A59D08646B0F8A5
S3150200355008C01B6803E0013A03F1280350D019881A
S315020035606145F8D19EF80A10CEF80C3004EB8101C1
S315020035700A6DCCF3090C6FF30A024CEA020CDA78F4
S31502003580920202F4806242EA0C020A65597998783C
S31502003590DA7D03294FEA810140EA024201F00C0179
S315020035A042EA010242F4700108BF0A469EF80A1076
S315020035B010430131090160501A79D888012AB3F8FB
S315020035C008C005D100024FEA0C2C80B21FFA8CFC0F
S315020035D0997CDA7C13040A049EF80A1002F4F812A3
S315020035E00131024304EB01114A609EF80A2003F4FA
S315020035F0F81343EA0C0304EB02129361002010BD98
S31502003600052010BD38B5058901810446FFF796FFEE
S31502003610052808BF258138BD2DE9F0418E690F4680
S315020036203478054604F5801404F51A64A402EFF30F
S315020036301088012181F310884C4A33785068103380
S3150200364001FA03F320EA0303536053681E2001F0D4
S3150200365035FD88F310882F602C613B882B817378A7
S31502003660AB723278EA72002B54D1236E23F0330305
S31502003670236673783988143344F82310AB7A002B07
S315020036806ED1337B1B0203F4F853236072681378FE
S3150200369090791B0441EA007103F470230B4391787D
S315020036A02846090501F480110B435178490501F4B6
S315020036B000110B43D178890501F480010B4311797E
S315020036C05279C90501F4000112060B4302F0706239
S315020036D013437278143244F82230FFF72FFF244B3B
S315020036E00746A360E360AB7A002B34D1236E43F026
S315020036F0330323661F4A11688FB91F4B6B60012380
S31502003700747830789840A34083400B431360384660
S31502003710BDE8F081236E23F0CC032366A9E70323D9
S315020037203278520093400B42F1D1EFF3108401211B
S3150200373081F310880D4A33785068103301FA03F387
S315020037400343536053681E2001F0B8FC84F31088CB
S315020037503846BDE8F081236E43F0CC032366C9E701
S31502003760337B1B0603F0F85323608FE700302040BB
S31502003770800F0100286208224950537870B500264E
S31502003780012103230468144DA469466020782A683F
S31502003790884003FA00FC637801FA03F3834022EAC5
S315020037A003031CEA030F2B6001D0002070BDEFF368
S315020037B0108581F31088094A23785068103301FA7C
S315020037C003F30343536053681E2001F077FC85F32D
S315020037D01088002070BD00BF2862082200302040F9
S315020037E0C00030B400F00805D07BDC030128A4B287
S315020037F000F0030044EA0004107C4FEA800000F067
S315020038001C0044EA0004507C4FEA401000F4F070B9
S3150200381044EA0004907B4FEA402000F4785044EAE0
S31502003820000490890D674FEA00654FEA004008BF21
S3150200383028460443086FC507FCD4C1F88040906847
S31502003840012BC1F8840008D11068C1F88800507CA9
S31502003850042884BF5068C1F88C00086F40F001004C
S315020038600867086FC007FCD44BB9D1F88840507C72
S31502003870C2E90043042884BFD1F88C305360D1F8E2
S31502003880903130BCC1F89431704700BFC268938949
S31502003890002B42D030B500240D46117E87B0CDE90B
S315020038A00244CDE90044CDE9044492F814E092F8CA
S315020038B004C0ADF80C30E9B14FF00001012492F8D2
S315020038C020306EF307016CF30F21ADF80E1023447E
S315020038D0D169DBB28DF8103002918DF8114083B1B7
S315020038E040F2FF33018999420BD1537901338DF8A6
S315020038F0103006E001238DF80EE08DF80FC08DF82A
S315020039001130016900236A46807AFFF769FF009841
S31502003910E84000F0010007B030BD1846704700BF0E
S3150200392010B503680C469979FFF7B0FF034623707A
S31502003930002010BD70B5C36886B05E8916B9002036
S3150200394006B070BD002593F804C001690446012340
S315020039506A46807A0395CDE90155CDE9045500956D
S31502003960ADF80C608DF80FC00525FFF739FF236807
S315020039702046D979FFF78AFF0028E0D1013DF6D12A
S31502003980132006B070BD00BF2DE9F0411E46036844
S315020039900F469979044690460569FFF777FF20BBE3
S315020039A02046FFF7C7FFF0B9072E17D9083E26F0C3
S315020039B00706A7EB070EB6444FEADE0E0EF1010E1E
S315020039C039464EF001E028F00702D21B8B18D1E9E6
S315020039D000670831C3E900670FF009C0BFF35F8FC4
S315020039E04FF440736B66BDE8F08149F64240BDE88C
S315020039F0F08100BF2DE9F041C6681746F37D86B017
S31502003A0063F0FF02737904460133DBB2013BDB004C
S31502003A1002FA03F321EA030503689979FFF736FFF1
S31502003A2000284BD1736A19681B7923B94BE0013B15
S31502003A3001F108012AD04A68BA42F8D12046B1F803
S31502003A400080FFF777FFF0B9337901370390844698
S31502003A506A46CDE9040002950090ADF80C808DF817
S31502003A600F30019023D101232169A07A8DF810C06D
S31502003A70FFF7B6FE2369D3F8840110F00300FAD1EA
S31502003A804FF440625A6606B0BDE8F0812046FFF761
S31502003A9051FF0028F7D16A463379C2E90400D060A3
S31502003AA000900295ADF80C008DF80F30506096F834
S31502003AB005C00CF1010C5FFA8CFCD4E749F64240D2
S31502003AC006B0BDE8F0812046FFF734FF0028DAD1C0
S31502003AD06A463379D060C2E90400009002958DF8F7
S31502003AE00F305060E3E700BF08B513460A46016986
S31502003AF0807AFFF775FE002008BD00BF06207047DA
S31502003B0006207047002001238242CAB203FA02F35A
S31502003B109AB24FEA034308BF1A460B0A5B0103F146
S31502003B20804303F580039A60704700BF2DE9F84F82
S31502003B300388DBB14FF0000A80464FF00109DFF837
S31502003B40D4B00024314D4FEACA07D8F8043035F80C
S31502003B50022BD919898891420AD00134032CF4D157
S31502003B60B8F800300AF1010A5345EAD8BDE8F88FE1
S31502003B70DB5909FA04F603F0B853B3F1807F244BFC
S31502003B80F6B293F84C2C12D0324230D104F1200214
S31502003B901BF81230DB09E0D01BF81230012123F0AA
S31502003BA08003C8200BF8123001F088FAD5E73242BA
S31502003BB010D004F120021BF81230DB09CDD11BF81C
S31502003BC01230012143F08003C8200BF8123001F0B5
S31502003BD075FAC2E7012001F041FB0D4B012093F873
S31502003BE04C2C324383F84C2C01F008FBE1E7012010
S31502003BF001F034FB064B012093F84C2C22EA060214
S31502003C0083F84C2C01F0FAFAC0E700BFD0A90702EC
S31502003C1000E0014000202040F8B50646FFF786FF87
S31502003C20EFF31082012383F31088234F3B681BB9FD
S31502003C30402022490B7508753B6801333B6082F3CD
S31502003C401088338800211BB31D4D08E01B01134465
S31502003C5045F82340328801318BB29A4218D97368EB
S31502003C6053F8314003EBC1029288E0034FEA122374
S31502003C70D2B2EBD502EB031055F820E024F4803CD7
S31502003C802EF4803E45F820E01B0145F820C0DEE711
S31502003C90EFF31082012383F310883B6813B13B686C
S31502003CA0013B3B603B681BB9802004490B750875D4
S31502003CB082F31088F8BD00BF84620822000D4040DE
S31502003CC00008404008B5034B03600846FFF7A4FF0F
S31502003CD0002008BD54524F500346002059601A7204
S31502003CE0704700BF84460020CCE90E32CCF834106F
S31502003CF0704700BF0346044ADB6800209B1AB3FAEA
S31502003D0083F35B090B7070474349495230B5836BA5
S31502003D1083B004460A466D46A3B193E8030085E8DC
S31502003D200300E16B1A7119601846636B9847A36B1F
S31502003D301BB195E8030083E80300002384F82B30C7
S31502003D4003B030BD2B46ECE730B5454B83B01B6A5A
S31502003D5001690193019B03F00F230193019A019DCF
S31502003D600B7C90F82C409CB9C2F30322DBB2A2EB87
S31502003D70156293409B0804D1082003B030BD013B75
S31502003D80FAD04A78C2F3C014D209F8D1CC710169CB
S31502003D90002390F826408569026880F82B30C561B9
S31502003DA080F82D3080F8274080F82E3080F82830B1
S31502003DB080F82F30036280F83030546A227894F803
S31502003DC001E0012A14BF4FF0040C4FF0050C627992
S31502003DD0120142EA4E0294F806E042EACE124CEA98
S31502003DE00202D2B2CA7001690A7942F010020A715D
S31502003DF001690A7963F3C3020A7101690A7963F3F5
S31502003E0004120A710269E179137961F3C713137116
S31502003E100269537943F001035371036893F90F3032
S31502003E20002B07DB012203F01F040E495B09A240A7
S31502003E3041F82320BF210269537A03F0F303537238
S31502003E400369D97190F82C302BB1002380F82C30FD
S31502003E50002003B030BD022203695A70F8E700BFA2
S31502003E6000E0014000E100E090F808C0C0E9051258
S31502003E70BCF1010F80F82A3008D10022436880F88D
S31502003E8026C05B0080F8243080F82520002380F8C5
S31502003E902930FFF759BF00BF90F808C0C0E90512E4
S31502003EA0BCF1010F80F82A300AD10022436880F85B
S31502003EB026C05B0043F0010380F8243080F82520F9
S31502003EC0012380F82930FFF73FBF00BF70B40024FA
S31502003ED0402203691C7003691A70026913785B0633
S31502003EE0FCD5C0231370036802695B6A804D1B7997
S31502003EF04FF0000C43F0E0031374036802695B6A37
S31502003F00B324DB7843F0E0035374036802695B6A07
S31502003F109B781B0103F0700343F008039370036858
S31502003F2002695B6A1E78012E5E7814BF042305239C
S31502003F3043EA4603DBB2D37003685B68AB4214BF45
S31502003F407722F72203695A71036983F806C0036967
S31502003F50DC7191F911204B7B6245C0F2AA801B01EC
S31502003F6002F16044DBB204F5614484F80033614C2B
S31502003F70614B44F8220002F5C65553F8256026F433
S31502003F80803643F8256053F82530BFF35F8F01254D
S31502003F9053099B0002F01F0203F1604303F56143DC
S31502003FA005FA02F2C3F880211A6091F90F204B7BC1
S31502003FB0002AC0F295801B0102F16045DBB205F5CD
S31502003FC0614585F800334C4B44F8220002F5C6558C
S31502003FD053F8256026F4803643F8256053F82530D9
S31502003FE0BFF35F8F012553099B0002F01F0203F105
S31502003FF0604303F5614305FA02F2C3F880211A60B1
S3150200400091F910204B7B002A63DB1B0102F160450C
S31502004010DBB205F5614585F80033374B44F82200DB
S3150200402002F5C65553F8256026F4803643F8256016
S3150200403053F82530BFF35F8F012553099B0002F029
S315020040401F0203F1604303F5614305FA02F2C3F866
S3150200405080211A6091F90E204B7B002A31DB1B016D
S3150200406002F16041DBB201F5614181F80033224B76
S3150200407044F8220002F5C65153F8214024F4803454
S3150200408043F8214053F82130BFF35F8F01215309D2
S315020040909B0002F01F0203F1604303F5614301FA3C
S315020040A002F2C3F880211A609F2203691A7070BC5B
S315020040B07047124C02F00F051B01DBB22C4423762B
S315020040C055E70E4902F00F051B01DBB229440B76B8
S315020040D0CDE70B4D1B0102F00F06DBB2AB559CE799
S315020040E0074D1B0102F00F06DBB2AB556BE700BFB3
S315020040F040420F008862082200600040FCEC00E0AB
S3150200410014ED00E0F8B500250A781C4B0160134453
S315020041101B0203618B680E4643600B7B04460372E7
S31502004120CB6943630B6A80F82950C36380F82A502F
S31502004130856380F82B50C0E90555C0E9075580F81C
S315020041402C50EFF31087012181F310880C4A337843
S315020041505068C3F1090301FA03F320EA030353602B
S3150200416053681E2000F0AAFF87F3108820463146C6
S31502004170FFF7ACFE034B2846E360F8BDE02540009E
S31502004180003020404349495238B5002503690446A8
S31502004190DD710168FFF79AFEB32290F82600A16945
S315020041A0236984F82C5084F82800E561216284F89A
S315020041B02A50DA71284638BD70B5002504460369CF
S315020041C0DD710168FFF782FEB320012194F82630E3
S315020041D084F82C5084F82830A36984F82A50C4E95C
S315020041E0075323692B4AD8712369DD712368E56079
S315020041F093F91130580903F01F0301FA03F3203033
S3150200420042F82030BFF34F8FBFF36F8F236893F9C5
S315020042100E30580903F01F0301FA03F3203042F867
S315020042202030BFF34F8FBFF36F8F236893F910309F
S31502004230580903F01F0301FA03F3203042F8203035
S31502004240BFF34F8FBFF36F8F236893F90F3058096F
S3150200425003F01F0301FA03F3203042F82030BFF3C4
S315020042604F8FBFF36F8FEFF3108681F310882368A9
S31502004270094A1B785068C3F1090301FA03F30343A1
S31502004280536053681E2000F019FF86F310882846F3
S3150200429070BD00BF00E100E00030204010B582B0E2
S315020042A0EFF30383103B5F4A5BB203F5C65352F842
S315020042B0231021F4803142F8231052F82330EFF311
S315020042C00383594A103B5BB252F8234094F82D30CF
S315020042D05BBBA369022B22D9E369012B0ED12269AA
S315020042E0137943F0100313712269137943F008031B
S315020042F013712269137923F01003137123685B6A21
S31502004300DB79002B3ED101222369DB7CDBB28DF8FF
S3150200431007309DF8073084F82D2002B010BD2269BF
S31502004320137943F040031371D6E7E369002BF4D007
S315020043302268526AD279FAB9032B17D0022B26D0F9
S31502004340012B34D02269236AD17C6269D154D4E923
S3150200435007320132013BC4E90732002BDDD1216964
S315020043600A7963F386120A7102B010BD22691379C3
S3150200437043F040031371E5E705212046FFF7C6FC2B
S31502004380E369D9E705212046FFF7C0FCBBE72269AE
S31502004390137943F0100313712269137943F008036A
S315020043A013712269137923F010031371CAE794F883
S315020043B02A2072B322681D4892F90F20510902F091
S315020043C01F0203FA02F2203140F82120BFF34F8F79
S315020043D0BFF36F8F04202169CA7942F08002CA7145
S315020043E021690A7942F010020A7121690A7922F0DA
S315020043F008020A7121690A7922F010020A712269F9
S31502004400507021694A7922F001024A7184F82C30EF
S3150200441098E708212269537A03F0F7035372236956
S3150200442059708FE7006000408862082200E100E0D0
S3150200443010B5EFF30383103B434A5BB203F5C65351
S3150200444052F8231021F4803142F8231052F8233017
S31502004450EFF303833D4A103B5BB252F8234094F8D4
S315020044602730002B40D194F82930002B3BD123680A
S315020044705B6ADB792BB194F82B3013B9236A002BD4
S315020044805CD1E3692169002B41D1CB79C02223F0AB
S315020044908003CB71216901E0013A02D0CB79DB09B5
S315020044A0FAD12368284A93F9103003F5C65352F815
S315020044B0231021F4803142F8231052F82330236866
S315020044C093F91030002B09DB01215A09204803F029
S315020044D01F03603201FA03F340F822302269D379CE
S315020044E043F04003D37110BD94F82630032B1CD041
S315020044F094F8242023699A7494F8282094F8273093
S315020045000132013B84F8282084F8273010BD236A43
S315020045106269D35C8B74D4E907320132013BC4E988
S315020045200732002BDFD12169AFE794F82830022B3E
S31502004530DED194F83030002BDAD110BD05212046A9
S31502004540FFF7E4FB9DE700BF006000408862082297
S3150200455000E100E038B5EFF30383344A103B5BB267
S3150200456052F8234023685B6ADB79002B4BD194F81F
S3150200457029301BB194F82730012B52D0E369E3B1FD
S315020045802169C023CA7922F04002CA71216901E079
S31502004590013B02D0CA795206FAD4EFF30383103BE9
S315020045A0234A5BB203F5C65352F8231021F4803135
S315020045B042F8231052F8233038BD94F82A203AB331
S315020045C0012022681B4D92F90F20510902F01F02A9
S315020045D0203100FA02F245F82120BFF34F8FBFF3D4
S315020045E06F8F4FF0040C2169CA7942F08002CA71BA
S315020045F0226982F801C021694A7963F300024A718D
S3150200460084F82C00BCE705212046FFF77FFBAEE7C6
S3150200461008212269537A03F0F7035372236959700A
S31502004620AEE794F83030002BAAD0A7E788620822BA
S315020046300060004000E100E038B5EFF303834F4A23
S31502004640103B5BB252F823000269537A517ADC06B8
S3150200465001F0E00151725FFA83FC03F003022CD5EC
S315020046600369597849064ED40024012580F82B5057
S31502004670DC710168FFF72AFCB32290F826308169C3
S3150200468080F82830036980F82C400162C46180F802
S315020046902A402946DA71FFF739FBEFF30383103B11
S315020046A0374A5BB203F5C65352F8231021F4803120
S315020046B042F8231052F8233038BD002A5CD11CF090
S315020046C0080F11D0C369002B45D190F82B30002B6F
S315020046D041D1B32290F829100369C1F10301C9B28D
S315020046E0DA71FFF713FBD8E790F82C200CF00403DD
S315020046F042B3002BD1D0C369002B3BD190F82B30AB
S31502004700002B37D1E5E7002AAED15A78C2F38011E1
S315020047105206D4D5082280F82B105A700368016914
S315020047205A6A94791378527943EAC41343EA021314
S3150200473043F00203DBB2CB700269537943F0010303
S315020047405371AAE7002BA8D003685B6ADB79002BBA
S31502004750A3D00421C5E70023B32190F8265084692B
S31502004760026980F82C3080F828500462C36180F810
S315020047702A30D1710121B4E7036975E788620822FC
S315020047800060004084460020CCE90632CCF81410C2
S31502004790704700BF0A4B1A68D2030FD4DA6FD207EA
S315020047A04EBF01231B6803F001030B708268044BA2
S315020047B04A60D3F8843000208B6070470223F4E706
S315020047C000803440F8B500240121164D164F2C679F
S315020047D003685E6996F91D305A0903F01F0301FA50
S315020047E003F3203247F82230BFF34F8FBFF36F8FA8
S315020047F00E4B96F91D2043F822404FF480332B606E
S315020048004460EFF3108581F31088094B9A6842F4ED
S3150200481080329A609B681E2000F050FC85F3108857
S315020048202046F8BD0080344000E100E0886208229C
S3150200483000302040174AD36FDB0727D41368DB0307
S3150200484024D41368DB0723D410B403685C6981603F
S315020048502378022B08D14B1EC1680B4423F01F0399
S3150200486043F00103D36581680A4BD963227822B9E2
S31502004870D0E9022102EB51021A6400220121054B02
S3150200488010465A6719605DF8044B70470820704756
S315020048901E207047008034402DE9F04F01600B7AEC
S315020048A04F884C6903FB07F794F80380B1F806902A
S315020048B0B8F1000F08F10108B7FBF8F814BF4FF082
S315020048C0010B4FF0020B0D4621780646CA46B8FB8D
S315020048D0FBF283B051B9216988B2002840F0D18039
S315020048E0B1F5803FCA4628BFB4F816A0EB6801921C
S315020048F073612378022B14BF07FB0AF3A368F360E4
S31502004900EFF310830121009381F3108863488368D3
S3150200491023F48033836080681E2000F0CFFB009B67
S3150200492083F310885E49019ACB6FDB07FCD45C4B9C
S315020049301868C0F30041C003FAD4C2F30B02019215
S315020049402269C8F30C0000901A639961627B120512
S3150200495002F440125A6094F804E094F8058094F840
S3150200496006C00EF0010208F00108207848EA026843
S31502004970CEF340024FEA4C0C48EA8262CEF3800E36
S315020049800CF0020C000142EACE6200F0300042EA6C
S315020049900C0202436078000200F440700243E078A1
S315020049A0000300F4805002439A60B5F806C0688896
S315020049B03C4AC0F30D0002EA0C420243DA60288840
S315020049C0394A0BFB00F0AD88C0F30C0002EA05453C
S315020049D028431861019D009802EA094902EA0A423F
S315020049E02A4349EA00005861D9655A6322787B084E
S315020049F0002A08BF1F462A482C4D87630166A27803
S31502004A00237B120102F0100203F0070313434366ED
S31502004A103368C6E901515B699A69326193F91D20CF
S31502004A201B7F002A31DB1B0102F16041DBB201F57B
S31502004A30614181F800331E491E4B41F8226002F59E
S31502004A40C65153F8210020F4803043F8210053F870
S31502004A502130BFF35F8F012153099B0002F01F0231
S31502004A6003F1604303F5614301FA02F2C3F88021C0
S31502004A701A6000200A4B586732691A6703B0BDE80C
S31502004A80F08FA28A02FB03F72AE70B4902F00F0016
S31502004A901B01DBB201440B76CDE700BF003020409C
S31502004AA0008034400000FF3F0000FF0F554543528F
S31502004AB08862082200600040FCEC00E0F0B5234B5F
S31502004AC08BB05D6FEA435A67EFF30383103B204ACC
S31502004AD05BB203F5C65152F8210020F4803042F849
S31502004AE0210052F821201B4A52F8234063694BB336
S31502004AF00021226902912A40E0690092A769A26810
S31502004B000191CDE90320FFB1BC463E46BCE80F0049
S31502004B10EE4605AD0FC5DCF800302B60BEE80F008F
S31502004B200FC6DEF80030CCF8003063693846984785
S31502004B30A4693CB10DF1140CBCE80F000FC4DCF8FB
S31502004B40005025600BB0F0BD6F46EFE700803440A1
S31502004B5000600040886208221D4A92F82630928C34
S31502004B60DBB202F00F02A2F1080103292BD8DFE81B
S31502004B7001F020160C021749174A51F82330A2FBFE
S31502004B8003231B09154A136070471249124A51F84A
S31502004B902330A2FB0323114ADB08136070470D4939
S31502004BA00D4A51F82330A2FB03230C4A9B081360DB
S31502004BB070470849084A51F82330A2FB0323074AE3
S31502004BC05B0813607047034951F82330D340D9E795
S31502004BD000E00140A0600022ABAAAAAAC062082295
S31502004BE0704700BF4AF20351F8B5594B594AB3F818
S31502004BF0FA43A3F8FA1353680746D903A4B21AD59F
S31502004C00544B00255A68920329D50026504A524928
S31502004C1092F8753092F86D2003F00F0302F00F023E
S31502004C2051F82330072A00F28E80DFE802F02929A4
S31502004C3029888A828486EFF31086012585F31088F7
S31502004C40536843F48033536053681E20294600F0AC
S31502004C5035FA86F310883F4B5A689203D5D4EFF3A0
S31502004C601086012181F310885A6842F400325A6094
S31502004C705B681E2000F022FA86F310880226C5E73A
S31502004C80012101FA02F2B3FBF2F30121334AA2FB3C
S31502004C9003239B0C03FA01F000F010FA2C4A92F857
S31502004CA0753043F0400382F8753092F87530DB09AF
S31502004CB0FBD07B78264982F86D303B7843F040037F
S31502004CC082F875303B7882F8753091F87530DB09D9
S31502004CD0FBD135B9BEB91E4B44F42544A3F8FA43B9
S31502004CE0F8BDEFF31085012181F31088194B5A683C
S31502004CF022F480325A605B681E2000F0DFF985F3E9
S31502004D001088002EE7D0EFF31085012181F3108879
S31502004D10104B5A6822F400325A605B681E2000F07B
S31502004D20CDF985F310880A4B44F42544A3F8FA43D7
S31502004D30F8BD0322A7E70522A5E70A22A3E7062272
S31502004D40A1E708229FE71021083A01FA02F29AE740
S31502004D5000E0014000302040A060002283DE1B43B9
S31502004D604AF203529FED8C4B9FED8D5B924B93481B
S31502004D70934930B5C3E90801924C93499FED8A6B7A
S31502004D809FED8B7B9962A4F8FA23A3EC045F83B0B0
S31502004D9083ED007FFFF7E0FE09230A2284F8502AFA
S31502004DA084F8A23094F8003C23B994F8013C9807A1
S31502004DB000F0EB80834C94F8003C002B00F0DA8084
S31502004DC00022804B83F8012C83F8002C00237D4AB5
S31502004DD082F8323092F83C301907FBD540F2234470
S31502004DE000204FF6021140F25143784DC2F8C850E6
S31502004DF0A2F84E4082F84A00C2F8AC10A2F84C3033
S31502004E00BFF34F8FBFF36F8F714B596921F4003196
S31502004E105961C3F85002BFF34F8FBFF36F8F6D49CD
S31502004E200B6823F440530B60BFF34F8FBFF36F8FB2
S31502004E300120137D01F1C04160F3020313750B7D5E
S31502004E40DA06FCD4634A136843F440531360BFF393
S31502004E504F8FBFF36F8FA2F57342536913F400337A
S31502004E6011D1BFF34F8FBFF36F8FC2F85032BFF32A
S31502004E704F8FBFF36F8F536943F400335361BFF310
S31502004E804F8FBFF36F8F00234E4A82F82A3092F873
S31502004E903C309B06FBD500224F4B1A701A781A78C3
S31502004EA01A785A68FA2A04D04C4959605A68FA2A7A
S31502004EB0FBD1494B9A687D2A04D0494999609A6880
S31502004EC07D2AFBD1052242F220113E4B454818624B
S31502004ED0998483F82620FFF73FFE01211E2000F069
S31502004EE0EDF83D4A5368C3F30903642B84BF0123DB
S31502004EF01370FFF731FE4AF201533B4A1380BFF3A8
S31502004F005F8F01231372BFF35F8F4FF4254E4FF06D
S31502004F10810C4FF003012B4CA2F800E001A884F8A3
S31502004F20533084F83E3084F83EC0ADF80410FFF7E3
S31502004F3059FE94F8553043F0400384F8553094F8FE
S31502004F405530DB09FBD0CA23022184F8541084F8B9
S31502004F50553094F855301B4A03F0BF0384F8553098
S31502004F6092F85530DB09FBD14FF42543A2F8FA3308
S31502004F7003B030BD0121C82084F8001C00F09EF861
S31502004F8094F8003C012BFBD11AE74FF47A70FFF735
S31502004F9027FE1BE7AFF30080006CDC0200127A00EA
S31502004FA00080000000366E010080000000CA9A3BB5
S31502004FB00046C3235543DE13A06000220084D717A0
S31502004FC00008AF2F00E0014000389C1C022B0100B4
S31502004FD000ED00E000E001E000C01340FA00001E10
S31502004FE07D0000E13234233200200040014B53F8A9
S31502004FF020007047A060002238B50025284C012108
S31502005000C82084F8285000F059F884F8245094F8FF
S315020050102430002BFBD194F82430214943F00203BB
S3150200502084F8243091F82430C3F340009B07F9D466
S315020050301B4A81F8220092F8223003F0FF00002B6F
S31502005040F9D192F84030164960F3C71382F840301E
S3150200505091F84030DB09FBD191F84200104A63F324
S31502005060C71081F8420092F84230DB09FBD192F870
S3150200507044000B4963F3C71082F8440091F84430A8
S31502005080C3F3C014DB09F9D1012000F0E7F8054BA0
S31502005090012083F84C4CBDE8384000F0AFB800BFA1
S315020050A00020204000E00140704700BF00BEFEE73E
S315020050B0A0F101000028FBD1704700BF1E4B1F4A1A
S315020050C01B6800FB01F1934213D302F1854202F5FC
S315020050D0071203F5742302F6834203F23F23A2FB6F
S315020050E003239B0CA3FB01314FF0FF30E1B1FFF725
S315020050F0DFBF4FF47A7210B4114C4FF0FF30B4FB9D
S31502005100F3F3A1FB02C434B9BCFBF3F080B15DF842
S31502005110044BFFF7CDBFB1FBF3F1A1FB0212002A4C
S31502005120F5D1084620B1F2E71846002BDFD17047C9
S315020051305DF8044B704700BFC062082200127A0075
S3150200514000CA9A3BF8B5002401260D4B0D4FD3F841
S315020051500021D3F82051154006FA04F32B4204D05D
S3150200516057F82430E0B203B198470134152CF3D135
S31502005170034AC2F81051D2F820312B42FBD1F8BDB6
S3150200518000C000403062082200220A2310B40748F9
S31502005190074C30F8021B02F5C65C013209B144F82D
S315020051A02C10013BF5D15DF8044B704728A9070284
S315020051B00060004070B50C468047C8B9C4B10D4BBB
S315020051C09D68ADB1DC680C4E04EB051502E01034A7
S315020051D0AC420DD0E3683340B3F5602FF7D1D4E982
S315020051E00002A168121A103400F01BFEAC42F1D183
S315020051F070BD00BF0CAA070200FFFF00EFF310818B
S31502005200012383F31088124B33F8102092B22AB18D
S3150200521033F81020013A92B223F8102033F81030F6
S315020052209BB293B910B40B4A0B4CB2F8FA3334F86A
S3150200523010009BB243F4254323EA0003A2F8FA3393
S3150200524081F310885DF8044B704781F3108870472C
S31502005250B062082200E001403CAC070230B4EFF332
S315020052601081012383F310880E4A32F810309BB264
S315020052706BB90D4C0D4DB4F8FA3335F810C09BB22C
S3150200528043EA0C0343F425439BB2A4F8FA3332F8FB
S31502005290103001339BB222F8103081F3108830BCF3
S315020052A0704700BFB062082200E001403CAC070232
S315020052B008B509490A688318B3F5005F03D8074899
S315020052C00B60104408BD00F0A3FD0C2203461A60D1
S315020052D04FF0FF3008BD00BFBC620822A0000022CA
S315020052E0F8B50646304C94F8503C03F0FF05002B07
S315020052F0F9D187221023A4F8242C84F8003C002E2E
S315020053003FD101220023284981F8022C81F8013C71
S3150200531091F8503C002BFBD1D6B14FF40C73224AC4
S31502005320A1F8483C92F8503CD807C3F30001F9D4DF
S3150200533047F2A834012011231C4DC2F8445C82F8BE
S31502005340401CA2F8144C82F8160C82F8003CF8BDF8
S3150200535047F2A8300123154C134AC1F8444C81F890
S31502005360406CA1F8140C81F8163C92F8003CDB075D
S31502005370FBD492F8503C002BF7D1012382F8103C63
S31502005380F8BD01272846FFF769FF094B284683F82F
S315020053905370FFF733FF044A84F8207C92F8503C9E
S315020053A01C07FBD4ADE700BF003000400325050013
S315020053B000E0014000BE704708B500F035F8FDF781
S315020053C091F8FEE7F8B5174F05463E68A6B17C6828
S315020053D006EB460604EB860602E00C34B4420BD01A
S315020053E0637AAB42F9D1D4E900020021121A0C34D5
S315020053F000F0B0FCB442F3D1BE6896B1FC6804EB8F
S31502005400061602E01034A6420BD0637BAB42F9D1FA
S31502005410D4E90002A168121A103400F002FDA64275
S31502005420F3D1F8BD0CAA0702F8B5B84AB84B5A61CF
S31502005430BFF34F8FBFF36F8F1B6803F47002B2F591
S31502005440801F00F03C8113F4600F00F0F280B14A35
S31502005450136843F004031360BFF34F8FBFF36F8FDC
S315020054604FF47002AC4BAA4C0020C4F88820A3600B
S31502005470FBF720F90025FFF773FC4AF202514FF4BD
S315020054802542A64B0120A3F8FA1383F8B05AA3F8D3
S31502005490FA23FBF70FF9A24B83F30A889D4B1A688E
S315020054A0910704D5A268B2F1007F00F00C810020BA
S315020054B0FFF788FFFFF750FBFFF79EFD0320FFF77C
S315020054C0CDFE00234FF00E0E1C464EF001E095492C
S315020054D003F10C0221F8224001330FF007C8032022
S315020054E0FFF78CFE0320FFF7B9FE8F4B884E5C60F8
S315020054F003209C60DC601C61FFF780FED6F8C0309A
