S02B0000766973696F6E5F61695F6574686F73755F6D6970696373695F676C63645F656B5F72613870315F6CD1
S315020000006000012247B9010211B7010255B9010286
S3150200001055B9010255B9010255B9010255B9010294
S3150200002000000000000000000000000051770102FD
S3150200003055B901020000000069770102D177010279
S31502000040F585010229850102CB8601025587010247
S315020000508DA30102D79C0102D79C010203960102DD
S31502000060ED97010237990102439A010245B0010256
S3150200007051AE01023D7E01020D7F01023B8D01025E
S31502000080BB8D0102938E0102158F0102938F01022D
S309020000905D7B010289
S315020000941000000000000000017A5200017C0E01EB
S315020000A41B0C0D0010000000180000007040030035
S311020000B410000000000000000000000028
S315020000C0010100000060090000900000000000002D
S315020000D000000000C8F81222000000000000000024
S315020000E000000000100F00000020344000283440B9
S315020000F00101000000000300497202024B72020273
S31502000100517202025173020249740202274C04021E
S30902000110CC4513229D
S31502000180B0B502AF44F2FC50C0F20B208568D0E94C
S3150200019000412A682046904769682046884740F20F
S315020001A08C000021C2F201200160B0BDB0B502AFE1
S315020001B044F2FC50C0F20B20856804682046A96808
S315020001C0884740F28C000021C2F2012001602046DD
S315020001D0E968884769682046BDE8B040084740F2AA
S315020001E08C00C2F2012000687047081A4CF6CD4115
S315020001F0CCF6CC41A0FB0101C80870474FF47A71D6
S31502000200B1FBF0F070470079002818BF704740F242
S315020002108C00C2F201200168013101607047F0B51D
S3150200022003AF2DE9000F81B02DED048B8CB0099040
S3150200023018461C46B0EE408A91460B9133F070FF89
S31502000240002801460A905DD04FEA09104FF00009D6
S3150200025000B2089044F68000DDF824A0C0F2032024
S31502000260002500F1100B07943FE051E903480120F5
S31502000270CDE9008050462246234603F08AFD00EE71
S31502000280104A0B9EB8EE400A01EE108AB8EE411AE9
S3150200029020EE089A21EE080A21B23401BCEEC91AF0
S315020002A0BCEEC00A11EE100A10EE103A00010FFA67
S315020002B088F200B21B01CDE9005008981BB20490E7
S315020002C00C2024B2CDE90234002305905046079C47
S315020002D003F090FDBDEEC90A10EE100A06440B9615
S315020002E00A9809F1010981450CD014F80900452242
S315020002F0594611F8103C8342B7D0013A01F55671BE
S31502000300F7D1EDE70CB0BDEC048B01B0BDE8000FF0
S31502000310F0BDB0B502AF82B0002005F059FF4FF62E
S3150200032098150021C2F21225286005F0C1FF42F29B
S3150200033000012868C6F61C014FF480624FF4806300
S315020003404FF0010C4FF49664CDE9004C0AF062F8C6
S315020003502868002109F0A7FB28680221032204F07D
S3150200036021FE2868012104F0FEFD2868FF2104F021
S31502000370DFFD2868012104F052FE2868002104F0FE
S315020003806EFE2868002104F07AFE002002B0B0BD9D
S31502000390D0B502AF4FF6701440F20661C2F21224D3
S315020003A00022204618F041FE0A2001211BF06BF9BB
S315020003B040F206610122204618F037FE78204FF4FB
S315020003C07A711BF060F94FF6401044F2DC41C2F23A
S315020003D01220C0F20B211AF062F830B1002040F66A
S315020003E00721012218F021FE00BE05204FF47A7182
S315020003F01BF049F94FF64010C2F212201AF0C3FA66
S3150200040030B1002040F60721012218F00EFE00BE90
S31502000410C8204FF47A711BF036F94FF6401042F2BB
S315020004200001C2F21220C6F61C0100221AF002FBDB
S315020004304FF6701040F20E51C2F21220012218F04D
S31502000440F4FD0020D0BD80B56F4642F200004FF4A5
S315020004501611C6F61C0033F02CFE80BDB0B502AFF5
S3150200046082B0007880074FF0000001902ED040F253
S315020004709005C2F201252C68FFF7B1FE014620461F
S31502000480FFF7B3FE4FF26871C2F212218860FFF7DE
S31502000490A6FE4FF694112860C2F212214CF27D306C
S315020004A0C0F2012001AB09684FF480621DF0E5FF3E
S315020004B060B1019850B14EF604504FF08051CEF221
S315020004C000000160BFF34F8FBFF36F8F40F29400BD
S315020004D0C2F201200178772901D80131017002B0F8
S315020004E0B0BDD0B502AF82B04FF69814C2F2122454
S315020004F0206808F00AFE40F2000042F20001C2F251
S315020005000020C6F61C014FF496124FF48063007861
S315020005104FF0010C00FB021120684FF480624FF489
S315020005201674CDE9004C09F075FF02B0D0BD80B556
S315020005306F464FF69810C2F21220006808F028FEA5
S3150200054040F2000C4FF49611C2F2002C00229CF8E5
S31502000550000000285FEA1F9342F200008CF8003088
S31502000560C6F61C0003FB010144F26450C0F20B20E4
S315020005700068BDE880401AF05DBAF0B503AF2DE918
S31502000580000F81B02DED048B8AB04FF6941680468B
S31502000590C2F212260021002530681BF0B0FE0004CC
S315020005A000F1EF8130684FF48061002201230126B9
S315020005B000961BF0EDFDFFF794FF4FF6981940F2F7
S315020005C04851C2F21229C2F201214FF420724FF4AD
S315020005D02073D9F800004FF4F074CDE9004603F019
S315020005E0D8FB4FF416514FF44852D9F80000CDE922
S315020005F000524FF4F0720023CDE902154FF4207138
S3150200060004950C26059603F0F5FB40F29605C2F218
S3150200061001252878012861D843F68413B7EE048AA7
S31502000620D9F80000C0F204234FF44D713222B0EE25
S31502000630480AFFF7F4FD46F2FA33D9F80000C0F291
S3150200064004234FF44D715A22B0EE480AFFF7E7FD34
S3150200065043F2F773D9F80000C0F204234FF44D7148
S315020006607822B0EE480AFFF7DAFD44F66B43D9F872
S315020006700000C0F204234FF44D71C822B0EE480ABE
S31502000680FFF7CDFD45F6F653D9F80000C0F2042374
S315020006904FF44D71E622B0EE480AFFF7C0FD48F26C
S315020006A05C13D9F80000C0F204234FF44D714FF4E5
S315020006B0AF72B0EE480AFFF7B2FD43F63F53D9F8E0
S315020006C00000C0F204234FF44D714FF4BE72B0EE37
S315020006D0480AFFF7A4FD28780130287040F29509F0
S315020006E0B8F1000FC2F2012900F0998046F2C0600B
S315020006F040F2101AC2F2122040F2E80B40F2C00495
S3150200070040F298080026051DC2F2012AC2F2012B08
S31502000710C2F20124B0EE048AC2F20128B7EE049AAC
S3150200072089F800600CE0013608350AF1020A0BF17D
S31502000730020B142E04F1020408F1020800F085806F
S3150200074035F8041C0029EED035F8020C0028EAD050
S3150200075009B200EE101AB8EEC00A00B201EE100A93
S31502000760B5F9000020EE080A02EE100AB5F90200F9
S31502000770B8EEC22ABDEEC00A22EE082A03EE100A1D
S31502000780B8EEC11AB8EEC33A10EE100A21EE081AF4
S31502000790BDEEC20A503023EE082A03EE100AB8EE66
S315020007A0C33ABDEEC11A10EE101ABDEEC20A23EE0E
S315020007B0093A0844B8EEC14A11EE101A10EE102A90
S315020007C001EE100A24EE094A5018BDEEC32AB8EE0D
S315020007D0C11A03EE100A99F80000B8EEC33A21EEE8
S315020007E0091A0130BDEEC40A89F8000023EE093A5F
S315020007F010EE102ABDEEC10A2280BDEEC31A10EE1B
S31502000800100AABF8000011EE100A12EE101AAAF83E
S315020008100000F0B2A8F8001000F0BAF883E746F23A
S31502000820C0600025C2F21220841C03E001350834A0
S31502000830142D0AD034F8020C0028F7D0208800289C
S31502000840F4D0E8B200F0A4F8F0E74FF268704FF681
S31502000850981AC2F21220C2F2122A48F26313B7EEB3
S31502000860048A0469DAF80000C0F204234FF44D71D9
S315020008704FF48C72B0EE480AFFF7D1FC47F6ED63EF
S31502000880DAF80000C0F204234FF44D714FF4D77228
S31502000890B0EE480AFFF7C3FC48F21F5049F69A1217
S315020008A0C5F2EB10C1F69912A4FB000144F6D3552A
S315020008B0C1F262054FF0300849094FF0303CA1FB06
S315020008C00236CDF820C04CF6CD4346F6205CCCF677
S315020008D0CC43C0F2730CA4FB0330CDF824C0A4FBB6
S315020008E00535B0EE480AC00806EB8603A0FB0226D1
S315020008F008EB95128DF82020A1EB430106EB860248
S3150200090041F0300100EB80038DF82110A0EB42008C
S315020009104FF48C7240F03000A4EB43018DF82200B4
S3150200092041F030008DF82300DAF8000008AB4FF4EE
S315020009304D71FFF774FC99F80000CD2243F23003A3
S31502000940ADF81C30C1B2002351438DF81E3007ABFF
S31502000950B0EE480ACA0A08EBD1218DF81C1002EB48
S3150200096082024FF44D71A0EB42004FF4D77240F071
S3150200097030008DF81D00DAF80000FFF750FCFFF793
S31502000980D6FD0AB0BDEC048B01B0BDE8000FF0BD88
S31502000990F0B503AF2DE9000F83B04FF69816044663
S315020009A0C2F2122600214FF47F024FF0000930688E
S315020009B004F0ABFA40F2980040F2C00A40F2E805B1
S315020009C0C2F20120C2F2012AC2F2012530F8141045
S315020009D030683AF8142035F8143009014FF0200B2C
S315020009E012011B0112B2009209B2CDE901B91BB282
S315020009F009F064F840F2101835F81410C2F2012812
S31502000A003AF814200901306838F81430120109B294
S31502000A10CDE901B91B0112B21BB200930B4609F0D4
S31502000A204DF840F2980035F81410C2F2012038F859
S31502000A3014200901CDE901B930F8143012013068E9
S31502000A4012B21B0109B21BB2009209F037F840F24A
S31502000A5098003AF81430C2F2012038F814201B012B
S31502000A60CDE901B930F8141012011BB23068090140
S31502000A7012B209B200930B4609F020F803B0BDE8A2
S31502000A80000FF0BD44F23C61C0F20B2107C91268A7
S31502000A901047F0B503AF4DF8048D044644F23C60AE
S31502000AA0C0F20B2040F24056C2F2012600228168B3
S31502000AB0056832602046D1F8088033F031FB0246E1
S31502000AC028462146C047044638B1142002F0E4FE07
S31502000AD000BE02E001201CF00DFD30680028F9D0AE
S31502000AE024B11420142402F0D7FE00E0002420468C
S31502000AF05DF8048BF0BD007901281BD0022814D0C2
S31502000B0004281DD140F23C500022C2F201200168A5
S31502000B10B2EB912F18BF704744F21C62C0F20B224F
S31502000B205278022A0DD8013109E040F24050C2F251
S31502000B30012003E040F23850C2F201200121016097
S31502000B4070470231FBE740F201010079C2F200214F
S31502000B5008707047D0B502AF82B0020A07F80A0CD5
S31502000B604FF6100007F80B2C07F8091CC2F21220E8
S31502000B70A7F10B0103220023002418F096FB10B103
S31502000B80012002B0D0BD40F201014FF6FF70C2F261
S31502000B9000210C7001380204F2D00A780AB92FF04B
S31502000BA007C8087800220A7001285FEA1F9002B07F
S31502000BB0D0BDF0B503AF2DE9000B82B08846010A1D
S31502000BC007F8190C4FF6100007F81A1CC2F2122089
S31502000BD0A7F11A0102220123012518F066FBB8B912
S31502000BE040F201060020C2F200264FF6FF74307072
S31502000BF04FF6FF700138010409D0317809B92FF098
S31502000C0007C8307801284FF00000307005D1012561
S31502000C10284602B0BDE8000BF0BD4FF610000122D7
S31502000C20C2F212200023414601254FF0000918F0B6
S31502000C3036FB0028ECD186F80090013C2004E6D071
S31502000C40307808B92FF007C8307801285FEA1F9577
S31502000C5000203070DCE7F0B503AF4DF8048D82B0AA
S31502000C604FF6701580460020C2F2122507F8120CC4
S31502000C7007F8130C40F209710022284618F0D5F93C
S31502000C8064201CF037FC40F209710122284618F054
S31502000C90CCF94FF2F07544F2F821C2F21225C0F2F5
S31502000CA00B21284619F05EF8284619F0CDF90A20DC
S31502000CB01CF020FC4FF6100001A9C2F2122018F017
S31502000CC0FFFA9DF80400002800F0A3804FF61000FA
S31502000CD03C21C2F212200122012418F0ECFAA7F1FB
S31502000CE0120143F20A00FFF764FFA7F1130143F270
S31502000CF00B00FFF75EFF17F8130CA0F140010A2064
S31502000D000C2900F2948041F2030204FA01F1114225
S31502000D1000F08D8049F20E004AF6AA26C0F204209F
S31502000D204FF6FF74851C03E028781CF0E3FB0435BC
S31502000D3035F8020CB042F7D0A04204D02978FFF76A
S31502000D4009FF0435F4E743F235001221FFF702FFEB
S31502000D5043F236008C21FFF7FDFE43F237001321E2
S31502000D60FFF7F8FE43F208100121FFF7F3FE44F203
S31502000D70B440A7F11101C0F20B204069047C44F68D
S31502000D801400FFF716FF17F8110C00F03F0040EAB7
S31502000D90841007F8110CC1B244F61400FFF7DAFE0C
S31502000DA0B8F1000F18D049F28C404AF6AA25C0F2D3
S31502000DB004204FF6FF76841C03E020781CF09AFB91
S31502000DC0043434F8020CA842F7D0B04204D0217899
S31502000DD0FFF7C0FE0434F4E744F202200F21FFF7C6
S31502000DE0B9FE05201CF086FB4FF62C1044F2B441E6
S31502000DF0C2F21220C0F20B2116F0E2FEB8B90520AB
S31502000E001CF078FB44F202200021FFF7A3FE00202B
S31502000E100DE04FF6100044F22031C2F21220C0F269
S31502000E200B2118F0F2F900283FF450AF642002B00B
S31502000E305DF8048BF0BD80B56F4640F248504FF422
S31502000E401621C2F2012033F034F980BD4FF62C1080
S31502000E500021C2F2122016F0B9BF40F2040146F296
S31502000E60485CC2F20021C2F20A2C0A68012A20DB7F
S31502000E7080B56F46DCF8003003F01F001044B0F175
S31502000E80200258BF0022D24310440122BFF34F8FE3
S31502000E9002EB501E4EF65C72CEF200021360203355
S31502000EA00FF005C0BFF34F8FBFF36F8F0A68BDE81F
S31502000EB0804040F24850DCF80010C2F2012033F0C4
S31502000EC006B9F0B503AF4DF804BD82B00178044609
S31502000ED0806801294FF00001019137D110F02000FE
S31502000EE034D046F24C56C2F20A263568FFF777F935
S31502000EF001462846FFF779F94FF26871C2F21221CC
S31502000F000860FFF76CF946F248514FF69412C2F2A6
S31502000F100A213060E068C2F2122208604CF27D308B
S31502000F201168C0F2012001AB4FF480521DF0A5FA00
S31502000F3060B1019850B14EF604504FF08051CEF296
S31502000F4000000160BFF34F8FBFF36F8F02B05DF8F1
S31502000F5004BBF0BD704700284FF0050C18BF0029EE
S31502000F6001D1604670479A4203D24FF0030C6046A5
S31502000F707047F0B503AF2DE9000F81B0D7F80CC06A
S31502000F80BCF1000F33D0D61AD7F808B04FF00009DB
S31502000F904FF07E0A06EBD67626F00105284400902D
S31502000FA0FFE74BF001C804E009F10109E1451ED053
S31502000FB0F7E709FB03F0009CB0FBFCF0504304EB9F
S31502000FC040000024B4FBFBF51C4430F81550C5F371
S31502000FD0C4260AEA151805F01F05454405EB460521
S31502000FE085F0800501F8015B0FF015C0DCE70020F3
S31502000FF001B0BDE8000FF0BDF0B503AF2DE9000F5B
S3150200100089B0044649F2AC40C0F20420D7F808E0A1
S31502001010083084E80F400020A062C4E908004B684B
S315020010200D6907958969D3E9003506915168DEE9AC
S31502001030000608905B68F01702936B680193D1E98A
S31502001040001306EBD06C156906EB107003954D681C
S3150200105059684FEA201838204FEA6C1B92690492AD
S315020010600091DEF81C100591DEE9039AB6F060FFE6
S315020010700799C16002990161019941610699C0E926
S31502001080061803214160C0E9081A0399089AC0F8B4
S3150200109000B0C0E90A150099016304994163B96871
S315020010A0C0F80890096AA261059AC4E90720383097
S315020010B06661C4E909002046E16209B0BDE8000F95
S315020010C0F0BDD4D4F0B503AF2DE9000F81B02DEDFC
S315020010D0088B8CB00446006900210B91856804F1E7
S315020010E0140190ED050A20462A462B460BAE0096C1
S315020010F000F034F92069E16990ED060A304601F004
S3150200110041FADDF82C90B9F1000F00F0098100EEEA
S31502001110105A4AF6AA22B8EEC08A4AF6AB23C0F69D
S31502001120AA22E069B6EE009A9FED8BAACAF6AA2316
S31502001130A446039405E0D9F80090B9F1000F00F037
S31502001140ED800128F7DB99ED040A99ED021A20EEEB
S31502001150090A99ED033A4FF0000A31EE002A31EE00
S31502001160400A23EE091A99ED013AB4EE482AF1EE45
S3150200117010FA33EE014AB5EE400A38FE022AF1EEC3
S3150200118010FAB4EE484A48BFB0EE4A0AF1EE10FA37
S3150200119033EE411A32EE402AB5EE401A38FE043AD0
S315020011A0F1EE10FA48BFB0EE4A1A33EE413ACDF8E4
S315020011B00890BDEEC11ABDEEC00ABDEEC33A11EEED
S315020011C0101ABDEEC22A0A9110EE101A099113EEF8
S315020011D0101A089112EE101A079116E00A98CBF827
S315020011E008000998CBF80C0008988BED00BBCBF8E9
S315020011F010000798CBF814000BF118046C60DCF8A9
S315020012001C000AF1010A824595DAD9F8141001EB9D
S315020012108A0191ED000AB5EE400AF1EE10FAF0DD10
S31502001220DCF80C50B7EEC0BAD5E901B08345D5D388
S315020012304E46D5F80090ABEB09010695C91001FBA5
S3150200124003F808F10101914200F28080A0EB090047
S3150200125045F25554C010C0F255545843B1EB400FF5
S3150200126038BF4100A04251EA32845CB1944270D840
S3150200127004EB4400C000B6F05BFE4AF6AB23CAF6A6
S31502001280AA2300E0002008EB4801CB4500EBC1028F
S315020012900A9991600999D160089982ED00BB1161A2
S315020012A0079951611AD09046CDE90424ABF1180B87
S315020012B0A8F118085E46C646CB4596E83E108EE86B
S315020012C03E10F3D1069D4AF6AB23DDE9029CCAF62F
S315020012D0AA23D5F800B0DDE9042404E09046069D71
S315020012E0DDF80CC0B14604EB440102F11804BBF16F
S315020012F0000FC5F8008000EBC101C5E9014108D025
S315020013005846664625F0E3FF4AF6AB23B446CAF6CC
S31502001310AA234AF6AA22C0F6AA226FE70B9C6CB948
S3150200132001200CB0BDEC088B01B0BDE8000FF0BD8A
S31502001330204625F0CCFF002D2C46F1D060692568A9
S315020013400028F5D0A06125F0C2FFF1E7069800F06B
S31502001350D4FA00F0CAFA00BF00000000F0B503AFED
S315020013602DE9000F81B02DED108B96B08A46D1E99A
S315020013700301814200F00A82B0EE408A0EAE00EE10
S31502001380102ADAF80890B8EEC0EA103600EE103AE3
S3150200139009F10505B8EEC0FA0196DFEDE98A0026E5
S315020013A000220B920895CDF830900CE0DAF8101076
S315020013B00A1A46F6B7539210CBF2DB635A4301364A
S315020013C0964280F0E381C6EBC60B50F82B20012A29
S315020013D0EEDB00EB8B0100EE102AF8EEC09A00233A
S315020013E0496805911146CDE9022607E050F82B100F
S315020013F0049BDDE9022601338B42D7DA0129FADBA7
S3150200140000EE103A03FB02F1F8EEC0AA04930023A1
S31502001410069105E050F82B10079B01338B42E5DA63
S3150200142000EB8B01079349680129F3DB069900EE6D
S31502001430103A1944059AF8EEC0BA514300240991AC
S3150200144008E04446DAF80C00013400EB8B014968E7
S315020014508C42DFDA00EB8B000999A0460C44C16886
S3150200146090ED051A04FB0511B8EEC11A91F90410A4
S3150200147000EE101AB8EEC00A30EE410A90ED041AD8
S3150200148021EE000A01F01AFFB4EE480AF1EE10FA54
S31502001490D7DDDAF80C0004FB05F600EB8B0000251D
S315020014A01295139514958DED150AC168B0EE409A02
S315020014B090ED051A90ED043A8A57314400EE102A4F
S315020014C091F90120B8EEC11A02EE102A91F9020032
S315020014D0B8EEC22A91F90310B8EEC00A32EE412ADA
S315020014E030EE410A23EE02AA02EE100A04EE101AA8
S315020014F0B8EEC22AB8EEC44A23EE000A32EE412AF8
S3150200150034EE411A23EE02BA23EE01CA01F0D6FEE8
S31502001510B0EE40DAB0EE4A0A01F0D0FE30EE2A0A08
S315020015203DEE2B1A80EE29AA8DED0FAAB0EE4B0ADC
S3150200153081EE29DA8DED0EDA32F0BAFCDAF80C0019
S3150200154000EB8B00806800EBC80090ED001A20EEDD
S31502001550010A9AED001AB8EEC11A80EE01BA8DEDB3
S3150200156010BAB0EE4C0A32F0A3FCDAF80C00B9F16C
S31502001570010F00EB8B00CDF82880806800EBC800D5
S3150200158090ED011A20EE010A9AED011AB8EEC11A7F
S3150200159080EE010A8DED110AC0F28A8000240D96B2
S315020015A005E0A5EC01AA013413954C4576D0DAF88C
S315020015B00C0000EB8B00C16890ED051A3144B8EEC1
S315020015C0C11A214491F9051000EE101AB8EEC00AAC
S315020015D030EE410A90ED041A21EE000A01F06EFE89
S315020015E029EE000A1498B4EE480AF1EE10FA30FE1B
S315020015F028AA8542D5D35E46DDF848B0D146A5EB8A
S315020016000B0A012101EBAA08B8F1804F80F0C580D0
S31502001610A0EB0B004FF6FC71C7F6FF71B8EB600F3B
S3150200162038BF4FEA6008884228BF6FF04048B8F1D9
S31502001630000F08D0B8F1804F80F0B2804FEA8800E0
S31502001640B6F076FC00E000204FEAAA015D4500EB09
S31502001650810282ED00AA0FD0AAF104010123B3464A
S3150200166003EB910E134655F8041D43F8041D0FF0C3
S3150200167007C01299CA4603E029461346CA46B3462C
S31502001680151DDDF8309000EB88001293CDE913505A
S3150200169011B1084625F01BFE0D9E84E79DED0EDA7C
S315020016A09DED0FAA9DED10BA9DED110A0A9C00E070
S315020016B044462DEE0E1ADAF818008DED0E1A2BEEB0
S315020016C00E1A0B998DED101A2AEE0F1A814220EE90
S315020016D00F0A8DED0F1A8DED110AA8BF012831DA16
S315020016E0B86804682420B6F023FC06460EAB0FCB7E
S315020016F0C6E90040129C3046B160A542C6E9032302
S315020017004FF0000140F8141FC6E9061111D02D1B37
S31502001710B5F1FF3F46DD2846B6F00AFC21462A46C9
S31502001720706100EB0508C6F81C8032F0D0FCC6F8E2
S31502001730188015983062B868089D0A9C066016E003
S31502001740000000000B99089D814214D1B86800215F
S31502001750006828B10246126801310AB12FF005C8A5
S3150200176000F0DBF8B9680EAA086000F01DF80B98C5
S3150200177001300B9003E0B9680EAA00F015F8129832
S3150200178000283FF45FAE25F0A2FD5BE616B0BDEC85
S31502001790108B01B0BDE8000FF0BD019800F0B5F85E
S315020017A000F0A3F800F0B1F8F0B503AF2DE9000F91
S315020017B081B008688846154658B195ED070A90ED3E
S315020017C0081AB4EE401AF1EE10FA05DD00240146BD
S315020017D00EE0002400210BE001460C4609680029B0
S315020017E0F8D091ED081AB4EE401AF1EE10FAF4DDD3
S315020017F0814240D02420D4F800A0B6F099FB0646D8
S31502001800D5E9049195E80D10C6E900A006F1080095
S31502001810494580E80C1030464FF00002C6E9062220
S3150200182040F8142F12D0A1EB090ABAF1FF3F26DDC8
S315020018305046B6F07DFB49465246706100EB0A0BF4
S31502001840C6F81CB032F043FCC6F818B0E86930623C
S315020018502660D8F800402068C8F80000606910B118
S31502001860A06125F034FD204601B0BDE8000FBDE8B9
S31502001870F04025F02CBD01B0BDE8000FF0BD00F030
S3150200188044F8016A49F2AC42C0F20422002902F18C
S315020018900802026008BF7047D0B502AF4162044633
S315020018A0084625F014FD2046BDE8D0407047016A7F
S315020018B049F2AC42C0F2042202F10802026049B1C6
S315020018C0D0B502AF41620446084625F000FD204627
S315020018D0BDE8D04025F0FBBC80B56F46014644F614
S315020018E0B600C0F2042030F0F6FC80B56F4648F62A
S315020018F0F230C0F2042030F0EEFC80B56F4647F2BB
S315020019008040C0F20420FFF7E7FF80B56F4647F23A
S315020019108040C0F20420FFF7DFFF022938BF70477C
S31502001920F0B503AF4DF804BD0FD10246006811466B
S3150200193090ED080A92ED081AB4EE410AF1EE10FA99
S315020019403AD5016000220A6066E001EBD1720B46CD
S3150200195004294FEA6201A3EB6204024609DB4A1E2E
S31502001960012A28BF0122A1EB020E024612680FF0DD
S3150200197003C8166800231360FFF7CFFF05463046FB
S315020019802146FFF7CAFF002D46D0B8B190ED081ADE
S3150200199095ED080AB4EE401AF1EE10FA10D501469A
S315020019A00A46096831B191ED081AB4EE401AF1EE11
S315020019B010FAF5D4156005E008462DE028462BE01E
S315020019C00146284600295FEA0F932AD02A6802B305
S315020019D091ED081A92ED080AB4EE401A1446F1EE99
S315020019E010FA0DD50B461A461B6833B193ED081A49
S315020019F0B4EE401AF1EE10FAF5D4296011681460BB
S31502001A00226800295FEA0F9322B1254611B12FF011
S31502001A1021C82C4603B121605DF804BBBDE8F04045
S31502001A2070472C46002BF6D1F6E749F2C04C0272FB
S31502001A30C0F2042C43720CF1080CC0E900C17047D5
S31502001A40F0B503AF4DF804BD0446A9B944F6754096
S31502001A500D46C0F20420164601F00FFF47F6F56068
S31502001A60C0F2042001F009FF45F6BD20C0F20420B1
S31502001A7001F003FF32462946237A6068002B036988
S31502001A8005D082690846194600F052FE02E0184661
S31502001A9032F01DFB607A20B161680869896900F03D
S31502001AA035FE01205DF804BBF0BD704725F00FBC82
S31502001AB000F02BBFF0B503AF4DF8048D82B046F2AD
S31502001AC0B4680024C2F20A2898F8000080BB49F2E2
S31502001AD02050C0F20420056801F000FC064601F021
S31502001AE002FC46F2505246F2C061C2F20A22C2F229
S31502001AF00A21CDE9000410462A46334600F037FF94
S31502001B0018B1012088F8000012E044F67540C0F2D0
S31502001B10042001F0B2FE44F20050C0F2042001F0AB
S31502001B20ACFE45F6BD20C0F2042001F0A6FE01245B
S31502001B30204602B05DF8048BF0BDF0B503AF4DF858
S31502001B4004BD86B00021CDE9041105218DF80B10E4
S31502001B5046F66D7146F25052C6F2645100916C21FE
S31502001B6003A8ADF80410C2F20A226946051D0395C0
S31502001B7000F02DF89DF90B00B0F1FF3F02DC009852
S31502001B8025F0A5FB03A800F078FA039E0446AE42B0
S31502001B900BD1049903A800F0A8F8204606B05DF818
S31502001BA004BBF0BDA8420646F3D0F06910B1016845
S31502001BB049688847716821B1084609680029FBD13E
S31502001BC0F0E7B0680168B1420646FAD1EAE7F0B535
S31502001BD003AF4DF8048D86B090460C46054600F0DC
S31502001BE09FF8291D814214D0A7F11D0149F2F04345
S31502001BF003AAC0F2042304A8CDE9002129462246FD
S31502001C00039400F0E6F80498C06910B101684968C7
S31502001C1088470820B6F08CF9064649F2F440C0F22D
S31502001C200420A7F11D01083049F2F04303AAC6E9D0
S31502001C300008C0F2042304A8CDE900212946224661
S31502001C40039400F0C6F80498C66106B05DF8048BEA
S31502001C50F0BD20290AD0D0F8E4203AB11830036842
S31502001C608B4205D0013A00F11C00F8D100207047E2
S31502001C7014387047F0B503AF4DF804BDD0F8E45000
S31502001C80B5B10C4600F11C0603E0013D06F11C0647
S31502001C900ED056F8040C2028F7D13068214632F0CF
S31502001CA0F9F90028F1D1A6F118005DF804BBF0BDE0
S31502001CB000205DF804BBF0BD80B56F46D0F8282140
S31502001CC0082A0ED84AB100F5847050F8203C8B429F
S31502001CD005D0013A00F10400F7D1002080BD00686A
S31502001CE080BD30F01FFB70477047002908BF704760
S31502001CF0B0B502AF0C4609680546FFF7F6FF616804
S31502001D002846FFF7F2FF94F91B00B0F1FF3F02DC11
S31502001D10206925F0DCFA2046BDE8B04025F0D7BAA6
S31502001D20F0B503AF2DE90007804658F8045F002D91
S31502001D304BD091F90B004446D1E9002A002852EA19
S31502001D40418958BF5FFA80FA95F91B006E6900282F
S31502001D5058BFC6B2284650F8101F51EA4080B24515
S31502001D605AEA3682494630F083FB56455FEA2F919E
S31502001D7000285FEA5F9051EA00800028284618BFD3
S31502001D80043054EA158405680DB12FF023C8444582
S31502001D901BD094F91B002146656951F8102F0028C3
S31502001DA052EA418158BFC5B2554555EA3A8248467C
S31502001DB030F05EFBAA455FEA2F9100285FEA5F904A
S31502001DC051EA0080002858EA14884046BDE8000718
S31502001DD0F0BDF0B503AF2DE9000F81B00D4689467F
S31502001DE0009055F8041FAB46002943D092F90B0028
S31502001DF0D2E90036002853EA428A58BFC6B203E047
S31502001E00DBF800105D46A9B308468B4650F8101F52
S31502001E1090F90B20D0F80480002A51EA408458BF7A
S31502001E205FFA82F8B04558EA3685504621462A4678
S31502001E3030F01EFB46455FEA2F9100285FEA5F906D
S31502001E4051EA00800128DBD0204651462A4630F06E
S31502001E500FFBB0455FEA2F9100285FEA5F9051EAD7
S31502001E600080012837D1DBF8041009B12FF035C004
S31502001E700BF104052020BC68B6F05AF82168044626
S31502001E80103091F90B20002A06D4D1E90023896883
S31502001E90C0E90023816003E0D1E9001230F07AF94B
S31502001EA00020E061C4E900002146C4F808B02C60B5
S31502001EB0D9F80000006800281CBFC9F8000029688C
S31502001EC0D9F8040000F010F8D9F808000130C9F872
S31502001ED00800012001E000205C4600990C600871B0
S31502001EE001B0BDE8000FF0BD81425FEA1F920A739E
S31502001EF008BF7047D0B502AF4FF0010C0AE0864525
S31502001F005FEA1F9183F80CC08EF80C10714682F8B6
S31502001F1000C064D08B681A7B002A60D1D3F808E02F
S31502001F20DEF800209A4205D022B312F80C4F002C9C
S31502001F30E5D01FE0DEF804201AB112F80C4F002C8F
S31502001F40DDD0186888424DD058680168596000296A
S31502001F501CBF8B60D3F808E07146C0F808E051F860
S31502001F60042B9A425EEA0181086003609860D0F809
S31502001F7008E038E01868884201D0194613E048683C
S31502001F80186000281CBF8360D3F808E07046C1F8C9
S31502001F9008E050F8042B9A425EEA008001604B602A
S31502001FA09960D1F808E001200873DEF804000021E8
S31502001FB08EF80C100168CEF80410002918BFC1F87B
S31502001FC008E0DEF8081081600A4652F8043B7345C1
S31502001FD051EA02810860C0F800E0CEF80800BDE8C8
S31502001FE0D0407047184601210173DEF80000002137
S31502001FF08EF80C104168CEF80010002918BFC1F8FF
S3150200200008E0DEF8081081600A4652F8043B734580
S3150200201051EA02810860C0F804E0CEF80800BDE883
S31502002020D0407047704725F052B9D0B502AF46F29C
S315020020305054C2F20A24204600F083FC49F20450AE
S3150200204049F2D441C0F20420C0F2042108302060D3
S3150200205001F10800A063002141F6B12044F250725A
S31502002060C0F20020C2F21322C4F81C11C4F8601197
S315020020702146BDE8D04030F0CFB9F0B503AF2DE927
S31502002080000F9FB00146052046F66D728DF81B00C3
S315020020906C20C6F26452ADF8140019A849F2F04356
S315020020A010AD049204AAC0F204231CAECDE900606E
S315020020B028461C92FFF78DFE10989DF91B10C069E9
S315020020C0B1F1FF3F446802DC049825F000F920468E
S315020020D000F070FFE8B10021204600F092FF0646AC
S315020020E00021204600F0D2FF80460121204600F062
S315020020F0CDFF7169C1B1096802292CDC44F675402D
S31502002100C0F2042001F0B9FB47F25570C0F2042078
S3150200211014E044F67540C0F2042001F0AEFB46F628
S315020021203F70C0F2042009E044F67540C0F2042074
S3150200213001F0A3FB44F21C50C0F2042001F09DFB07
S3150200214045F6BD20C0F2042001F097FB00201FB027
S31502002150BDE8000FF0BD0021029020464FF0000BB3
S3150200216000F0D9FFD0E9029A1CA8002200233146CA
S31502002170FFF75BFC49F6840019ABC0F20420414626
S31502002180029ACDE919BB0068129049F68800CDF88B
S315020021906CB0C0F20420139049F6A000CDE9109A63
S315020021A0C0F2042014904FF07C50159046F26660FF
S315020021B00095C3F6E66016900120CDE9170B04A838
S315020021C0FEF71AFF199846F26071B2691A90C2F2C6
S315020021D012211CA8B2F5104F28BF4FF41042FFF788
S315020021E02FFCD8B1FDF7FBFF0390204601F073F8F0
S315020021F0F8B1039CFDF7F3FF01462046FDF7F5FF14
S315020022004FF26871C2F21221086104A8FEF75AFF62
S31502002210D0B119A800F045F8012028E044F675402F
S31502002220C0F2042001F029FB44F6F800C0F20420B3
S3150200223014E044F67540C0F2042001F01EFB47F29A
S315020022408740C0F2042009E044F67540C0F204203B
S3150200225001F013FB43F2FF70C0F2042001F00DFB04
S3150200226045F6BD20C0F2042001F007FB00200C99C0
S3150200227049F2AC42C0F2042202F10802049229B1E8
S31502002280044608460D9125F022F8204619990029A0
S315020022903FF45DAF044608461A9125F018F8204629
S315020022A055E7F0B503AF4DF8048D82B0804600269F
S315020022B00024A5B20021002200232846009601F040
S315020022C0A5F8132D04F10104F3D3D8E900018142E4
S315020022D01ED04AF6AB250021CAF6AA25002601EB36
S315020022E0410100EBC100B0F90810B0F90C20B0F9B9
S315020022F01030B0F91440B0B2009401F087F8D8E972
S3150200230000010136091ACA10B1B26A438A42E6D8F6
S3150200231002B05DF8048BF0BD38307047B0B502AF3D
S3150200232088B001AD00F1380428460BF0A8FF46F646
S315020023305B430421C0F2012320462A4600F0B9F885
S3150200234001AD28460AF0B5FF46F615330321C0F261
S31502002350012320462A4600F0ACF801AD284609F0D2
S31502002360A2FD46F6F3130021C0F2012320462A46B7
S3150200237000F09FF801AD28460FF0E6FF46F67363BC
S315020023806121C0F2012320462A4600F092F801ADEF
S3150200239028460FF083F846F671532221C0F2012334
S315020023A020462A4600F085F801AD28460CF037FF94
S315020023B046F675531121C0F2012320462A4600F043
S315020023C078F801AD28460DF040F846F6872302213B
S315020023D0C0F2012320462A4600F06BF8204600F0A0
S315020023E019F8044688B144F67540C0F2042001F09B
S315020023F044FA45F6C020C0F2042001F03EFA45F642
S31502002400BD20C0F2042001F038FA002C5FEA1F90CA
S3150200241008B0B0BDF0B503AF4DF804BD054608F0EF
S31502002420A1FCD0B3064608F00EFED5F8E410044629
S31502002430082908D347F624300822C0F20420214690
S3150200244013F0C4FE12E028682146426828469047E7
S3150200245080B148F27110C0F2042013F0B7FE47F2C1
S315020024602D202146C0F2042013F0B0FE01205DF8B3
S3150200247004BBF0BDD5F8E400C0EBC0010130C5F8DD
S31502002480E40005EB810C0CF1040229CE29C296E880
S315020024902B002BC22020CCE9060400205DF804BBE9
S315020024A0F0BD80B56F4600F030FABDE8804024F0FA
S315020024B00EBFF0B503AF2DE9000B20290CD146F66D
S315020024C01710C0F2042013F081FE47F60A70C0F21C
S315020024D0042013F07BFE25E0164602689846054660
S315020024E012688946904758B143F68B10C0F2042011
S315020024F013F06CFE45F6EE204946C0F204200FE0CA
S31502002500D5F8E410082911D346F67A404946C0F2B6
S31502002510042013F05BFE43F27F500821C0F2042030
S3150200252013F054FE0120BDE8000BF0BDC1EBC10162
S3150200253005F1040C28460CEB81012CCE2CC196E841
S315020025403C003CC1D0F8E410D0F82831C1EBC102FE
S31502002550013100EB8303C0F8E4100CEB8202C2F8EF
S315020025601490C3F8E890D0F8281100EB8101C1F865
S315020025700881D0F828110131C0F828110020BDE8E1
S31502002580000BF0BD0129B8BF7047F0B503AF2DE9C6
S31502002590000B2DED068B82B08946B0EE408A0546C9
S315020025A000260DF10408B6EE009A9FED57AA002404
S315020025B003E001344C4500F09E8028680021019614
S315020025C028B10246126801310AB12FF005C8424607
S315020025D000F0E2F8286020B9EBE701680029084616
S315020025E0E7D0416901EB840191ED000A0168B5EE7D
S315020025F0400AF1EE10FAF1D049B9DAE7B4EE485AD8
S31502002600F1EE10FAC8BF166009680029E5D04A69DA
S3150200261002EB840292ED000AB5EE400AF1EE10FAE0
S31502002620F2D090ED030A91ED031A20EE092A90EDFD
S31502002630014A21EE093A91ED015A34EE426A35EE2B
S31502002640437A34EE022AB4EE476AF1EE10FA35EE18
S31502002650033AB0EE4A5AB4EE423A36FE074AF1EE71
S3150200266010FA32FE032A32EE443AB5EE403AF1EE61
S3150200267010FAC3D490ED042A91ED044A22EE095AC7
S3150200268090ED027A24EE096AD1ED020A77EE451A36
S3150200269070EEC62A37EE055AF4EE621AF1EE10FA19
S315020026A030EE866AB4EE456A31FEA27AF1EE10FA8F
S315020026B035FE065A35EE476AB0EE4A5AB5EE406A1C
S315020026C0F1EE10FA9AD423EE063AB0EE4A5AB5EE75
S315020026D0403AF1EE10FA91D021EE041AA0EE021A57
S315020026E031EE430AB5EE400AF1EE10FA83EE000A25
S315020026F00AFE005A82E702B0BDEC068BBDE8000B6B
S31502002700BDE8F040704700BF0000000080B56F468C
S31502002710002908BF80BD80FF500E01F001E090ED58
S31502002720003E02FF5021A0EC103E1FF009C080BD02
S3150200273080B56F4642F029C89FED140A9FED141A20
S315020027409FED142A10F8032B10F8023C04EE102A0F
S3150200275003EE103A10F8012CB8EE433AB8EE444AAA
S3150200276023EE003AA4EE013A04EE102AB8EE444AE9
S31502002770A4EE023ABCEEC33A13EE102AFF2A28BF91
S31502002780FF2201F8012B0FF023C880BDA245163F98
S315020027908716993ED578E93D022938BF7047F0B5CC
S315020027A003AF2DE9000B16D10346006812681946DD
S315020027B046695B6906EB820603EB820296ED000A26
S315020027C092ED001AB4EE410AF1EE10FA4BDD016009
S315020027D000220A6086E001EBD1730E4604294FEA15
S315020027E06301A6EB6308034609DB4B1E012B28BFD8
S315020027F00123A1EB030E03461B680FF003C8002555
S315020028001E681D601546FFF7C7FF814630464146E2
S315020028102A462C46FFF7C0FFB9F1000F62D020B35B
S3150200282023684169D9F81460A44601EB830106EBDB
S31502002830830691ED001A96ED000AB4EE401AF1EE07
S3150200284010FA14DD01460E46096849B14D6905EBD9
S31502002850830595ED001AB4EE401AF1EE10FAF2DC99
S31502002860C6F8009005E008463CE048463AE00146D4
S31502002870484600295FEA0F9539D0D9F8003073B37C
S31502002880DCF800601C464B6903EB8603656905EBC1
S31502002890860593ED001A95ED000AB4EE401AF1EEA4
S315020028A010FA13DD0B461D461B684BB15A6902EB43
S315020028B0860292ED001AB4EE401AF1EE10FAF2DC3C
S315020028C0C9F8001029682C60DCF80060236800292A
S315020028D05FEA0F9523B1A14611B12FF02DC84C46E0
S315020028E005B12160BDE8000BBDE8F04070474C46DB
S315020028F0002DF6D1F6E780B56F46FFF71EF90221E5
S31502002900002818BF0021084680BDD0B502AF044694
S31502002910806849F22451C0F2042101F108012160C4
S3150200292018B112F04FFB24F0D2FCA06A10B1E0629B
S3150200293024F0CDFCE06910B1206224F0C8FC2046E8
S31502002940D0BDD0B502AF044649F22450C0F20420ED
S31502002950002200F1080104F11400C4E90012212149
S315020029602274C4E9022231F0A4FB2046D0BDF0B5A0
S3150200297003AF2DE9000782B0044613B11868184464
S3150200298000E0002060600668861B3588052D48D366
S31502002990B688002E45D08059032842D120680E46BB
S315020029A0B968C4E90531816820469046FD688847C2
S315020029B0E5603DB900223046414611F09AFC0028F6
S315020029C0E0606CD0C420B5F0B3FAD4E9001506462F
S315020029D020464968884702460020E368CDE90000A0
S315020029E03046294612F088FAA66012F0E3FCD8B304
S315020029F044F67540C0F2042000F03FFF44F67E40E4
S31502002A00C0F2042000F039FF45F6BD20C0F20420D2
S31502002A1000F033FFA06810B312F0D4FA24F057FC8A
S31502002A201DE044F67540C0F2042000F026FF6068FF
S31502002A300168411A0A88052A03D3898809B14158CF
S31502002A4000E0002146F20F000322C0F2042000F04B
S31502002A5014FF45F6BD20C0F2042000F00EFF002050
S31502002A6002B0BDE80007F0BD606804F11C0868B159
S31502002A70A16859B109680A688A1A1388092B19D3F9
S31502002A801289BAB18B188958194414E0A14659F82B
S31502002A90202F59F8041C521A9310002228E044F6FB
S31502002AA07540C0F2042000F0E8FE43F61700C0F2BB
S31502002AB00420D1E000210A68002A00F02C8151F896
S31502002AC0042FA1468B18895859F8206F591AC988BC
S31502002AD05A185B5859F8041C761AD258B310B2EB3E
S31502002AE0A60F05D9D11A404600F063FB606805E0DF
S31502002AF0934203D901EB8201C9F8001050B30025B5
S31502002B00A06838B301680A688A1A1388092B05D3A4
S31502002B1012891AB18B188958194400E000210A68F3
S31502002B20002A00F0F88051F8042F8B188958591A98
S31502002B30C9885A18595851588D4280F0C280294680
S31502002B4012F01CFEE16941F825000135606808B102
S31502002B502FF02BC0A2465AF8280F564656F8041FE5
S31502002B60091A8A1000218A4202D900EB81003060DC
S31502002B700025606868B1A16859B109680A688A1AAD
S31502002B801388092B09D312893AB18B18895819442B
S31502002B9004E000218D4210D318E000210A68002AC1
S31502002BA000F0B98051F8042F8B188958591A0989EF
S31502002BB05A18595851588D4208D2A068294612F01F
S31502002BC01DFEA16A41F825000135D2E7D9F8002099
S31502002BD0D8F80010914235D03268DAF800309342C4
S31502002BE030D009680025097F84F8341040B3A16803
S31502002BF031B309680A688A1A1388092B05D3128920
S31502002C001AB18B188958194400E000210A68002A73
S31502002C1000F0818051F8042F8B188958591AC988F7
S31502002C205A18595851588D4219D2E06950F8251050
S31502002C300869896931F03DFA013560680028D6D104
S31502002C400021F0E744F67540C0F2042000F015FEBC
S31502002C5046F64810C0F2042000F00FFEF9E6002501
S31502002C6038B3A06828B300680168411A0A88092A9D
S31502002C7005D3098919B142184058104400E00020D2
S31502002C800168002947D050F8041F42184058101A0C
S31502002C90008911181058085885420CD2A06A50F8BB
S31502002CA025100869896931F004FA0135606800283F
S31502002CB0D7D10020F0E7204600F03CF8012020742E
S31502002CC0CEE600680168411A0A88092A05D30989ED
S31502002CD019B142184058104400E000200168D1B1F1
S31502002CE050F8041F2646421804F1280A405856F89E
S31502002CF02C3F101A00891118125856F8040C1B1A88
S31502002D0089589A10B1EBA30F7FF62DAF891A504658
S31502002D1000F04FFA2CE744F2AA2047F2892245F244
S31502002D209423C0F20420C0F20422C0F20423B0218C
S31502002D3018F0A7FCF0B503AF2DE9000F87B0834664
S31502002D408068002800F0DA80DBE90710814206D0AD
S31502002D500A68002A00F0E98004318142F8D1DBE9F1
S31502002D600A10814206D00A68002A00F0DE80043189
S31502002D708142F8D1DBF804000021002410F0D5F9D5
S31502002D80DBF8041082460A688A1A1388092B05D3CF
S31502002D90108900281EBF0E1808583418206800280B
S31502002DA000F0FF80072B54F8040F05D3D2881AB11E
S31502002DB08B188958194400E00021BAF1000F0291DC
S31502002DC000F0988004EB0008029800254FF00009F5
S31502002DD004300190CDF800B005E0BAF1010A09F11C
S31502002DE0010900F08780D8F80000A8EB00000188EE
S31502002DF00B2907D3408928B108EB000158F80000D7
S31502002E00084400E000200168494540F2B88000EB22
S31502002E10890359685A1852688A1A13449B88052BE3
S31502002E200AD3024402EB890212892AB111440844E8
S31502002E3000EB8900406800E000200299096881429F
S31502002E4040F29480019A02EB800152F82000DBF8EE
S31502002E5000200C18584651680695884701462046B8
S31502002E6006AA13F0C7F906990029B6D048692028A0
S31502002E7001D18C690BE044F27B24D128C0F20424F0
S31502002E8005D849F23851C0F2042151F820402046B3
S31502002E9031F046F906464FF6F770C7F6FF708642DE
S31502002EA07CD80B2E05D203AD8DF817607EB903AD23
S31502002EB012E046F0070000F1010B5846B5F038F86B
S31502002EC0054603904BF00040DDF800B00590284619
S31502002ED02146324631F005F90020A8559DF8171013
S31502002EE00025039849B2B1F1FF3F3FF776AF24F0D0
S31502002EF0EEF972E707B0BDE8000FF0BD44F6754083
S31502002F00C0F2042000F0B9FC42F63870C0F2042088
S31502002F1000F0B3FC45F6BD20C0F2042007B0BDE8C0
S31502002F20000FBDE8F04000F0A8BC44F67540C0F2C0
S31502002F30042000F0A2FC45F27E60C0F2042000F0FC
S31502002F409CFC45F6BD20C0F2042000F096FC44F637
S31502002F50994046F6AB4248F2A313C0F20420C0F2EF
S31502002F600422C0F20423992118F08BFB44F2AA2012
S31502002F7047F6C532C0F20420C0F2042207E044F24A
S31502002F80AA2046F26702C0F20420C0F2042245F2E9
S31502002F909423B021C0F2042318F073FB03A800F0B7
S31502002FA000F944F2AA2047F28922C0F20420C0F2B4
S31502002FB00422ECE7007C7047D0B502AF416849B104
S31502002FC0806838B112F0BBFBC8B146F67274C0F223
S31502002FD0042403E044F6BF44C0F2042444F67540D8
S31502002FE0C0F2042000F049FC204600F046FC45F6FB
S31502002FF0BD20C0F2042000F040FC0020D0BD01201C
S31502003000D0BD80B56F4642687AB382686AB31268E9
S315020030101368A2EB030CBCF80030092B07D3BCF8EB
S31502003020083023B102EB030CD258624400E00022BE
S315020030301368E3B152F804CF02EB0C0352F80C20EA
S315020030409A1AD28803EB020C9A585CF802208A423A
S315020030500BD950F81C2F43689B1AB1EBA30F3CBF48
S3150200306052F8210080BD00F018F9002080BD44F21C
S31502003070AA2047F2892245F29423C0F20420C0F224
S315020030800422C0F20423B02118F0FBFA80B56F4681
S3150200309042687AB382686AB312681368A2EB030CB9
S315020030A0BCF80030092B07D3BCF8083023B102EB79
S315020030B0030CD258624400E000221368E3B152F8CE
S315020030C004CF02EB0C0352F80C209A1A128903EB76
S315020030D0020C9A585CF802208A420BD950F8282F23
S315020030E043689B1AB1EBA30F3CBF52F8210080BD87
S315020030F000F0D3F8002080BD44F2AA2047F28922CC
S3150200310045F29423C0F20420C0F20422C0F2042342
S31502003110B02118F0B6FA80B56F46426882B382686B
S3150200312072B312681368A2EB030CBCF80030092BC9
S3150200313007D3BCF8083023B102EB030CD258624421
S3150200314000E000221368EBB152F804CF02EB0C0345
S3150200315052F80C209A1AD28803EB020C9A585CF8A1
S3150200316002208A420CD950F81C2F43689B1AB1EBF5
S31502003170A30F3EBF52F82100406980BD00F08DF8D2
S31502003180002080BD44F2AA2047F2892245F2942308
S31502003190C0F20420C0F20422C0F20423B02118F0C7
S315020031A070FA80B56F4647F6B830C0F20420FEF7D3
S315020031B093FBF0B503AF2DE9000F81B08046D0E94D
S315020031C00150421B8B46B1EBA20F1ED9D8F800A0C4
S315020031D0A5EB0A090BEBA906B6F1804F50D2A0EB7C
S315020031E00A004FF6FC71C7F6FF71B6EB600F38BFE7
S315020031F04610884228BF6FF040469EB1B6F1804F16
S3150200320041D2B000B4F094FE0DE0BBF1000F06D03F
S315020032104FEA8B01284630F04CFF05EB8B05C8F8C8
S31502003220045029E000204FEAA90100EB860600EBD4
S3150200323081044FEA8B01204630F03BFF554504EBF3
S315020032408B000CD0A9F10401012202EB910E55F874
S31502003250041D44F8041D0FF007C0D8F80050C8F842
S315020032600040C8E901063DB1284601B0BDE8000F9D
S31502003270BDE8F04024F02BB801B0BDE8000FF0BD68
S31502003280404600F002F8FEF730FB80B56F4647F283
S315020032908040C0F20420FEF71FFB80B56F4647F25E
S315020032A08040C0F2042000F000F880B56F46014667
S315020032B046F24560C0F204202FF00DF880B56F4645
S315020032C0B1EE400A30F0F4FDB7EE001A30EE010A14
S315020032D081EE000A80BD01680968084749F6C00008
S315020032E0C0F2042070474AF28010C0F2060070470E
S315020032F0B0B502AFD0B100F01F020A44B2F120030A
S3150200330058BF00230129B8BFB0BDD94311440122D9
S31502003310BFF34F8F02EB511E4EF68051CEF20001E3
S31502003320C1F8E80120300FF005C823E04EF68050C0
S315020033300021CEF2000043F6E07C4160BFF34F8FDE
S315020033400268C2F34E31D308C2F3C902541C9A076B
S315020033504B0103EA0C0544F001E01544C0F8EC51B8
S3150200336005F140450FF007C00029A1F10101A3F1C3
S315020033702003EED1BFF34F8FBFF36F8FB0BDB0B551
S3150200338002AFD0B100F01F020A44B2F1200358BFC7
S3150200339000230129B8BFB0BDD94311440122BFF3AE
S315020033A04F8F02EB511E4EF68051CEF20001C1F84C
S315020033B0DC0120300FF005C823E04EF680500021D4
S315020033C0CEF2000043F6E07C4160BFF34F8F026805
S315020033D0C2F34E31D308C2F3C902541C9A074B01F9
S315020033E003EA0C0544F001E01544C0F8E05105F18A
S315020033F040450FF007C00029A1F10101A3F1200306
S31502003400EED1BFF34F8FBFF36F8FB0BD132888BFC6
S315020034107047D0B502AF46F2C06CBC68C2F2122C3D
S315020034200CEBC00E2CF83010AEF80220AEF80430C9
S31502003430AEF80640BDE8D040704780B56F4682B010
S315020034404FF694160321C2F21226002201234FF0F0
S31502003450FF383068CDF8008018F09AFE40F20C0072
S3150200346044F24C31C2F20020C0F20B2114F0FFFAF2
S315020034703068042118F02AFE43F2F740C0F2002019
S315020034800FF0EAFCFEF716FB10B1012000F004FA79
S315020034903068082118F01AFE46F2C064C2F21224FD
S315020034A007E030684FF4804118F010FEC8201AF089
S315020034B021F830684FF4005101220123CDF8008033
S315020034C018F066FEA021204630F0F3FD00204FF4EE
S315020034D0C061012215F0A9FDFFF70DFA054600208D
S315020034E04FF4C061002215F0A0FD022DD9D10220B1
S315020034F000F0D2F9D5E72FF01DB880B56F4684B03B
S31502003500FDF7C0FA10B1132000F0C6F900F0BDFABB
S3150200351010B1162000F0C0F94FF670104FF4847106
S31502003520C2F21220002215F080FDFCF78CFFFCF798
S31502003530F0FE10B10A2000F0AFF9FCF729FF4FF6B2
S315020035409415C2F2122518B10A2000F0A5F903E07B
S315020035502868012118F0BAFDFDF76DFC0020FDF781
S315020035607AFB18B10F2000F097F903E028680221D0
S3150200357018F0ACFDFCF704FEFCF718FE4FF0FF3125
S31502003580286800910F210022012318F001FEFDF7A1
S315020035905DFC46F260704FF2607AC2F212204FF280
S315020035A064784FF2687B4EF6687900F01F00C2F22B
S315020035B0122AC2F21228C2F2122BC024CEF200093B
S315020035C0411E029160F01F0003902BE0BFF34F8F64
S315020035D0BFF36F8FFCF703FEC8F80000DAF80000AD
S315020035E0D8F80010FCF701FECBF80C0028684FF45F
S315020035F0005118F06BFD012019F07CFF28680021AC
S3150200360018F07DFEC0F3803628684FF4804118F02A
S3150200361076FE3046FCF7B1FF304600F051F8142032
S3150200362019F068FF28684FF48051012201234FF0F8
S31502003630FF36009618F0ACFDFCF7D1FDCAF8000083
S31502003640FDF70BFCFCF7CBFDC8F80000DAF800002A
S31502003650D8F80010FCF7C9FDCBF80400FCF7BFFD53
S31502003660CAF8000040F2485046F260714FF42072E8
S315020036704FF4F073C2F20120C2F21221CDE90044E6
S31502003680FDF769FC40F208000399C2F2002000220D
S315020036900068091851EA428101289BDB029A10440C
S315020036A0401A0121BFF34F8F01EB501E46F26070A4
S315020036B0C2F21220C9F8000020300FF005C885E7D3
S315020036C0F0B503AF2DE9000B84B040F2381543F68E
S315020036D0AC01C2F2012548F6560247F667738046E8
S315020036E0C0F20421C0F20422C0F2042328462EF0BE
S315020036F081FF2846FDF7CDF943F640211522C0F297
S315020037000B21284630F0E3FC2846FDF7C2F94FF2BA
S315020037106874C2F2122426683046FCF76FFD44F63E
S3150200372065510346C0F20421284632462EF062FF56
S315020037302846FDF7AEF966683046FCF75FFD44F2AF
S3150200374047310346C0F20421284632462EF052FF84
S315020037502846FDF79EF9E6683046FCF74FFD46F629
S3150200376061510346C0F20421284632462EF042FF3A
S315020037702846FDF78EF926693046FCF73FFD44F2EE
S315020037805E510346C0F20421284632462EF032FF2D
S315020037902846FDF77EF9A6683046FCF72FFD45F66A
S315020037A01A610346C0F20421284632462EF022FF51
S315020037B02846FDF76EF943F664511922C0F20B2131
S315020037C0284630F084FC2846FDF763F940F23810AB
S315020037D0B8F1000FC2F2012005D043F668310F227C
S315020037E0C0F20B2104E044F258111922C0F20B2157
S315020037F030F06DFC40F23819C2F201294846FDF755
S3150200380048F946F2C06047F21F58C2F2122000255C
S31502003810061DC0F20428002436F9043CA3B136F989
S31502003820020C36F9081B36F9062C01348DE807001E
S31502003830484641462A462EF0DDFE4846FDF729F95E
S315020038400135142DE8D100E01CB104B0BDE8000B2F
S31502003850F0BD40F2381444F20821C2F20124C0F24B
S315020038600B214122204630F032FC204604B0BDE84E
S31502003870000BBDE8F040FDF70CB9D0B502AF40F23F
S3150200388038140146C2F2012420462EF0B3FE204629
S31502003890FDF7FFF80020D0BD0138152800F2F380AD
S315020038A080B56F46DFE800F00B7850643396B46E4D
S315020038B0D246C8293DAA1F5A1582BEDC8CA040F208
S315020038C0381044F29001C2F20120C0F20B213722D5
S315020038D0CFE040F2381043F6CC51C2F20120C0F2DA
S315020038E00B215122C5E040F2381043F6FC21C2F208
S315020038F00120C0F20B215022BBE040F2381043F601
S315020039002051C2F20120C0F20B214222B1E040F264
S31502003910381043F6D831C2F20120C0F20B214722F9
S31502003920A7E040F2381043F62061C2F20120C0F24D
S315020039300B219DE040F2381044F2C801C2F2012088
S31502003940C0F20B215A2294E040F2381043F6784135
S31502003950C2F20120C0F20B2141228AE040F2381065
S3150200396043F66421C2F20120C0F20B21502280E00C
S3150200397040F2381044F24001C2F20120C0F20B219B
S31502003980422276E040F2381043F6B421C2F2012018
S31502003990C0F20B2148226CE040F2381043F628713F
S315020039A0C2F20120C0F20B213E2262E040F2381040
S315020039B044F27411C2F20120C0F20B214F2258E0E8
S315020039C040F2381043F6C861C2F20120C0F20B2160
S315020039D052224EE040F2381043F68061C2F20120D4
S315020039E0C0F20B21462244E040F2381043F6204151
S315020039F0C2F20120C0F20B2156223AE040F2381000
S31502003A0043F66871C2F20120C0F20B215C2230E05B
S31502003A1040F2381043F68051C2F20120C0F20B2167
S31502003A204A2226E040F2381043F6C471C2F201205F
S31502003A30C0F20B2153221CE040F2381044F26821F6
S31502003A40C2F20120C0F20B21422212E040F23810EB
S31502003A5043F6C841C2F20120C0F20B21552208E00A
S31502003A6040F2381043F68431C2F20120C0F20B2133
S31502003A70542230F02CFB40F23810C2F20120FDF73E
S31502003A8008F8BDE8804000BE704780B56F464FF625
S31502003A90601044F28C51C2F21220C0F20B2116F0D1
S31502003AA0AAF898B94FF6501044F27451C2F2122095
S31502003AB0C0F20B2116F09FF8002818BF80BD4FF602
S31502003AC06010C2F2122016F0E4F800B180BD4FF683
S31502003AD05010C2F21220BDE8804016F0DAB8D0B516
S31502003AE002AF82B04FF694140020C2F21224019063
S31502003AF0206818F03AFC0004216818D44CF27D3094
S31502003B0001ABC0F201204FF400421AF0B6FC60B1DC
S31502003B10019850B14EF604504FF08051CEF200009B
S31502003B200160BFF34F8FBFF36F8F02B0D0BD4CF26F
S31502003B3081304FF40042C0F20120002302B0BDE8FA
S31502003B40D0401AF09ABC7047022818BF704780B559
S31502003B506F464FF6701044F60821C2F21220C0F2E8
S31502003B600B2115F056FA0120BDE8804017F084BEFD
S31502003B7080B56F4684B04FF6F41044F2B823C2F211
S31502003B8012204FF27C7C44F2787EC0F20B2301684D
S31502003B904FF48052013101600220009043F6DD307D
S31502003BA047F66841C0F20020C0F20421C2F2122C8C
S31502003BB0C2F2132ECDE901EC19F02BFA4FF2EC7199
S31502003BC00028C2F2122108601CBF04B080BD00208A
S31502003BD0002104B0BDE8804000F062B8D0B502AF63
S31502003BE0044600F05FF82046BDE8D040FFF725BC4A
S31502003BF080B56F4684B04FF6F41044F24833C2F2F1
S31502003C0012204FF6500C48F2787EC0F20B23016860
S31502003C104FF48062013101600120009043F65D405D
S31502003C2045F20171C0F20020C0F20421C2F2122C48
S31502003C30C2F2132ECDE901EC19F0EBF94FF6C001F1
S31502003C400028C2F2122108601CBF04B080BD002009
S31502003C50002104B0BDE8804000F022B8D0B502AF22
S31502003C60044600F01FF82046BDE8D040FFF745BCE9
S31502003C7080B56F464FF67810C2F2122018F0F3F9AB
S31502003C804FF694110028C2F21221086018BF80BDB7
S31502003C9000200021BDE8804000F002B8FFF7E8BF2F
S31502003CA000BE7047B0B502AF4FF6EC144FF0FF31CD
S31502003CB0C2F21224206819F05EF8012803D02068A7
S31502003CC00021FFF7EDFF4FF6F010C2F21220017845
S31502003CD0002918BFB0BD01210170FFF7DFFF4FF6C3
S31502003CE0F415C2F212252868013828600CD0206823
S31502003CF000210022002318F0B3FC0128F3D020682B
S31502003D000021FFF7CDFFEEE7B0BD80B56F464FF657
S31502003D10F0124FF6F410C2F21222C2F21220002161
S31502003D2011704FF6F8120160C2F212224FF480703F
S31502003D30012118F047FC4FF6EC11C2F2122108607D
S31502003D4018B900200021FFF7ABFFFFF751FFFFF77D
S31502003D500FFF19F08BFC002080BD4FF6402C4FF66A
S31502003D60B023C2F2122CC2F21223C0F800C00B60BA
S31502003D708020106070474FF6B04C4FF62053C2F2C7
S31502003D80122CC2F21223C0F800C00B608020106011
S31502003D907047D0B502AFD7F80CC05FEACC6E04D537
S31502003DA090F882E05FEA0E6E17D55FEA8C6E04D554
S31502003DB090F882E05FEA8E6E0FD52CF0300EAEF1EF
S31502003DC00D0EBEF1020F0DD8D0F880E05FEACE34B8
S31502003DD008D40EF0FE04092C04D8092180F8C61175
S31502003DE00920D0BD406ABC6800F5B47080E81E1098
S31502003DF00020D0BDF0B503AF2DE9000F8DB0446AA7
S31502003E008246D7F808C0D7F81C90D4E95B060CEBBB
S31502003E10020ED4F87451B0F5006F03EB010093461D
S31502003E20A8BF29F00809B04208460C93C8BFF01A89
S31502003E30AE45DAF830800590C8BFA5EB0C0BB8F199
S31502003E40000F5FEA0F9019F4807F5FEA1080E37D2E
S31502003E50D4F8785101280B90CDE9091274D188F86B
S31502003E60003094F80E0188F8020094F8D50088F81C
S31502003E700100D4F8FC00C8F80400D4F80001C8F820
S31502003E800800D4F82C01C8F80C0094F8E90088F868
S31502003E902900D4F83801C8F81000D4F83401C8F85B
S31502003EA0140094F8E80088F82800D4F8EC00C8F862
S31502003EB01800D4F8F000C8F81C00D4F8F400C8F8CA
S31502003EC02000D4F8F800C8F8240094F8EA0088F82C
S31502003ED02A0094F8EB0088F82B00D4F83C01C8F8C5
S31502003EE02C00D4F84001C8F83000D4F82401C8F8F0
S31502003EF03400D4F85801C8F83800D4F85C01C8F880
S31502003F003C00B4F8A800A8F85400B4F8AA00A8F82F
S31502003F105600D4F8A000C8F84C00D4F8A400C8F89B
S31502003F205000D4F89800C8F84400D4F89C00C8F8A9
S31502003F304800D4F8B000C8F85C00D4F8B400C8F859
S31502003F4060000020069000E006930321504600F030
S31502003F50B7FF00210022504606F07DF8E8060895D4
S31502003F6000F15580D4F87801002620F0300042286E
S31502003F7000F27080DFE810F043005B0065005B0032
S31502003F805B00880165005B005B0043004300430061
S31502003F9043004300430043006E006E006E006E0055
S31502003FA06E006E006E006E006E006E006E006E0099
S31502003FB06E006E006E006E006E006E006E006E0089
S31502003FC06E006E006E006E006E006E006E006E0079
S31502003FD06E006E006E006E006E006E006E006E0069
S31502003FE06E006E006E006E006E006E006E006E0059
S31502003FF06E006E006E006E0065005B005B00D4E929
S315020040005A010C9A1044BA6801FB020622E009F032
S315020040100F015046D4F8686105F0F1FED4E95D015E
S31502004020D4E95B23CDE900015046314620E0D4E9CC
S315020040305A01BA6851430C9A00EB420000EB410662
S3150200404008E0D4E95A01BA6851430C9A00EB82009F
S3150200405000EB810609F00F01504605F0D0FED4F8B8
S315020040607801D4F86C21CDE900B050463146059B63
S3150200407005F066FD4FEA09604FF07F4101EAE07004
S315020040805FEA896109F0A001FB6858BF4FF07F40E3
S31502004090A03918BF4FF07F415FEAC962DDE9095CCA
S315020040A005D45FEA496207D46FF07F4207E05FEA10
S315020040B04962A26801D402E0A2681043E268114391
S315020040C094F80E21D7F810B0112BC4E9560142F02C
S315020040D0050084F80E01CDF81CA005D398B2290577
S315020040E0B1FBF0F14B0802E04FF480310023D7F820
S315020040F018E0BBF1110FD7F814A007DB4FEA0C52F8
S315020041001FFA8BF6B2FBF6F6720802E04FF480361F
S31502004110002219F4007018BFC3EB054351EA01B03F
S3150200412019F48061089956EA06B618BFC2EB0C422A
S315020041305FEA497501F0100148BFA3F500435FEA43
S31502004140097548BFA2F5004200290C9918BF03EB76
S315020041500143B968754618BF02EB0142CDE900205A
S315020041600020DDF81C905146CDE902004846724611
S31502004170049605F04EFFF868CDE9000B4846214645
S3150200418052462B4600F029FC0B98002873D098F86B
S315020041900000E07598F8020084F80E0198F8010014
S315020041A084F8D500D8F80400C4F8FC00D8F8080052
S315020041B0C4F80001D8F80C00C4F82C0198F82900BC
S315020041C084F8E900D8F81000C4F83801D8F81400C9
S315020041D0C4F8340198F8280084F8E800D8F81800E2
S315020041E0C4F8EC00D8F81C00C4F8F000D8F8200097
S315020041F0C4F8F400D8F82400C4F8F80098F82A00A5
S3150200420084F8EA0098F82B0084F8EB00D8F82C0022
S31502004210C4F83C01D8F83000C4F84001D8F834009C
S31502004220C4F82401D8F83800C4F85801D8F83C007C
S31502004230C4F85C01B8F85400A4F8A800B8F856000F
S31502004240A4F8AA00D8F84C00C4F8A000D8F8500088
S31502004250C4F8A400D8F84400C4F89800D8F8480076
S31502004260C4F89C00D8F85C00C4F8B000D8F8600026
S31502004270C4F8B40003E04846069900F021FE002087
S315020042800DB0BDE8000FF0BD9AF88200800603D497
S3150200429009208AF8C601F3E71020C0F20400C4F828
S315020042A02C01012084F8E900A9E6F0B503AF2DE957
S315020042B0000F83B0BE688146002E4FF0000000F06A
S315020042C093828846F9680129C0F28E8222F00F0095
S315020042D01644ADF8040023F00F00ADF80600701E78
S315020042E05C1820F00F00ADF80800601E20F00F00E9
S315020042F0ADF80A0001A948469B46154606F02FF975
S31502004300B8B1A6F11000A4F110010FFA80FA4846DE
S315020043100CB2414604F0B6FF98F8D50081074FEA81
S31502004320C07008D4002840F01C8101AA0023002096
S315020043302EE2002058E2002840F013814AEA0500E6
S3150200434044EA0B0100074FEA017000F05182BDF901
S3150200435004104FF480320028A1EB050140F200055B
S31502004360CFF6FF7502EB0131D9F8B82102F1080345
S31502004370C9F8B8314FF00403C2E90031D9F8BC11CB
S31502004380A1F10100C9F8BC0100F0B282012903DCE7
S31502004390D9F8C01148468847D9F8B8014FF4803297
S315020043A000F10801C9F8B8110A21C0E90012D9F8CA
S315020043B0BC010138C9F8BC0103DCD9F8C011484672
S315020043C08847D9F8B801002200F10801C9F8B811E6
S315020043D01021C0E90012D9F8BC010138C9F8BC01A4
S315020043E003DCD9F8C01148468847BDF904004FF4EA
S315020043F08031AAEB000001EB0030D9F8B81101F1C7
S315020044000802C9F8B8210522C1E90020D9F8BC0181
S315020044100138C9F8BC0103DCD9F8C01148468847FF
S31502004420D9F8B80100F10801C9F8B8110B21C0E9A1
S315020044300015D9F8BC010138C9F8BC0103DCD9F86A
S31502004440C01148468847D9F8B801002200F1080190
S31502004450C9F8B8111121C0E90012D9F8BC01013816
S31502004460C9F8BC0103DCD9F8C01148468847BDF932
S3150200447006004FF48031A0EB0B0001EB0030D9F8B7
S31502004480B81101F10802C9F8B8210622C1E90020D3
S31502004490D9F8BC010138C9F8BC0103DCD9F8C0114E
S315020044A048468847D9F8B801002200F10801C9F840
S315020044B0B8110C21C0E90012D9F8BC010138C9F8BB
S315020044C0BC0103DCD9F8C01148468847D9F8B801BF
S315020044D04FF4803600F10801C9F8B8111221C0E97B
S315020044E00016D9F8BC010138C9F8BC0103DCD9F8B9
S315020044F0C01148468847BDF90600D9F8B81101F13E
S315020045000802C9F8B821201A072206EB0030C1E9D1
S315020045100020D9F8BC010138C9F8BC0103DCD9F87E
S31502004520C01148468847D9F8B801002200F10801AF
S31502004530C9F8B8110D21C0E90012D9F8BC01013839
S31502004540C9F8BC0103DCD9F8C01148468847D9F836
S31502004550B80100F10801C9F8B8111321C0E9001524
S3150200456009E1BDF90400D8F81011401B484301EBDC
S315020045701010D9F8B81101F10802C9F8B8210422BD
S31502004580C1E90020D9F8BC010138C9F8BC0103DC35
S31502004590D9F8C01148468847D9F8B811D8F8100199
S315020045A001F10802C9F8B8210A22C1E90020D9F8A6
S315020045B0BC010138C9F8BC0103DCD9F8C011484670
S315020045C08847D9F8B801002200F10801C9F8B811E4
S315020045D01021C0E90012D9F8BC010138C9F8BC01A2
S315020045E003DCD9F8C01148468847BDF90400D8F85B
S315020045F01011AAEB0000484301EB1010D9F8B811CC
S3150200460001F10802C9F8B8210522C1E90020D9F84A
S31502004610BC010138C9F8BC0103DCD9F8C01148460F
S315020046208847D9F8B811D8F8100101F108024042BA
S31502004630C9F8B8210B22C1E90020D9F8BC0101381A
S31502004640C9F8BC0103DCD9F8C01148468847D9F835
S31502004650B801002200F10801C9F8B8111121C0E918
S315020046600012D9F8BC010138C9F8BC0103DCD9F83B
S31502004670C01148468847BDF90600D8F81011A0EBCC
S315020046800B00484301EB1010D9F8B81101F10802EA
S31502004690C9F8B8210622C1E90020D9F8BC010138BF
S315020046A0C9F8BC0103DCD9F8C01148468847D9F8D5
S315020046B0B801002200F10801C9F8B8110C21C0E9BD
S315020046C00012D9F8BC010138C9F8BC0103DCD9F8DB
S315020046D0C01148468847D9F8B811D8F8100101F137
S315020046E00802C9F8B8211222C1E90020D9F8BC0192
S315020046F00138C9F8BC0103DCD9F8C011484688471D
S31502004700BDF90600D8F81011201A484301EB101023
S31502004710D9F8B81101F10802C9F8B8210722C1E98E
S315020047200020D9F8BC010138C9F8BC0103DCD9F86C
S31502004730C01148468847D9F8B801002200F108019D
S31502004740C9F8B8110D21C0E90012D9F8BC01013827
S31502004750C9F8BC0103DCD9F8C01148468847D9F824
S31502004760B811D8F8100101F108024042C9F8B8217F
S315020047701322C1E90020D9F8BC010138C9F8BC01ED
S3150200478003DCD9F8C0114846884701AA04230F2042
S3150200479000904846414602F063F901AE0546002301
S315020047A0484641463246002404F0BBFA00234846F6
S315020047B04146324605F07FFCD9F8B80100F10801FE
S315020047C0C9F8B811C0E90045D9F8BC010138C9F8E1
S315020047D0BC0103DCD9F8C0114846884701A900226A
S315020047E0484605F012F8012003B0BDE8000FF0BDFF
S315020047F000283FF49AADBDF906004FF48031A0EBD4
S315020048000B0001EB0030D9F8B81101F10802C9F822
S31502004810B8210422C1E90020D9F8BC010138C9F83F
S31502004820BC0103DCD9F8C01148468847D9F8B8015B
S31502004830002200F10801C9F8B8110A21C0E90012E4
S31502004840D9F8BC010138C9F8BC0103DCD9F8C0119A
S3150200485048468847D9F8B8014FF4803500F1080177
S31502004860C9F8B8111021C0E90015D9F8BC01013800
S31502004870C9F8BC0103DCD9F8C01148468847BDF91E
S315020048800600D9F8B81101F10802C9F8B821201AB0
S31502004890052205EB0030C1E90020D9F8BC01013838
S315020048A0C9F8BC0103DCD9F8C01148468847D9F8D3
S315020048B0B801002200F10801C9F8B8110B21C0E9BC
S315020048C00012D9F8BC010138C9F8BC0103DCD9F8D9
S315020048D0C01148468847D9F8B801112200F10801EB
S315020048E0C9F8B8110021CFF6FF71C0E9002166E0D0
S315020048F0012903DCD9F8C01148468847D9F8B8011E
S315020049004FF4803200F10801C9F8B8110A21C0E952
S315020049100012D9F8BC010138C9F8BC0103DCD9F888
S31502004920C01148468847D9F8B801002200F10801AB
S31502004930C9F8B8111021C0E90012D9F8BC01013832
S31502004940C9F8BC0103DCD9F8C01148468847BDF94D
S3150200495004004FF48031AAEB000001EB0030D9F8D5
S31502004960B81101F10802C9F8B8210522C1E90020EF
S31502004970D9F8BC010138C9F8BC0103DCD9F8C01169
S3150200498048468847D9F8B80100F10801C9F8B811B4
S315020049900B21C0E90015D9F8BC010138C9F8BC01E0
S315020049A003DCD9F8C01148468847D9F8B801002275
S315020049B000F10801C9F8B8111121C0E90012D9F8AD
S315020049C0BC010138C9F8BC0103DCD9F8C01148465C
S315020049D0884701AA02230320DAE680B56F4682B031
S315020049E0D7E902CECDE900CEFFF75FFC02B080BD6B
S315020049F0F0B503AF2DE9000F83B004460D4641F230
S31502004A000008B0F872A0B0F87600B4F87460616C71
S31502004A10B4F978B0C0F240180329ADF804A0ADF895
S31502004A200800ADF80660ADF80AB014DCA26E12F00A
S31502004A30100210D1042292FBF1F9216C91FBF9F2DA
S31502004A4002FB191139B994F83C10890704BFE16CCD
S31502004A505FEA81724BD0204601F036FBD4F8B801EA
S31502004A6000F10801C4F8B8111921C0E90015D4F8FB
S31502004A70BC010138C4F8BC0103DCD4F8C0112046DD
S31502004A808847D4F8B80100F10801C4F8B81100212A
S31502004A90C0E90011D4F8BC010138C4F8BC0103DC3A
S31502004AA0D4F8C01120468847D4F8B811606D01F1D8
S31502004AB0080240EA0800C4F8B8210122C1E9002030
S31502004AC0D4F8BC010138C4F8BC0103DCD4F8C01127
S31502004AD02046884701A90022204604F096FE204679
S31502004AE001F0F2FA002003B0BDE8000FF0BDBAF102
S31502004AF00F0FB0D802B2481EB0EB221FABD1A06C8A
S31502004B00009207280FD8DFE800F004314210424233
S31502004B104020280E05F07F4141EA004141EA00208B
S31502004B2040EA156533E0412831D14FF470404FF425
S31502004B30706100EA1540F02201EA153102EA1522F7
S31502004B400844C5F3031110441BE04FF4704005F00E
S31502004B50F00100EA15204FF4706241EA157102EA8B
S31502004B6015120844104400EB004510E04FF478405B
S31502004B704FF4FC6100EA152001EA55110844C5F319
S31502004B80C401084400EB004501E04FEA35652046C2
S31502004B9001F09AFAD4F8B80100F10801C4F8B81184
S31502004BA01921C0E90015D4F8BC010138C4F8BC01CA
S31502004BB003DCD4F8C01120468847D4F8B80100F1C6
S31502004BC00801C4F8B8110021C0E90011D4F8BC01EB
S31502004BD00138C4F8BC0103DCD4F8C011204688476A
S31502004BE0D4F8B80108F5001200F10801C4F8B811AA
S31502004BF00121C0E90012D4F8BC0100990FFA86F827
S31502004C00A1EB0A0601384FF00105C4F8BC0103DC2A
S31502004C10D4F8C01120468847206CD4F8B81101F1A7
S31502004C200802C4F8B82190FBF9F01F2205EB2616FC
S31502004C3080B2C1E90020D4F8BC01ABEB080501380B
S31502004C40C4F8BC0103DCD4F8C011204688474FF6ED
S31502004C50FF70290321EA000000F58030B6FBF9F166
S31502004C600843D4F8B81101F10802C4F8B8211E228B
S31502004C70C1E90020D4F8BC010138C4F8BC0103DC48
S31502004C80D4F8C01120468847606C04282DD002282B
S31502004C900DD001287FF423AFD4E90F014FEA281380
S31502004CA000EB1A10D4F8B82101FB03000CE0D4E99A
S31502004CB00F014FEA28124FEA1A135143D4F8B821CA
S31502004CC000EB430000EB410002F10801C4F8B81101
S31502004CD02021C2E90010D4F8BC010228A0F101008B
S31502004CE0C4F8BC01BFF6FBAE1BE0D4E90F014FEAE4
S31502004CF028126FF00303514303EA9A021044D4F8D0
S31502004D00B82100EB810002F10801C4F8B811202194
S31502004D10C2E90010D4F8BC010138C4F8BC013FF75F
S31502004D20DEAED4F8C01120468847D8E6D4D4D4D40F
S31502004D30F0B503AF4DF8048D04464FF4BE7003F090
S31502004D4064FF00284FF0010100F09E806FF07F4261
S31502004D504FF07F43C0F84C314FF0FF38C0E90142B3
S31502004D600026C0F8286180F80E61C0E903280222F5
S31502004D7080F8D5204FF0100CC0E954334FF4803E32
S31502004D80A0F814C0C0F810E14FF4B055C0F81C5199
S31502004D90D4F880504FF470322D014FF0040340F2E4
S31502004DA00805C2F2400558BF4FF48005C0F8342109
S31502004DB04FF40022C0F82C2139A2C0F8205180F805
S31502004DC0E930C0F83C6192ED001FC0E95066626DA1
S31502004DD0C0F830E12A43C0F818E142F4002200F19B
S31502004DE0C40E42F4B052C0F82421AA22C0F81421FB
S31502004DF080F8D410A0F80C118EE84C1040F2011283
S31502004E0000F11C0180ED160F0546A0F8D6204022BF
S31502004E10C0F8D82080F80F61C0E93F66C0F8486143
S31502004E20C0E94166084601F013FE05F1340001F0BF
S31502004E300FFE05F14C0001F00BFE05F1640001F0D6
S31502004E4007FE05F17C0001F003FE05F1940001F076
S31502004E50FFFD05F1AC0001F0FBFD15A005F1E40133
S31502004E60C5E9376890ED001F0C2085F8E80081ED52
S31502004E70000F20462946C5F8388105F003F8E16996
S31502004E80284629600021E56184F8C6115DF8048B85
S31502004E90F0BD00BF00BF00BF00BF00BF00BF00BF24
S31502004EA001000000000000000000000000000000F9
S31502004EB001000000030000000300000003000000E0
S31502004EC00246406A032990F80E31C17543F0010388
S31502004ED080F80E3114D8DFE801F00202070D90F8CF
S31502004EE0D51001F0F30109E090F8D51001F0F301B5
S31502004EF0043103E090F8D51041F00C0180F8D5108A
S31502004F000020002182F8C61170470346406A00EB72
S31502004F10810022F07F418160586A90F80E1141F0BB
S31502004F20010180F80E110020002183F8C611704796
S31502004F308446406A827C90F80E318A4243F001022E
S31502004F4080F80E2103D043F0070280F80E21827DFD
S31502004F508174D20702D00906C0F84C110020002144
S31502004F608CF8C61170478446406A827D90F80E31ED
S31502004F708A4243F0010280F80E2103D043F0070271
S31502004F8080F80E21CA07817502D14FF07F4101E0F8
S31502004F90817C0906C0F84C11002000218CF8C6114C
S31502004FA07047D4D4B0B502AFD0F824E003299EF8F6
S31502004FB00EC14CF001038EF80E310ED8032A0CD81E
S31502004FC044F66023C0F20B2353F82110DFE802F007
S31502004FD0020C070A41F4805106E010211BE041F45D
S31502004FE0806101E041F4A051CEF81C11DEF82C21BB
S31502004FF0436DDEF820C1DEF83C511A43DEF840313B
S3150200500042EA0C02DEF844412A431A432243114380
S31502005010CEF82411002180F8C6110846B0BD02461A
S31502005020406A90F8D53039B143F0020180F8D510C4
S315020050300021C0F828110DE04FF4FC41C0F82811F8
S315020050404FF48031C0F8101103F0FC0180F8D5103E
S31502005050102181820020002182F8C6117047024683
S31502005060406A0023022980F8D6104FF0000108BFDB
S31502005070032380F80F31002082F8C61170470246DA
S31502005080406A80F8D7100020002182F8C6117047C6
S31502005090D0F84C11027C437C090A6FF07F4C01FB6D
S315020050A002C201FB03C190F80E3102F07F4201F009
S315020050B07F41C0E9542103F0FD0180F80E117047CB
S315020050C0F0B503AF2DE9000F85B0044691F8D5007F
S315020050D0D7E902599346D7F814A03E69C007A3EB55
S315020050E00908A5EB090C38D10FFA8CF10FFA88F2F0
S315020050F052EA010040F20000CFF6C07000F0908044
S31502005100AE461FFA89F590FBF9FC02FB02F0049603
S3150200511011FB010009EBD53636B2114410228CFB85
S3150200512000054FEAEC08A2EB4303A2EB4E0250EA5B
S31502005130DF2508FB03F301EB560608FB02F14FEAF3
S31502005140E37CA0EB0632C817049E03EB1C7301EB4B
S3150200515010704FEA23190511B6E001A8049680E8FB
S31502005160200CB86918B194F8830040076AD44FF04E
S315020051707840B1F91420D1F810B1009390FBF9F000
S31502005180D617E246C517334650EA0F2529462FF0B1
S31502005190E7F918FB08F21FFA89F31AFB0A2209EB50
S315020051A0D333120A0FFA83FCA0FB026501FB0255F8
S315020051B00FFA88F606FA8AFE01FB02F3ED172E0FA6
S315020051C00EEB6C05E0FB02634FEAE57CA5FB0B25C3
S315020051D056EA2F130CFB0B5552EA0F15B21AAB41C6
S315020051E0CD17DE1712EB1662019E43F1000310EB98
S315020051F0155841F10001102058EA1F31009952EA70
S315020052001F23A0EB4101A0EB460001FB08F100FBC6
S3150200521008F0CD17C61701EB157100EB16704DE0BD
S3150200522000F5601090FBF9F81020A0EB490008FB8E
S3150200523000F0C11700EB117000210511A1EBC92284
S31502005240A94641E04FF07840B1F9142018FB08F660
S315020052501FFA89F590FBF9F01CFB0C66E246800109
S315020052600FFA88FE4FEA162B09EBD53690FBF2F2BF
S31502005270D1F81011002582FB0B0C4FEA22184FEAD7
S315020052801C700FFA86FC0EFA8AF6C2FB0B0506EBB9
S315020052905C0650EA2F1571431026A6EB430208FB63
S315020052A002F3019AA6EB4202DD1708FB02F6A0EB17
S315020052B0810203EB1571F01706EB10704FEA211904
S315020052C00511DDE902AB049EBAF1000F0BF10400F1
S315020052D002EB06016DD0D4F8B821494202F1080367
S315020052E0C4F8B831C2E90001D4F8BC010138C4F8E7
S315020052F0BC0103DCD4F8C01120468847D4F8B811A3
S315020053000BF1050001F10802C4F8B821C9F1000247
S31502005310C1E90002D4F8BC010138C4F8BC0103DCBF
S31502005320D4F8C01120468847D4F8B8110BF1100002
S3150200533001F10802C4F8B8216A42C1E90002D4F8B0
S31502005340BC010138C4F8BC0103DCD4F8C011204604
S315020053508847D4F8B8010BF10B0100F10802C4F832
S31502005360B8210022A2EB4805C0E90015D4F8BC0119
S315020053700138C4F8BC0103DCD4F8C01120468847C2
S31502005380D4F8B80100F10801C4F8B8110BF1110103
S31502005390C0E90015D4F8BC010138C4F8BC016ADCC6
S315020053A0D4F8C011204605B0BDE8000FBDE8F040B4
S315020053B00847D4F8B82102F10803C4F8B831C2E9A3
S315020053C00001D4F8BC010138C4F8BC0103DCD4F8EE
S315020053D0C01120468847D4F8B80100F10801C4F884
S315020053E0B8110BF10501C0E90019D4F8BC01013866
S315020053F0C4F8BC0103DCD4F8C01120468847D4F8AF
S31502005400B80100F10801C4F8B8110BF11001C0E9A6
S315020054100015D4F8BC010138C4F8BC0103DCD4F889
S31502005420C01120468847D4F8B8110BF10B0001F1E0
S315020054300802C4F8B8214FEA4805C1E90005D4F8C4
S31502005440BC010138C4F8BC0103DCD4F8C011204603
S315020054508847D4F8B80100F10801C4F8B8110BF175
S315020054601101C0E90015D4F8BC010228A0F101001F
S31502005470C4F8BC0194DB05B0BDE8000FF0BDF0B581
S3150200548003AF4DF8048D0546D0F8188014200E4659
S3150200549003F0BBFB4FF0000160B3C0E902610446B2
S315020054A095F8680006EB86018900C00703D12846F5
S315020054B003F0F3FB02E0084603F0A7FB01460028CF
S315020054C02046616014D00026066195F86820D2074E
S315020054D01AD1D5F88420D30610D4910714D5806842
S315020054E0042100EB80008200404615F0FEFD08E034
S315020054F003F08DFB00205DF8048BF0BD404615F0ED
S31502005500FCFD01462046216106605DF8048BF0BD74
S31502005510F0B503AF4DF8048D80460860002048615F
S31502005520D8F87C500C46D5B328686060202003F07A
S315020055306CFB0028606151D00646A868800003F023
S3150200554064FB0028306049D0AA6872606968D8F89E
