S010000052413850315F41492E73726563DF
S3150200000060100222E9E80102D1E60102F3E80102E8
S31502000010F3E80102F3E80102F3E80102F3E8010260
S31502000020000000000000000000000000F3E80102EA
S31502000030F3E8010200000000F3E80102F3E801021E
S315020000406BC0010277DB010273D6010201D80102FD
S3150200005021D9010209DA010267E0010271C6010231
S311020000608BC50102F7C6010249C7010266
S3150200006C01000000981002220000000000000000AF
S3150200007C0400002200000000000000000000000046
S3150200008C10400000010000000000008C97B7D89ABF
S3150200009CDB8BD86C9FA562704CE40EF645627ACA6D
S315020000ACCF877A9164ECD6125616A5055ED5F5C79E
S315020000BC23DEDEFA79CCCD7685C7AD1EB8A39424A1
S315020000CC89F1C2851B6A79432FC6BC743791220407
S315020000DC529E269C389D62F1E7AE735C9C6FE7B22A
S315020000EC190FF8AAA7AB2B355B21C0509B5D539118
S315020000FC0970A2FDF51AA735A229FEA794406A77C4
S3150200010C793E9F28561CACA85123C732F35EA9D25E
S3150200011C03189FD6AC18F8F9E07782FA0E9A73BDDB
S3150200012C050A7148FA1E5C4B7B1EB051E16AEB1054
S3150200013C37B19091DD438285EA18EB9315ED475161
S3150200014C02AAD721A5B7D74A432E65968D052AD47E
S3150200015C5E0125AD9145B4BC49F66E3FC1936597D8
S3150200016CE592A339E4F3AE7272D8FAB31D4CC4D03D
S3150200017C6965ACE13F9450E1F7B196B9A88088F471
S3150200018C3BA4656C9E9B7904784DB7A9494A629E3D
S3150200019CBF6DE0221A4C17915A978D9308A7F8A6B1
S315020001AC526E38E5245E186FFBE442CE89B472199E
S315020001BC19EB5AB678FFD726E7DE0929829D2A1F44
S315020001CCC7D9DDCE699123680811FBB25F746BB88F
S315020001DC0CDD5DF904DB3B02C35CF1BABF2B568521
S315020001EC7D0D56332D042BCB7639DF58F1ED9BB4AE
S315020001FC9808C82A809F0C93B23CFEEF449DAD89A9
S3150200020CDD97C0BAF64F8D653635382F37F191BD6D
S3150200021C737DF83AAE41150E0E6F7C4FE1B2F96062
S3150200022C9E2D8A06DA11BEAD7A74AD899BE5B6FDB2
S3150200023C783774A9E84323053AC2E151E762A596D9
S3150200024C53D485A100DF4F466CCCE22FAEF374AFCC
S3150200025C7B37C9F23ABBE1415036F5847806B6359E
S3150200026C276CBA5FA57637472F96CEDDBF1EAC84B8
S3150200027C46212CB7B4657690D72E34252A7C1F5B83
S3150200028CB8F007C3BFBF17E73715BF8DBB950BF683
S3150200029C354A493DAD1910048EED02ABD5C8FB4863
S315020002ACB4962E10837C94FAC9E09B5637F6743BAF
S315020002BCE0F37EF0B7CC7CA1B5DF7F4BD8D9319E6B
S315020002CCC503F958DC25C7FBFC7AC07F01A3445E43
S315020002DC69236DD24C3066821E39FB1967DC91F9A3
S315020002EC57F5C9E869C65B5566144D68C63BED21E0
S315020002FC530DF3B9030288C54D25E2144016ADAC75
S3150200030CCF3E6E6BC08ED4DC61BA18454121970E76
S3150200031C794D7C43757486AE71B2DA486E61D32E12
S3150200032C82C9160EA8B234C7D8C7AE422D5F119633
S3150200033C0245E45E2232C775EC0BB7CC7D1378848A
S3150200034CE14E7D936AF52CA57909C86E8E822889B1
S3150200035C24AEA6478A20536425F4282F21E7948BD2
S3150200036C1774E9E11575CCB9E06617E76DB079B388
S3150200037C9453B7C106A2BB3DC42902CB4EF53B75BD
S3150200038C8097F4DB8E7518F39F93DCD228E8FED0A7
S3150200039C152818A0A265F310EF6C7242BAD9BE08E2
S315020003AC4EF51E5A715B6404882FD86689EDAE1918
S315020003BC9BF119DE17740E53163B3C9DD60885032A
S315020003CC836DA6118B4008389440C52160037D1DB0
S315020003DCFB9E3EF95FFD0B684F29D4A3CE7DA3FD90
S315020003EC5E1050C8CD49123DAEA9613EA2AAED845B
S315020003FCDA6C7F8E6D49D2B4BC6A725CF8D45CEC52
S3150200040C650BBD3B7259EFD041FC61F8B2E7E54B87
S3150200041C1EFD3D3F3A1B7DF3E43B5BB0620EEABB2D
S3150200042C1DE1A14522615F5F53BFAE3CCB2B8173AD
S3150200043C4B4DE2D65A3CBD808EF133A28CDE85F052
S3150200044C59C006B326F721FEB573B5129C4AAC27E2
S3150200045C726AB221609A1961F5E512F7048CFA46B2
S3150200046C269742E53768948DF9454574F866063F3A
S3150200047CE381B54F475FE58606C0A05554ECF7DC21
S3150200048C2B0CE6405472E31A835982BD63AE879FE6
S3150200049CF1B5E434AD57A3AD8CE1458B2548DB07AA
S315020004ACA2B54C02755F06878EEC5C168067270632
S315020004BC6C57E79F0247F835B01D19934AB18AACBF
S315020004CCB9F263003AA57499F896D5F6EA04AAB27B
S315020004DC70D0AF82A65507CAEB188A71FD8562B138
S315020004ECCE17763AD3698A9FE3E3E19E542267FBE1
S315020004FC8BDF9F8061EC8A8A1EECAED449F70BEB3C
S3150200050C1D091B2C51633FF3904CE82994E2997216
S3150200051C3CE8942925A95570A0135CB2E93FE00A80
S3150200052C6F0F840F79E82FBD6FE530ACB787854D19
S3150200053C52FF005C9878A66001FAF82CA9534BAED0
S3150200054C3310EC9B4F7A6748A23DE4836E5EED74E2
S3150200055C97566EF897225A18A857A697D2A8676587
S3150200056C09FFFC5A72B8F0A3ACD044F990E3F4C379
S3150200057C1DB245551525C310053D236E4285DEC5B4
S3150200058C2DF56E1E531B9596EFBEF0D90DEF98FB0B
S3150200059CE466C7613625C3AF30A8E6DC0218177FBE
S315020005AC9E94613D182BFCDCE50E4578791D7A7517
S315020005BC82FAF76C19DB0A1E7B4575673C660FAB34
S315020005CC1F58DBB666A36166056E5F9DA911A0D2A4
S315020005DCE9A7ABB95289501CD567C6674752B6070D
S315020005EC8FBC661C879B15B4AAA207F5E31AAEDD6F
S315020005FCE4070088EF67F586CB5DFD305A04D98493
S3150200060CC5D7B85FA2394E14891546380219064366
S3150200061C2410831039DB5E290E8FE9C6E274E527B6
S3150200062C5533B66E6D874D5912C86BC063ED2907EB
S3150200063C59E51864DFE0AAB031FCEBC2945D748014
S3150200064CA460415D8D42217E33AE83461886DA1E46
S3150200065C65283B0B95F8BF009B2D949C2B14AFE1A0
S3150200066CFAB89BF75481CD4CD68C6AEE6A85EF4468
S3150200067CB8E0085F6D00183FFA5193DBA4755D7103
S3150200068CAA5692E1C6F1E6FD6760E5F710CAAFAC71
S3150200069C3B3E8937C52ABFECB84B7B73317E34C7D8
S315020006AC89D87023F96D4DD714D1BA1AF928C84DC9
S315020006BC3F13096C681BE0916E3F4898EF1EC5F913
S315020006CC9CEE0064EE3DAC40397B060A01A3ED6854
S315020006DCB160B4CF98B589F4745A99E5A7C55F5B36
S315020006ECAB9F744915DF3B1C1436522E9C675EBEBB
S315020006FCB986AD7C25002B6C1010433559EE163796
S3150200070C9ADBB6CD2828579BBA1DA9BADAA38DCF88
S3150200071C067A0EEA140C844AC1B7086B742CD31BE6
S3150200072CABD18B7996E1E5BB93686B5FB3845BE3E4
S3150200073CF9BCDF0128B1AFEB08B5E22DD87B8223D9
S3150200074C205B9FEF3DECA148B1561B997AF6952595
S3150200075C404133DFA37DC2E65B2FB5889653CF515A
S3150200076C3472CB6E445B4CEAFABB0BBA304A8593B5
S3150200077C60C73DCBAF58ABC5F6BCE024FFDD5C7061
S3150200078C0B7C53727F912C9F157F73DDEEA0C36693
S3150200079C4F6AE3CFB2597636430F93E031EBBD1E67
S315020007ACEF55A82CB91D2AE6BF0E7FFB161862DD83
S315020007BCBA91945E4E57FDC19250F1A88F84907CEB
S315020007CC0DE61A8D9DD3BBB93E09F6C5BD373CE77E
S315020007DCA40A5655BA199579C1D1404CEE26FE5447
S315020007EC2AD08323DD3A59113EB4BB65FA4F80B742
S315020007FC645664BACBD0B43751F9F929E44AB32E0C
S3150200080C7058357AAA85C0DA9AE37E381E9FC81CC0
S3150200081C7D75DA522251F77B7DBA121147E1E7BC9C
S3150200082C552DF8F071815DFFCA327788134AD44D83
S3150200083CCA9783EB02CE22B9B68F97ECB37E5CDFF6
S3150200084CA1D56F3669C56A0308520F3AD981B2BC73
S3150200085C3A191E830AF07A3A96ADE597EB025D7960
S3150200086CEEB58B0B92E12D851D073E391FF439959A
S3150200087C8A1BDE49CB740805B2690B7DFF3EC8960E
S3150200088C3BC07D3CBE9ED6A33AF222C7EED9AB7DC7
S3150200089CE02F3BFE20215978401112F1A4F740B803
S315020008AC73594941EB437320E1860B24895173A09A
S315020008BC53BA4C06446E33A67EDA587954F8104471
S315020008CC0303E97B6941ADD2733B334FEDCA1FB7C4
S315020008DC7B8E17B43A6BAF0186028C82D5150F0D3F
S315020008ECE7F7A6DBA4260700E8F107472F2FE5B1A9
S315020008FC201B6543C2F990A3BB85316569C67F246B
S3150200090C3EF7FFDCAB9EE20A64B3ECE94086285A5A
S3150200091CC91EF9C10FE2191951C28604B4F7F49D26
S3150200092C1E8D5B4B44EDCE4429D4E0FCC6C8E28452
S3150200093CF810927875707C33E56C355B6029A4707F
S3150200094CB7430E85FA0954E734D04E8DFCDAABF672
S3150200095C3E1C33A113FF5CFCD29A46205E95C20064
S3150200096CB23269F42A54E4A3934741F23CBA725464
S3150200097C67CA111BF164C9387FAF531A2E652A4612
S3150200098C3D813859B5B4C5065DA2283BA54455CC64
S3150200099CEEF4C951FCD3E31A01A20FC0E5271E6D72
S315020009AC98E45A1A08041597C46FD7CC5CEC3F4CE2
S315020009BC7E63267C9D96BDFBB4B2EE639A4398F198
S315020009CCBC22B9B847ECCCAAE76CC732D95ED9B40B
S315020009DC3FA6D3EDB8DD52D0ACE9AC46CD5E006194
S315020009ECA58FACAB9349C70424664D4EC1F157E3B0
S315020009FC9ADC9FA74C58758CAFD0C619A5CD620A46
S31502000A0C08D1E6CE020D1AA0C8800F2BE225E5C549
S31502000A1C0E91F3FB83FB00FE851E61F0FC3E4275D4
S31502000A2C72C11834E090092FC51A471D235BB30116
S31502000A3C9F6C09AA63668E155B10A147762BA5F7E8
S31502000A4C9C2633CE56964D91FA833EF83A5D0EC9E4
S31502000A5CF28E7965FDF4BF99081ECB6AE8C8BCB163
S31502000A6C44EA254231C2FE758092FFF4A8FAEEDC06
S31502000A7CA45B3FE350A3E76EEC09A3C5198042C9F8
S31502000A8C2DBF9ECB274C70CD8D8C3A793AAC440552
S31502000A9CE51A904A20FB3423EF545F0D59547852D1
S31502000AAC64F256D85D61DD06B1D404A9F527D2FEEF
S31502000ABCEB193DDDB04BFA6F20CBBFAD3EF0829FFA
S31502000ACC4019A6E2B0C40AB68C0DA465922A46D287
S31502000ADC38B327E2C2F7CAC68CFE889D5C0913039B
S31502000AECFB57DED234DD6CF5A7108D0B40E9524E66
S31502000AFCC98E29FB146683AA38663BC486877F3C5B
S31502000B0CED458042328806B415F36BB184C7A52B2A
S31502000B1C785FA86900AF034BCD4D9D5BC1CF609347
S31502000B2C99137814B95F19C41EB0D0B51AC4F64914
S31502000B3CB68C868BE2BDDDF4C647CCCBC8A89194A5
S31502000B4CBAC675F1CD09BE25DDC1ED1503847A3819
S31502000B5CEA462BB30A076EDF6E718780788AB2A5D6
S31502000B6C8A588A19AA51852B0F8ECF5149F5E6F769
S31502000B7CA49EC39E50FC27E3A6C356506E5DD93382
S31502000B8C057CCBFDECE9811E240665E626891F331E
S31502000B9CF6AC4DA4441FC542870FDF35FF21143135
S31502000BAC24AFF10C361A0B22DC51124CF641C2C0A0
S31502000BBC67FF1088B6F19165261BA068A84BF27EDA
S31502000BCC75A88376E8EF3FE243B3EE7D5F21C565F8
S31502000BDC56B437484F1A81E838B5BA9D13CA8DD523
S31502000BEC937B50E10BEA8345109BD986F38943F03C
S31502000BFC194E49FB32E60275E4D1C9C44DADA55175
S31502000C0CF832C9ABBFD79B045EA4957128E509528D
S31502000C1C6479278327237AB62DD4330E934A750922
S31502000C2CB7F476AA4EF6A2887BCDFA5F3F5AAC6031
S31502000C3CFCA8ED5C40E6B8FB6207C231201CF90A3F
S31502000C4C263AB37258D62F38647EF8ED1DAA08CC14
S31502000C5CCB8DD1FA7C96F50BA0329767D59900C548
S31502000C6C326949B572CA1F51DCFAB7A6C5E1178EAD
S31502000C7C80BD1EC546E8EB26C58EC56DC0EC671A4F
S31502000C8C16FBEEE0B112C77DCAB7D2BC61E8EFCC57
S31502000C9C784F377F83B3A42351311B7B744C7CDC96
S31502000CACC5961259ABD925CEAEFF57D8D86A742041
S31502000CBC3BD7C30FFA59A2EB22F534A361B07F0AD4
S31502000CCC05837B8B79576F114F3AF45BAA6FC997E1
S31502000CDC83B85D515F5445058C0ADA420ABDC0A041
S31502000CECC8C565C4BEDB63B850FA3CE6CD9607961A
S31502000CFC3D084DFF9B216DBDA9D2245F5732871942
S31502000D0C9FBF457342B60BEAD22507EB5C692E4EA2
S31502000D1C80F1FBFD6B3295A8971B0EA6B8D3C6AF16
S31502000D2CBB6A25627464659662E111EDCA0D012EE9
S31502000D3C291CB2313A58D8819AA1C0BB39E3C0FDFD
S31502000D4CD6A98AD807C7544E97E0F00A37000B4645
S31502000D5C98768AA3681AF4AC15CDF32F086A89859E
S31502000D6CF27376CC1CF5F7CC7313D0CEAE11673C6E
S31502000D7CFB27A832C18705AB9B78F1F53D3D40C3F5
S31502000D8CD9DEF28F5F74AC98EA6D188E7C6AC766F0
S31502000D9CA6B22017DC2A9ED9F3C59A48D060FCED80
S31502000DACC9D17D9D9638920B0C6E62AC6CD421DA4D
S31502000DBC0A08013E5B563E308ECDECC409846FFBAD
S31502000DCCAA2415E69C1D5E29C3B23F1C1F901B6B01
S31502000DDC7EBA8FE638C58DD9B7083F4F0283D46ADF
S31502000DECD73B604EF0F2D34B515A990067D81D2768
S31502000DFC6934D74185E29B345CCC2DCE91ED8D1DA9
S31502000E0CF43702BEE532ED493D2A0B2CD97B2B1C5D
S31502000E1C6552746D53066D634F18867E0AD397D14D
S31502000E2C2714F999A5D5023C0AC345E4C3CE171B70
S31502000E3CA9028D316F452D9D086283B4835A03270F
S31502000E4CA4505CE27BF57535B2C981455EE3322A64
S31502000E5C07AA39159FF942B3ADD7F091417AC69FCD
S31502000E6CA7876678B4C2472D4C2B666E6C528D12D0
S31502000E7C62D8DBC5A28BE9FA5D12FCC4B644C45E29
S31502000E8C9338E1C91924C7D7A6A9D70FE1CF77A002
S31502000E9CF6E7D0BFDE8F03D6F247418CA14B74F72F
S31502000EAC9C399404C5538D808F07978F37DFAEB468
S31502000EBCFB9FEDF43CF5FAD3D49BF77CF903779BB5
S31502000ECCA0FD44D13557722640C8DABE0EF74ADF6A
S31502000EDC2D8E1919827BDA506F83434DE1DCEBD8E8
S31502000EEC8150A8990F6E57E8632F81B2D9F8CF2C8F
S31502000EFC023327B160C7837D9B9C2436B27AE41CED
S31502000F0C39528A48FD71A4EE172EC566829D1CF2D3
S31502000F1C8322C1EA1D145B7B157426350D58397470
S31502000F2C74DDCAF4AF8496DEFC9B7659EA315669B7
S31502000F3C6D85650B9825EE99C439D5D6CA53F31A25
S31502000F4C1D15D0EFAC1E082466DC51411AAA4FD1EE
S31502000F5C1C9B00F5E3B5281C7C8E0EB7CFCDC106C3
S31502000F6CD1B8B6D3D9BF4C8345750A8CF8B44EECBE
S31502000F7C3A9D11E36EB3CF115180C749C649EF5B57
S31502000F8C41509594EDAF3C442221610FE993BF2F5A
S31502000F9C0902C5ED7389AA17B5D78DFBB272A20ADF
S31502000FACAE1E1A61C1E27D2530D24F039E75F6A4A0
S31502000FBC300FE59DA5F17F295EBA279B1E2F2101D5
S31502000FCC3A02DA883EF15BA4EEB67A7E9794D42086
S31502000FDC24E088C219FF8A4C983A8B205DF6D9C751
S31502000FEC4F2AC38D7269CE26CA29D2F6B04EC2F1E9
S31502000FFCC713C07564213201F88D411DFAB81AB2B5
S3150200100CD32D36F1D4B8114CDDB56BBBEC57A460BD
S3150200101C845B919D89E6232CABE02D07D6A9106A39
S3150200102CF4CA26B8277A11A4268092CF5B79EF856B
S3150200103C5D40ED9A0E4D3893D72B2928426A5F6D87
S3150200104C95446421440A7C068845F676ADB9317915
S3150200105CC2E7FB09262E29561D934ADAB259554484
S3150200106C180FA1D2C6616792AAFB9600A4256CC77B
S3150200107C7ACED0C4968918FA0765829A8B10D068F4
S3150200108CBAB8393DCBF1A1AF3B4984C43D15B8F989
S3150200109C4D0C7FEEE540FCC2F500C54122BF7788B8
S315020010ACF71D5A64286030918CAB05D7C57F6464F2
S315020010BC39244ACECDB60968C584C3AA142AD406E5
S315020010CC2C5122982A7C00B188D15E7D2422DED94D
S315020010DC819359BD88B4CFF72B4BDDB4955D9D65D5
S315020010EC963B38582FF27A4A5B3E3D959442DB7911
S315020010FC8ED5E83AB76DE69C338B96F95AAEBEBDE1
S3150200110C73F7696A245A5A0BAA2F823C842EA5C1FC
S3150200111C468938AAF7D2233B1453B4B5A5645E07A5
S3150200112C136F47E80F68FD55B2FD6EA4EB5D901A7E
S3150200113CB6C981B5D3ECFB37691D25B96634CC2DFE
S3150200114C0051F4D1A98A4F0B7D7643AF6F89A392D6
S3150200115CAC3952D9058F60B660FB696DF7E1F801BF
S3150200116C2608E997FA4F413FBD472C5178BA9B9115
S3150200117C2DC98CD4BDD7AA6AA16B1EEDF4A9241471
S3150200118C9C8A215B8AFCDE03A19CE8B9A84974F906
S3150200119C77DC36EAF4044F91664B07D963A21D89B4
S315020011AC311DCA8A78A1D6F4529562F7D5F611A6E4
S315020011BCD2813477A7E38807CA1DC41A93C1945601
S315020011CCBBA39C9A8F627F88F5A538F06F936B9DB3
S315020011DC9611AFF339878FCDEB0C3B6B1C41474411
S315020011EC8DCA739F7070A702EAF72FF65937620AF7
S315020011FC2787E3F3EEE9FF953C4D125425E5D27DA4
S3150200120CED215B3FF646CC1F5A76D9EAA4AB721295
S3150200121C7301F6464B5CABC6CDF7626376AFA4FEA2
S3150200122C96BEBBA2DB138A52F5E9473311D762B2DB
S3150200123CF65DC387328AFAB6B384CC220DC6B96878
S3150200124C7BF6CB48B7432D55EB9293E5622D3A4785
S3150200125CC894F874BC729CD2F3ECB67B74AF52CDC4
S3150200126C3084DF4BB9A3FA9513E6500D68E8F6887D
S3150200127C9704AE5845B9417D57FA156CF05367D2AF
S3150200128C338C58AE32CE41ABC16C3C1FB29497E54F
S3150200129C256BC3E9DA80F49EF5D5B4904A1709FB9F
S315020012AC633EBBB5F0811D7A8A3E79B80B1CA6FD4E
S315020012BCDFD87688856C2D491F809DE1B74649801B
S315020012CC7F3CF55608303CFD1A92D2BBFE19285DBE
S315020012DCC0E44915542AEEA0B69FCFD674EF532418
S315020012EC2342A06DAE00EE112039BC7B8B4075E01B
S315020012FCC0539BEC1AF96B73FE3AC44AC3C6EC454F
S3150200130CBA61D97A669366FFF53BC15A78437D5C1E
S3150200131C04193A5C78E34B4CFB5F1DF181BA0284EB
S3150200132C45C6391F9A76E31E913BA424475C4F614E
S3150200133C7FF291438B7842CF25D05EC0C849987E06
S3150200134C2E2F3B30E76F65BDDA86FAE25BD40308D3
S3150200135CBA917C9BE3F62B053E877834220D5C967C
S3150200136C03C5CDC619079868430B073F1C31B23724
S3150200137CE4560D4748F6655AFAE4712ED3C3470F65
S3150200138C7776D301C4CF3DF340088CEFF0C61E5BD3
S3150200139CC5E8BC4BD968E318E2A8E607FB7C55AE58
S315020013ACEDD2F226A5C1AAB85B8FBE959A17C9993A
S315020013BC2761D0DEB9508B93426D19E07C4125141E
S315020013CCC3BFEC69D296540625F302E0A99F3004FA
S315020013DCB76093FA78AEC429FB7520F78C88500651
S315020013EC079E0745931915670B8E2C04758F808201
S315020013FCEACB6B6C1B8D3BBDF2E598615A9AE4B154
S3150200140C4C0BE1CC1F60F0ABF07858B304B95A31EF
S3150200141C2EA944D9A03C71C2BCA2A3F44C425227B9
S3150200142CCC4F884220C196BB23ABDE3721DCABF412
S3150200143CE58819A68780F548474947507830F2E681
S3150200144CCDDB45763B5E32F06E38CE8D260D9D3069
S3150200145C789AA5A96794C2DE52FEB8C3F57794D5DD
S3150200146CA21E86AE7C842B2DB0F99B568D9D4EE02A
S3150200147C64816E1DA8D1B95A50FB9DE25EDA7C5B83
S3150200148C14C194FCE586F47855032BB3FADBCB3FF7
S3150200149C4B5001804312F416796B4B4257673A74E0
S315020014AC90F937F1B22379E12814FD816529635D40
S315020014BC71BE376CF6CE6CB896F156887BCDE75278
S315020014CC2A58CB667669411AAF843E1827E3540F25
S315020014DC4A73BA48C4271BC8C4B7412539A1B4CA32
S315020014ECDFC59B17F0AFAAB7DADC8582E2761DF769
S315020014FC62CB4A8F265426D871747117E974F0DFC1
S3150200150C04724203029CE1FE88D1299ED4EA12D0CF
S3150200151CDA7F049774BB5AD8A60E8CC65A72FCA9EB
S3150200152C6DC37C8AA0281968E11390B0ACF4ECCB9D
S3150200153CA4631295154D918A1D4C0ABD6242FAF6A8
S3150200154C8CA9E2117302EEFF0738B850F43578ED28
S3150200155C40A6A681618E56515B9D696B73332AA890
S3150200156CAD5FD7C8BB6A6B822AC9B6720DF780CB40
S3150200157CF3D359F4BB63EF941DB19BAC90F37E4944
S3150200158C824A66EB22CC35340E91D4BE035A3A6F9C
S3150200159CD793EA7752C0AE01066FF056369B26C633
S315020015AC1713AB2855AA86BDFB9620FB917F4A22C0
S315020015BC8FAFDE9AAC97F08BBEF0822123121A27DC
S315020015CC513E5B97D29C803B857DFF7BA27395CD6A
S315020015DCD47826C2DC2A44884AD2AD2D1F772D9B9D
S315020015ECF82FA0C14114E6F259772756FA1D1D6E43
S315020015FC92A8C018EE4E1CD687A52134C52934E70D
S3150200160C3A49FF2DD8FFA64FA31F9976F36FDBED50
S3150200161C9C2222175E17F6E71F73192607989F89D5
S3150200162C5032E79AF857433DDD825D4A403898E1DD
S3150200163CE9272247406209464D35B6C51A544C1C59
S3150200164C8D8ACA20FD5B6DE1855EDFA17783362329
S3150200165CE3A6BADB60177CC033B00BDD521AA24E7E
S3150200166C48B1FC0519BBA5DB8B74006FD747680123
S3150200167C832FB9FAB9DECC441DF6F75EDE4CE227AF
S3150200168CA6E64AFCB453C5B43A55DA1A7D643B8DC8
S3150200169CF71FECD1B77F8A3C5D97E1CBC653C4B337
S315020016AC816D0AF68EC5D95B8104BDA879328F1F6E
S315020016BC0BEE4FFFE5454F4D742A9175C3DD3FB3D3
S315020016CC12D8DC3AB6BAC5EB2B4878B07466804AA7
S315020016DCEBF8FD59081B2F63D77216C0F9F3B4D178
S315020016EC02EEB2794FB8804F23119A5D36B2484654
S315020016FCB2DC32CA4931165499D33D3EE15497575E
S3150200170C38CD01091D123B948D6531A2AE4416E803
S3150200171C66C23C11CDC820F81EF1C8BC5A1FC9932B
S3150200172CAA4816F8F8B7EE9CCDB1D6709E5FEBEFD1
S3150200173C6A54E40A7566C8CA79A6B2F66E1B61E9E2
S3150200174CA65EC879146D431D963F4BBE9405FE22C8
S3150200175CE20693DB119ED22BF3C420F79EEF25EB08
S3150200176C1C015D964041BC903951D8273D71A87E2B
S3150200177C2CFD940A804D92DA62A8EED34FA9E8C2E8
S3150200178CBF7E5D3475CFDF912E2327CE91F5FB58A4
S3150200179C7F4B9D14A0AAB0F5AC22E07C6E19F20820
S315020017ACC7AA46DE4A5666E0F81D053C14E66F8269
S315020017BC989BF009CB20090E18E72722CBD954594E
S315020017CCCCCC015D8F44A1178447D27860D19B7330
S315020017DC1DF8C48A2006C16A51B0033B72B2B780A7
S315020017ECE606C3C68C8F5B158E79E249DCE10248AC
S315020017FCACF1278BCD52D8D0DDB24A69A6A118C757
S3150200180CF9D968D18B2A80D4A20F1433179F131DD2
S3150200181C2F9A674E656D4F50C411D88017F6209CCF
S3150200182C044C22F45D639CB27AA2F8F302EAAD256B
S3150200183C2D156DCFBAE70E7E15B0C3116838E226A8
S3150200184C7699AF32BB0F804DDFAD9B93295476D57B
S3150200185C0D46FE420E8F467AAC724127D48148421F
S3150200186C9564CFBBD0EFE4C6F867BC9796BFCD6A3A
S3150200187C3B5C6422E9BCFDD6F7515EC82C9C49C878
S3150200188C0D6902BF0968AB16258C7A746B40EAE4C3
S3150200189CF062D30AC861D66CEEDC90CC7233D6D623
S315020018AC6F3F49577E135C0E94AE80EC887E0AD845
S315020018BC3CCB54AA1AFA99CD2B4625C97CB16F6634
S315020018CCA313F8360ACC7D3FD0FF59B1687A1C9225
S315020018DC879C0DF84D29AA45BFB5443D8ADF86582B
S315020018ECBB2E630C53981ED3704652EA32C1290F93
S315020018FC5492CA91C833FA556B75E30CEF265C29E0
S3150200190C7D6156BF1BD46629F6C0D2ABC3E419F867
S3150200191C021F231463CCEB29223192E189F029515F
S3150200192CCAD708DB149AD8905893FB4D3C9EE63ED8
S3150200193C922D6469C4B4D79F50F77AA5AC24B22908
S3150200194C4C171730649958D616E46466928EFFCFFC
S3150200195CC14F54986A2C1E79CD2C90767965746E8B
S3150200196C3B3E46225246003D8ABBFDB754957A173A
S3150200197CE190881498045B5A793D8498C3EDDFB8DC
S3150200198CA9C473F3D8A23993599A49DD6D63BECBB8
S3150200199C2AA6E24D8F036C3521B39D945146BB6F3B
S315020019ACF9A92F20096E336A908A21855E5E31C3AE
S315020019BCBA1100090A6BBBE5F747972C12EDCC2B33
S315020019CC065F33BA7942993A6665A3C985E9E8088E
S315020019DCFF2ABAF51697548D85D0430ADF0332F7E0
S315020019EC34D4E7BFAB279D7AB4EF37EF9602B0C07B
S315020019FC4101D7FB8D6A80F9DC5E2F4B0450C5BBC7
S31502001A0C38331DDD409728F843FC162F7BF4B10BB7
S31502001A1CE807BEF11BF688251471927E87DC01A0BD
S31502001A2CC0C6A47C74A5EBBC73BC76002919AA5D4E
S31502001A3C2B0F4F62B2634EEB9A91FAB40BE36471BD
S31502001A4CE6009749F1D0F3E6D359594B06ECF45913
S31502001A5C34A63E47AA19B380F5EC989E70351FAE94
S31502001A6CDBC40B52DA8F56AEE829D9F6B27305FAF5
S31502001A7CB1308F7B402A9302D93C3567566E16E2FB
S31502001A8CC7A2196FE9FC829D455211B0D17E64E161
S31502001A9CE2E5B85E158FC544D2A019FEABD5385D0A
S31502001AAC551823F70B63DB4BEE50B87D2AF400FC7A
S31502001ABC5D4B8B596A83AA02472C4AEF0107A4197C
S31502001ACCD86BEABB9644314E694E5BDF0E39038FF7
S31502001ADC4FFFB5BAA656C3C3E0F4F25FCCB50A13F0
S31502001AECF7E55018E25F228AA74352A6CB8D20B7A0
S31502001AFC825AFB8BB9CF20CFA8B6AB8AD3AC4B1686
S31502001B0C2578D8DC5D9B70F1F543751814A0A917DE
S31502001B1CB7C87741B38965CFE6C9C57E47F9787FE1
S31502001B2CB847884D85BED76FA76BF005454E19DCB5
S31502001B3C2FCD30BF8D058306984F33793DE80E6263
S31502001B4C06495A92BFEAB3BDAADB052EF220578B81
S31502001B5C6FB2CDF4175F2D585384D7AFAF905BB9E4
S31502001B6CEE61C8DC022E73506CC63C5548ABAE49CE
S31502001B7C3D2FBD4C78E314756839CA52210080C1D9
S31502001B8C2F39ED998C062AD58F2FF501D44D57EBAB
S31502001B9CBE43AF80BF687B4BEBED5FC9F6C31F86B6
S31502001BACEED3C375F4778D7EEF3C2BEC0742B33242
S31502001BBCDD3EE5D10FC45A6D7103EDF94A21B0D958
S31502001BCC38C89CF01CC5C1540B3BFF60CD339CB886
S31502001BDCC4D300A56D2F9709F9945D76F833835E0D
S31502001BEC118A9DA2D27AE3F8870B71A8A3E80F3C5F
S31502001BFCF1363DC3A07C9AFDB896DAEC4003342745
S31502001C0CBFAF2F6AF4D6326D86B6A8902B1E62B77A
S31502001C1CC7B44C1D588F3455C2753D6C451A7D2878
S31502001C2C31163A31EDDACD06446EB2CD5D196C3A07
S31502001C3CB4BACEA543902C2B70CB4024CD222BCB01
S31502001C4C535E315008479553C757D1B2B03DC35373
S31502001C5C71C61DE9459C8F1AEE8AAEA02F5076D31B
S31502001C6CD6C818931425EFB2DFE56D40B9F5C8C591
S31502001C7C544C6F9DDC4E031956D2F8AA759D6724F7
S31502001C8C0860BAE0F029B20CA830EE4027C81AA5B3
S31502001C9CAF041204E891AFA2C620E59C153D565638
S31502001CAC8D68DA1D8EF692F99271AA41B9F5AFD109
S31502001CBC23B9FD76DA6978C7A48544A9D49099B676
S31502001CCC4318D760192A413D56331F807604C4F651
S31502001CDC6884B10D31AED3442B1BB3D44832D11A1E
S31502001CECF60EC6BA0DA70A020538EFB42D26DA93FC
S31502001CFCBB36AD730CDE914DF9AFA5704A18C45CB8
S31502001D0C7CD71DF9E0D8CD2906580AD4308DDCC60D
S31502001D1C31C7EB128257497A20F194E5E56C9E188D
S31502001D2C6F67A089BCE73D4B454FE4A0C781B9322A
S31502001D3CAB25847D5CC764C714F9E2610564D800DF
S31502001D4C74D42FA59FC58378A4EB5D07CC1D6D605B
S31502001D5C6315A016D69116376FA079ED88D2533F2C
S31502001D6C2F163AF33FFE6A5F8D755425D3B5796B00
S31502001D7C4ECD5893FD0AA95568CFE5B0C3A1DDAC8B
S31502001D8C299ACDA47A9E118817C1925E637912663E
S31502001D9C6F35CA52370EB8536D6354176A38A23F61
S31502001DAC623A88591325A9BB25572B1FB297FD2DCD
S31502001DBCE70E75294D6B71B18FA44301B8CB06554D
S31502001DCCF1AEB908DF645605EED0FD2F2DAC934665
S31502001DDCDD220CEEC69808E4A74E18D419F1496513
S31502001DEC5FE78155115364FEF5F37A3AF9D6F25749
S31502001DFC45FAD0D958E7A592534B32329487D9ABD0
S31502001E0CF5BD432BAD89D36F3635838DE746DD8819
S31502001E1C02339FE6A256FD9CB01F8AA12E4543F4BF
S31502001E2CD164119B03379CDCADCDD33E87E9D70A2F
S31502001E3CD3C0637517D5C377F710E039A2FE1855D0
S31502001E4C972904CE970BD511BD4C9D0C1EFE2CB0BA
S31502001E5CD88597CE85A9352C6C3894DEA056B472EB
S31502001E6CBF649E0D27B48A8A13AD9747FA6844312C
S31502001E7C646B45A78FF10BA9FE86CB6A9E1BD07AA3
S31502001E8C3827DB95FBBAA2F2904B7365A42EA8E019
S31502001E9C8ED2C3C65A0ECF8EA23C581E2DC87B3686
S31502001EAC74804B869736017E530DA60006E1936A23
S31502001EBC60E8C17F366ED24B34149B4F329B8CC377
S31502001ECC798A39C29528389582E1DB37DD3AA5BF86
S31502001EDC77CFAB3FCF54CAA18C654E9FA87F04C661
S31502001EECF8D854DD6A9C8C9CB7732907604C511048
S31502001EFC0E7074D91698E1AC8730D1439829EFD776
S31502001F0C1447BB8FAE24CB1F92584D544F54E399B2
S31502001F1C5A50D0C4C4178253E9AB4C9A011EC170F5
S31502001F2CC34F32A1D021DBABA8768446A0BFA33027
S31502001F3CD9263A03EADCF37E38841A1DAC1B1C55EF
S31502001F4C3F842AB3DB7FE8D450605407766D2215A2
S31502001F5CC75288FC4BDB7B3C9760586E44C3250802
S31502001F6CAE09711D16A09B6A1DD92248A57DDCB44B
S31502001F7CBA8BFC513E27D38A9824C1F07A8A1F2C3D
S31502001F8CCFB8581A29C5887587214209BFFE5B4608
S31502001F9C87F38B80F180FA17B0F300BBCC84E31E77
S31502001FACFB2C056EDC5CDD8E3113D60A0B82110717
S31502001FBC970FF760780F60627F3DFC30A9678C1E25
S31502001FCCCA59796F80D4C6EE7A4E214A0891A42357
S31502001FDC1B59E30D8061031D458F95A454FC613199
S31502001FECE435A6F23FDDDF9DD7D7A3353EDFCFDE44
S31502001FFC6D3F478237EE40AD74A99D8FE744D3FA05
S3150200200C3472E44F58BA849B5457D04D1C36EC1498
S3150200201C37A042812C3C1D0E940470BDD13056441F
S3150200202CC7039626B0DF783D46F4012A414092DE7C
S3150200203C886DF744B6B1280DFDE358D797151FCC1A
S3150200204CB5F6EE7D4D91CFAEF94450A62679F767DB
S3150200205C9FE729CC94EF6DD6100AE49BD5B234AA2D
S3150200206CD545C96CBD093D18098FD195C933317255
S3150200207C43783E028624BA9F47FE2EA6B71EF0D29E
S3150200208C5D6E7B15E999C53A2C6A34510DA4456EE1
S3150200209C791A4D3778809DCAEE02EC9C9F1D5D9A8B
S315020020AC42D69B3AA57E44C60F2C5A27F4E739B181
S315020020BC4FBC4AD8B38ABC7D718EE9B7B964E318B2
S315020020CCDA22C5F9520D23B6ACF1B321C0B8CF4D05
S315020020DC663C5FDA50E86E58DFA1002D8CCA39E1F6
S315020020EC925116A715E03003FCDBA5926E694D855D
S315020020FC94D274B87680627C3DE6153BAF182DAD52
S3150200210C6CB396912543984B5C9D41458C7FFD554E
S3150200211CC482493A803267BB8662B13BC9DBF4663C
S3150200212C4B1D53B505474C90F19FD5F61E30F6481C
S3150200213CE3EEDBB7EC7388BCF86906688F285F851B
S3150200214C9043E5A273663ADA5BC57225749756B666
S3150200215C7683581D4C80DC6ED8534895E4536C3C00
S3150200216C58BC3636B6CE07FA997007CF4A2BF9CC3D
S3150200217C97F64B844941202954EA7353B67F916EE4
S3150200218C0A6F58C30DEFF0A36CF59930BA9000AFF5
S3150200219C1BB789C19955B9E11D215B47BF773D979D
S315020021ACF74BF9E87C73211904D11EF76058568D4A
S315020021BCC59591CD702624D725B8C208F091410752
S315020021CC877FD199CEA2A4ED0A4C28D8D773CFAA71
S315020021DCAACE93B944CBA9A21BCCF4E892E712532C
S315020021ECDCF8900E399D0B7EFC3B7E883910938D64
S315020021FC31DA4324EC534DA1875B4A6A6A56977BC4
S3150200220CC35F02243632CD1443771CD85417AEA8BA
S3150200221CA66BD9DFF05DACB1DC66438A71C651F7A9
S3150200222CC422BF876621AA0703BFE8FB6C98E81293
S3150200223C0B0F15507F613800BAD7AE77A1FED7E2E5
S3150200224CD88045A03850AD4D1B21338BE314A472B4
S3150200225C3252AFCA2F61A3E63730B6EEFB977D1E1C
S3150200226CA980FF4466BFCFA61A10036AF7E39B68E0
S3150200227C5EBE741D1BDD0780C1F28989E6C49CF81B
S3150200228C77BA9893A45D560AA16E5669E8D239308C
S3150200229C3EBEBD09C7E283AAAF6C55433B2FA4953C
S315020022AC8669E4BE7CE81B4BCAA65E6C400A8A9D14
S315020022BC1A5D0D039E7809179AA04286F78083EF62
S315020022CCC6E170B6F0930540E602191E0651D632E7
S315020022DC83910188196322CC61BBEDB06480A20B99
S315020022ECFC6D517FB172DE013BA71B41820BF08064
S315020022FCDEEB3707F1036696DA8B1B04691A8BD66B
S3150200230C9973E41F5227219C79541706D7A2870882
S3150200231C3A1C21289724C0C26317C726AC720C2319
S3150200232CB8BF937CEBE117092CDAAA27DAEC355302
S3150200233CF282E30619BAF1363DEAA0A9B148544233
S3150200234C0F2BADCD1F700746BFF31CCDCF96FDCD1F
S3150200235C671EA5ACEE52EAB050F606C749902FBEE0
S3150200236C5B774847D70A86AD21246275AAAAE2E4AE
S3150200237C769BEB37CB7913AAD03217BBEAC3B78558
S3150200238C3BDB2B397589A6E434B4F5CE2638DC92C0
S3150200239C42520BA89A856FA04D9E51BCADCC780FBC
S315020023AC7FF20D68B32B83ECCBC88B6B4299203929
S315020023BC8369F4662EC1996E93C146CACC62B27019
S315020023CC82859F00A531F5D833C28C13D7A21E0580
S315020023DCFD88C2293FDAF99D3A10DCA43FE4D1BB51
S315020023EC531DFFAAD09C41A1C2CB924D3B5A1D3321
S315020023FC71752A68D715523E281EB88D3E2FAF53DB
S3150200240C66D163921A8500F1F26F02E2BD93AE6752
S3150200241C6C588AE76E90AF40B884483FD93D852107
S3150200242CD8B0EEC77F52C3688CCB6B046455954EFD
S3150200243C618BCBE5350A45D7898E4C96B5F4882047
S3150200244C1646C13A3878F1946FBABD0DC96D9BEC3C
S3150200245C3D7624D1BA1C3F4A47BCA59FFC7186AB7C
S3150200246C57C508E5D070ACA4BE6120ED9A7B2169F4
S3150200247C1AF0BD00CD548CD62473BF591B969567A2
S3150200248CBB54B644B65009ECE6F57B1923BC7FA8BF
S3150200249C7FA1B5083D4644BF137E1D066B8689D9BE
S315020024ACE6E0B4E6FD869777F03EDADD07CCCBDDC7
S315020024BC3939F2191EB234E94DEA008703A4A31C7A
S315020024CC0E4619896EE1C27B5A97E20E2DF6397EBB
S315020024DC0B29CE56C483ED23DB3201EAA2DF361F6B
S315020024EC0E47FAA24B42700079B3F8317E53B948C3
S315020024FC45278F22822517F7DCBA27F06F92E8540C
S3150200250C9A29627BCA7E10C7C287DD31C7D049259C
S3150200251C5787D60A395E89AB8F23CF860489FFE8A3
S3150200252C23775B14AB2504467ECC0341419CEB140A
S3150200253C4F33F19E631991B7BD72D5470BDF5BAC76
S3150200254C1010F8AB44326AEB6A27589D203E3DF1D7
S3150200255C9E53CB96D7213D7A309B76C57A8E5DB447
S3150200256C59DBBB4CFA5703071C8D3DF8E2BCDFFE68
S3150200257C687466BF7129096CDDA4B47352070651DF
S3150200258C2EAD52654B72E2DBCB44319DE7D88CCE35
S3150200259C4D3D210DF146102D4307D64D47857BA6A1
S315020025ACC8609734B6914FC032B19ADB2A43898000
S315020025BCD77D9952A3AF4622FDCE4B095B63629B34
S315020025CCF36C9CA70F0960DD25132349984B5A031C
S315020025DC8A189EDA7CC637BC17B04C13894C470155
S315020025EC640FE7090632150ED1042F3ED5CC9F0E89
S315020025FC1CFC55A8F6DD2DA969C64E4C82416FAA64
S3150200260CEE90D381942D553BC08C966829F64F8D4E
S3150200261C916EB3F35217E945685826DA36C4324E30
S3150200262C3BDF6210777E8AA7F04F91112D41747BA6
S3150200263C2B51E96A2B179C0393E09F130F4A4AA965
S3150200264C5AD8EC529BA6CE787E0D65687B07C9F6E6
S3150200265C17C3F4569A3C2F660B50205E1BEB67672A
S3150200266CB1BD40286288907ED0979BAE2FDC3E3A55
S3150200267C5F617C0EE29F3FEFED65C6F85199F73626
S3150200268C5E87ADA3EFAACAA3E2302935A43D14BBDB
S3150200269CFA7FB2AB1ACCCB9076781467CD89092621
S315020026ACCBC993E900CF72D29CD4342C3CFE10A831
S315020026BCAB6B31E3DC95C2FE17C08E5E69BEC7BA40
S315020026CCA95014E2FB24415D41A24E7AF9ADCDFF2D
S315020026DC16136BC2DAD159484A41A3705E64298239
S315020026EC7B36CF7ED8D09DE2FFAAFC493DDFC56B77
S315020026FC2F3B692202F633163987FC330ADEF23196
S3150200270CD6BC052A23F0A1A9596A57F6B286FE62EF
S3150200271C5529ECB8BA98D839823F88388B7E900CFA
S3150200272C244A35BC279F30D1AABE3405E0911E70CF
S3150200273CFD5C00FED8A80040C988BA18B1BE59582B
S3150200274CA02B9929BD03B5C73FBAB57C4F4E62641F
S3150200275C49E2BD1FD5073F378385B401D31ABAB2F6
S3150200276C1972AFF2E7E97146BE60F6EBB1944A5EB6
S3150200277C73CC77ECD9ACF73B97D1136BF3B2FE7CE7
S3150200278C65F0D3116F27B2310A38E43C0B2738B106
S3150200279C9137E13C45321666CFF55B5DBE4C311185
S315020027AC3B5A5A3BC8C3F01CC9240147CE49A2D88E
S315020027BCCCCA92940749CD51139759BD8A62498264
S315020027CCC2E3F9A67689F312EA2DD133BA9F051B19
S315020027DCE607925C21B8B0B145CAB1B2149DF97C38
S315020027EC1135DE9150A24B1F6590C519338C722898
S315020027FC7D1EE81C8EE9A399E44055121289C9255F
S3150200280CC2C7537FF2B9D56500B31BAF768FE9D831
S3150200281C2D95AB93DE4EEEEEA7845A645D8AC325E4
S3150200282CDE43F64EC2838FB2E949F122778FF2DA92
S3150200283C9A6B6879E24A6BCF5C1ED12BF9FFA9AE73
S3150200284C528CD5CBE9FF26304FCA9D5755BB9EB548
S3150200285CD3FF231C9F00A9BFDF91B6B0C9C02A7E45
S3150200286C215BE7C52A615E9FCAE40F2885028B416C
S3150200287C01CC6491E8F26D8CE94450C481A8D7D29C
S3150200288CFBABC2735746500E0E4E330BC26E6A39F1
S3150200289C28B44C389614F4D6F50F1DC03CED991B92
S315020028ACE98FFB73BACC699FDF476B00AA7B7DE489
S315020028BCC7E7BC2064DC1908F317EBF72E63341256
S315020028CCC978C90BF704FF8F7F36F59FD055C12106
S315020028DC5DFCD93FEB0FBB47A540A34C275B38CE1B
S315020028EC3A0F295A7A1A11FB4924CE7AEC7ADDC7A9
S315020028FC514587BCEF0691ED4119AF7BA22C145EB4
S3150200290CC5A41724A04AB0AD97D85F979B858D1C9A
S3150200291C9825CFF5D300C17C7BC15A35E075E07E94
S3150200292CD042E2E065EC88BF9102B7A1C83B8F4466
S3150200293CE72F399268720E31FBEECD3D1FC7550655
S3150200294C882E4BD11E8999A5396DA26FB020D02B3A
S3150200295C72EBB2750878A1AA6F03CF88FCE24A6AB9
S3150200296CE4691B7473DAB19CDCBF38B77E0DF9FAD5
S3150200297CBCB464947F0BEBEB7C780EE9346B00935E
S3150200298C7AE4F975CD2D0A6CEE611CBB05D73602BD
S3150200299C807E1344C82A04AA37D5998B693175C02F
S315020029ACAB855CCD3DF6EB6B58517A48D1B0A1F8AC
S315020029BC9E49A376CF9386F4133FAAF62A86D4BAF7
S315020029CC28C8F42AB5F943F935DDE0D73B5369DA61
S315020029DC75E31F44BC2B1BC1DA93881B9D66D4542A
S315020029EC56A9F76B9CA61FCC49B57F9EAFE8333F21
S315020029FC6D811BC12E39C2369BAF73C701E21072B1
S31502002A0CC3B7182BC550B9A183255BF4E6202DC696
S31502002A1CDA51C3BBAA67F1BFFFE6CA983A29AFF3EC
S31502002A2C66881F3DD96855B8F6EFCFE8CC23D3DFBD
S31502002A3C68971568FE76F6CB77D8D4A87A0EEDCEC3
S31502002A4C6606E063037157819D41DA6B16C913451D
S31502002A5CC9D0900321247AEC3478C00DD09C7074C2
S31502002A6CF716A259429D10A0B2E3977E571ABD1DC6
S31502002A7C096ADA2F30EB0836E4609E831F54A0AA4B
S31502002A8CE39A95F0C0D4E59AEA72249DC19FDB4580
S31502002A9CFB2DDD84AE4E46624F00CAAE6A0ED9BC21
S31502002AAC7835AA2AF49936FB496C73DEC90FD182A2
S31502002ABCD1AE5360162126032763ABBE8EFD2E764E
S31502002ACC734B8258C717957360A0F39F8003DCA2E1
S31502002ADC71AA03809AF1CD4248DAB42C76435A3461
S31502002AEC0FE25BCBCF73CB60D703CCB3C4F7D5C79E
S31502002AFCD13B3843B56CFF68253BBCCAECC9A6B4BE
S31502002B0C5701ACEAED56EF07DDA38EBC92ABF5642A
S31502002B1CA9DC055B468963EB7CBA4D1836C6B5E66D
S31502002B2C2BD3177A68D3CF13C2413CDD440AFC651A
S31502002B3C13DC147217155275C3BBE450EEE840F061
S31502002B4C752A17178E4C01787528FA3D23EE35B780
S31502002B5C4799DDB5E300F1253FB174B761DA989573
S31502002B6C4B8ED465E7D1E6DA43737C60890CF8CADE
S31502002B7C70AC1170A4812CE55DE0842DF6D9288207
S31502002B8CDA1B044F0CAF7AE4921B309C2FADB8467D
S31502002B9C4EC1B51A843D5D000B80F8436113CAE140
S31502002BAC5632E5911245489886A79CB9A44B640CFB
S31502002BBCA0DBDDF8D6E240150AC83D7CD1A1A89C63
S31502002BCC1F882AAC439DDA93652456DD39C0ACF6D0
S31502002BDCF7CA149580EAE7A7444F562C7E9A23BC73
S31502002BECCDD240490FE6AA938BB9EDCEC8EE094A6F
S31502002BFC8764DEE604D55F66D5773FB7030F575E6B
S31502002C0C0834EA84DAC56C2168FCFA777DC56F5AFA
S31502002C1C667C51F757B07106EC3BE042C3F5C8C56A
S31502002C2C6CAD9511E5CD542E652643DE0B010410D1
S31502002C3C45EBF04053C6E3A81E1CACCB5435E4B2AC
S31502002C4CB261578B7CF23C42074D104ACF5EBD9364
S31502002C5CAACCE9E4400F04A6EA97FC992ACBA9F080
S31502002C6C19BF0E2B5CF419DD1C4C7E1F87CE64F942
S31502002C7CAA20FCA6D702C3096AC954D092594E722D
S31502002C8C2BC7DEDB1E46FBC84233BC720FB8CDAF78
S31502002C9C8480F7AB7E0CC7493B375914C935DFDC48
S31502002CAC1BE5B088FA7CF2765DF54CF02237FC18FF
S31502002CBCC40DA05B856ACE3FA6EB7CD671BE607B4B
S31502002CCCF8E2EAF155E3104227DD9859B91FDCBE4A
S31502002CDCE8CFEFFCFA7BC740BB105769ED93237F15
S31502002CEC8B29735FE3EAA475628318784962820FB3
S31502002CFC653AF27F9895B47A985D67CD0FB107F273
S31502002D0CA707B1BE2E0FA24A02EA71C647A9E2660E
S31502002D1C4E0C6442287B216C5775BF0711A20F73A8
S31502002D2CCF0486F0DC329D2B14C12C59719C3001D8
S31502002D3CDD6EFB069E35A631E3F8AD4D62D63D6BD4
S31502002D4C68DCF7A914011A1CA9089A17BC38E6C93B
S31502002D5C83BB593E85632CDCE612AE90DE1D4DFE1E
S31502002D6CE47126EA5E2712FD9C0F3E0F3BD2FEC68D
S31502002D7C3D3F833F9D78F8F1F1A069D51CDD3122E8
S31502002D8C029400FCC6185B71A6C390FDE11E936704
S31502002D9C1CC0E198B9E04E1AC18A649BDCD07ED87D
S31502002DAC9B79129AD5027DB023030CA55C81F7F4AC
S31502002DBCD6299C627BDBF683F4D0838127AE88E12D
S31502002DCC600EBBE16A2D05C1D090CA55A3F5D1D7C9
S31502002DDC0A49C133745B22551828B0EFA6E318DFF3
S31502002DEC8B74EECACB5CF6DCCDE8A789E979AC88A4
S31502002DFC803C17176A632FC8DFAE6DD77A73C31F71
S31502002E0CDB85630A646E233375D845212A79806281
S31502002E1C65D8B28FA2794998E33B97854759191B16
S31502002E2CC5CA725CED47FD00C1090740BE54BBB270
S31502002E3C795E8DCBC09646596028F700026293687C
S31502002E4C865DF3CDD118AA1D783BD88340B9BDE770
S31502002E5C2344F2209F82314CA6FCB00A7C305CC023
S31502002E6CB5622B8F5CD04AAA249AABAEAA10E31990
S31502002E7C619B165E64FE74D221EDEB2E049F5B07FA
S31502002E8C5BBCFA0A3BAC9436EB9747468605C4AF55
S31502002E9C3072FAB9110E7E879E0D3224A5C8393AC4
S31502002EAC33177624E724D3D87897EDCA7241B6A0A5
S31502002EBC7CE68B88D2DEB5376AF7D114C0C2CE3324
S31502002ECC4A1DC98F6B517E384C7042FD0BA173475C
S31502002EDC0DFCBD47A4B84C4312C637A40B92E7753A
S31502002EEC6A3E989C54DF86088CBBB8E17C9D4B42AB
S31502002EFC5359EDBFC75D5402AB1BC4492F64B35D76
S31502002F0C95CE87386969FED0CECB1A34545D8828A3
S31502002F1CC917B58D5451E1838A96DB9BE3F09F3C2E
S31502002F2C25E59B0D0407A21B33A4DC8716294A252B
S31502002F3C0087E9F5DE2E3B421E1E889885ED773C0E
S31502002F4C82789AE8F3B5E887B3A3E6BBA6BABC7C4B
S31502002F5C9D485F346EEB910E3E5613B0B2997C6E61
S31502002F6C3D1A702308B2797BA256A65F366D5EAE09
S31502002F7C7B99F4125E287412FF0817C600D9356ABB
S31502002F8C15F8E4DD80DCCB5DEAF4F4BF4F5A3EE380
S31502002F9C98018E92E6857114FDDCBF48DE60987945
S31502002FACBCD1DE98CA908B5CEB47347A3D41A45671
S31502002FBCDD7024D795EEDCD4738657B6E155EF75E2
S31502002FCCA6F0E15A532C9378BCA76220821FFF4DC0
S31502002FDC44E835AC2E383C9A43A96D85C1C28906A4
S31502002FECD93000F7F07F2B13664ED600A5941DFF41
S31502002FFCE997D99C6B535D3CBB8291E604020A911C
S3150200300CCC6D689F21D7E472B9375F6022260C1506
S3150200301CA360A0A0BD43A5EA73B01DAF5FB19B0030
S3150200302C86D04AEA3C044E9910ADAF325AD64DA020
S3150200303C89399DF70237B2ADB17970B9941980F31B
S3150200304C03341D389C8D47590571E309EA3C93C636
S3150200305C76E6233BEEC5B107600B41645F25ED2A8C
S3150200306C37A039DB6BC7605671E09AD7E486F079E4
S3150200307CF00E0126DB15948666ADA49E91DF34A86C
S3150200308C15D431233A2B97EB485A863773E98AF8CB
S3150200309C2FA3DA63BCB01303E325585EF8D5C34DF0
S315020030AC8C0ED360E63D370E85667D59CBBBF5108B
S315020030BC80618F576CA57FE38824C2D0FB9CD30713
S315020030CCF3C425892ACC65686CAAF532C331F35749
S315020030DC578497B7E1AA54D22C6D43E9431BE62FCA
S315020030ECC8AF8C408B2A29E2541135FD6ADC91DE7D
S315020030FC2BA0D13979CC360D9F95087075C0100668
S3150200310CB363897A9D27156A39E96A77D540868829
S3150200311C6D0F554B3BC80CA43D064991C937CCF9EA
S3150200312C60C806207862E67DBA2E13B4ADD7970135
S3150200313CD92278483EFBDB67C32BA81E07E668CF6D
S3150200314C239E768AE7C62D5169A354BC0793292B75
S3150200315C70FCCCCF417D9E9E64C2937571BDBFC57A
S3150200316C5A75F43081992D8DAA80630E0DC751893B
S3150200317CD96E7BD06832E945A0A359638E4D6C415A
S3150200318C527C9BC6FACE62CA0DE25C0C39FB576DB9
S3150200319C813112F817D38FEEDE8577BF2F84ED8A35
S315020031ACA5F3A1BDCC918464E52A4D1DEF4C36B135
S315020031BC293148214A1378D81C3DE433F56420A101
S315020031CCA296A2EC49AEE68FA7B640A997C44B923B
S315020031DC28CE58E689B2A65BD547ACA34CA15506B8
S315020031EC8EBFD738850DC22792A8A585DBD8701B52
S315020031FCB2D4D5A6A6370FBC7CBD981B4A449BA35A
S3150200320CE7619AC3048984DB491C89BBBA761E849E
S3150200321C0848FF442D30DD5F453D933056F630723B
S3150200322C78ADCA5FC591B87FE39C3EB961A931C33B
S3150200323C532539180A56ED7BC6394EC5A5B800E991
S3150200324CC3BA871B21AA63691B428A9A474DAF8769
S3150200325CED930A8755027759B9CA2E5835822658E4
S3150200326C30334633FEBF0AA044EE6B6BEFA24577B2
S3150200327C587982DA117417ED2F9E4315841189FB46
S3150200328CC3667396B46EB528F62054365C9AB28B26
S3150200329C5F54D40B1652B16527C18CBC8138AD3A3A
S315020032AC8FA08AA6828FC71C4449290803C221CE45
S315020032BCA5EBB816A1E711EBC5FF84C73D439643B0
S315020032CC6AB0B2AE7EA9095AA585B64DA598EAC5CD
S315020032DC55B23A6E8286CEC5AF3B6C382A7C2B7EB3
S315020032EC6F06E5946C6AEF9377EA0955421B033431
S315020032FC324E75DD798CFDFE234896111C4D5AFE15
S3150200330CA8BE91EA5498AB46AFF4373A6465674B5C
S3150200331CE1A4A66BB3F52CF7FC184FED81CC1CB6C9
S3150200332C3F5C2AADC7CFEDD4ADCECB512A2F708BD5
S3150200333C1A41ECC8AF0B196CBCC74D14EBAF103B62
S3150200334C4F20DA4E1A0446A12C55E4FE7A19DBE517
S3150200335C537FAB1E19DB6E1C42A5453E1E72639251
S3150200336C2CEBAE4884637533DF572F20B28C2F8F2C
S3150200337CA09F0A3A086E690AFE0A254FC07D92B1D1
S3150200338C47C2C4664BC12BBA31A13024C2498788C5
S3150200339CA7D0E4672BF76CAAAE50598FA9605CE9EB
S315020033AC2D0C883A031862CEAF3043BEB98F7ED449
S315020033BC49FE6E2710267BA2680976D11A6007662B
S315020033CC21924F571B4CC434DDB895C4A09BF53CD7
S315020033DC8DB1DE28BAE08D72827907344C9D3CFCA5
S315020033EC4A96AAA784496753A7322D833C257B9E0E
S315020033FCB4771B9FD812C1E2A4607134D08061EEFF
S3150200340C32B13257E94D97A93D163B5D7A7A8FC296
S3150200341CE55341CAA8C8B904E130E0A7927E530726
S3150200342C4A5CB0A0CCFD6934B927185D1F8D6AAA17
S3150200343CB95CEA3AAC012D2E6B19453D1152D314E7
S3150200344C5767842A9394EB6019A3F8C672158461A4
S3150200345CFDFA2C00BC75AE7839D2F74A09C6A9001A
S3150200346CDF7D665171CE10674311B7B5FB03585514
S3150200347C257F17BD2E501C1AD4D3620265DFD71BCB
S3150200348CBD20862A7F25B2CB96CF302B201C679285
S3150200349C7EB3158F8907F7C4B2B624B79135CD1111
S315020034AC57FF6D7A00B9DE1878814081321F6D5A4A
S315020034BC39E4E5B03ABB67E0244F1ECA3C180093C8
S315020034CC9988386E6E35CF6D6AD8C3BBB670DCF789
S315020034DC65C9BE0B90C085B7440C82ED0D771D3DB8
S315020034EC7A724CD5E740F4EAE0100A16D199758245
S315020034FC0CAB1E0BCB427BB49758054D09D16DCB49
S3150200350C81BE28A05FF4000522270675E1470F4B02
S3150200351C8FFA950B01069CEFD928930B2F758CE12C
S3150200352CB24EAFEE9CDD61471F6F12EC9C1F5C0F17
S3150200353C00302639B22DC20895B79A2946747D1EDB
S3150200354CF05D62659CE95DB473E7C87D642B6F68B8
S3150200355C4997D28A4DE5BB97ED41C4F3DE2C24790B
S3150200356C67E306B58589FFB08970DC65FDA054BC9E
S3150200357C6DEF8BD6BAF5821D2FFD8033B814C0A819
S3150200358C6BAC9BF9FEC556641C99249CCEC3A394C2
S3150200359C5D620DAE193D945991128FD0AE12DA4C72
S315020035AC8AEC788FE337C9FE82E114114A3ADBA41E
S315020035BC9E320D89BF2A77AC0387A7F82F2216876E
S315020035CC434F3A9CBA34D9EC8870566EC1C9C3E8DB
S315020035DC477E09C5DA24164071B16EED611E5F2273
S315020035ECCFF90E17D70ADF88C139A24CB49EAB5954
S315020035FCB2FE903A54DDF9E0967047FFA148BB172C
S3150200360CEA91CF019E79E1D6A86B24344D4125E986
S3150200361C1AA999293076ED9D958141C88E01B54737
S3150200362C7793E789921A902C35C01688C4A386D153
S3150200363C6D95C850668596211D45FCA72A0A2B0056
S3150200364C70E342F6A1E7033787C1D074F312BDCB00
S3150200365C2FCEABB8ADFF7DFDC32DC5CBB4A841B9FA
S3150200366CEDFD0BD6F86488EFA7E0D4B429EFE57626
S3150200367C02B6EE016991FEB93B62AADED97C054817
S3150200368C068C08E701AE36F3CD7238A85AA00B3D6C
S3150200369C4EBE14114893932D4330A0FAA76293851C
S315020036AC72AA437F25B975069DAD1D5337E12D24AC
S315020036BC3A071D0F6B8552379BC0E70E993C2ED4E9
S315020036CC1C0BA7C9D11C52D782C8C9380466B2755D
S315020036DC8264B936DF397EB0DB260348A110FC378B
S315020036EC4B09B9B23967F960717CAD42815C1497AA
S315020036FCCC393E76479307238E4E898D2F66B9B702
S3150200370C0B3BC878FED2282450E54A728B7A19A252
S3150200371C808AE5D2722FAC21D443AAFF4F19538764
S3150200372CA9C52AD50BF506FE5D8DC23DBA8572BCBE
S3150200373C487A0D4503D203D4918CE699DA832DC8C7
S3150200374C57E33C0065F95C587966FB5EC9D8EABC5E
S3150200375C012D8468DD00B7CD4D3CB0158EA9B53868
S3150200376C798CF529FECAFBFB821BD3D7F17DE00DC2
S3150200377C8885FE7B4AE4F6574EC193211163E18A92
S3150200378C9A2E6532103EBABE6EF1C720C78CD92569
S3150200379C710D140A9A6DB16C6BAADA63E53AED18DF
S315020037ACDC92DA37BB606504333F4FA61E1FA9A90C
S315020037BC11DC5EDE2A284477D3E598BA36DD4A63F5
S315020037CC177F0DE57A6D8CAB986CBFB5329C857103
S315020037DC888C329985E1BBAD1AB6BDF87E114A309A
S315020037EC395167F2663A4790A91E6045214696B54D
S315020037FC2C1B1EC1EC4D67BB9C5D156D5120B41B79
S3150200380C5B8AC2A392174023F80855296F3827B052
S3150200381C3110C8AFDE679924F4FBC981714B570E80
S3150200382C0050EE9CDD3ED6913B47E00B3F69F55BC3
S3150200383CC63E8E87686341F3699F835B563605AA3B
S3150200384C25EB26A0EBD46DAFAAF2896832C52D8280
S3150200385CD90C4603C16C98A83ADC9C0860F168E264
S3150200386CBEDF57A4DA77E1CD7E34974AF72C5CFF9C
S3150200387C673145B3317636087E1441ED6ABEED8B5F
S3150200388CCB35E40198C56D4FD7364D2CADCF2E9E58
S3150200389C97A465EC5FE476AEEFF6143A4F052FEB80
S315020038AC9D435AF95D3976473BE8F1D0EC181093F3
S315020038BC81282C12FE9CBB13F278DB9DA4F0F4EB50
S315020038CC6E9B658026A6CBECEDFDBD084DF888CD2A
S315020038DC52132FCCA8A9B9E7A7750780EAD65C7B49
S315020038EC9D86D03E8E54D949680B5A959BD757C59F
S315020038FC333F4C965D7D6ED1535A2C099FE399AB9F
S3150200390C2E2E5B34B465D2796454828465E4EFA1BD
S3150200391CE35EF4DC4BB23897F984A7164397046539
S3150200392C728CF81F39C96A8363D48D349BF0C194A7
S3150200393CE7137550F8FBA19D026BA0EA515C9FBF81
S3150200394C7825E4B26D7D4C6C093B06FCE11F8F3485
S3150200395C7060C121B5EFDEE9E070667E990FECD698
S3150200396C0AC71464AC7AB1A84A778645004C4884D7
S3150200397C99FE607D7D0EEEF00E4E810A9412A92BF5
S3150200398CBEA2255EECEA69CB7D52A9FC87AA6C0421
S3150200399CAC76ABE9384B6DED049D7595E45DA4F4FC
S315020039ACE46E01A2C6A3C9A4644E5DDDEB978A63DD
S315020039BC7452551DA59CC8C8E86C10EAC520C37C78
S315020039CC95A43B91AFE35FAF4CD35DA96358B64563
S315020039DCDA59556822D396B57CD391EC2DD06FF675
S315020039ECCCF3545275642C93DCB08C7652C932A14A
S315020039FC80980625882BAA5018F64D13C2F56F7AB5
S31502003A0C9C6FE6D838D4782240CF1282FF52861B9E
S31502003A1CE69783C7CBE23CF8751F6B65090CD2A2FD
S31502003A2C0AE338AFA46315C267FFEF0093D385533D
S31502003A3C20BF523CB3332DCF80C47DCF31C1751814
S31502003A4C00E213607938DE910558CAB54AB1EDD950
S31502003A5CEDFE3ACC142472C336910B909C56552922
S31502003A6C802C5F0EDDCEBFBEC0DB3FB41A2A1EBC55
S31502003A7C8A8ECF1BE3E753E674A00B6B183C9118A6
S31502003A8CCFCE83F7A503BE7AD41B7F6B4894226DE7
S31502003A9CB404C4FC53ED67C5B066E5B0A0B5E557F2
S31502003AACE20ABC9F96F23EBF123A508EDB63A48B9F
S31502003ABC70B9BE7CABE9CBB1ED5A6E9CDE7400CA12
S31502003ACCB501629594067DFA97819B47471C475729
S31502003ADC20A292F90F18F5354F462DC46C14B2E498
S31502003AEC103833B7AEC2DCE45C352DB9685A2E6396
S31502003AFCF88261218D5B35F0E82E835096CEE33F3A
S31502003B0C2A2A283012FCEF6963654BC14110DD2B62
S31502003B1CFBB8AA51CDB3A2056E97BB8BDE25951EBB
S31502003B2CBAEDBA81100CAA26AEAC8A7A4D994A75B0
S31502003B3C9AECD7D343FAC3F07FBA5B0DC2FF8079F6
S31502003B4CF30F89FD389224751305716DA32E4BB8AC
S31502003B5C4602C888FB0B81B6F4F3100B8F1AE78367
S31502003B6C82FB8069949D60C284ED232DBAE904A080
S31502003B7C37CEF24B74809235BEDA2534FE8C6C6AE3
S31502003B8C000CCB6914C878873B4E2A7237C6ABAB8E
S31502003B9C971C1087BB328AFA16BD6914AA3F3014D9
S31502003BACAD5E44D2C311072A9C44F89F2DF9E4D288
S31502003BBC9B3398B5A68EFE7D16E829969C23CF2AB2
S31502003BCC0AECE31427238FA7C439A9D3C36A4B7B08
S31502003BDCDC204107B6C21B12EEA348892084204C76
S31502003BECCAC1C866AC26FA0EF857B99BD738C6BEF8
S31502003BFC131BA17869897DD2381E0700E688EC264C
S31502003C0CBD92BE08D57D4F64D127AD77C97ADA113C
S31502003C1CE3AD05E9769DF2A093BFB7EF55FB177E90
S31502003C2C93F16D5B06BA18EF76047FEB7FE24B34A9
S31502003C3C90687D1F3FBFA1C7C3E10F712EA1B5D7F7
S31502003C4C6617951E86D12B719BCD1D00CE1D805EEF
S31502003C5C1165FCD57382B3EA256C25112875276983
S31502003C6C238CFCA35A0F319E6C21806E75E4742250
S31502003C7CB835AC6C530F2F49B313537AFA92BABFB9
S31502003C8C62ECFF7022A0520F87791FDE9997B960FA
S31502003C9C6C16A37FDFEBF5126A87B86DC5C2B52623
S31502003CAC882B2BB744AE98845E01ECDB2AFC4AAA1D
S31502003CBC15EE91C241AFEA595A144308E1735B758A
S31502003CCC2C62EF070133C822FD032A9E4E19912559
S31502003CDC50198BC3E7E2471EC69D919EF148649626
S31502003CECF66EF61BCCF518AD3CF40F2631CB616B98
S31502003CFC9BED62AF692566081120E0B6A802557ADB
S31502003D0C998D86CF61722301C538130C31FB10A332
S31502003D1C4800C109F239E5C789668081FCDF81E476
S31502003D2CC06DF3C2013B122C86F901A3A7A8E2E0EF
S31502003D3CEB060349E1B8AE74BEF18D733420B0E8DC
S31502003D4C560196C259028B761F3410F30D65FA078B
S31502003D5CBBC6EA5150A38E678770154330C99C7651
S31502003D6C9D0A5AF1FD7F927CA858D4A26C6640BF7C
S31502003D7C71E0717D87A7774BB7A0A2A2238338285F
S31502003D8CBAB96E51846324D924AE3E15FB90B7168C
S31502003D9C45A5A565B0D0E4C771FF434C4B2C302F1B
S31502003DACE999A655DFE8E514ABC3D47D27A388961B
S31502003DBC918712B2568BF2EC678D2AEB1FCE23D863
S31502003DCCB4E52633DD5788E689264D7DD11A292797
S31502003DDCCA96FC657B6C7882FAA92C7F94578A3139
S31502003DEC6A76396039D0AB037B920A9E68FCA5E2EF
S31502003DFCB88467498B02703D08D883F98DB3869ACD
S31502003E0CDE9BC7A66400705E6A5461FAC700E4BC06
S31502003E1CEF677A10555CE420D4096BAE3706710352
S31502003E2CDB6DEF219E72F05D851AF3A3BFA6ADA5DD
S31502003E3C7BDD8201170780850D7762FDF75BF263E6
S31502003E4CECD5279F8312410E8D87206598BC64A002
S31502003E5C7400BA04D2D68C2AF09140F0FFF7B1D88E
S31502003E6C17E31CE72B13DBDBC96A930A3188B11DF6
S31502003E7CD7148177B1501CE1BC50FCD23F01BCF285
S31502003E8CEF0D3F439506CBF5230D26594EA99B52B2
S31502003E9C99014F3DCEB6416022D165BDCB9696189F
S31502003EAC7EFB9C85E2427D9A22B4957799A4491BA6
S31502003EBC31DF63AE86C5981D628433B1DE856F1918
S31502003ECCD80FD89D8FCCC7FF8791D83A8467101B21
S31502003EDC8269E0D77463CB0D012AF2ABC4B01E32F1
S31502003EECADCF2647CE8E114E31B18C6061C35B7B52
S31502003EFC59A312ED286F678C7F3009B1E2367FB079
S31502003F0C06EC8CF0B8CD4B8AD1D6C775E26091B36C
S31502003F1C5E355613065D02570B1E48DAC8AB1606FB
S31502003F2C5D8A83274F8243C53B69E398488B8C9302
S31502003F3C2D7A832AD33D4EE405BC87FBC70DD95196
S31502003F4C9DF55270BB9AFD9186240DBBE10E7B89C1
S31502003F5C0B8DCE3369C096E529FA75063D4F4CECAE
S31502003F6C090CFB457188E7BD513A9F4C8131FA71B8
S31502003F7C4B81E9E6F6C5C9B76D92D5544111B642E5
S31502003F8CBB31933AF93A516E65612A56B6E1AC33B6
S31502003F9C2A290F13D6ECC9317092C25F9F8EE7A401
S31502003FAC12D74881C853CF2EF29BED2117DB960709
S31502003FBCF0D85038757C69BBFFC87D66797FF907E6
S31502003FCCFC580A42A663E34D882884F1B96DD3A343
S31502003FDCECED1992C42064C90FC6B467188ACE6C6C
S31502003FEC34391DC3AABEDFA5B3746D76AA4C4544FB
S31502003FFCD1D904DBA203A7B8EE5484EBB63DDC554B
S3150200400C49BFA712C1B532ACD74D92B68FE75BCD7D
S3150200401C1884B1215FE4857DFB68478C21362356D3
S3150200402C5FBCEB9058C30CC3B3C0BB24CCA6837A3B
S3150200403C920F8CD572388C039DA4022CFC0F6EEF5A
S3150200404C99262F85BD5E660B6350A159077E41B436
S3150200405CE3FFBC84ACF16E874897D123B1929C42A4
S3150200406C0246346F3DA7059E644EC5075F3E8273BA
S3150200407C68E8319CDAE0F298CA716254D5F8DA7AB9
S3150200408C375B45E855CFB9964090707F071873AFEA
S3150200409C2860240443B9BE216DCCAB42E9969E91AD
S315020040AC8C2D87709DD1E4F8C204B0253E9E6E001D
S315020040BC6BC2FC9502ACD09F8A99EC1AA43C45764D
S315020040CC1755A2C8D1AC084F43F3A4A4E6D867E7A8
S315020040DC1E32A665290FE625E2961284C17056B7E2
S315020040EC0044866ACAF03A9184AE07BE3372426EB7
S315020040FC1B78D7DC925DCBE2370A4840B7E543EE34
S3150200410CB635BC3717C1BD5C0734C73A174D0BD54C
S3150200411C88747B20C45F3B52ED13D1D268BBF46F1B
S3150200412C43B340564AEF9E80311CE2799B5CF208FF
S3150200413CE4597EF95142E6B9F627DD2BBB4B6303F4
S3150200414C957BEFF8AA484BAB88D8F8F04706C4D84B
S3150200415CD714875005BEF25EAD0ECBBEC68EB477B3
S3150200416C81690DA0F9EAA06BC0633F5C10322DD5B4
S3150200417C5F3A068D60C81206A2805066AD1297D1C0
S3150200418C4467645FB4AC9A712F5F988F705CDEC023
S3150200419C02C2E0C1B4CA728BBAD1244485EAC366A0
S315020041ACE987B62A4E08B817C6006EC597C2016AC9
S315020041BC449BDB26B7D8DA9EE55A88DBD6B5176B55
S315020041CC605CC233122CC373F65E5A0FDF4F7B222E
S315020041DC1FCD167A662F9F29DCD1738E7980E572F4
S315020041EC1EBEF68CC71E41118C441DF9E314F489CC
S315020041FC73EBA9130330A59E880363EDAC1B6A0F00
S3150200420C6231959CE1F01A7ABD891F715A89D5449F
S3150200421CACB155B5C58501DCE2A9717EFDD79B957E
S3150200422C3813E4CD90D8180C65C5F2FB2ACA2C6556
S3150200423CA3B78C4A09A82884EBA90B697E27D76BEE
S3150200424CBE7A35AD3248CDA54A3B47C3D8B83D1EDA
S3150200425C4697AF1690F82F5626057880A01F82A691
S3150200426C4DBB02DBAFE3D44FB15BCEF9026F1F67D6
S3150200427CE1EC982F28795A7C59BEDB6F0ADCA3AB8A
S3150200428C08EE104399CFDD1DCCCDD3D938682BB3AC
S3150200429CB2F7932F399E000C1356F4246389909A25
S315020042ACC2FD41F7F6E1BD91B5E2C55A0B331A864A
S315020042BCAC871DE8B5011CDB2D9B7AF07DBE465DF5
S315020042CC62A28E5E51EB5805868ECE81A9302A6D7E
S315020042DC354C1BABC6C0CCC5A2646530D04BA3888B
S315020042EC529D5CCB1EB83A2CB1BE2A1D3BEA33B0AA
S315020042FC381CC8D669AD59B6EC7C479A0A6DB6918C
S3150200430C6CCA6F336CE0744ED52584A24F86174A5D
S3150200431C92A010B68645151D998269480353837E71
S3150200432C6DBB36038C7A1E1F3FDAEC420367130C05
S3150200433C8B26DB00975C36CF8F93C0D7922C7CAD45
S3150200434C52BEA358581D13BEB585377809D69D7E25
S3150200435C854BF9BF19456D467F35321AB5CD53B328
S3150200436CE96215B93EF636771B7D2B877144CB3F36
S3150200437C727DCF80D14A3B95EAC569B0D325CEA4CE
S3150200438CD9000C64D77675CB6FE1BEB7B8C69CEE76
S3150200439C977C4E47C05EB16D4050AF4DABFB27FECE
S315020043ACC0A4B7CFCAB8C6AE3325912356E2BC0316
S315020043BC66AE6CCEAAB7E32420A3161FFE767BA7A5
S315020043CC785FD884FBF2454F562CB0E8DB7B447FF2
S315020043DC03F4C54480CB248F2BB082781B62C8248D
S315020043EC70FC66BA1774537E8A00310746CE450BAB
S315020043FCA0C52AB64CADD58B2D5847F8DCE93E79CB
S3150200440C792C473C5903E3DF895DAD7CF686CFCB2D
S3150200441C299D1511AE60B174E4B7DBC86A010B991C
S3150200442CF6071ED5D93D8A55263BC7DEA84CE3BDF9
S3150200443CB89CFDDC8332FF8434D5FD9CB103CB40A2
S3150200444C6CAF0D9C45E525EC97CC212F035FDBF673
S3150200445CE77B6255B9F6F4B3C0B285690B1752FB0A
S3150200446C2B1566AAAF0D4C0375027CF1AD763A9A02
S3150200447C8B24447CA48476271B75F0E2D993692F8E
S3150200448CD2F43BE4EDED7DC73C8F57C6739E7201A9
S3150200449CE21DAF1CA28DD6B2C5F06EE61699BC9281
S315020044AC0B1125C5474443EA21381EB2A51C4C7E86
S315020044BC72267AD7E89D5AFA7524AEDBAEBBF16347
S315020044CC86040DBC0D19BCCFBBCC0C3720F725CA04
S315020044DC139AD7BCFD771A171AA3906AD3FA281027
S315020044EC5A2931E63B7C1B316B50221371A263EBCA
S315020044FC519162A4AC4A1EB595EA240B5737AAEF22
S3150200450C8CCE33115A3B255DB551E80D2B2B9D48AC
S3150200451C7B275FD387851E388AD9A8C2ED62DFD77F
S3150200452C2CA3029F9F1AB468DB1271660E0F4C31D4
S3150200453CC9749A9EA72EA91582DFB6152091D3CAE5
S3150200454C5F2A49A5B9BB70B5130DC5A4FD284D4DFF
S3150200455CD9ED1A0D34DC018D3008A9C14ADB0A7576
S3150200456C03CA4DE93D9163EA5C6A20CF56C7C5B8CA
S3150200457C1069387737351447D8AED7538FB9829F1F
S3150200458C005B412AE251AB5D54A5160FF1DD89A001
S3150200459CCD0DF2408026FB94E191AB5D34C2300F17
S315020045AC40D3ADE31F2F28F00EBBF1E4C6CA4E1161
S315020045BC953F26D9730C42B535AEE9710D93374248
S315020045CCDC97ECB0BF62AA2587F16DFD7011BC0EAB
S315020045DC635C28F0E2615D3A6CF9BC3B0DAF441C9E
S315020045EC4EA1A8259A47DB6F4BC30F8EA32EE2C1B1
S315020045FC14A3830471105D17A53F5A46BEAD10A6CF
S3150200460C6ADF74D0DDC93396921B77B0834D40C8EE
S3150200461C865D0222A39A9BE1612DFA4B944362C8F2
S3150200462CAB26DB7023606CC4D0706B3F8E142D7C72
S3150200463C243FA4AF033DF0893AA212E615E776AB06
S3150200464CB136EF0F75C00E5CE31E32D5B58986F214
S3150200465C539416F3988C382C99F69E16982E29FE9E
S3150200466C78C7A3D70178B86057455B0D090CA653DA
S3150200467CBF396CAA272B20E830F7FE79720DA82BCE
S3150200468CB44422E058E3DAF76843A02DA58676589F
S3150200469CC265AC73100FE75341BE4F7AE1C364ACEB
S315020046ACA6F090B0D38F3C2879EB86FF75D73F17CF
S315020046BC641C465DECB2DFD3812E2FA0F428C21CFB
S315020046CC6F7892DC89A006AE4A646F4461EECA69C1
S315020046DC5E83E912871176C2DAEE05A2ECE684C68F
S315020046EC702021113CF14E2954A10D3C3B83BC7C1C
S315020046FC14B735D22BFFDB35B46F3A60CA087D3C52
S3150200470C0B8B8BE07350A4B373F0F22DA71B2BFC0F
S3150200471CB30C7147CCDE4D46C92C3FC805B91F1BDD
S3150200472C2F8012E4DD6C8A385CB19C3AC9E8D26BF4
S3150200473C8F7CB1B1435C36F14A45AFF745631DC771
S3150200474C7FCFB59E1FCF7D97E19A6224D7E33D2793
S3150200475C39817051AC49A72BEF8C74D8887FBF5C1A
S3150200476C1DED2C22EA7A79C206E56BED1E1CC78A70
S3150200477C8C36302D62DDCB5EB01B0C37086173A60E
S3150200478C8C9F91EC2250CA65AD48C91D40F6FB18A8
S3150200479C8F79459179B31A45028416633E18AF1E7A
S315020047AC636707007106C80DBFC3DFE378E75202E1
S315020047BCECA744491111051AC811388CBB4E692A4B
S315020047CC9E253FD65305FC7E5D12B8258277A7340B
S315020047DC3BA28C61C1C830A8D2FA8D5B25721FAB85
S315020047EC026C5D3D91012646BDDD0996D301F4C9E5
S315020047FC6903D8F4FB83F1E804E20CE24460F72F78
S3150200480C2559E42295D57091D63F91D180759B029C
S3150200481CE827E96B0D1349A43C32DC987B02B425DC
S3150200482CBA533716B3FBBC3B0AE6D1AF39F585E969
S3150200483C54E0389321F6242EAD747FC7B37BA5FEC4
S3150200484C11BB6134E8CFDEE3008A0BFDB38902C5E6
S3150200485C0B52603D6CC85B31D948105E949F595718
S3150200486CCB52CD7114736D0548519778FA3C7C7A0C
S3150200487C1991D6D680C68B418C20C500256654DA92
S3150200488C9329CD49C08BC198F78CA100A5C510E61A
S3150200489C0440D922A3C4E8BA03CBD6EB040BEE89A7
S315020048ACE5CAF680148DA291390238E79335FC06D7
S315020048BC0AA21F8FB62013FF0264DC44D6197C8829
S315020048CC5A2AD32582BAE911DFB60E11DF649F1F6D
S315020048DC9CFC813C1C5D9636A48B4BECA07BDDBD0F
S315020048EC175ACC48C41957F8E160CFDF049E7EAD47
S315020048FC657554539379E2C4BFE9B77E928721BB9F
S3150200490CAAF597A876D9A867C22D95B4993E8FE2D7
S3150200491C5914A079E56FE1DC6EF87EF4FD0E44FDC8
S3150200492CDDAA04406A6095E3AEEA8E1F8824450B25
S3150200493C33645558AAAC912932CC4394951C97E50D
S3150200494CBCD91FC1F27A769C5E328DC2B5B1F9CC56
S3150200495CD6F047E3C8E59C6EABC94DF8B64424C302
S3150200496C393E0F49966D1371CFB3791AD4D7CE222D
S3150200497C5C06BD6702C67E591ED92AA9E3B5E58433
S3150200498CBB9686298FE32F6C4E7011AD54E3CBBECA
S3150200499C8B70F3769647F90E44F046194C456CF239
S315020049AC7D9331DA36B11D0B0026041E487BC2D12B
S315020049BC1EB78D35196A0FB23BE438EA9981946AAF
S315020049CC04A603A9A6F9C67FAA89687586B7A35554
S315020049DC0E09A38EF148CABF772BE8D866C2F360DC
S315020049EC2F2C58DA5B57691A50828C0A3F291B21E5
S315020049FCFC7FB5549AB97F1B5D4E604C23BF94E184
S31502004A0C387ECF8F4ECC32DF38C3AC429212803511
S31502004A1C799E7C8C8C82D4125B69F00611A7EE3ED1
S31502004A2C6EB5B188D60D012382E930E011D0CB9256
S31502004A3C015C95F579E8F904F01E3D8B5DB0617663
S31502004A4CC92E4F6B7134A2CD9B8AF868D424698324
S31502004A5CF99020A762B4BD0A82601F5F232B2952EC
S31502004A6CB20B55762F83EB7DAB240F1BE0C2F7BF3F
S31502004A7C734CFCAEFAF153D6EC4BF922B60DA2806E
S31502004A8C5B75BFC0E8C48F11FAF83142B25F179357
S31502004A9C0D0935B6273146EA813FC869C03967A583
S31502004AAC5C60B53DA0D85AB3FF7899490FDF456BC8
S31502004ABCD5770D319CD5408C90A8F16B07045F4CD1
S31502004ACC6105B8075AFC0918E473BAD6856B483FD8
S31502004ADC916988D2D50BD47D7231A00F76C9320377
S31502004AEC7B6ACF8B692CD0E69468942EF49CE0A357
S31502004AFC8C63CA0837A9CC3CF92638D2CD813F72D1
S31502004B0C31C11E786F9C8C674AE3529020E7F9E616
S31502004B1CB0C2148CAEA7A538DCEBB4DC06C9980679
S31502004B2C003151EA4BCF17D80B672E41D4E43F5FC5
S31502004B3C334CF54D1DE14B2DD0D5A27A1142EE9593
S31502004B4C47476383939D949543D0C59E5638BF4B76
S31502004B5C26666BC406E75E0604FECB7D4421C7902F
S31502004B6CCB75140C84931DEEFA78BC3A1EAB8244B8
S31502004B7CFDEAD07ABAC8E00CF5BBA5257F374ADC2C
S31502004B8C391F384B725E6EE8E624A59D0D330E492D
S31502004B9CA1710C8CEA2C15980E9BBA687833305599
S31502004BAC591997BE0E03CB5404EC7030A586E12638
S31502004BBC6CF36BD26A50F3C097914A3860225A3F13
S31502004BCC30A183F488C61EE7603198EA6D15D3F1DD
S31502004BDCFB243E5C38584A54DDBCF0D66F92D78B18
S31502004BEC5642E3E74D905769DB8F681AC81CF4ED01
S31502004BFC0C37AE453A8E1B7C578E6C5D4067542B38
S31502004C0C497F5F6C3CF08221449D9CF74219BDB8EA
S31502004C1C92DDDE55F491AD1604568F3FACAF8B0E7A
S31502004C2CEB7B108D67EE95EB8901839468666E8932
S31502004C3C96A67E46C8C248EB07E3DFC1DD86287C12
S31502004C4C0ABE66C586033209707A2DDD9337752442
S31502004C5C17EE41E4BB44D2D747C17CFE2029CDE5F1
S31502004C6C250EA3ACA5AB3EEA6F3A142B698330F33F
S31502004C7CFA478DCB3151CA4193AFADC5E403B19519
S31502004C8C3387F463DBC9805BA38BBB6DD372337C36
S31502004C9C7E27A8CDFC4A2F84224510DB18D4DAF3E2
S31502004CAC085DCEE31DDB3D929725D0B4E4F1E1D14C
S31502004CBC111314057575A8E9E6B80EFF5CA0E7E1B9
S31502004CCCC6CFD2893C17AE2197D0A55E5C9A6E4AA6
S31502004CDCE2E455EAB0F476ED6490889A75F60E5FC6
S31502004CEC1CA1AF70C6589DED6D91B777C00DE0272C
S31502004CFC638A32FE3875A7A087DABFEB125D62298A
S31502004D0CAFF8BD8760E2074C241600E00E6AB47059
S31502004D1C68FB9F686092A8BCEB3980452EBDD2CE4B
S31502004D2C3933034F5502B96253E6FD6681C2120E40
S31502004D3C4E964EF48CFC1594F3036AD7F5BCF0062A
S31502004D4C45C14AB8A2186289548CA6E53D71348FC6
S31502004D5C4C8D98842FDA17F287EA9C3242DEC451C4
S31502004D6C1103B6886618677F79BDFAD8CB5231D64D
S31502004D7C2D0EBD9D5259CA8C8731953B3BD658CCCC
S31502004D8C42DAD47A5EA9DD75F23F7001D4EBF4B245
S31502004D9C4DC8A112DDE2622590D72BC3FCBD7DAFB7
S31502004DAC713387A88A1BC6DCB133E370C3E70BCB1E
S31502004DBC3B09AF7DD8867CD5B9988510656B4CA915
S31502004DCC0DFC29624EFC6F8C9C76256AAA94226D88
S31502004DDCB162EAFA397E52C735810F3B46F281E15E
S31502004DEC4224D3E20032989134EE9B90DA36654334
S31502004DFC79ADF8BF63979B484F2FCBA7683AD82952
S31502004E0C892115BD51B63FEDA542D496F7EBE6398D
S31502004E1C7A745DF75BF4F682AB7263F1AD99453F3A
S31502004E2C5B84B092418D3F672B2567DE6F1CF523A1
S31502004E3C43260A0A80DB18E4471F92763C646620F6
S31502004E4CEEDD0FDD6FBDA32A9543A9310BD53F7756
S31502004E5C0826A8026B4795F97808F7E9220E8AAB61
S31502004E6C6F596E7416388C56C14EA8B53BDF37682F
S31502004E7CD8D0E402D6C90E8645D56139176071B20F
S31502004E8C78D9697AD8D87D8CBFFDB9E7396296F4A0
S31502004E9C0DC37F861EFD00B16031F61DAE4359BCB3
S31502004EACB68C8F65A8C21E0678D0C9BF622EF46373
S31502004EBC9909F10392FF357C425F9432D4CE31B418
S31502004ECC8B0059C5D41CC3F20A5536739901D7D334
S31502004EDC9F4EEC8E78EDBE2756DE1380C1EC51D276
S31502004EEC727143164F07C9DF0B790BA9A0E10C4D62
S31502004EFCA6E5270777479BCF37DA9BF1194D8CC767
S31502004F0C9BFC0186FD40180973C227230A63804F56
S31502004F1C986A3DE7AB6DC2E9E2CE84498851705E70
S31502004F2C8A9B07AC94F8A4EDFF9C460BEE8BDE67CE
S31502004F3C6D8BCA0A89FE1B0E114541124C8C795A8D
S31502004F4C6E6039CAA9E7FA2A9C470F795D1C4C6236
S31502004F5C284D23EC393293B84137F8A01A943F7591
S31502004F6C58D11539D07A49FB692EFC8BDD4B4C1F77
S31502004F7C04DA1393A194A58B6F2F2F918C17E1AEA4
S31502004F8CE20D2F302B4B43474DCF2049BF129711C1
S31502004F9CAD261A6446324A3C1E2F7C4C498184F853
S31502004FAC0FCAB42CD9CD97B524E79A6F1EDD20B261
S31502004FBCA245196314D647CE123EDED695F270E0A0
S31502004FCC7161CB8AAED863B7B9B5FA49049CED0DBB
S31502004FDC384CD933E263DDBCCE42382D0FD73CEACE
S31502004FEC9E72C13E7040F66AF8CDEE8F839314FA28
S31502004FFC881371796B7AD98D662A192BF76AF39B0A
S3150200500CD04DF17F36FC72070377A779C4B1B5444C
S3150200501C36CC1566C71820A1AF06E0B7DA032E9870
S3150200502CEDDED1B2529F406ECE56715E826007871C
S3150200503CD824D5E1B2A0915FC7FB14DF959B455FDF
S3150200504CCC5EC51140577D3EF29B00B8D24AAF8B5F
S3150200505C86C975A402BEC43735A2CE46773BB14586
S3150200506C095D6978BB3AF05938E54322A737340F04
S3150200507C5AB5A8872E797808B2F665D824D2E6E016
S3150200508C12C6B2237DF8DAEF07B2664A8E00717C3D
S3150200509CD098B0FEDE224A16AF6D27C0FA57FCA98D
S315020050AC3BE372CB611A4E72ED09C12BC2C5EC2CD5
S315020050BC9D8F129D2F2846EA2E0E0BEB5D1D31E6B7
S315020050CC635E5DCA4A64B1BB6CDA8E867C66076522
S315020050DC5A0ED503E2BE076ADF2618DF9DA3FC79BA
S315020050ECFB5BB958A95F37E2B560CA047D25CE5879
S315020050FCD82A6ED2F6FFAD55717C4D0C35318B3AF2
S3150200510CA06360D3BD66B4BD7287A0A972321309BF
S3150200511CC03FDF1943B3AC912DCB26673D429ADCD7
S3150200512C5690287921E4DD59066869416521C092B9
S3150200513C90EBACA6D3A9C0DB2AB38A606ACDE71F73
S3150200514C6FDFED820F8B20EC09AEB1146D40F3B517
S3150200515C691749429543D5B5B90DB4580D6D8412EC
S3150200516CA875FA889DF87DDF99EEC4453F26BFA344
S3150200517C7133089621329F103A72EAA2C418F68C41
S3150200518C026FDC41E82CF63B93E570086A257984BC
S3150200519CABAECC69143D4446BCA676B63AF875B4A9
S315020051ACD26C333EEA888ABA6E1D300F4539596B7A
S315020051BCC9AA7B02D889D64AFC55D06E08754166B7
S315020051CC40161728317EB06223FFB2C53995F78C8B
S315020051DCD20C60ADD1906F84E9C4A0C83F370D2FB5
S315020051EC48A8C954BB74AD0BF66CC6F1EBB097D19B
S315020051FC36A06A9576F83A7D1DCAE83B6F1AD42E0C
S3150200520CE757DA7532E37B975CA4A36275ABC96781
S3150200521C179B17897B4E8215D61FBB939912C273A5
S3150200522C11E65E95C0FA6C49FAA670EF5259F188EE
S3150200523CCCD89B549F026BFD4B67841C67BC6B538B
S3150200524CFE2BB01EE6B2B3FEC56437C3C8A7516BBC
S3150200525C5C0C546808079BF3F5682794E8F04093B6
S3150200526C132C2AF37D3067203C5C7C6F3AFA2D8D29
S3150200527CA4CEABC43F661113EF1EA5FEAADC6B5877
S3150200528C6DD590E608ECAAE0CE2FE5CBC30E72CE16
S3150200529CB693BBBC608C8E98AE09B30841CF7E4ADE
S315020052AC59CECBB40B90FF1A27106D6211EC323922
S315020052BC156CDAA4087F0B06EDB1FAEB73993294EE
S315020052CCA3D532D5532FD86C10D1C2BC7DD88C2124
S315020052DCD37075B51BBAA412E3B61FA00059B24D12
S315020052EC3F070164514EDA6EAAB55E25267A20CAAC
S315020052FCFD3FDEDDEFEE921CF51D7DA50A8439E736
S3150200530C0ECDB08059110919FA72804DB6F13FAA29
S3150200531C7645B25B4714203F0A511DA44C2C3AAD7C
S3150200532C931E3BE41FA07C930C2FB8BD7A3CDBCCBE
S3150200533CF7C7E7F0A2C8415D9E824EA07644E3CC45
S3150200534C7C548821BC0FDFA892438BDA76C5BF1D2D
S3150200535C7E8ED2F773D4C2DF95433AB9CA5761D35C
S3150200536C3A1A44AFB1A58E4281A1F8E9869D072F60
S3150200537CB44E8A593E4FF8AF37F3C6813DCA14F183
S3150200538CCD5FB70BAAC0DEBC004DC6448BB44D280C
S3150200539C7DD779DCE1906038F2F20B3CE94F9671DD
S315020053ACD48594740A0027DCE806D4E1FAD24CEFD1
S315020053BC1350F52E340D36B03A28592A913A8447B1
S315020053CC10363D9B4282A9A6F3A4BFDAAE09248EFF
S315020053DCE46255CA253A069B2E45DB3C41534A10DC
S315020053EC9ABFB7E1FA04CEA79C9011E73BAF7E6B4E
S315020053FC54945E200D29BB39617BDB44E919668422
S3150200540C96B2651886BA3F06B2B27BF38074421026
S3150200541CBF48A925DE80C52EE8FFC06BF7631110C5
S3150200542CEC99161F8C43CA4C491980D4A41CAC7B2C
S3150200543CE64AB13C2F390CAB9CCB9E68E8512FBB8C
S3150200544CD54494DEB14B310DA1789F4CAA77624AB2
S3150200545C4CFC0FF9219E43E83C5059C90AC39B5A8E
S3150200546CBEB87A17613B6035B7A03C336B48294509
S3150200547C92F143F26DD49A73E77DB35FA1758124E1
S3150200548C2B45E32FCAE1C1B07622436E0753500374
S3150200549C44BDE7705D5CD22E057DFA454F815440C2
S315020054AC874A836C0D9C5BD7174746532DA507FE7F
S315020054BCC13BA738B1D1D1CCD454B503076D8F8B70
S315020054CCC2C29CA95CAC2ECDE3C66779391AEED062
S315020054DC1B9A0D08DDC9986430504883D4ABEEECA8
S315020054EC9306644DA20AB6D7E5B44D45F7C404A299
S315020054FCACA88EC02329BA990084285768BB156FAD
