S013000052413850315F54455354312E73726563F5
S3150200000080620022B93400028D320002B534000249
S31502000010B5340002B5340002B5340002B53400022C
S31502000020000000000000000000000000B5340002DD
S31502000030B534000200000000B5340002B5340002F7
S31502000040D90E0002310E0002690F0002B50F00023E
S315020000509D2D0002AD190002411B0002651C000223
S31502000060491D0002D90E0002310E0002690F00027C
S31502000070B50F0002AD190002411B0002651C000209
S31502000080491D0002D90E0002310E0002690F00025C
S31502000090B50F0002D90E0002310E0002690F0002EE
S315020000A0B50F0002D90E0002310E0002690F0002DE
S30D020000B0B50F000261280002EF
S315020000B8010000001040000010400000104000003F
S315020000C81081000010400000FFFFFFFF0B07EA0740
S315020000D80101EA070100FFFF0400000056152B077D
S315020000E80000000000000441646D696E20436172DD
S315020000F8640000000000000000000002CB8B0B0722
S3150200010800000000000004557365722043617264A2
S315020001182031000000000000000000010429C85830
S31502000128D12A810000000755736572204361726403
S31502000138203200000000000000000005048E66560A
S31502000148D12A8100000007557365722043617264E3
S315020001582033000000000000000000060100000035
S315020001680000000003000000886E0022C000002282
S3150200017800000000886E0022F06E0022586F0022EE
S31502000188000000000000000000000000000000005F
S31502000198000000000000000000000000000000004F
S315020001A8000000000000000000000000000000003F
S315020001B800000000000000000000000043000000EC
S315020001C8000000000000000000000000000000001F
S315020001D800000000000000000000000043000000CC
S315020001E800000000000000000000000000000000FF
S315020001F800000000000000000000000043000000AC
S3150200020800000000000000000000000000000000DE
S31502000218000000000000000000000000430000008B
S3150200022800000000000000000000000000000000BE
S31502000238000000000000000000000000430000006B
S31502000248000000000000000000000000000000009E
S31502000258000000000000000000000000430000004B
S31502000268000000000000000000000000000000007E
S31502000278000000000000000000000000430000002B
S31502000288000000000000000000000000000000005E
S31502000298000000000000000000000000D5B10002C6
S315020002A87DAF0002000000009CE1000290E000021F
S315020002B861E0000261E0000261E0000261E0000222
S315020002C861E0000261E0000261E0000261E0000212
S315020002D861E00002FFFFFFFFFFFFFFFFFFFFFFFFD7
S315020002E8FFFF000001004153434949000000000096
S315020002F800000000000000000000000000000000EE
S315020003080000000000004153434949000000000074
S3150200031800000000000000000000000000000000CD
S30D020003280000000000000000C5
S315020003300348044B834202D0034B03B1184770476C
S31502000340780200227802002200000000064B0749CC
S31502000350C91A891048BF0131491003D0044B0BB1A9
S3150200036001481847704700BF78020022780200222F
S315020003700000000010B5064C237843B9FFF7D8FFFA
S31502000380044B13B10448AFF300800123237010BD60
S31502000390B06200220000000028F1C90208B5054B30
S315020003A01BB105490548AFF30080BDE80840FFF7D9
S315020003B0CDBF00BF00000000B462002228F1C902CE
S315020003C008B5037903B108BD04F032FC03F058FA0C
S315020003D0BDE8084004F070BE28B10379022B02D1B1
S315020003E00122014B1A7070470000002270B5151EDB
S315020003F010DD91B10A4B4FF0000C9868094C064685
S315020004001868B36884F800C098472378002BFCD09C
S31502000410284670BD0025284670BD0D46284670BD8B
S3150200042070BA00020000002200B589B002460349F4
S31502000430684608F0E9F909B05DF804FB50B200021B
S3150200044000B589B002460349684608F0DDF909B0ED
S315020004505DF804FB50B200020146014808F064B997
S3150200046058B20002014807F069B800BF6CB2000238
S315020004702DE9F04FBD4B8FB0D3E90112186812680F
S315020004809047BB4B1D689C6859682268284690476E
S315020004906368284698470023ADF81E3006F0FAFC3A
S315020004A0059020B10146B34808F03EF9FEE70DF18A
S315020004B01E0006F003FC002800F0B781002006F0BB
S315020004C097FC0146002840F0A881012006F05EFC58
S315020004D00146002840F0A581202145F2861006F04B
S315020004E081FB202145F2871006F07CFBA24EA34831
S315020004F008F082F94FF47A714FF4FA7002F082FE34
S31502000500D6E9011330681B689847014610B10E28D8
S3150200051040F07F814FF0000B4FF4784405F07AF9F2
S315020005200A211820964DDA46CDE901455D464FF47B
S315020005309673DC220090084606F07AF906F0EEFF82
S3150200054004F09CFA8F4808F057F906F057FE4FF46C
S315020005507A714FF4FA7002F055FE04F089FE07F044
S31502000560CBFB894808F048F94FF47A710A2002F069
S3150200057049FE07A94FF486408DF81CB08DF81DB0D0
S315020005808DF820B006F054FB0DF11D0145F21F0057
S3150200059006F04EFB08A943F2080006F049FB9DF857
S315020005A020307A489DF81D209DF81C1008F0BCF8F2
S315020005B0774B784CA3F5163707F00EF906F0C4FE12
S315020005C004F0C0FA04F0F6FB04F06EFD032800F016
S315020005D0A080062802D1704808F00EF904F01CFE2D
S315020005E0002840F09E800135EDB20A2D00F0A7806A
S315020005F000214FF41632384608F054FAB3683946E9
S315020006009B68306884F800A0984700287CD123783C
S3150200061073B94FF4FA6803E0B8F1010800F09E805E
S315020006204FF47A71012002F0EDFD2378002BF3D00E
S315020006300BF1010B594BBFF34F8F4FF4965E1A46DF
S315020006404EF001E05649C1F85C2220320FF005C88F
S31502000650BFF34F8FBFF36F8F524AA2FB0B1222F0EA
S315020006600F0EAEEB121EBBEB4E0E43D1484AF046BE
S31502000670D11A04398908CDF810E0013106E0782A4A
S3150200068038BFE646013903F1040324D01A88B3F8C9
S315020006900290D0B228385FFA89FCBE28ACF1280C49
S315020006A04FEA12224FEA1920ECD8BCF1BE0FE9D864
S315020006B0B9F5174F0EF1020CE1D2772808F10200C4
S315020006C0E0D8772A4ED8049A013902F1020204923E
S315020006D003F10403DAD1BEF5706F049B76D99E4509
S315020006E07ED8C0F08580B8F5706F7BD82E492F482A
S315020006F008F01AF800212948F02300904FF4A0725E
S31502000700084606F0CDF857E70146294808F00CF8E6
S3150200071052E7284808F070F804F07EFD00283FF4FE
S3150200072062AF182108A8013504F04CFDEDB222494A
S31502000730224808AA06F05AFF0A2D7FF459AF059BF4
S315020007401F4901331A4608A8059308F05DF81A49AD
S315020007501C4808AA06F04AFF002549E71A4808F08D
S315020007604BF829E7872A88BF80468BE770BA0002D2
S315020007706CBC000294B20002B0BA000200B30002DE
S3150200078038B300024CB3000274B3000288B300020D
S3150200079000580268966A0022C4B30002000000688C
S315020007A000ED00E0898888888CB2000218B4000245
S315020007B004B40002DCB30002F4B30002F8B3000290
S315020007C0FCB3000200B4000228B40002B3F5706F55
S315020007D00ED8194BB8F5706F184998BF194686E7B7
S315020007E0C64512D8144BC645144928BF19467EE79A
S315020007F0049B43450BD8C645BFF478AF049B0E490C
S3150200080043450E4B38BF194671E70D496FE70D494F
S315020008106DE70D4807F088FFFEE70C4807F084FFF6
S3150200082053E60B4807F080FF56E6BDF81E1009484E
S3150200083007F07AFF42E600BF8CB2000278B20002ED
S3150200084088B2000280B2000220B30002CCB20002DB
S31502000850E8B20002B0B20002022800D0704708B522
S315020008600449054800F05CFDBDE80840012002F09D
S31502000870B7BD00BFF0BC0002D062002208B5FFF788
S31502000880F7FD002008BD00BF03460020C3E906129B
S31502000890704700BF844610B4406A836823F440134D
S315020008A08360DCF82440A36C5800FCD5A36823F0CF
S315020008B01003A360DCF82440237FC3F30010DB0699
S315020008C0FAD4CCE90412A36843F01013A3605DF8CE
S315020008D0044B704784460020CCE90B32CCF8281032
S315020008E0704700BF4FF0FF330020C1E90033704765
S315020008F08B0784461DD5426A936823F4401393609E
S31502000900426A936C5800FCD5936823F010039360F7
S31502000910DCF82400037FC3F30012DB06FAD4104688
S31502000920CCF81420CB0703D500231846CCF81C308C
S3150200093070470620F6E700BF0346002210B4DC69C2
S3150200094010460C60DA615DF8044B7047062070476A
S3150200095030B40124164D530902F01F0C203304FA59
S315020009600CF445F82340BFF34F8FBFF36F8F114B43
S3150200097002F5C65C53F82C4024F4803443F82C402C
S3150200098053F82C300901002AC9B207DB0A4B154479
S3150200099085F8001343F8220030BC7047074B02F07B
S315020009A00F0423441976044B43F8220030BC7047E7
S315020009B000E100E000600040F8640022FCEC00E088
S315020009C0F0B5C46A85B005460F4694466E46B4B184
S315020009D094E80F0086E80F002B6A20461B78A76072
S315020009E0236084F804C02B6BE360AB6A9847EC6A19
S315020009F01CB196E80F0084E80F0005B0F0BD34463E
S31502000A00EAE700BFF8B5394B42689A426BD1044611
S31502000A10426A936823F440139360426A936823F010
S31502000A2010039360426A137FC3F30015DB06FAD400
S31502000A300121236A2E4A93F90730580903F01F034E
S31502000A40203001FA03F342F82030BFF34F8FBFF391
S31502000A506F8F236A93F90930580903F01F0301FACD
S31502000A6003F3203042F82030BFF34F8FBFF36F8F6E
S31502000A70606A836823F480338360236A93F90530BE
S31502000A80580903F01F0301FA03F3203042F820301D
S31502000A90BFF34F8FBFF36F8F236A93F90B30580959
S31502000AA003F01F0301FA03F3203042F82030BFF3AC
S31502000AB04F8FBFF36F8FEFF3108681F310884FF0DD
S31502000AC00043276A0B4A97F800C0506823FA0CF3D2
S31502000AD00343536053681E2002F094FB86F310888A
S31502000AE065602846F8BD0720F8BD00BF424943535A
S31502000AF000E100E000302040002370B5026AD569AB
S31502000B0083606B7C03B970BD184B044693F854306E
S31502000B1003F00F03072B24D8DFE803F004040421B3
S31502000B201F191B1D01269E40104B93F8550000F01D
S31502000B300F0002F0FFFAB0FBF6F00D4B1A686B7C61
S31502000B4002FB03F3B3FBF0F30133A36070BD03268C
S31502000B50EAE70526E8E70A26E6E70826E4E70626A0
S31502000B60E2E71026083B9E40DEE700BF00E00140B8
S31502000B7080650022F8B5002704460E46416A8D6854
S31502000B8025F4441222F011028A600761FFF7B4FFCE
S31502000B90636A326825F440151A61636A38469D60B5
S31502000BA0F8BD00BF0620704700222DE9F04101275B
S31502000BB00B78027003F5800303F556531B0243625A
S31502000BC001624B690D4683628B690446C0E90B23B9
S31502000BD08378CE6967F3010383704B78934214BF1F
S31502000BE03A460222837862F30103837091F90B205D
S31502000BF0897AFFF7ADFE95F905202979FFF7A8FE58
S31502000C0095F90720A979FFF7A3FE95F90920297A14
S31502000C10FFF79EFEEFF3108887F310884FF000412E
S31502000C202A787B4BD1405A6822EA01025A605B68F5
S31502000C301E20394602F0E6FA88F310884FF48062E5
S31502000C40636A9A606B78E978EA691B02890301F4A0
S31502000C50804103F440730B4311785068090601F092
S31502000C6040710B435178C90389B20B43517B490545
S31502000C7001F400110B43616A43F480534B6113780C
S31502000C80991EB94240F2BD800368616A0B61117B0D
S31502000C90AB7801F0030141F0300133B1022B14BFEE
S31502000CA04FF440734FF480731943937800201B0767
S31502000CB003F080530B43616ACB600123616A88614A
S31502000CC029788B40C3F3090313B1636A5149596208
S31502000CD00025937BD17B127C01F01F0103F00103F7
S31502000CE002F01F0243EA0123616A43EA02430B63ED
S31502000CF02046C4E90455C4E90655FFF7FDFE70898E
S31502000D00626A4549A0819166226A444B92F905209E
S31502000D1002F5C65153F8210065F3104043F821004D
S31502000D2053F82110BFF35F8F012102F01F00520911
S31502000D30920002F1604202F5614201FA00F0C2F845
S31502000D4080011060226A92F90B2002F5C65053F810
S31502000D50206065F3104643F8206053F82000BFF385
S31502000D605F8F02F01F005209920002F1604201FAFF
S31502000D7000F002F56142C2F880011060226A92F91F
S31502000D80072002F5C65053F8206065F3104643F873
S31502000D90206053F82000BFF35F8F02F01F00520954
S31502000DA0920002F1604201FA00F002F56142C2F8D5
S31502000DB080011060226A92F9092002F5C65053F8A2
S31502000DC0206065F3104643F8206053F82030BFF3E5
S31502000DD05F8F53099B0002F01F0203F160439140AB
S31502000DE003F56143C3F8801119600D4A636A9A607C
S31502000DF0626A137FDB07FCD50A4B00206360BDE8FD
S31502000E00F0810949022B094B18BF0B463DE700BF8B
S31502000E100030204000001F1F1000079D00600040A8
S31502000E20110401004249435304FF00FF24FF00FF5F
S31502000E3038B5EFF30383103B254A5BB203F5C6517F
S31502000E4052F8210020F4803042F8210052F8212085
S31502000E50204A52F82340236A1B69B3B1636903B17E
S31502000E6038BD636A9D68A06825F4801545F40015AF
S31502000E7018BB00219D60A36A2161002BF0D0204699
S31502000E80BDE838408022FFF79BBD6269636A002A8B
S31502000E90E8D0A278216902F00302022A11D00A7868
S31502000EA01A71A278D4E9041302F003029B1A1144C0
S31502000EB0C4E90413002BD3D1D3E702F09DF9636A88
S31502000EC0D7E70A8822F4DC4292B25A60E9E700BF09
S31502000ED000600040F864002210B582B0EFF303838D
S31502000EE0103B1F4A5BB203F5C65152F8210020F4AB
S31502000EF0803042F8210052F821201A4A52F8234043
S31502000F00A27802F00303022B636A0CBF19681978F0
S31502000F10E3690CBFC1F30801C9B2019143B9A36ADF
S31502000F20B3B10422204602B0BDE81040FFF748BD27
S31502000F3002F0030201A9A06907F033FED4E90621F3
S31502000F40A37803F003031A44C91AC4E9062109B1B6
S31502000F5002B010BDA36A002BFAD00122E2E700BF5D
S31502000F6000600040F864002210B5EFF303830F4AD5
S31502000F70103B5CB252F82400426A936823F4401391
S31502000F8023F010039360836A1BB102220021FFF74C
S31502000F9017FD074A04F5C65352F8231021F480318F
S31502000FA042F8231052F8233010BD00BFF864002225
S31502000FB00060004038B5EFF303831D4A103B5CB274
S31502000FC052F824008378456A03F00303022B0CBF10
S31502000FD029682978AA6C08BFC1F30801C2F3007315
S31502000FE0C2F3006C4FEA031343EA4C13C2F3C06226
S31502000FF043EAC20C18BFC9B2DB06624604D5AB6C23
S315020010001B0458BF4CF04002AB6E43F0C853AB66AC
S31502001010836A0BB1FFF7D4FC064A04F5C65352F8AD
S31502001020231021F4803142F8231052F8233038BDC0
S31502001030F8640022006000400022034610461A604F
S31502001040704700BF10B40B0A064C1B0153FA81F11C
S3150200105054F821300020C3F340035DF8044B1370AB
S31502001060704700BF00084040090A490101F180416A
S3150200107001F580014B68002013807047090A490177
S3150200108023EA020C01F180411A4001F5800142EA8D
S315020010900C4200208A607047002001238242CAB2B5
S315020010A003FA02F39AB24FEA034308BF1A460B0A3F
S315020010B05B0103F1804303F580039A60704700BF2A
S315020010C010B4090A490101F1804101F580010C6859
S315020010D002EA030C4CEA040C62EA030202EA0C027C
S315020010E00A6000205DF8044B704700BF090A4901F7
S315020010F001F1804101F580014B680020C3F30F43E3
S3150200110013807047012310B44FEA112C4FEA4C1C8E
S315020011100CF1804C0CF5800CDCF80440C9B28B4013
S3150200112099B203EA14435B1AB3FA83F35B0900200C
S315020011305DF8044B13707047090A490123EA020C51
S3150200114001F180411A4001F5800142EA0C42002079
S31502001150CA607047012010B40B0A5B0103F1804399
S3150200116003F58003C9B2DC6800FA01F1012A4FEAED
S3150200117001400DBF84438C4304430C43DC600020D2
S315020011805DF8044B704700BF2DE9F84F0388DBB1C9
S315020011904FF0000A80464FF00109DFF8D4B0002470
S315020011A0314D4FEACA07D8F8043035F8022BD9195F
S315020011B0898891420AD00134032CF4D1B8F8003060
S315020011C00AF1010A5345EAD8BDE8F88FDB5909FA54
S315020011D004F603F0B853B3F1807F244BF6B293F8CA
S315020011E04C2C12D0324230D104F120021BF81230BC
S315020011F0DB09E0D01BF81230012123F08003C8205E
S315020012000BF8123001F0FEFFD5E7324210D004F19E
S3150200121020021BF81230DB09CDD11BF81230012156
S3150200122043F08003C8200BF8123001F0EBFFC2E74F
S31502001230012002F093F80D4B012093F84C2C324317
S3150200124083F84C2C02F05AF8E1E7012002F086F806
S31502001250064B012093F84C2C22EA060283F84C2C0A
S3150200126002F04CF8C0E700BFA0C0000200E0014057
S3150200127000202040F8B50646FFF786FFEFF31082FE
S31502001280012383F31088234F3B681BB94020224970
S315020012900B7508753B6801333B6082F3108833880F
S315020012A000211BB31D4D08E01B01134445F82340E2
S315020012B0328801318BB29A4218D9736853F8314099
S315020012C003EBC1029288E0034FEA1223D2B2EBD5B6
S315020012D002EB031055F820E024F4803C2EF4803E05
S315020012E045F820E01B0145F820C0DEE7EFF3108247
S315020012F0012383F310883B6813B13B68013B3B60D3
S315020013003B681BB9802004490B75087582F3108867
S31502001310F8BD00BFF4640022000D404000084040C2
S3150200132008B5034B03600846FFF7A4FF002008BD7B
S3150200133054524F5008B50846FFF79CFF002008BDDF
S3150200134070B5012686B001AB03A80C461546049378
S31502001350ADF80C60ADF808100192FFF715FFEFF338
S31502001360108186F310881D4B1A681AB91C4802753B
S31502001370402202751A6801321A6081F31088E90365
S315020013804FEA1422E4B219D4110116480A1940F898
S315020013902250EFF31082012181F31088196811B1EE
S315020013A01968013919601B681BB980200C490B7535
S315020013B0087582F31088002006B070BD0948110135
S315020013C004EB021250F8226026F4803640F82260BE
S315020013D025F4803640F82260D7E700BFF464002285
S315020013E0000D4040000840400346002059601A7232
S315020013F0704700BF84460020CCE90E32CCF8341088
S31502001400704700BF0346044ADB6800209B1AB3FA02
S3150200141083F35B090B7070474349495230B5836BBE
S3150200142083B004460A466D46A3B193E8030085E8F5
S315020014300300E16B1A7119601846636B9847A36B38
S315020014401BB195E8030083E80300002384F82B30E0
S3150200145003B030BD2B46ECE730B5454B83B01B6A73
S3150200146001690193019B03F00F230193019A019DE8
S315020014700B7C90F82C409CB9C2F30322DBB2A2EBA0
S31502001480156293409B0804D1082003B030BD013B8E
S31502001490FAD04A78C2F3C014D209F8D1CC710169E4
S315020014A0002390F826408569026880F82B30C561D2
S315020014B080F82D3080F8274080F82E3080F82830CA
S315020014C080F82F30036280F83030546A227894F81C
S315020014D001E0012A14BF4FF0040C4FF0050C6279AB
S315020014E0120142EA4E0294F806E042EACE124CEAB1
S315020014F00202D2B2CA7001690A7942F010020A7176
S3150200150001690A7963F3C3020A7101690A7963F30D
S3150200151004120A710269E179137961F3C71313712F
S315020015200269537943F001035371036893F90F304B
S31502001530002B07DB012203F01F040E495B09A240C0
S3150200154041F82320BF210269537A03F0F303537251
S315020015500369D97190F82C302BB1002380F82C3016
S31502001560002003B030BD022203695A70F8E700BFBB
S3150200157000E0014000E100E090F808C0C0E9051271
S31502001580BCF1010F80F82A3008D10022436880F8A6
S3150200159026C05B0080F8243080F82520002380F8DE
S315020015A02930FFF759BF00BF90F808C0C0E90512FD
S315020015B0BCF1010F80F82A300AD10022436880F874
S315020015C026C05B0043F0010380F8243080F8252012
S315020015D0012380F82930FFF73FBF00BF70B4002413
S315020015E0402203691C7003691A70026913785B064C
S315020015F0FCD5C0231370036802695B6A804D1B79B0
S315020016004FF0000C43F0E0031374036802695B6A4F
S31502001610B324DB7843F0E0035374036802695B6A20
S315020016209B781B0103F0700343F008039370036871
S3150200163002695B6A1E78012E5E7814BF04230523B5
S3150200164043EA4603DBB2D37003685B68AB4214BF5E
S315020016507722F72203695A71036983F806C0036980
S31502001660DC7191F911204B7B6245C0F2AA801B0105
S3150200167002F16044DBB204F5614484F80033614C44
S31502001680614B44F8220002F5C65553F8256026F44C
S31502001690803643F8256053F82530BFF35F8F012566
S315020016A053099B0002F01F0203F1604303F56143F5
S315020016B005FA02F2C3F880211A6091F90F204B7BDA
S315020016C0002AC0F295801B0102F16045DBB205F5E6
S315020016D0614585F800334C4B44F8220002F5C655A5
S315020016E053F8256026F4803643F8256053F82530F2
S315020016F0BFF35F8F012553099B0002F01F0203F11E
S31502001700604303F5614305FA02F2C3F880211A60C9
S3150200171091F910204B7B002A63DB1B0102F1604525
S31502001720DBB205F5614585F80033374B44F82200F4
S3150200173002F5C65553F8256026F4803643F825602F
S3150200174053F82530BFF35F8F012553099B0002F042
S315020017501F0203F1604303F5614305FA02F2C3F87F
S3150200176080211A6091F90E204B7B002A31DB1B0186
S3150200177002F16041DBB201F5614181F80033224B8F
S3150200178044F8220002F5C65153F8214024F480346D
S3150200179043F8214053F82130BFF35F8F01215309EB
S315020017A09B0002F01F0203F1604303F5614301FA55
S315020017B002F2C3F880211A609F2203691A7070BC74
S315020017C07047124C02F00F051B01DBB22C44237644
S315020017D055E70E4902F00F051B01DBB229440B76D1
S315020017E0CDE70B4D1B0102F00F06DBB2AB559CE7B2
S315020017F0074D1B0102F00F06DBB2AB556BE700BFCC
S3150200180040420F00F864002200600040FCEC00E059
S3150200181014ED00E0F8B500250A781C4B016013446C
S315020018201B0203618B680E4643600B7B0446037200
S31502001830CB6943630B6A80F82950C36380F82A5048
S31502001840856380F82B50C0E90555C0E9075580F835
S315020018502C50EFF31087012181F310880C4A33785C
S315020018605068C3F1090301FA03F320EA0303536044
S3150200187053681E2001F0C6FC87F3108820463146C5
S31502001880FFF7ACFE034B2846E360F8BDE0254000B7
S31502001890003020404349495238B5002503690446C1
S315020018A0DD710168FFF79AFEB32290F82600A1695E
S315020018B0236984F82C5084F82800E561216284F8B3
S315020018C02A50DA71284638BD70B5002504460369E8
S315020018D0DD710168FFF782FEB320012194F82630FC
S315020018E084F82C5084F82830A36984F82A50C4E975
S315020018F0075323692B4AD8712369DD712368E56092
S3150200190093F91130580903F01F0301FA03F320304B
S3150200191042F82030BFF34F8FBFF36F8F236893F9DE
S315020019200E30580903F01F0301FA03F3203042F880
S315020019302030BFF34F8FBFF36F8F236893F91030B8
S31502001940580903F01F0301FA03F3203042F820304E
S31502001950BFF34F8FBFF36F8F236893F90F30580988
S3150200196003F01F0301FA03F3203042F82030BFF3DD
S315020019704F8FBFF36F8FEFF3108681F310882368C2
S31502001980094A1B785068C3F1090301FA03F30343BA
S31502001990536053681E2001F035FC86F310882846F2
S315020019A070BD00BF00E100E00030204010B582B0FB
S315020019B0EFF30383103B5F4A5BB203F5C65352F85B
S315020019C0231021F4803142F8231052F82330EFF32A
S315020019D00383594A103B5BB252F8234094F82D30E8
S315020019E05BBBA369022B22D9E369012B0ED12269C3
S315020019F0137943F0100313712269137943F0080334
S31502001A0013712269137923F01003137123685B6A39
S31502001A10DB79002B3ED101222369DB7CDBB28DF818
S31502001A2007309DF8073084F82D2002B010BD2269D8
S31502001A30137943F040031371D6E7E369002BF4D020
S31502001A402268526AD279FAB9032B17D0022B26D012
S31502001A50012B34D02269236AD17C6269D154D4E93C
S31502001A6007320132013BC4E90732002BDDD121697D
S31502001A700A7963F386120A7102B010BD22691379DC
S31502001A8043F040031371E5E705212046FFF7C6FC44
S31502001A90E369D9E705212046FFF7C0FCBBE72269C7
S31502001AA0137943F0100313712269137943F0080383
S31502001AB013712269137923F010031371CAE794F89C
S31502001AC02A2072B322681D4892F90F20510902F0AA
S31502001AD01F0203FA02F2203140F82120BFF34F8F92
S31502001AE0BFF36F8F04202169CA7942F08002CA715E
S31502001AF021690A7942F010020A7121690A7922F0F3
S31502001B0008020A7121690A7922F010020A71226911
S31502001B10507021694A7922F001024A7184F82C3008
S31502001B2098E708212269537A03F0F703537223696F
S31502001B3059708FE700600040F864002200E100E07F
S31502001B4010B5EFF30383103B434A5BB203F5C6536A
S31502001B5052F8231021F4803142F8231052F8233030
S31502001B60EFF303833D4A103B5BB252F8234094F8ED
S31502001B702730002B40D194F82930002B3BD1236823
S31502001B805B6ADB792BB194F82B3013B9236A002BED
S31502001B905CD1E3692169002B41D1CB79C02223F0C4
S31502001BA08003CB71216901E0013A02D0CB79DB09CE
S31502001BB0FAD12368284A93F9103003F5C65352F82E
S31502001BC0231021F4803142F8231052F8233023687F
S31502001BD093F91030002B09DB01215A09204803F042
S31502001BE01F03603201FA03F340F822302269D379E7
S31502001BF043F04003D37110BD94F82630032B1CD05A
S31502001C0094F8242023699A7494F8282094F82730AB
S31502001C100132013B84F8282084F8273010BD236A5C
S31502001C206269D35C8B74D4E907320132013BC4E9A1
S31502001C300732002BDFD12169AFE794F82830022B57
S31502001C40DED194F83030002BDAD110BD05212046C2
S31502001C50FFF7E4FB9DE700BF00600040F864002246
S31502001C6000E100E038B5EFF30383344A103B5BB280
S31502001C7052F8234023685B6ADB79002B4BD194F838
S31502001C8029301BB194F82730012B52D0E369E3B116
S31502001C902169C023CA7922F04002CA71216901E092
S31502001CA0013B02D0CA795206FAD4EFF30383103B02
S31502001CB0234A5BB203F5C65352F8231021F480314E
S31502001CC042F8231052F8233038BD94F82A203AB34A
S31502001CD0012022681B4D92F90F20510902F01F02C2
S31502001CE0203100FA02F245F82120BFF34F8FBFF3ED
S31502001CF06F8F4FF0040C2169CA7942F08002CA71D3
S31502001D00226982F801C021694A7963F300024A71A5
S31502001D1084F82C00BCE705212046FFF77FFBAEE7DF
S31502001D2008212269537A03F0F70353722369597023
S31502001D30AEE794F83030002BAAD0A7E7F864002269
S31502001D400060004000E100E038B5EFF303834F4A3C
S31502001D50103B5BB252F823000269537A517ADC06D1
S31502001D6001F0E00151725FFA83FC03F003022CD505
S31502001D700369597849064ED40024012580F82B5070
S31502001D80DC710168FFF72AFCB32290F826308169DC
S31502001D9080F82830036980F82C400162C46180F81B
S31502001DA02A402946DA71FFF739FBEFF30383103B2A
S31502001DB0374A5BB203F5C65352F8231021F4803139
S31502001DC042F8231052F8233038BD002A5CD11CF0A9
S31502001DD0080F11D0C369002B45D190F82B30002B88
S31502001DE041D1B32290F829100369C1F10301C9B2A6
S31502001DF0DA71FFF713FBD8E790F82C200CF00403F6
S31502001E0042B3002BD1D0C369002B3BD190F82B30C3
S31502001E10002B37D1E5E7002AAED15A78C2F38011FA
S31502001E205206D4D5082280F82B105A70036801692D
S31502001E305A6A94791378527943EAC41343EA02132D
S31502001E4043F00203DBB2CB700269537943F001031C
S31502001E505371AAE7002BA8D003685B6ADB79002BD3
S31502001E60A3D00421C5E70023B32190F82650846944
S31502001E70026980F82C3080F828500462C36180F829
S31502001E802A30D1710121B4E7036975E7F8640022AB
S31502001E900060004003460020D3E9022393607047A6
S31502001EA003460020D3E9022353607047034600200D
S31502001EB0D3E90223D3607047034670B45A689E681A
S31502001EC0D26900209168D46841F000455168756175
S31502001ED09D6844F00044AC619C6841F00041216178
S31502001EE0146999684C629B6852699A6270BC704721
S31502001EF003464FF00041002210B49C68104621614F
S31502001F009C6861619C68A16199684A629B689A6251
S31502001F105DF8044B704700BF83684A1E9A664368A1
S31502001F201B782BB983684908013959658368996515
S31502001F308368D96AC90707D44FF4AA015A66836827
S31502001F401964D0E90232DA6000207047032A8368F6
S31502001F5009D0042A08BF03221232013903EB820395
S31502001F600020596070470422F6E700BF03469A68CC
S31502001F700020D26AC2F300020A719B689B6C0B6056
S31502001F80704700BF84460020CCE90632CCF8141014
S31502001F90704700BF70B5836984B004468C46164606
S31502001FA001AD9BB193E8070085E8070083F804C0FA
S31502001FB09E60E26918461A6063699847A3691BB175
S31502001FC095E8070083E8070004B070BD2B46EDE7ED
S31502001FD030B48C6E01342AB1944203D930BC013A32
S31502001FE01A607047029D496B0078ED0754BF01F0F5
S31502001FF01F01C1F30441032808D9090981F001012F
S315020020006AB9A1B930BC02225A60704701F00C01CC
S31502002010A1F10401B1FA81F14909002AF1D09442F1
S3150200202001D80029EED130BC03225A607047002C39
S31502002030E8D0F8E72DE9F04F4FF0FF3A4FF0000BEA
S31502002040866885B0009202AB074688461446406809
S3150200205002F003090A463146CDE902ABFFF7B8FFA3
S31502002060039B356B93B914F0080F14BF04220222A6
S31502002070A107029820D502F1120106EB8101486000
S31502002080B968133201EB82014860BE6862061BD54D
S31502002090326CB9F1010F42F48002326427D025F482
S315020020A04035BE6845EA0345B9F1000F16D1002056
S315020020B0356305B0BDE8F08F4A44123206EB820260
S315020020C050606206BE68E3D4B9F1010F23D025F44D
S315020020D04035022C45EA0345E6D173B925F0407531
S315020020E045EA03650020356305B0BDE8F08F25F0AB
S315020020F04075BE6845EA0365F4E70124786802ABD9
S31502002100424631460094FFF763FF039B25F0407574
S3150200211045EA0365E6E7022CE0D1DEE730B58268E0
S315020021201E4D526E1E4B01328A6082681B68D06A4F
S315020021302C6AAA8C04F00F0502F00F0C45EA0C0E6D
S315020021401EF0080FC0F3C35013D092B212F0080F5C
S3150200215018D1012214F0080F02FA0CF21BD0032543
S3150200216004F0070405FA04F402FB03F3B3FBF4F3E9
S3150200217002E003FA0CF3EB400122C3404B6000205D
S315020021800A7030BD4FF0030C02F0070214F0080F7C
S315020021900CFA02F2E3D10124AC40E5E700E001408B
S315020021A08065002230B44268034692F91210D26961
S315020021B0002911DB01244F4D480901F01F0C203084
S315020021C004FA0CF445F82040BFF34F8FBFF36F8F2C
S315020021D00024494840F8214092F92810002911DBD1
S315020021E00124444D480901F01F0C203004FA0CF476
S315020021F045F82040BFF34F8FBFF36F8F00243E4850
S3150200220040F8214092F92910002911DB0124394DA9
S31502002210480901F01F0C203004FA0CF445F820405E
S31502002220BFF34F8FBFF36F8F0024334840F821402E
S3150200223092F92A10002911DB01242E4D480901F0DA
S315020022401F0C203004FA0CF445F82040BFF34F8FE0
S31502002250BFF36F8F0024284840F8214092F92B10D3
S31502002260002911DB0124234D480901F01F0C2030FF
S3150200227004FA0CF445F82040BFF34F8FBFF36F8F7B
S3150200228000241D4840F8214092F92C10002911DB48
S315020022900124184D480901F01F0C203004FA0CF4F1
S315020022A045F82040BFF34F8FBFF36F8F00241248CB
S315020022B040F8214092F92D20002A11DB01200D4C15
S315020022C0510902F01F0C203100FA0CF044F82100EB
S315020022D0BFF34F8FBFF36F8F0020074941F82200EB
S315020022E00020D3E90221186091609B68586330BCD4
S315020022F0704700BF00E100E0F86400224FF0010CD5
S315020023002DE9F0430B7C00250CFA03F3C360C3F3FB
S315020023100D03B3FA83F35B09416003740B7CAC4A89
S31502002320AC4F1A44120282604B690E4643618B69B6
S315020023300446C0E9065385B0CD69C7F810CFEFF35E
S3150200234010878CF31088097CA34B0A1F052A83BFCA
S315020023504FF00042CA40D2436FF000621B6913403D
S315020023609D4A1361136901211E2000F04BFF87F37A
S315020023701088E36819070DD0EFF31081012383F368
S315020023801088964AE06853889BB223EA000353807A
S3150200239081F310884FF425400022A3684FF00041D4
S315020023A01860A368DA62A368DA63A3689A64337A68
S315020023B03078DB05032843F4803008BF0346A7685C
S315020023C07068FB62A36801381961A3685961A36842
S315020023D09961A1684A62A1688A62A168AB69CB6108
S315020023E0A168EB690B62A1688866A16848664FF02E
S315020023F0FF300021CDE9020130782F6D002840F030
S31502002400F28101204FF0030E7368D4F808805B084E
S31502002410013B0293C8F85430A26893653278032AC6
S3150200242003D9A268D365A26813662B6DD3B92B783C
S31502002430A3B133786A78022B4FEA821C4FEA021163
S3150200244000F00482032B03D0002A0CBF06230923C3
S315020024503B4343EA0C030B4343F48077AB78002BF0
S3150200246040F0DC8100236268D16991F8482001F1CD
S31502002470300CDA40D2070ED5032B5CF8232016D097
S31502002480042B21D002F1FF38A26803F1120902EBF4
S315020024908902C2F804800133062B1DD091F8482028
S315020024A0DA40D207F7D5032B5CF82320E8D1A368DC
S315020024B0013ADA6591F84820D30640F1A98104234E
S315020024C0042BDCF81020DDD1A368013A9A6591F855
S315020024D048309B0600F19E810123327C9340C3F370
S315020024E00D0313B10022A3685A640023A268936302
S315020024F0A268C2F888302B6D3BB995F8213095F861
S3150200250020205B0743EA42331F4395F84830002BED
S3150200251014BF4FF4A0024FF4AA02A3681A643378D8
S31502002520012B04D10023A268D364A2681365A368B1
S315020025305F63A26895F85410D36A43EA011395F8CB
S31502002540551043EA4113D362A368C3F830E0A36887
S315020025501863D4E90232DA6096F91230002B26DBD0
S31502002560727C03F1604112011D48D2B201F561414C
S3150200257081F800231B4A40F8234003F5C65152F85E
S31502002580210020F4803042F8210052F82120BFF3C6
S315020025905F8F01215A09920003F01F0302F1604284
S315020025A002F5614201FA03F3C2F88031136095F92C
S315020025B02830002B35DB95F8222003F16041120109
S315020025C00748D2B201F5614181F800230CE000BF51
S315020025D0203240000030324000302040004032407D
S315020025E0F8640022006000409A4A40F8234003F54E
S315020025F0C65152F8210020F4803042F8210052F8E8
S315020026002120BFF35F8F01215A09920003F01F03B5
S3150200261002F1604202F5614201FA03F3C2F8803127
S31502002620136095F92930002B27DB95F8232003F157
S31502002630604112018848D2B201F5614181F8002356
S31502002640844A40F8234003F5C65152F8210020F48B
S31502002650803042F8210052F82120BFF35F8F01211A
S315020026605A09920003F01F0302F1604202F5614229
S3150200267001FA03F3C2F88031136095F92A30002B70
S3150200268027DB95F8242003F1604112017248D2B289
S3150200269001F5614181F800236E4A40F8234003F5B3
S315020026A0C65152F8210020F4803042F8210052F837
S315020026B02120BFF35F8F01215A09920003F01F0305
S315020026C002F1604202F5614201FA03F3C2F8803177
S315020026D0136095F92B30002B27DB95F8252003F1A3
S315020026E0604112015C48D2B201F5614181F80023D2
S315020026F0584A40F8234003F5C65152F8210020F407
S31502002700803042F8210052F82120BFF35F8F012169
S315020027105A09920003F01F0302F1604202F5614278
S3150200272001FA03F3C2F88031136095F92C30002BBD
S3150200273027DB95F8262003F1604112014648D2B202
S3150200274001F5614181F80023424A40F8234003F52E
S31502002750C65152F8210020F4803042F8210052F886
S315020027602120BFF35F8F01215A09920003F01F0354
S3150200277002F1604202F5614201FA03F3C2F88031C6
S31502002780136095F92D30002B27DB95F8272003F1EE
S315020027906040314D12012F49D2B200F5614080F8F6
S315020027A0002303F5C65245F8234051F8220020F4CF
S315020027B0803041F8220051F82220BFF35F8F0121B9
S315020027C05A09920003F01F0302F1604202F56142C8
S315020027D001FA03F3C2F88031136000201F4B236015
S315020027E005B0BDE8F0830128D4F8088029D000920C
S315020027F0F268606802AB4146FFF7EAFBDDE90232A6
S31502002800100440EA026040F0030E40F0010001E6C7
S3150200281005232EE60523DCF8142033E6E978327820
S315020028200B01022A43EA811312D0032A03D000299C
S315020028300CBF06220922134347EA034343F080777B
S3150200284010E64FF0030E4FF0FF33E3E50923FFE5F1
S315020028500922F0E700600040F86400225450470065
S315020028602DE9F041EFF30383103B7B4C59B201F59E
S31502002870C65E54F82E008A0020F4803002F18042AF
S3150200288044F82E0002F54042D2F80003734850F88D
S315020028902100456895F800C0ED69BCF1010F09D029
S315020028A043692BB1BDE8F04100221146FFF772BB26
S315020028B0BDE8F0814FF00008D0E90276BE60866876
S315020028C003F0FF03C6F848808668C6F84C8086681F
S315020028D0C6F8508054F82E7068F3104744F82E70EC
S315020028E0D2F80023BFF35F8F5D4A490903F01F0345
S315020028F00CFA03F3603142F8213095F84830D907D3
S3150200290003D595F92810414576DA9B0704D595F942
S315020029102930002B80F2888095F92A30002B53DA71
S3150200292095F92B30002B37DA95F92C30002B1BDA70
S3150200293095F92D30002BB3DB474A03F5C65152F801
S31502002940214024F4803442F8214052F82120BFF37A
S315020029505F8F01215A09424C03F01F03603201FACC
S3150200296003F344F822309BE73B4A03F5C65152F87B
S31502002970214024F4803442F8214052F82120BFF34A
S315020029805F8F01215A09364C03F01F03603201FAA8
S3150200299003F344F82230CBE72F4A03F5C65152F827
S315020029A0214024F4803442F8214052F82120BFF31A
S315020029B05F8F01215A092A4C03F01F03603201FA84
S315020029C003F344F82230AFE7234A03F5C65152F81F
S315020029D0214024F4803442F8214052F82120BFF3EA
S315020029E05F8F01215A091E4C03F01F03603201FA60
S315020029F003F344F8223093E701F5C65354F82370E3
S31502002A0068F3104744F8237054F82330BFF35F8FFE
S31502002A104C0901F01F010CFA01F304F1600142F8BE
S31502002A20213095F8483070E70B4A03F5C65152F843
S31502002A30214024F4803442F8214052F82120BFF389
S31502002A405F8F01215A09064C03F01F03603201FA17
S31502002A5003F344F822305FE700600040F864002286
S31502002A6000E100E084460020CCE90632CCF81410DE
S31502002A70704700BF0A4B1A68D2030FD4DA6FD20727
S31502002A804EBF01231B6803F001030B708268044BDF
S31502002A904A60D3F8843000208B6070470223F4E743
S31502002AA000803440F8B500240121164D164F2C67DC
S31502002AB003685E6996F91D305A0903F01F0301FA8D
S31502002AC003F3203247F82230BFF34F8FBFF36F8FE5
S31502002AD00E4B96F91D2043F822404FF480332B60AB
S31502002AE04460EFF3108581F31088094B9A6842F42B
S31502002AF080329A609B681E2000F084FB85F3108862
S31502002B002046F8BD0080344000E100E0F86400226F
S31502002B1000302040174AD36FDB0727D41368DB0344
S31502002B2024D41368DB0723D410B403685C6981607C
S31502002B302378022B08D14B1EC1680B4423F01F03D6
S31502002B4043F00103D36581680A4BD963227822B91F
S31502002B50D0E9022102EB51021A6400220121054B3F
S31502002B6010465A6719605DF8044B70470820704793
S31502002B701E207047008034402DE9F04F01600B7A29
S31502002B804F884C6903FB07F794F80380B1F8069067
S31502002B90B8F1000F08F10108B7FBF8F814BF4FF0BF
S31502002BA0010B4FF0020B0D4621780646CA46B8FBCA
S31502002BB0FBF283B051B9216988B2002840F0D18076
S31502002BC0B1F5803FCA4628BFB4F816A0EB68019259
S31502002BD073612378022B14BF07FB0AF3A368F36021
S31502002BE0EFF310830121009381F310886348836811
S31502002BF023F48033836080681E2000F003FB009B71
S31502002C0083F310885E49019ACB6FDB07FCD45C4BD9
S31502002C101868C0F30041C003FAD4C2F30B02019252
S31502002C202269C8F30C0000901A639961627B12054F
S31502002C3002F440125A6094F804E094F8058094F87D
S31502002C4006C00EF0010208F00108207848EA026880
S31502002C50CEF340024FEA4C0C48EA8262CEF3800E73
S31502002C600CF0020C000142EACE6200F0300042EAA9
S31502002C700C0202436078000200F440700243E078DE
S31502002C80000300F4805002439A60B5F806C06888D3
S31502002C903C4AC0F30D0002EA0C420243DA6028887D
S31502002CA0394A0BFB00F0AD88C0F30C0002EA054579
S31502002CB028431861019D009802EA094902EA0A427C
S31502002CC02A4349EA00005861D9655A6322787B088B
S31502002CD0002A08BF1F462A482C4D87630166A27840
S31502002CE0237B120102F0100203F00703134343662B
S31502002CF03368C6E901515B699A69326193F91D200D
S31502002D001B7F002A31DB1B0102F16041DBB201F5B8
S31502002D10614181F800331E491E4B41F8226002F5DB
S31502002D20C65153F8210020F4803043F8210053F8AD
S31502002D302130BFF35F8F012153099B0002F01F026E
S31502002D4003F1604303F5614301FA02F2C3F88021FD
S31502002D501A6000200A4B586732691A6703B0BDE849
S31502002D60F08FA28A02FB03F72AE70B4902F00F0053
S31502002D701B01DBB201440B76CDE700BF00302040D9
S31502002D80008034400000FF3F0000FF0F55454352CC
S31502002D90F864002200600040FCEC00E0F0B5234B32
S31502002DA08BB05D6FEA435A67EFF30383103B204A09
S31502002DB05BB203F5C65152F8210020F4803042F886
S31502002DC0210052F821201B4A52F8234063694BB373
S31502002DD00021226902912A40E0690092A769A2684D
S31502002DE00191CDE90320FFB1BC463E46BCE80F0087
S31502002DF0EE4605AD0FC5DCF800302B60BEE80F00CD
S31502002E000FC6DEF80030CCF80030636938469847C2
S31502002E10A4693CB10DF1140CBCE80F000FC4DCF838
S31502002E20005025600BB0F0BD6F46EFE700803440DE
S31502002E3000600040F86400221D4A92F82630928C07
S31502002E40DBB202F00F02A2F1080103292BD8DFE858
S31502002E5001F020160C021749174A51F82330A2FB3B
S31502002E6003231B09154A136070471249124A51F887
S31502002E702330A2FB0323114ADB08136070470D4976
S31502002E800D4A51F82330A2FB03230C4A9B08136018
S31502002E9070470849084A51F82330A2FB0323074A20
S31502002EA05B0813607047034951F82330D340D9E7D2
S31502002EB000E0014080620022ABAAAAAA8065002235
S31502002EC0704700BF000000004AF203529FED844B98
S31502002ED09FED855B38B58A488A4B8B498B4CC3E993
S31502002EE008018B499FED826B9FED837B9962A4F863
S31502002EF0FA23A3EC045F83ED007FFFF79DFF09230E
S31502002F000A2284F8502A84F8A23094F8003C23B9A5
S31502002F1094F8013C980700F0DC807C4C94F8003C65
S31502002F20002B00F0CB800022784B83F8012C83F82B
S31502002F30002C0023754A82F8323092F83C30190789
S31502002F40FBD540F2234400204FF6021140F651030E
S31502002F50704DC2F8C850A2F84E4082F84A00C2F834
S31502002F60AC10A2F84C30BFF34F8FBFF36F8F6A4B92
S31502002F70596921F400315961C3F85002BFF34F8FEA
S31502002F80BFF36F8F65490B6823F440530B60BFF3A1
S31502002F904F8FBFF36F8F0120137D01F1C04160F3A4
S31502002FA0020313750B7DDA06FCD45C4A136843F4FC
S31502002FB040531360BFF34F8FBFF36F8FA2F5734277
S31502002FC0536913F4003311D1BFF34F8FBFF36F8FE1
S31502002FD0C2F85032BFF34F8FBFF36F8F536943F47A
S31502002FE000335361BFF34F8FBFF36F8F0023474AFE
S31502002FF082F82A3092F83C309B06FBD50022484BD9
S315020030001A701A781A781A785A68FA2A04D0454930
S3150200301059605A68FA2AFBD1414B9A687D2A04D034
S31502003020414999609A687D2AFBD1052242F2201114
S31502003030364B3E481862998483F82620FFF7FCFE39
S3150200304001211E2000F0DEF8354A5368C3F3090356
S31502003050642B84BF01231370FFF7EEFE4AF201527E
S31502003060334B1A80BFF35F8F01211972BFF35F8F53
S315020030704FF42540254A188082F8531092F85530AD
S3150200308043F0400382F8553092F85530DB09FBD005
S31502003090CA23022082F8540082F8553092F855303D
S315020030A01A4903F0BF0382F8553091F85530DB090F
S315020030B0FBD14FF42543A1F8FA3338BD0121C820CC
S315020030C084F8001C00F09EF894F8003C012BFBD11A
S315020030D029E74FF47A70FFF7F3FE2AE7AFF3008091
S315020030E0006CDC0200127A000080000000366E01DD
S315020030F00080000000CA9A3B0046C3235543DE13F4
S315020031008ED73E0D806200220008AF2F00E00140FC
S3150200311000389C1C022B010000ED00E000E001E0FB
S3150200312000C01340FA00001E7D0000E13234233253
S3150200313000200040014B53F82000704780620022B5
S3150200314038B50025284C0121C82084F8285000F003
S3150200315059F884F8245094F82430002BFBD194F8C3
S315020031602430214943F0020384F8243091F82430B4
S31502003170C3F340009B07F9D41B4A81F8220092F858
S31502003180223003F0FF00002BF9D192F840301649A5
S3150200319060F3C71382F8403091F84030DB09FBD167
S315020031A091F84200104A63F3C71081F8420092F880
S315020031B04230DB09FBD192F844000B4963F3C71096
S315020031C082F8440091F84430C3F3C014DB09F9D104
S315020031D0012000F0C3F8054B012083F84C4CBDE8F2
S315020031E0384000F08BB800BF0020204000E00140CC
S315020031F0704700BF00BEFEE7A0F101000028FBD128
S31502003200704700BF1E4B1F4A1B6800FB01F1934229
S3150200321013D302F1854202F5071203F5742302F66F
S31502003220834203F23F23A2FB03239B0CA3FB013140
S315020032304FF0FF30E1B1FFF7DFBF4FF47A7210B4FF
S31502003240114C4FF0FF30B4FBF3F3A1FB02C434B9C7
S31502003250BCFBF3F080B15DF8044BFFF7CDBFB1FBC9
S31502003260F3F1A1FB0212002AF5D1084620B1F2E7DA
S315020032701846002BDFD170475DF8044B704700BF3C
S315020032808065002200127A0000CA9A3BF8B5002433
S3150200329001260D4B0D4FD3F80021D3F820511540CE
S315020032A006FA04F32B4204D057F82430E0B203B1F5
S315020032B098470134152CF3D1034AC2F81051D2F8BB
S315020032C020312B42FBD1F8BD00C00040A064002291
S315020032D000221E2310B40748074C30F8021F02F5DD
S315020032E0C65C013209B144F82C10013BF5D15DF8F8
S315020032F0044B704736C0000200600040EFF31081B5
S31502003300012383F31088124B33F8102092B22AB1AC
S3150200331033F81020013A92B223F8102033F8103015
S315020033209BB293B910B40B4A0B4CB2F8FA3334F889
S3150200333010009BB243F4254323EA0003A2F8FA33B2
S3150200334081F310885DF8044B704781F3108870474B
S315020033507065002200E0014074C3000230B4EFF34E
S315020033601081012383F310880E4A32F810309BB283
S315020033706BB90D4C0D4DB4F8FA3335F810C09BB24B
S3150200338043EA0C0343F425439BB2A4F8FA3332F81A
S31502003390103001339BB222F8103081F3108830BC12
S315020033A0704700BF7065002200E0014074C300024E
S315020033B008B509490A688318B3F5005F03D80748B8
S315020033C00B60104408BD05F0D5FB0C2203461A60BB
S315020033D04FF0FF3008BD00BF7C650022800200224C
S315020033E0F8B50646304C94F8503C03F0FF05002B26
S315020033F0F9D187221023A4F8242C84F8003C002E4D
S315020034003FD101220023284981F8022C81F8013C90
S3150200341091F8503C002BFBD1D6B14FF40C73224AE3
S31502003420A1F8483C92F8503CD807C3F30001F9D4FE
S3150200343047F20804012011231C4DC2F8445C82F8AD
S31502003440401CA2F8144C82F8160C82F8003CF8BD17
S3150200345047F208000123154C134AC1F8444C81F87F
S31502003460406CA1F8140C81F8163C92F8003CDB077C
S31502003470FBD492F8503C002BF7D1012382F8103C82
S31502003480F8BD01272846FFF769FF094B284683F84E
S315020034905370FFF733FF044A84F8207C92F8503CBD
S315020034A01C07FBD4ADE700BF003000400325050032
S315020034B000E0014000BE704708B500F035F8FDF7A0
S315020034C0DDF9FEE7F8B5174F05463E68A6B17C68FA
S315020034D006EB460604EB860602E00C34B4420BD039
S315020034E0637AAB42F9D1D4E900020021121A0C34F4
S315020034F005F0D8FAB442F3D1BE6896B1FC6804EB83
S31502003500061602E01034A6420BD0637BAB42F9D119
S31502003510D4E90002A168121A103405F042FBA64251
S31502003520F3D1F8BD44C10002F8B5844A844B5A610E
S31502003530BFF34F8FBFF36F8F1B6803F47002B2F5B0
S31502003540801F00F0D48013F4600F00F0BC807D4A27
S31502003550136823F004031360BFF34F8FBFF36F8F1B
S315020035604FF47002784B764C0020C4F88820A36092
S31502003570FDF772F90025FFF7A7FC4AF202514FF454
S315020035802542724B0120A3F8FA1383F8B05AA3F826
S31502003590FA23FDF761F96E4B83F30A88694B1A68C1
S315020035A0910704D5A268B2F1007F00F0A480002042
S315020035B0FFF788FFFFF740FCFFF7C2FD0320FFF786
S315020035C0CDFE00234FF00E0E1C464EF001E061497F
S315020035D003F10C0221F8224001330FF007C8032041
S315020035E0FFF78CFE0320FFF7B9FE5B4B03205C60FE
S315020035F09C60DC601C61554CFFF780FED4F8D83322
S315020036009A0747D5D4F8D833504CD4F8D8335B0749
S3150200361027D5D4F8D8330220FDF71EF90120FFF78B
S3150200362051FFBFF34F8FBFF36F8F0024444BC3F894
S315020036305042BFF34F8FBFF36F8F484B484D5B1B12
S31502003640A3424FEAA30605DD55F8043B0134984729
S31502003650A642F9DCFFF73CFEBDE8F8400020FFF782
S31502003660C7BD94F81431002BD5D00120FFF776FEA2
S3150200367094F8143103F0C003802BF9D10023334AA6
S3150200368084F8143192F814313F2BFBD80120FFF74E
S3150200369035FEC0E794F81031002BB5D00120FFF7B4
S315020036A05DFE94F8103103F0C003802BF9D100239C
S315020036B0264A84F8103192F810313F2BFBD80120AC
S315020036C0FFF71CFEA0E71F4A136843F004031360CA
S315020036D0BFF34F8FBFF36F8F4FF0E022936843F42F
S315020036E080339360BFF34F8FBFF36F8F38E71807AE
S315020036F07FF42DAF27E701211A695869C2F3C30285
S31502003700093201FA02F300260027DB0843F005C05E
S31502003710E5E802670FF005C0C0F3C303093301FAF7
S3150200372003F34FF00052DB0843F007C0AFF300800B
S31502003730E2E802670FF005C039E700BF01020E009A
S3150200374000ED00E000E001E00000000200E00140C0
S3150200375080220022000D404000402040FCE2000290
S31502003760F8E200024FF0000CF0B5234F234BFA7833
S315020037701E6883B09D688DF80720214C01223046D1
S31502003780AB680DF1070184F800C098472378002B37
S31502003790FCD04FF0000C7B8801228DF807303046B2
S315020037A0AB680DF1070184F800C098472378002B17
S315020037B0FCD04FF0000C3B6801221B0A8DF8073043
S315020037C03046AB680DF1070184F800C098472378AC
S315020037D0002BFCD04FF0000C3B6830468DF80730CA
S315020037E00122AB680DF1070184F800C098472378DF
S315020037F0002BFCD003B0F0BD18000022ECBB000287
S3150200380099650022184A1378B3FA83F35B09137099
S315020038100379022B1BD0042B02D0012B1BD070473D
S31502003820124AB2F90010138800290FDBB3F5C87FDC
S31502003830816813D230B464240D4D0E4803F1010C95
S31502003840A2F800C0E954046030BC704770470122F8
S31502003850094B1A707047094A137070476FEA43435F
S315020038606FEA5343138070479A65002298670022D5
S315020038700866002294650022996500229865002256
S31502003880084B1A6862B11A68013A1A601B683BB99A
S31502003890054A138823B16FEA43436FEA5343138001
S315020038A0704700BF946500229867002270B54FF0FA
S315020038B0EF0E4FF0000C4C4B82B01E689D684B4CCD
S315020038C08DF800E0012269463046AB6884F800C0F4
S315020038D098472378002BFCD0012200238DF8002084
S315020038E0237069463046AB6898472378002BFCD094
S315020038F0FFF738FF012200238DF800202370694666
S315020039003046AB6898472378002BFCD000238DF80D
S3150200391000302370012269463046AB689847237807
S31502003920002BFCD04FF0030C00238DF800C023704F
S31502003930012269463046AB6898472378002BFCD0B3
S31502003940012200238DF80020237069463046AB68B9
S3150200395098472378002BFCD000238DF80030237083
S31502003960012269463046AB6898472378002BFCD083
S315020039704FF0050C00238DF800C02370304601225B
S315020039806946AB6898472378002BFCD040F2EF10CB
S315020039904FF007010022164B164D1B6840F2CF74FA
S315020039A01BBA154ECDF80230ADF80000ADF8061080
S315020039B02A8002E0013CA4B29CB14FF47A71012044
S315020039C0FFF720FCB5F90030002BF3DA0023694635
S315020039D030462B8005F06EF80028EBD0407A02B014
S315020039E070BDFF2002B070BDECBB000299650022DB
S315020039F01800002298670022086600222DE9F0418D
S31502003A004FF0EF0E4FF0000C554B82B01E689D68CA
S31502003A10544C8DF800E00746012269463046AB68F1
S31502003A2084F800C098472378002BFCD0012200239B
S31502003A308DF80020237069463046AB689847237894
S31502003A40002BFCD0FFF78EFE012200238DF800200A
S31502003A50237069463046AB6898472378002BFCD022
S31502003A6000238DF800302370012269463046AB6888
S31502003A7098472378002BFCD0042300228DF80030CF
S31502003A802270694601223046AB6898472378002B9C
S31502003A90FCD0022300228DF80030227069460122F2
S31502003AA03046AB6898472378002BFCD04FF0000CC9
S31502003AB08DF80070012269463046AB6884F800C072
S31502003AC098472378002BFCD007F1070847463F0AA0
S31502003AD08DF800700027012269463046AB682770D0
S31502003AE098472378002BFCD000278DF800803046BB
S31502003AF001226946AB68277098472378002BFCD0D1
S31502003B0040F2EF104FF007010022174B174D1B68CA
S31502003B1040F2CF741BBA164ECDF80230ADF8000053
S31502003B20ADF806102A8002E0013CA4B2A4B14FF41B
S31502003B307A710120FFF766FBB5F90030002BF3DA44
S31502003B400023694630462B8004F0B4FF0028EBD0F0
S31502003B50407A02B0BDE8F081FF2002B0BDE8F081F4
S31502003B60ECBB000299650022180000229867002229
S31502003B700866002270B54FF0EF0E4FF0000C4D4B69
S31502003B8082B01E689D684C4C8DF800E001226946A1
S31502003B903046AB6884F800C098472378002BFCD0E7
S31502003BA0012200238DF80020237069463046AB6857
S31502003BB098472378002BFCD0FFF7D4FD012200237F
S31502003BC08DF80020237069463046AB689847237803
S31502003BD0002BFCD000238DF80030237001226946A9
S31502003BE03046AB6898472378002BFCD04FF0030C85
S31502003BF000238DF800C02370012269463046AB6867
S31502003C0098472378002BFCD04FF0030C00238DF845
S31502003C1000C02370012269463046AB689847237874
S31502003C20002BFCD000238DF8003023700122694658
S31502003C303046AB6898472378002BFCD04FF0070C30
S31502003C4000238DF800C02370304601226946AB6816
S31502003C5098472378002BFCD040F2EF104FF0070173
S31502003C600022164B164D1B6840F2CF741BBA154E36
S31502003C70CDF80230ADF80000ADF806102A8002E059
S31502003C80013CA4B29CB14FF47A710120FFF7BAFA53
S31502003C90B5F90030002BF3DA0023694630462B8053
S31502003CA004F008FF0028EBD0407A02B070BDFF2076
S31502003CB002B070BDECBB000299650022180000221A
S31502003CC0986700220866002270B54FF0EF0E4FF09B
S31502003CD0000C4D4B82B01E689D684C4C8DF800E07E
S31502003CE0012269463046AB6884F800C098472378BB
S31502003CF0002BFCD0012200238DF800202370694698
S31502003D003046AB6898472378002BFCD0FFF72AFD94
S31502003D10012200238DF80020237069463046AB68E5
S31502003D2098472378002BFCD000238DF800302370AF
S31502003D30012269463046AB6898472378002BFCD0AF
S31502003D404FF0030C00238DF800C023700122694650
S31502003D503046AB6898472378002BFCD04FF0050C11
S31502003D6000238DF800C02370012269463046AB68F5
S31502003D7098472378002BFCD000238DF8003023705F
S31502003D80012269463046AB6898472378002BFCD05F
S31502003D904FF0090C00238DF800C023703046012233
S31502003DA06946AB6898472378002BFCD040F2EF10A7
S31502003DB04FF007010022164B164D1B6840F2CF74D6
S31502003DC01BBA154ECDF80230ADF80000ADF806105C
S31502003DD02A8002E0013CA4B29CB14FF47A71012020
S31502003DE0FFF710FAB5F90030002BF3DA0023694623
S31502003DF030462B8004F05EFE0028EBD0407A02B0FB
S31502003E0070BDFF2002B070BDECBB000299650022B6
S31502003E101800002298670022086600222DE9F04366
S31502003E204FF0EF0884464FF0000E634B83B01E68D6
S31502003E309D688DF80080614C0F4601226946304626
S31502003E40AB68E04684F800E098472378002BFCD064
S31502003E50012200238DF80020237069463046AB68A4
S31502003E6098472378002BFCD0FFF77CFC0122002325
S31502003E708DF80020237069463046AB689847237850
S31502003E80002BFCD000238DF80030237001226946F6
S31502003E903046AB6898472378002BFCD006238DF872
S31502003EA0003000230122237069463046AB689847EA
S31502003EB02378002BFCD006238DF800300023012244
S31502003EC0237069463046AB6898472378002BFCD0AE
S31502003ED000238DF800802370012269463046AB68C4
S31502003EE098472378002BFCD000234FEA17298DF838
S31502003EF000902370012269463046AB6898472378C2
S31502003F00002BFCD000238DF8007023700122694635
S31502003F103046AB6898472378002BFCD059FA87F7CE
S31502003F200D37B84400274FEA18238DF800300122D6
S31502003F3069463046AB68277098472378002BFCD039
S31502003F4000278DF80080304601226946AB6827704B
S31502003F5098472378002BFCD040F2EF104FF0070170
S31502003F600022174B174D1B6840F2CF741BBA164E30
S31502003F70CDF80230ADF80000ADF806102A8002E056
S31502003F80013CA4B2A4B14FF47A710120FFF73AF9C9
S31502003F90B5F90030002BF3DA0023694630462B8050
S31502003FA004F088FD0028EBD0407A03B0BDE8F08328
S31502003FB0FF2003B0BDE8F083ECBB00029965002246
S31502003FC01800002298670022086600222DE9F047B1
S31502003FD04FF0EF0884464FF0000E6B4B82B01E681E
S31502003FE09D688DF80080694C0F460122694630466D
S31502003FF0AB68E04684F800E098472378002BFCD0B3
S31502004000012200238DF80020237069463046AB68F2
S3150200401098472378002BFCD0FFF7A4FB012200234C
S315020040208DF80020237069463046AB68984723789E
S31502004030002BFCD000238DF8003023700122694644
S315020040403046AB6898472378002BFCD007238DF8BF
S31502004050003000230122237069463046AB68984738
S315020040602378002BFCD00C238DF80030002301228C
S31502004070237069463046AB6898472378002BFCD0FC
S3150200408000234FEA182A8DF800A023700122694600
S315020040903046AB6898472378002BFCD000238DF876
S315020040A000802370012269463046AB689847237820
S315020040B0002BFCD000234FEA17298DF800902370BD
S315020040C0012269463046AB6898472378002BFCD01C
S315020040D000238DF800702370012269463046AB68D2
S315020040E098472378002BFCD059FA87F71437BA443D
S315020040F000275AFA88F84FEA18238DF80030012271
S3150200410069463046AB68277098472378002BFCD067
S3150200411000278DF80080304601226946AB68277079
S3150200412098472378002BFCD040F2EF104FF007019E
S315020041300022174B174D1B6840F2CF741BBA164E5E
S31502004140CDF80230ADF80000ADF806102A8002E084
S31502004150013CA4B2A4B14FF47A710120FFF752F8E0
S31502004160B5F90030002BF3DA0023694630462B807E
S3150200417004F0A0FC0028EBD0407A02B0BDE8F0873C
S31502004180FF2002B0BDE8F087ECBB00029965002271
S3150200419018000022986700220866002270B54FF0C8
S315020041A0EF0E4FF0000C4D4B82B01E689D684C4CD2
S315020041B08DF800E0012269463046AB6884F800C0FB
S315020041C098472378002BFCD0012200238DF800208B
S315020041D0237069463046AB6898472378002BFCD09B
S315020041E0FFF7C0FA012200238DF8002023706946EA
S315020041F03046AB6898472378002BFCD000238DF815
S3150200420000302370012269463046AB68984723780E
S31502004210002BFCD04FF0030C00238DF800C0237056
S31502004220012269463046AB6898472378002BFCD0BA
S315020042304FF00D0C00238DF800C023700122694651
S315020042403046AB6898472378002BFCD000238DF8C4
S3150200425000302370012269463046AB6898472378BE
S31502004260002BFCD04FF0110C00238DF800C02370F8
S31502004270304601226946AB6898472378002BFCD06A
S3150200428040F2EF104FF007010022164B164D1B6845
S3150200429040F2CF741BBA154ECDF80230ADF80000CD
S315020042A0ADF806102A8002E0013CA4B29CB14FF49C
S315020042B07A710120FEF7A6FFB5F90030002BF3DA7A
S315020042C00023694630462B8004F0F4FB0028EBD02D
S315020042D0407A02B070BDFF2002B070BDECBB000296
S315020042E099650022180000229867002208660022BB
S315020042F0F0B54FF0EF0E4FF0000C544B83B01F6831
S315020043009D68534C8DF800E0064601226946384600
S31502004310AB6884F800C098472378002BFCD00122B2
S3150200432000238DF80020237069463846AB6898470B
S315020043302378002BFCD0FFF715FA012200238DF813
S315020043400020237069463846AB6898472378002BCD
S31502004350FCD000238DF800302370012269463846CE
S31502004360AB6898472378002BFCD0032300228DF8F4
S3150200437000302270694601223846AB689847237896
S31502004380002BFCD00F2300228DF8003022706946E4
S3150200439001223846AB6898472378002BFCD00023CD
S315020043A08DF800302370012269463846AB6898477B
S315020043B02378002BFCD0132300228DF800302270C4
S315020043C0384601226946AB6898472378002BFCD011
S315020043D040F2EF114FF0070200201E4B1E4D1B68E4
S315020043E040F2E7341BBA1D4FCDF802302880ADF8F3
S315020043F00010ADF8062002E0013CA4B20CB34FF463
S315020044007A710120FEF7FEFEB5F90030002BF3DAD1
S315020044100023694638462B8004F04CFB0028EBD07B
S31502004420C389427A5BBA3380437CB370D0F81230C8
S315020044301BBA7360C37D3372437E1046737203B038
S31502004440F0BDFF22104603B0F0BD00BFECBB000278
S315020044509965002218000022986700220866002249
S315020044602DE9F04FEF25002685B0764C0193764B69
S315020044708DF8085026709D681E6883468846174642
S3150200448030460122AB6802A998472378002BFCD05C
S31502004490012200238DF8082023703046AB6802A95A
S315020044A098472378002BFCD0FFF75CF90122002302
S315020044B08DF8082023703046AB6802A99847237806
S315020044C0002BFCD000238DF80830237001223046E1
S315020044D0AB6802A998472378002BFCD008238DF8F5
S315020044E008300023012223703046AB6802A99847A0
S315020044F02378002BFCD01B238DF8083000230122E1
S3150200450023703046AB6802A998472378002BFCD06B
S3150200451000238DF808B0237001223046AB6802A949
S3150200452098472378002BFCD000234FEA182A8DF8EF
S3150200453008A0237001223046AB6802A99847237867
S31502004540002BFCD000238DF8088023700122304610
S31502004550AB6802A998472378002BFCD000234FEAC8
S3150200456017298DF80890237001223046AB6802A9FC
S3150200457098472378002BFCD000238DF8087023700F
S3150200458001223046AB6802A998472378002BFCD05B
S31502004590002359FA87F72437BA445AFA88F8C344EB
S315020045A023704FEA1B238DF8083001223046AB6890
S315020045B002A998472378002BFCD000278DF808B073
S315020045C030460122AB6802A9277098472378002B50
S315020045D0FCD040F2EF114FF0070200201B4B1C4D9E
S315020045E01B6840F2CF741BBA1A4ECDF80A302880E7
S315020045F0ADF80810ADF80E2002E0013CA4B2E4B119
S315020046004FF47A710120FEF7FDFDB5F90030002B5B
S31502004610F3DA0023304602A92B8004F04BFA002875
S31502004620EBD043890199427A5BBA0B8083891046A3
S315020046305BBA4B8005B0BDE8F08FFF22104605B08D
S31502004640BDE8F08F99650022ECBB0002180000223B
S315020046509867002208660022F0B54FF0EF0E4FF081
S31502004660000C4D4B83B01F689D684C4C8DF800E0E2
S315020046700646012269463846AB6884F800C0984768
S315020046802378002BFCD0012200238DF80020237012
S3150200469069463846AB6898472378002BFCD0FFF76B
S315020046A061F8012200238DF80020237069463846FE
S315020046B0AB6898472378002BFCD000238DF8003096
S315020046C02370012269463846AB6898472378002B47
S315020046D0FCD0032300228DF80030227069460122A5
S315020046E03846AB6898472378002BFCD01D2300225E
S315020046F08DF800302270694601223846AB68984729
S315020047002378002BFCD000238DF800302370012281
S3150200471069463846AB6898472378002BFCD021239C
S3150200472000228DF800302270384601226946AB68B5
S3150200473098472378002BFCD040F2EF114FF0070286
S315020047400020174B174D1B68C7241BBA164FCDF80E
S3150200475002302880ADF80010ADF8062002E0013CD8
S31502004760A4B2B4B14FF47A710120FEF74BFDB5F94C
S315020047700030002BF3DA0023694638462B8004F01A
S3150200478099F90028EBD04389407A5BBA338003B0AB
S31502004790F0BDFF2003B0F0BDECBB0002996500221C
S315020047A018000022986700220866002210B5FFF75B
S315020047B07DF808B1002010BD0120FFF71FF900287F
S315020047C0F8D1124BD3F81C329B07F3D5FFF76EF8DC
S315020047D00028EFD10220FFF711F90028EAD1FFF7EE
S315020047E0C9F90028E6D1FFF76FFA0028E2D1084C92
S315020047F02046FFF731FF21880220013189B2FFF7F7
S315020048000DFBB0FA80F0400910BD00BF0008404021
S315020048108665002270B50524284D294ED5F81C322E
S315020048209A0711D4304603F0E7FF4FF47A714FF43A
S31502004830FA70FEF7E7FC631E13F0FF04EED1BDE843
S315020048407040204803F0D8BF1F4C204D0FCD0FC437
S3150200485095E8030044F8040B204620F8141902F0E8
S315020048606DFE1B4803F0C8FF1A4803F0C5FF0A2471
S31502004870124DD5F81C329B0704D5FFF797FF012886
S3150200488018D098B14FF47A714FF49670FEF7BAFCCD
S31502004890631E13F0FF04ECD10F4803F0ADFFBDE831
S315020048A070404FF47A710846FEF7ACBC0B4803F031
S315020048B0A3FFF1E70A4803F09FFFF0E70008404034
S315020048C03CB40002E0B40002A06500221CB500025E
S315020048D034B5000260B50002B4B4000284B400022A
S315020048E054B40002F0B54FF0EF0E4FF0000C354B0A
S315020048F083B01F689D68344C8DF807E00646012296
S315020049003846AB680DF1070184F800C09847237852
S31502004910002BFCD0012200238DF807202370384695
S31502004920AB680DF1070198472378002BFCD0FEF700
S3150200493019FF012200238DF8072023703846AB6841
S315020049400DF1070198472378002BFCD000238DF840
S315020049500730237001223846AB680DF107019847EC
S315020049602378002BFCD000238DF80730384601222D
S31502004970AD680DF107012370A8472378002BFCD000
S315020049804FF47A71C820FEF73DFC104BB3F90020B4
S31502004990002A02DB012003B0F0BD0D4A1178EF298F
S315020049A002D000221A80F5E751780129F9D19179CE
S315020049B00729F6D10021D2F80220084612BA32603F
S315020049C01980E8E7ECBB000299650022986700228D
S315020049D00866002270B501241F4D204E82B004E005
S315020049E04FF47A710846FEF70DFC2846FFF77AFF68
S315020049F060B121463046013403F096FE0C2CEFD10D
S31502004A00174802B0BDE8704003F0F6BE154C29689F
S31502004A10154803F089FE2046FFF71EFE8DF80700B3
S31502004A209DF807306BB92188104803F07DFE1048C7
S31502004A30FFF75EFC8DF807009DF807302BB902B030
S31502004A4070BD0C4803F0D8FEF1E70B4802B0BDE892
S31502004A50704003F0D1BE00BF1800002288B50002E4
S31502004A60A8B5000286650022C4B5000208B6000297
S31502004A7088650022E4B5000220B6000208B5084B9C
S31502004A80D3E9011218681268904700B108BD4FF4C5
S31502004A907A716420FEF7B6FBBDE80840FFF79ABFBD
S31502004AA0ECBB000270B5244C244ED4F81C220546F9
S31502004AB09007337882B010D533B1D4F81C22012B7B
S31502004AC01DD0032002B070BD4FF47A710A20FEF7A2
S31502004AD099FBD4F81C329A07F3D5174A3378D2F8E1
S31502004AE01C229107EBD5002BE9D1FEF7DFFE18B9A0
S31502004AF00220FEF783FF70B1022002B070BD0E4B9A
S31502004B00D3F81C32C3F340029B0701D43270D8E7B4
S31502004B10002002B070BD0A4B01461A88022001AB82
S31502004B20FFF79EFC0028E7D115B1BDF804302B80B3
S31502004B30012318463370C5E7000840408465002209
S31502004B4088650022002310B582B00DF10600ADF88B
S31502004B500630FFF7A7FF012812D0022807D04FF42C
S31502004B607A710A2002B0BDE81040FEF74BBB0B4833
S31502004B7003F042FE4FF47A710846FEF743FBEEE776
S31502004B80BDF806400648214603F0CEFD631E022B01
S31502004B90E5D92146034803F0C7FDE0E770B60002F7
S31502004BA038B6000260B6000208B54FF6FF739842A7
S31502004BB006D00121FFF70AFAB0FA80F0400908BDD3
S31502004BC0FFF7ECFAB0FA80F0400908BD10B5034CC5
S31502004BD02046FFF741FD207810BD00BF8665002202
S31502004BE00379022B0BD0032B02D0012B0ED0704778
S31502004BF0012000220B490C4B08701A6070470120F5
S31502004C0000220A49084B08701A607047122110B434
S31502004C100648044C044A2370037011605DF8044B85
S31502004C20704700BFA56700229C670022A467002286
S31502004C30024A136801331360704700BFA06700225F
S31502004C40014B1868704700BFA067002200232DE9B8
S31502004C50F04F16461D4A83B0D2F808A012681C4CC3
S31502004C601C4FDFF874B00192256889463B70804676
S31502004C70CBF80030012224210198DAF81030984747
S31502004C8038B9034641464A460198DAF80880C047D1
S31502004C9088B1002003B0BDE8F08F23689D422368E7
S31502004CA088BF03F1FF335B1BB342F2D84FF47A712C
S31502004CB00120FEF7A7FA3B78002BEED0DBF80000C6
S31502004CC0B0FA80F0400903B0BDE8F08F70BB000275
S31502004CD0A0670022A56700229C67002200232DE917
S31502004CE0F04F1646204A83B0D2F808A012681F4C2D
S31502004CF01F4FDFF880B00192256889463B708046D7
S31502004D00CBF80030012224210198DAF810309847B6
S31502004D1038B9034641464A460198DAF80480C04744
S31502004D2088B1002003B0BDE8F08F23689D42236856
S31502004D3088BF03F1FF335B1BB342F2D84FF47A719B
S31502004D400120FEF75FFA3B78002BEED0DBF800304D
S31502004D50002BE6D14FF47A710220FEF753FA0120B6
S31502004D6003B0BDE8F08F00BF70BB0002A06700224F
S31502004D70A46700229C67002208B50B4BD3E90112F7
S31502004D8018681268904718B1084803F035FDFEE727
S31502004D904FF4FA704FF47A71FEF734FABDE8084020
S31502004DA0034803F029BD00BF70BB000294B600029F
S31502004DB0B0B600022DE9F04F9E4D89B0A9880029B0
S31502004DC07FD000272A889C4EDFF8B482002003E0B9
S31502004DD0013900F101006AD084B2A318C3F30803B3
S31502004DE02B449B790A2BF3D1030460D4002C50D0B8
S31502004DF0611E89B28B18C3F308032B449B79A44620
S31502004E000D2B02D1A31E8C4699B2C62941D84FF06A
S31502004E10010E0CF1FF339BB27344BCF1000F18BFB5
S31502004E209E4600214EF001E083485318C3F308035F
S31502004E302B449B79013100F8013B0FF00BC096F928
S31502004E40003006F80C7023B33146404603F06CFC82
S31502004E5046F2407332889A4242D046F6400332887E
S31502004E609A4249D03388B3F5455F2DD03388B3F5DE
S31502004E70495F4DD0714B32689A4200F08F804FF0F5
S31502004E80000996F90030CDE90599402BCDF81C9022
S31502004E904BD0A9880134A4B28C420FD22B88091BAD
S31502004EA01C44C4F3080289B2A9802A808EE7A98825
S31502004EB0B1F5E17F05D9624803F036FC00232B6089
S31502004EC0AB8009B0BDE8F08FB378002BCED10522B6
S31502004ED05C495D480B705D4B1A7003F08DFCD8E798
S31502004EE0B378002BB9D10123594A5A481370574A4D
S31502004EF0137003F081FCCCE7B378002BB2D1022207
S31502004F00534955480B70514B1A7003F075FCC0E7B4
S31502004F10B378002BAED101224A4B50481A700422B4
S31502004F204A4B1A7003F068FCB3E707AB00934C498F
S31502004F30414806AB05AA03F087FC0328A9D10599C7
S31502004F401729A6D8069A3B2AA3D8079B3B2BA0D89B
S31502004F50DFF8F8E0DFF82CB18EF800004148DFF800
S31502004F6028E1A0F8009040485FFA81F980F80090A5
S31502004F703E48DFF818A18EF800905FFA82FEDFF84D
S31502004F8010C180F800E0D8B28BF800008AF8000061
S31502004F9037488CF800E003F0C7FB7AE743F645236F
S31502004FA0B2889A427FF46BAF4FF0000C07AB0093C6
S31502004FB03049214806AB05AACDE905CCCDF81CC07F
S31502004FC003F042FC03287FF45AAF0599A1F5FA6370
S31502004FD0642B3FF654AF069A531E0B2B3FF64FAF88
S31502004FE0079B581E1E2803933FF649AF4FF0060E45
S31502004FF01648214BDFF89CB080F800E088B2DFF853
S315020050009890DFF898E01880039BDFF894C0DFF8E9
S3150200501094A0ABF80000D0B289F800008EF8000028
S31502005020D8B28CF800008AF80000144803F07CFB22
S315020050302FE700BF80680022B06700224044415437
S31502005040CCB700027D68002218B700027B680022F6
S315020050507C680022E8B6000200B700023CB70002F4
S3150200506098B70002A86700227A680022AB6700227E
S31502005070A4B7000260B700022200002270B7000245
S31502005080D4B6000278680022AC670022AA67002222
S31502005090796800221E000022210000221D00002243
S315020050A0200000221C0000220022024B18781A70EF
S315020050B0704700BF7B680022394A138801339BB2CE
S315020050C0B3F57A7F01D2138070474FF0010C0020AE
S315020050D070B43449344C0B7810806344DBB23B2BFA
S315020050E00B7084F800C00ED9304A087013786344F6
S315020050F0DBB23B2B09D92E4910700B780133DBB298
S31502005100172B05D80B7070BC7047137070BC7047B4
S31502005110284C294D23782A78087001332748DBB2B8
S31502005120022A0188237019D002F1FF3CBCF10B0F51
S315020051308FBF4FF01E0C224E06EB020C1CF801CC60
S315020051406345E0D901231A44D2B20C2A88BF013141
S31502005150237092BF2A702B700180D4E701EB810283
S3150200516001EBC202A2EB8222C2F30B1040EA02302A
S3150200517080B2A32896B20FD9890706D1920342EAD2
S31502005180960292B2B2F5247F06D21C2BBBD901221B
S31502005190032322702B70B6E71D2BB4D9F7E700BFA5
S315020051A0A8670022AA670022A6670022AB67002230
S315020051B0AC6700221C0000221D0000221E000022F5
S315020051C080C3000208B1132900D8704730B50B4DD1
S315020051D085B02D780A4C0B4903950B4A25780B4B63
S315020051E00C7812781B78CDE901450092084A0949E4
S315020051F0128803F009FB05B030BD00BFAA67002282
S31502005200AB670022AC6700221C0000221D000022B0
S315020052101E000022FCB700020022024B18781A7008
S31502005220704700BFA6670022C0B10379022B16D0D1
S31502005230042B00D070470C4B9A88B2F5007F0DD232
S3150200524010B459888468481CC0F308001944013216
S315020052508C7158809A805DF8044B70477047012222
S31502005260024B1A70704700BF806800222400002299
S315020052702DE9F041204B82B09F68D3F800803A684E
S31502005280404659689047002833D144F21003054638
S315020052900193FB6801A94046984701216323174AF7
S315020052A0174C156025701748174C9580174A184EEB
S315020052B00570157021708DF8043001224046BB68D6
S315020052C001A9257098472378002BFCD016F9013FD7
S315020052D02570002BEFD10A258DF804502370404625
S315020052E00122BB6801A998472378002BFCD0002332
S315020052F0237002B0BDE8F0812CBC00028068002257
S315020053007C6800227D680022240000227B6800223D
S315020053101CB80002F0B5082500260446204F85B0C9
S31502005320002240F202613846FBF7B6FE0196019B67
S31502005330022B06D800BF019B01330193019B022B6E
S31502005340F8D923064CBF0122002240F201613846F9
S31502005350FBF7A2FE0396039B022B06D800BF039B14
S3150200536001330393039B022BF8D9012240F2026117
S315020053703846FBF791FE0296029B6400022BE4B2CA
S3150200538006D800BF029B01330293029B022BF8D977
S31502005390013D15F0FF05C3D1284605B0F0BD00BF9B
S315020053A0D062002238B504460D4D002240F2036158
S315020053B02846FBF771FE012240F205612846FBF7FB
S315020053C06BFE200AFFF7A6FFE0B2FFF7A3FF28460F
S315020053D0BDE83840012240F20361FBF75DBE00BF23
S315020053E0D062002210B5124C012240F2046120461E
S315020053F0FBF752FE4FF47A710A20FDF703FF0022F3
S3150200540040F204612046FBF747FE4FF47A713220E0
S31502005410FDF7F8FE40F2046120460122FBF73CFE4E
S31502005420BDE810404FF47A717820FDF7EBBE00BF5D
S31502005430D062002210B51A4C012240F203612046C6
S31502005440FBF72AFE012240F202612046FBF724FE08
S31502005450012240F201612046FBF71EFE012240F2C4
S3150200546004612046FBF718FE012240F20361204642
S31502005470FBF712FE012240F205612046FBF70CFE05
S31502005480002240F20F712046FBF706FEFFF7AAFF45
S315020054902046BDE81040012240F20F71FBF7FCBD29
S315020054A0D0620022022870B500F0AE80032800F018
S315020054B0B18001284FF0F0014FF000004FF4A072C6
S315020054C00CBF0225FF252B23554CA0715548218080
S315020054D06280A060002240F203615348A381FBF779
S315020054E0DBFD002240F205614F48FBF7D5FD2A207D
S315020054F0FFF710FF012240F203614B48FBF7CCFD98
